:020000040800F2
:10000000A8B6002045010008870B00085509000824
:10001000C50A0008110500086D4600080000000030
:100020000000000000000000000000000D44000877
:10003000F107000800000000E3010008792400082F
:100040005F0100085F0100085F0100085F01000810
:100050005F0100085F0100085F0100085F01000800
:100060005F0100085F0100085F0100085F010008F0
:100070005F0100085F0100085F0100085F010008E0
:100080005F0100085F0100085F0100085F010008D0
:100090005F0100085F0100085F0100085F010008C0
:1000A0005F0100085F0100085F0100085F010008B0
:1000B0005F0100085F0100085F0100085F010008A0
:1000C0005F0100085F0100085F0100085F01000890
:1000D0005F0100085F0100085F0100085F01000880
:1000E0005F0100085F0100085F0100085F01000870
:1000F0005F0100085F0100085F0100085F01000860
:100100005F0100085F0100085F0100085F0100084F
:100110005F0100085F0100085F0100085F0100083F
:100120005F0100085F0100085F0100085F0100082F
:10013000DFF80CD000F032F800480047E546000830
:10014000A8B600200648804706480047FEE7FEE7BD
:10015000FEE7FEE7FEE7FEE7FEE7FEE7FEE7FEE777
:10016000F94400083101000872B6704762B6704762
:10017000EFF3108072B6704780F31088704730BF7D
:10018000704720BF7047B0FA80F0704790FAA0F037
:10019000B0FA80F0704790FAA0F07047064C074D17
:1001A00006E0E06840F0010394E807009847103447
:1001B000AC42F6D3FFF7C0FF584900087849000861
:1001C00018484FF0FF010170002080F3098816489D
:1001D000016881F3088815484FF08051016062B6CC
:1001E000FEE772B6EFF3098028B1203880E8F00FFF
:1001F0000F490968086000B50E4880475DF804EBB8
:100200000D480E490A78027009480D490A680260D3
:10021000106890E8F00F203080F309884EF0040E4B
:1002200062B6704722ED00E04400002004ED00E0DB
:1002300000010020ED2000088E0000208F0000202B
:100240000401002008B50749074800F0B1FB074941
:10025000074800F0ADFB6B46002206A1084800F0FD
:10026000A5FC08BD21090008140000203909000878
:100270001C000020464C4147204B4559000000001F
:100280002C2400200EB50DE002A800214FF482734B
:100290000A46CDE900100321034800F0CBFC03A07F
:1002A00004F0E6F9F0E700002C240020BDD3CADCFE
:1002B000B5BDB0B4BCFC4B657931BACDB0B4BCFCB3
:1002C0004B657932B6BCB1BBB0B4CFC2B9FDB5C4D1
:1002D000CFFBCFA20D0A000008B50BE00648C068AE
:1002E00080F040000449C8606A4600214FF4FA706B
:1002F00001F04EFFF2E70000002001400EB52CE0B7
:10030000164800F066FB164800F063FB0021134816
:1003100000F057FB48B102AB00220121114800F068
:1003200021FF01210D4800F04CFB00210C4800F09A
:1003300048FB48B102AB002202210A4800F012FF3C
:100340000121074800F03DFB02A8002114230A46C2
:10035000CDE90010084601F083FFD1E7140000202A
:100360001C0000202C24002000B58BB00AA803211B
:1003700000220592CDE90621089010464FF4007145
:1003800033221F4BCDE90132CDE9031003200023B6
:100390001C4A1DA100901F4801F0C2FA0AA80321BF
:1003A00000220592CDE90621089010464FF4007115
:1003B0003322194BCDE90132CDE90310042000238B
:1003C000164A17A10090194801F0AAFA0AA80321B9
:1003D00000220592CDE90621089010464FF40071E5
:1003E0003322134BCDE90132CDE903100520002360
:1003F000104A11A10090134801F092FA0BB000BD11
:100400002C0C002085020008417070205461736B31
:1004100031000000D40100202C140020D902000873
:10042000417070205461736B320000009C02002008
:100430002C1C0020FD020008417070205461736B79
:10044000330000006403002038B5044600F044F88F
:1004500000F060F800F042FB684601F0D7F900F0C8
:10046000C7F807A004F004F9FFF77EFF0CA004F022
:10047000FFF8FFF7E7FE6946124801F03DFB38BD83
:100480004372656174696E67204170706C69636165
:1004900074696F6E205461736B732E2E2E0A0D00DB
:1004A0004372656174696E67204170706C69636145
:1004B00074696F6E204576656E74732E2E2E0A0D4C
:1004C000000000000C01002000B585B0684603F074
:1004D00033FF019805B000BD10B500F055FB00F0EA
:1004E000BFFA00F039FA00F04DFA00F041F900F0DF
:1004F00001F810BD70B5FFF7E7FF04460348006838
:10050000B4FBF0F5284601F0D7FF70BDA8470008FE
:1005100000BFFEE710B500F0FBF800F003F800F0B4
:10052000F3F810BD70B5002600201849088018495E
:100530000880184908601849086018490860184977
:10054000086018490860002400BFFFF711FE064646
:1005500000BF00250BE000201049086000F074F88F
:1005600000F08CF80D4800680444681C85B2002D2A
:10057000F1D00C4804600020084908600849086070
:1005800000BF3046FFF7F8FD00BF70BD2800002017
:100590002A0000202C00002030000020380000201D
:1005A0003C0000203400002001460846044A12683E
:1005B000904203D9024A1268801A00E00020704776
:1005C0003400002070B5002500BFFFF7D1FD0546BF
:1005D00000BF0648046800BF2846FFF7CDFD00BFF6
:1005E0002046FFF7E1FF0646304670BD3800002088
:1005F00070B50025FFF7E6FF044600BFFFF7B8FD22
:10060000054600BF00200449086000BF2846FFF7E8
:10061000B3FD00BF204670BD3800002070B5002536
:1006200000BFFFF7A5FD054600BF0648046800BFF0
:100630002846FFF7A1FD00BF2046FFF7B5FF06469D
:10064000304670BD3C00002010B509480088401CB1
:10065000074908800748008818B900F083F8064960
:10066000086004480088401C0249088010BD000052
:10067000280000202A0000202C00002010B50F4880
:100680000088401E0D49088008460088A0B900F087
:1006900069F80B490860084600680A490968441A65
:1006A00009480068A04201D2074804600748006872
:1006B000A04201D20548046010BD00002A000020BD
:1006C000300000202C000020380000203C000020DA
:1006D00010B5002400BF00BFFFF74AFD044600BF6D
:1006E000FFF7B2FF00BF1021064800F0EDF900BF90
:1006F000FFF7C4FF00BF2046FFF73EFD00BF00BF6D
:1007000010BD00005424002010B5FFF7E1FF10BD1C
:1007100010B500200249086000F00AF810BD000082
:1007200024000020014908607047000024000020D8
:1007300010B50A48006840F0807008490860002041
:10074000074948600846006840F001000860FFF76C
:10075000BBFE04462046FFF7E5FF10BDFCED00E0C0
:10076000001000E00148406870470000001000E001
:1007700000B585B00121880303F0CEFD01210520DD
:1007800003F0CAFD4FF40070ADF8100018208DF88A
:10079000130003208DF8120004A9134800F029F873
:1007A0004FF48060ADF8100004208DF8130004A908
:1007B0000D4800F01EF84FF4E13000900020ADF835
:1007C0000400ADF80600ADF80800ADF80C000C20F0
:1007D000ADF80A006946054803F0D8FE0121034838
:1007E00003F0BAFE05B000BD00080140003801402A
:1007F00070472DE9F0410246002500260020002325
:100800000024002791F803C00CF00F0591F803C0F5
:100810000CF0100CBCF1000F03D091F802C04CEAB0
:10082000050591F800C0BCF1000F31D0146800201C
:100830002BE04FF0010C0CFA00F3B1F800C00CEA09
:1008400003069E4220D183004FF00F0C0CFA03F7F1
:10085000BC4305FA03FC4CEA040491F803C0BCF164
:10086000280F06D14FF0010C0CFA00FCC2F814C09E
:100870000AE091F803C0BCF1480F05D14FF0010C1C
:100880000CFA00FCC2F810C0401C0828D1D3146038
:10089000B1F800C0BCF1FF0F34DD546800202EE039
:1008A00000F1080C4FF0010808FA0CF3B1F800C091
:1008B0000CEA03069E4221D183004FF00F0C0CFA84
:1008C00003F7BC4305FA03FC4CEA040491F803C0A7
:1008D000BCF1280F05D100F1080C08FA0CF8C2F899
:1008E000148091F803C0BCF1480F07D100F1080C47
:1008F0004FF0010808FA0CF8C2F81080401C0828D4
:10090000CED35460BDE8F0810246002093680B40CE
:100910000BB1012000E000207047416170470000EA
:1009200010B501210348FFF7EFFF012800D110BDEA
:100930000020FCE70008014010B54FF400510448C6
:10094000FFF7E2FF08B9012010BD0020FCE700001E
:100950000010014000BFFEE708B50121042003F0AC
:10096000DBFC0120ADF8000003208DF8020004201C
:100970008DF8030069460248FFF73BFF08BD000001
:100980000008014008B50121102003F0C5FC4FF418
:100990000050ADF8000003208DF8020004208DF80F
:1009A000030069460148FFF724FF08BD001001401D
:1009B0000160002202710222427182710022C27122
:1009C0007047024601F001030BB100231371107947
:1009D000704710B50446607901281ED0022804D063
:1009E000032822D0042839D107E02068804718B1B5
:1009F0000020E0710420607130E0E0790A30E0719D
:100A0000E0790A2808DB2068804718B10120A0712E
:100A1000607101E00220607120E02068804718B911
:100A20000020E0710320607118E0E0790A30E07185
:100A3000E0790A2811DB2068804760B90120A071A5
:100A4000022060712079401C20712079FA2804DD91
:100A5000FA20207101E00120607100BF00BF10BDCD
:100A600008B501214FF4847003F056FC0120ADF865
:100A7000000003208DF8020010208DF80300694665
:100A80000E48FFF7B6FE4020ADF8000069460C485E
:100A9000FFF7AFFE8020ADF8000069460848FFF779
:100AA000A8FE01210548FFF738FF40210448FFF761
:100AB00034FF80210248FFF730FF08BD000C0140E1
:100AC0000020014000BFFEE730B505460C46224637
:100AD0000021284600F026F830BD00000D480E49E0
:100AE00001600146416000218160C1600161416196
:100AF0008161C16101620163C16241620749816331
:100B0000C1634FF4D841016441640146044A116055
:100B1000704700006424002048454150AC24002068
:100B2000400000202DE9F04103460C4617460FB95E
:100B3000BDE8F08103B9FBE70025002202E02D02A9
:100B40002543521C042AFAD3384603F0030C1946F5
:100B5000BCF1000F08D0624603E001F8014B401ED3
:100B6000521C08B1042AF8D30E4601E020C6001F2B
:100B70000428FBD2314602E001F8014B401E002858
:100B8000FAD100BFD4E7704710B54FF4A06000F071
:100B900001F810BD02490143024A1160704700008C
:100BA0000000FA050CED00E0704700002DE9F0416F
:100BB00004460F4616461D464FF000081A480078B6
:100BC000002804DD42F6E1602880BDE8F0811CB910
:100BD00045F6C3502880F8E700BF00BFFFF7C8FA0A
:100BE000804600BFFFF730FD00BF104820606760FF
:100BF00026620020606204F1080001F0FFFF204639
:100C000001F068FD0A480088401C0949088000BFBF
:100C1000FFF734FD00BF4046FFF7AEFA00BF00BF4C
:100C20000020288000BFD0E76C000020464C4147E0
:100C30007C0000202DE9F04F8BB005468846934696
:100C40009946DDE9147400200190FE4800780028E0
:100C500006DD46F2AE10208000200BB0BDE8F08F1C
:100C600025B945F6C35020800020F6E748F201017F
:100C7000A9EB0100894536D01ADC40F20111A9EB3D
:100C8000010089452BD00CDCB9F1010F23D0B9F15B
:100C9000020F21D0B9F1040F1FD0B9F1080F2AD1EA
:100CA0001CE001281CD003281BD0072823D119E001
:100CB000B0F5807F1BD006DC012815D0032814D0A6
:100CC000072818D112E0A0F2011088B1022810D034
:100CD000062810D10EE000BF00BF00BF00BF00BF5C
:100CE00000BF00BF00BF00BF00BF00BF00BF00BF0C
:100CF00000BF00BF04E045F6256020800020ACE77F
:100D000000BFD1492868884204D045F6C4502080ED
:100D10000020A2E709F4807010B14FF0010A01E051
:100D20004FF0000A0FB10020386009F00F000A9060
:100D300000BF00BFFFF71CFA019000BFFFF784FC63
:100D400000BF0A98012878D0022877D0042802D062
:100D5000082874D153E0286A00EA0806464519D1EC
:100D6000BAF1010F02D1286AB0432862B74800687F
:100D7000C0F884600FB1686A386000BFFFF77EFC7E
:100D800000BF0198FFF7F8F900BF00BF00202080E6
:100D9000304662E709F4004068B100BFFFF76EFC1F
:100DA00000BF0198FFF7E8F900BF00BF46F2B0109E
:100DB0002080002051E7A648007800280DDD00BF04
:100DC000FFF75CFC00BF0198FFF7D6F900BF00BF3A
:100DD00046F66350208000203FE74B4642462946B6
:100DE00002A8CDF800B001F055FC00BFFFF746FCAB
:100DF00000BF0198FFF7C0F900BF00BF0AE1286AF1
:100E000000EA0806E6B1BAF1010F02D1286AB04340
:100E100028628E480068C0F884600FB1686A386044
:100E200000BFFFF72BFC00BF0198FFF7A5F900BF3B
:100E300000BF0020208030460FE736E089E0DBE08D
:100E400009F4004068B100BFFFF718FC00BF01982B
:100E5000FFF792F900BF00BF46F2B01020800020DB
:100E6000FBE67B48007800280DDD00BFFFF706FC9D
:100E700000BF0198FFF780F900BF00BF46F663503E
:100E800020800020E9E64B464246294602A8CDF8DC
:100E900000B001F0FFFB00BFFFF7F0FB00BF0198BF
:100EA000FFF76AF900BF00BFB4E0286A28EA00062D
:100EB000464519D1BAF1010F02D1286A30432862A0
:100EC00062480068C0F884600FB1686A386000BF8B
:100ED000FFF7D4FB00BF0198FFF74EF900BF00BF3A
:100EE000002020803046B8E609F4004068B100BF19
:100EF000FFF7C4FB00BF0198FFF73EF900BF00BF3A
:100F000046F2B01020800020A7E651480078002863
:100F10000DDD00BFFFF7B2FB00BF0198FFF72CF912
:100F200000BF00BF46F663502080002095E64B4688
:100F30004246294602A8CDF800B001F0ABFB00BF45
:100F4000FFF79CFB00BF0198FFF716F900BF00BF39
:100F500060E0286A28EA0006CEB1BAF1010F02D19A
:100F6000286A3043286239480068C0F884600FB1AD
:100F7000686A386000BFFFF781FB00BF0198FFF788
:100F8000FBF800BF00BF00202080304665E609F472
:100F9000004068B100BFFFF771FB00BF0198FFF789
:100FA000EBF800BF00BF46F2B0102080002054E6EE
:100FB0002748007800280DDD00BFFFF75FFB00BF6A
:100FC0000198FFF7D9F800BF00BF46F663502080B4
:100FD000002042E64B464246294602A8CDF800B022
:100FE00001F058FB00BFFFF749FB00BF0198FFF776
:100FF000C3F800BF00BF0DE000BFFFF73FFB00BF1D
:101000000198FFF7B9F800BF00BF45F625602080C2
:10101000002022E600BF00F037FA00BF00BFFFF754
:10102000A7F8019000BFFFF70FFB00BF074800685B
:1010300090F8350070B1012814D0022834D003286C
:1010400044D121E06C000020464C414700010020C3
:10105000A80000201FB142480068006C38600020E2
:10106000208040E01FB13E480068006C386000BF3F
:10107000FFF704FB00BF0198FFF77EF800BF00BF39
:1010800046F2A91020802EE00FB10020386000BF8A
:10109000FFF7F4FA00BF0198FFF76EF800BF00BF3A
:1010A00047F2D92020801EE01FB12D480068006C57
:1010B000386000BFFFF7E2FA00BF0198FFF75CF865
:1010C00000BF00BF45F6C25020800CE000BFFFF714
:1010D000D5FA00BF0198FFF74FF800BF00BF46F6F2
:1010E0002E60208000BF00BF208808B10020B4E53A
:1010F0001B480068D0F88460BAF1010F22D10A9829
:1011000001280BD002280AD0042802D008280AD1CE
:1011100000E000BF286AB043286212E000BF286ADE
:10112000304328620DE000BFFFF7A8FA00BF019826
:10113000FFF722F800BF00BF45F6256020800020A1
:101140008BE500BF00BFFFF799FA00BF0198FFF7DA
:1011500013F800BF00BF0020208030467DE500006E
:10116000000100202DE9F8430546884616461C4636
:101170002DB945F6C35020800020BDE8F8834EB15C
:10118000012E08D0B6F5004F06D06FF40040304471
:1011900020B902E000BF00BF00BF04E045F62560B3
:1011A00020800020E9E700BF0A492868884204D06F
:1011B00045F6C45020800020DFE7FFF7D3FA8146D0
:1011C0004B46324641462846009401F0A7FA0746AE
:1011D0003846D2E7464C414710B50348006810B185
:1011E00001480068804710BD5800002070B50446D3
:1011F00000F0BCF800204549087045490870454991
:1012000008704549086045490860454908704549E6
:1012100008704549087045490860454908604549D6
:10122000086045490870454800680A21B0FBF1F0A4
:10123000434908604348006858B14348056845B1D0
:101240004048066803E0761E002028602D1D002E11
:10125000F9D100203D4908603D4908603D490860DA
:101260003D4908603D4908603D4908603D490860C6
:101270003D49087001F0BCFD01F0F6FD204601F08B
:1012800041FA208800B170BD204601F0AFFB2088F4
:1012900000B1F8E7204601F0B5FB208800B1F2E785
:1012A000204601F017FC208800B1ECE7204601F051
:1012B000CFFD208800B1E6E7204601F02DFF208811
:1012C00000B1E0E7204602F083F9208800B1DAE7B8
:1012D000204601F053FB208800B1D4E7204602F0FD
:1012E00029FE208800B1CEE7204602F0B5F820881C
:1012F00000B1C8E7204602F079FE208800B1C2E7BD
:1013000001F0F2F8FFF750FC00BFBCE76C000020D2
:1013100074000020A800002000010020040100202B
:101320008E0000208F000020900000209C000020F4
:10133000A0000020A4000020B0000020A847000862
:10134000AC00002078470008744700084C000020DB
:101350005000002054000020580000205C000020B5
:101360006000002064000020DE0000200A4A1168AE
:10137000002002E0002204C1401C084A126890428A
:10138000F8D3054A1268054B1B6802EB8302121F53
:10139000034B1A6070470000744700087847000844
:1013A0004400002010B500242E480078012800D009
:1013B00010BD00BFFEF7DCFE044600BF2A480078DF
:1013C00028B900BF2046FEF7D7FE00BFF0E7264849
:1013D0000078401E2449087008460078002805DD82
:1013E00000BF2046FEF7C8FE00BFE1E71F480078B7
:1013F000002805DD00BF2046FEF7BEFE00BFD7E790
:1014000001F0E2FC1A4908700846007800EB400041
:10141000184951F820001849086008460068174923
:101420000968884205D100BF2046FEF7A5FE00BF2F
:10143000BEE711480068D0F89000401C0E490968CA
:10144000C1F890000E480068401C0D4908604FF03C
:1014500080500C49086000BF2046FEF78DFE00BF9B
:1014600000BFA5E7740000206C000020A800002049
:101470008F000020D0A200200401002000010020E5
:10148000D400002004ED00E010B5002420480078CE
:10149000002800DD10BD1F480078002800DDF9E7B6
:1014A00000BFFEF765FE044600BF01F08DFC1A493F
:1014B00008700846007800EB4000184951F82000F9
:1014C000174908600846006816490968884205D12E
:1014D00000BF2046FEF750FE00BFDBE71048006863
:1014E000D0F89000401C0E490968C1F890000E48E1
:1014F0000068401C0C4908604FF080500B490860A0
:1015000000BF2046FEF738FE00BF00BFC2E7000064
:101510006C000020A80000208F000020D0A2002036
:101520000401002000010020D400002004ED00E0B0
:1015300070B5044600251A480078002803DD46F6F9
:101540006250208070BD17480078012803D045F60E
:1015500089602080F6E714480078FA2803DB45F21A
:1015600009202080EEE700BF00BFFEF701FE054620
:1015700000BFFFF769F800BF0B480078401C0A491C
:10158000087001F027FD00BFFFF778F800BF28467C
:10159000FEF7F2FD00BF00BF0020208000BFD1E7B2
:1015A0006C00002074000020A800002070B50446E4
:1015B000002523480078002803DD46F6655020808A
:1015C00070BD20480078012803D045F6896020804E
:1015D000F6E71D48007818B946F664502080EFE71A
:1015E00000BF00BFFEF7C4FD054600BFFFF72CF8A3
:1015F00000BF15480078401E13490870084600785F
:1016000000280CDD00BFFFF739F800BF2846FEF7C1
:10161000B3FD00BF00BF46F663502080D0E701F065
:10162000E7FC00BFFFF72AF800BF2846FEF7A4FD3D
:1016300000BF00BFFFF728FF0020208000BFBFE7EA
:101640006C00002074000020A800002010B50446A3
:1016500012480078E8B901F0B7FB11490870084654
:101660000078104908700E48007800EB40000E49E1
:1016700051F820000D490860084600680C490860D0
:10168000012006490870FEF79BFD43F69920208053
:1016900002E045F68A60208010BD00007400002042
:1016A0008F0000208E000020D0A200200401002026
:1016B000000100202DE9F04107464FF0000800BF6F
:1016C00000BFFEF755FD804600BFFEF7BDFF00BF1F
:1016D000002045490880454908604549086045495A
:1016E000086045490860454908604549088100BFD0
:1016F000FEF7C4FF00BF4046FEF73EFD00BF00BF3F
:1017000000BF00BFFEF734FD804600BFFEF79CFF20
:1017100000BF3C48046800BFFEF7B0FF00BF404672
:10172000FEF72AFD00BF00BF26E000BF00BFFEF7A6
:101730001FFD804600BFFEF787FF00BF0020783402
:10174000E063206420602063A061A082E082606288
:10175000A062FFF707F82062783C04F164060020DD
:10176000B081D4F8C04000BFFEF788FF00BF4046FC
:10177000FEF702FD00BF00BF002CD6D100BF00BFA6
:10178000FEF7F6FC804600BFFEF75EFF00BF1E4876
:10179000056800BFFEF772FF00BF4046FEF7ECFC95
:1017A00000BF00BF16E000BF00BFFEF7E1FC8046AF
:1017B00000BFFEF749FF00BF05F120060020B08101
:1017C000AD6900BFFEF75AFF00BF4046FEF7D4FCEC
:1017D00000BF00BF002DE6D102F0BCFA02F002FD0E
:1017E00000203880BDE8F081BE000020D00000203D
:1017F000E4000020F000002070000020A000002085
:10180000C4A20020D800002094000020F8B50446AF
:1018100000266946364800F04DFCBDF8000018B1BE
:10182000BDF800002080F8BD6A460021022000F0CB
:10183000AFFCBDF8000018B1BDF800002080F2E751
:1018400000BF00BFFEF794FC064600BFFEF7FCFE9B
:1018500000BF00202749086000BFFEF70FFF00BF50
:101860003046FEF789FC00BF00BF00252248006813
:1018700022490968884205D91F4800681F4909683C
:10188000B0FBF1F525B91C4800680A21B0FBF1F561
:101890006A460021284600F07BFC6946144800F0A7
:1018A000D5F9BDF8000018B1BDF800002080BAE7F6
:1018B00000BF00BFFEF75CFC064600BFFEF7C4FE9B
:1018C00000BF00200E4908600A4800680D49086002
:1018D00001200D49087000BFFEF7D0FE00BF304662
:1018E000FEF74AFC00BF00BF0020208000BF9AE73F
:1018F000E0A50020C0000020A8470008904700088D
:10190000D0000020C4000020CC00002010B5034807
:10191000006810B101480068804710BD5C000020DD
:101920002DE9FF4F85B004469046DDE91995159FD6
:10193000139E0020029064480078002805DD47F2DD
:101940004A10288009B0BDE8F08F1CB947F2AD10ED
:101950002880F7E7B8F1000F03D147F24F10288035
:10196000F0E71EB946F62F602880EBE7574800687D
:10197000874203D246F630602880E3E71498B842E5
:1019800003D346F631602880DCE71298202803D381
:1019900046F273202880D5E712981F2806D14C48BC
:1019A000844203D046F273202880CBE7204601F022
:1019B0001FFE0020288009F0010088B109F0020014
:1019C00070B1B3460020049007E00020CBF800007F
:1019D0000BF1040B0498401C04900498B842F4D313
:1019E000149806EB80000390CDE90079324640461A
:1019F000039B089900F0FEFA8346C4F828800898F3
:101A0000E06206982062129884F83700C4F800B0AB
:101A10000398A06017986065179818B92D4800685A
:101A2000A06501E01798A065189860606662A763DA
:101A3000A4F83C904FF0000A08E0002104F17C007B
:101A400040F82A100AF1010000F0FF0ABAF1000F75
:101A5000F3D004F16400169901F034F8204600F048
:101A60003FF800BF00BFFEF783FB029000BFFEF708
:101A7000EBFD00BF94F8370001F0C6F9204601F0F5
:101A80003BFA204601F06AFD13480088401C1249C9
:101A9000088012480078012809D000BFFEF7EEFD4B
:101AA00000BF0298FEF768FB00BF00BF4AE700BF17
:101AB000FEF7E4FD00BF0298FEF75EFB00BF00BF2B
:101AC000FFF7E2FC00BF3DE76C000020A4470008E0
:101AD000FCA10020AC000020DC00002074000020ED
:101AE00010B504460348006818B12046014909684A
:101AF000884710BD4C00002070B504460D460026F6
:101B000048480078002803DD47F24E10288070BD59
:101B10004548844203D147F24C102880F7E79CB92E
:101B200000BF00BFFEF724FB064600BFFEF78CFD9A
:101B300000BF3E48046800BFFEF7A0FD00BF30466E
:101B4000FEF71AFB00BF00BF00BF00BFFEF710FB8F
:101B5000064600BFFEF778FD00BF94F8360008285F
:101B60002DD2DFE800F004090E10080A0F112046FC
:101B700001F002FA30E02FE000BF204602F0CEF87C
:101B80002AE000BF00BF00BF204602F0C7F894F86B
:101B90003400082810D2DFE800F004070508090A1D
:101BA0000B0600BF00BF08E000BF00BF00BF00BFC2
:101BB000204601F05BF800E000BF00BF0CE000BF72
:101BC000FEF75CFD00BF3046FEF7D6FA00BF00BF4F
:101BD00046F62D6028809AE700BF04F1640000F00B
:101BE0004FFF204600F026F8204601F0CFFC1048B9
:101BF0000088401E0E490880204601F0F9FCFF20B5
:101C000084F8360000BFFEF739FD00BF3046FEF70E
:101C1000B3FA00BF00BF00202880FFF735FC00BFEB
:101C200075E700006C000020FCA1002000010020EE
:101C3000DC00002010B504460348006818B12046B7
:101C400001490968884710BD5000002070B504465E
:101C50000D46002618480078002803DD47F255108D
:101C6000288070BD00BF00BFFEF782FA064600BFA5
:101C7000FEF7EAFC00BF1CB11048006884420CD19A
:101C800000BFFEF7FBFC00BF3046FEF775FA00BF51
:101C900000BF47F257102880E3E700BFFEF7EEFCD5
:101CA00000BF3046FEF768FA00BF00BF2946204655
:101CB00001F014FD00BFD4E76C00002000010020FB
:101CC00010B504460348006818B120460149096868
:101CD000884710BD540000202DE9F04780460E468D
:101CE00014461D464FF0000976480078002805DDAF
:101CF00046F2AE1028800020BDE8F0871EB1B6F590
:101D0000004F02D100E000BF04E045F625602880C6
:101D10000020F1E700BF0CB10020206000BF00BF31
:101D2000FEF726FA814600BFFEF78EFC00BF66482C
:101D30000068406CB8B364480068406C401E62495B
:101D40000968486460480068476C1CB15E480068D8
:101D5000006C2060FEF706FD5B490968096C401ABB
:101D600059490968C1F8A40057480068D0F8A8008C
:101D700055490968D1F8A410884207D25248006832
:101D8000D0F8A40050490968C1F8A80000BFFEF7C8
:101D900075FC00BF4846FEF7EFF900BF00BF00200A
:101DA00028803846A8E7FFE706F4004068B100BF86
:101DB000FEF764FC00BF4846FEF7DEF900BF00BF37
:101DC00046F2B0102880002096E7404800780028AE
:101DD0000DDD00BFFEF752FC00BF4846FEF7CCF910
:101DE00000BF00BF46F663502880002084E74346CA
:101DF00007220021084600F079FE00BFFEF73EFCF6
:101E000000BF4846FEF7B8F900BF00BFFFF73CFB34
:101E100000BF00BFFEF7ACF9814600BFFEF714FC1F
:101E200000BF2948006890F8350020B1012826D06D
:101E3000032834D12CE0FCB123480068006C2060FA
:101E4000FEF790FC20490968096C401A1E49096890
:101E5000C1F8A4001C480068D0F8A8001A49096815
:101E6000D1F8A410884207D217480068D0F8A4001F
:101E700015490968C1F8A8000020288013E01CB1AA
:101E800011480068006C206046F2A91028800AE022
:101E90000CB10020206047F2D920288003E046F6EC
:101EA0002E60288000BF00BF07480068476C00BF55
:101EB000FEF7E4FB00BF4846FEF75EF900BF00BF37
:101EC000384619E76C00002000010020A80000201F
:101ED0002DE9F04106460D4614461DB1B5F5004FFB
:101EE00002D100E000BF05E045F62560208000201B
:101EF000BDE8F08100BFFEF735FC80462346424630
:101F00002946304601F084FC07463846F0E70000D9
:101F10002DE9F04705460E4617461C464FF0000ACD
:101F200032480078002804DD47F259102080BDE8CF
:101F3000F0871EB946F2D5202080F8E71FB946F297
:101F4000D5202080F3E700BF00BFFEF711F98246DD
:101F500000BFFEF779FB00BF0DB92548056828686A
:101F600078B900BFFEF78AFB00BF5046FEF704F9C0
:101F700000BF00BF00203060386047F25210208060
:101F8000D5E795F83C0000F0010078B900BFFEF7F6
:101F900075FB00BF5046FEF7EFF800BF00BF002002
:101FA0003060386047F254102080C0E700BFFEF771
:101FB00065FB00BF5046FEF7DFF800BF00BF4FF0E3
:101FC0000008D5F8249003E009F1040908F101089C
:101FD000D9F800000028F7D0C6F80080A86BA0EB65
:101FE000080038600020208000BFA0E76C000020BF
:101FF00000010020F0B50446DDE9055602EB85003E
:102000004FF0807C071F3846C7F800C0071F3846CE
:102010003C60DFF89CC0071F3846C7F800C04FF08F
:10202000123C071F3846C7F800C04FF0033C071F9B
:102030003846C7F800C04FF0023C071F3846C7F8C3
:1020400000C0071F38463B60071F384639604FF015
:10205000113C071F3846C7F800C04FF0103C071F5F
:102060003846C7F800C04FF0093C071F3846C7F88C
:1020700000C04FF0083C071F3846C7F800C04FF0BB
:10208000073C071F3846C7F800C04FF0063C071F43
:102090003846C7F800C04FF0053C071F3846C7F860
:1020A00000C04FF0043C071F3846C7F800C0F0BD21
:1020B000F937000870B505460C460A480078002834
:1020C00003DD47F25D10208070BD0748854203D1D3
:1020D00047F25B102080F7E72146284601F090FC8C
:1020E00000BFF1E76C000020FCA1002070B524487F
:1020F000006810B1224800688047FEF733FB0446B1
:102100002048006820490968884215D01D480068A9
:10211000D0F89800201A1B490968C1F894001948A2
:102120000068D0F89C0017490968D1F89410084459
:1021300014490968C1F89C0013480068C0F8984029
:10214000FEF756FA05460F480068D0F8B400A842DA
:1021500003D20C480068C0F8B4500A480068D0F8B0
:10216000B8000A490968884205D20848006805494C
:102170000968C1F8B80000200449086070BD00007B
:10218000600000200001002004010020A4000020C5
:102190002DE9F04105460E46144600272D480078EB
:1021A000002804DD47F275202080BDE8F0812A4830
:1021B0000078002803DD46F663502080F5E736B14D
:1021C000022E05D0042E0AD0082E09D101E000BF4E
:1021D00000BF1DB947F27E202080E6E704E003E05F
:1021E00045F625602080E0E700BF00BF00BFFDF797
:1021F000BFFF074600BFFEF727FA00BF01201749BF
:10220000096881F83600234632462946134800689B
:1022100001F0A6FC208848B100BFFEF72FFA00BFEE
:102220003846FDF7A9FF00BF00BFBEE70B480068B6
:1022300000F0A2FE00BFFEF721FA00BF3846FDF70E
:102240009BFF00BF00BFFFF71FF90020208000BFE9
:10225000ABE700006C000020A80000200001002077
:102260002DE9FF5F05460E4617469846DDE90EA4A8
:102270000020009060480078002804DD47F27520B7
:102280002080BDE8FF9F5D480078002803DD46F60A
:1022900063502080F5E70AF00E0BBBF1000F09D068
:1022A000BBF1020F07D0BBF1040F10D0BBF1080F38
:1022B0000ED101E000BF00BFB8F1000F06D12FB969
:1022C00026B91DB947F27E202080DAE704E003E05A
:1022D00045F625602080D4E700BF2AF01E0008B133
:1022E000012000E0002003900398012803D145F667
:1022F00025602080C5E7CAF3001002900298C0B99B
:10230000B8F57A7F03D347F27B202080B9E73B2FD3
:1023100003DD47F27A202080B3E73B2E03DD47F24E
:1023200079202080ADE7632D12DD47F278202080F0
:10233000A7E742F20F70864203DD47F27920208042
:102340009FE7B5F57A7F03DB47F27820208098E796
:102350002B48D0F800904FF4FA70B0FBF9F04044ED
:1023600000FB09F04FF47A71B0FBF1F14FF46160BA
:102370006843C6EB061200EB8200384400FB0910EC
:102380000190019890B300BF00BFFDF7F1FE0090EF
:1023900000BFFEF759F900BF01201A49096881F80A
:1023A000360023465A4617480199006801F0D8FBC9
:1023B000208848B100BFFEF761F900BF0098FDF723
:1023C000DBFE00BF00BF5CE70E48006800F0D4FDF4
:1023D00000BFFEF753F900BF0098FDF7CDFE00BF28
:1023E00000BFFFF751F80020208003E0FFE747F22D
:1023F0007E20208000BF44E76C000020A800002061
:10240000A84700080001002008B500F02BF86A4634
:1024100000210E48FFF75CFD0D49097801EB4101F1
:102420000C4A02EB810000F001FE0B480068401EE0
:10243000094908600846006838B90848006808601B
:102440006A4600210648FFF743FD08BD18A5002095
:102450008E000020D0A20020FC000020F800002008
:10246000E0A5002010B50348006810B101480068DD
:10247000804710BD6400002010B5002400BF00BFDD
:10248000FDF776FE044600BFFEF7DEF800BF094800
:102490000078401C0749087000BFFEF7EFF800BF46
:1024A0002046FDF769FE00BF00BFFFF7ADFFFEF756
:1024B00079FF10BD6C00002001464A1E4FF0E0235A
:1024C0005A61084A106820F07F4000BF10601A4629
:1024D000126942F005021A611A46126942F00202BC
:1024E0001A61704720ED00E0244A2549254A264A12
:1024F0002649274A2748284A284A294A294A2A4851
:102500002A482B4A2B482C4A2C482D4A2D482E4825
:102510002E482F482F4A304A304A3148314A324AF1
:102520003248334833483448344835483548364AC9
:10253000364A374A374A384838483948394A3A4A91
:102540003A4A3B483B483C483C493D483D4A3E4A64
:102550003E4A3F4A3F4A404A404A4148414A424A2D
:1025600042484348434A444A4448454A454A464803
:102570004648474800BF00BF00BF7047EC4700080F
:1025800054490008ED470008EE470008F0470008EE
:10259000F4470008F8470008F547000820480008FD
:1025A000214800082248000824480008264800085E
:1025B0002A4800082C4800084C4800084E480008EB
:1025C000504800085248000854480008564800087F
:1025D00058480008844800088548000886480008D4
:1025E000884800088A4800088B4800088C48000882
:1025F0008E48000890480008924800089448000857
:102600009648000898480008C8480008C9480008CB
:10261000CA480008CB480008CC480008CE4800084B
:10262000D0480008F8480008F9480008FA480008AF
:10263000FB480008FC480008FE4800080049000864
:102640000449000805490008064900080749000830
:1026500008490008094900080A4900080B49000810
:102660000C4900080E4900080F49000810490008ED
:1026700012490008144900081549000818490008C3
:102680004C4900084D4900084E49000850490008CF
:10269000524900082DE9F04106460F4614461D46F2
:1026A000DDF818800A480068C0F8804008480068D3
:1026B000A0F88850002006490968C1F88400434604
:1026C00001223946304600F011FABDE8F0810000E1
:1026D0000001002009A1C161002141610849096888
:1026E00011B90021816105E005490968816104494A
:1026F0000968486102490860704700002000000036
:10270000780000200021034A1160034A11800180F3
:1027100070470000780000207C0000202DE9F04F79
:1027200085B00446894692469B46DDF838800020F5
:10273000009000BF00BFFDF71BFD009000BFFDF73C
:1027400083FF00BFBAF1000F0AD0BAF1010F0DD01C
:10275000BAF5004F05D06FF40040504460B906E070
:1027600000BF206A40EA0900206216E000BF206A2C
:1027700020EA0900206210E000BFFDF77FFF00BFE4
:102780000098FDF7F9FC00BF00BF45F62560A8F8EA
:102790000000002005B0BDE8F08F00BFC4F824B0F1
:1027A00004F1080001900198008968B900BFFDF7A5
:1027B00065FF00BF0098FDF7DFFC00BF00BF0020F1
:1027C000A8F80000206AE5E701980768BD685BE0AB
:1027D0007868029095F8880000F00F000390039845
:1027E000012821D002282ED0042802D0082836D172
:1027F0000EE0206AD5F8801000EA0106D5F88000C6
:10280000B04204D15A463146284600F066F835E019
:10281000206AD5F8801000EA010626B15A463146F2
:10282000284600F05AF829E0D5F88000216A20EA0D
:102830000106D5F88000B04204D15A4631462846F8
:1028400000F04BF81AE0D5F88000216A20EA010672
:1028500026B15A463146284600F03FF80EE000BF48
:10286000FDF70CFF00BF0098FDF786FC00BF00BF1E
:1028700043F6FF20A8F8000000208BE700BF029F6E
:102880000FB1BD6800E00025002DA1D100BFFDF70C
:10289000F5FE00BF0098FDF76FFC00BF00BF0AF413
:1028A000004008B9FEF7F0FD00BF00BFFDF760FC77
:1028B000009000BFFDF7C8FE00BF206A049000BF73
:1028C000FDF7DCFE00BF0098FDF756FC00BF00BF1F
:1028D0000020A8F8000004985CE770B504460E4696
:1028E000154634342665002060702070E560A078BD
:1028F000343C082816D2DFE800F004050809070672
:10290000101100BF00BF00BF0DE000BF204600F067
:10291000D7FE002084F8360005E000BF042084F8CC
:10292000360000E000BF00BF204600F09FF970BDF8
:10293000002400BF1DE000BF00BFFDF719FC0446E6
:1029400000BFFDF781FE00BF0A480068401C09492E
:10295000086009480068401C0749086000BFFDF78F
:102960008DFE00BF2046FDF707FC00BF00BFFEF74D
:1029700033FCE0E768000020C000002010B58AB0FA
:10298000044600200E4908600B2000210591CDE986
:102990000704069108460B4909680B4A12680B4B5D
:1029A0001B68CDE90132CDE903101F200023084A3E
:1029B00008A100900C48FEF7B3FF0AB010BD00005C
:1029C00068000020504700084C47000848470008AE
:1029D0003129000875432F4F532D49494920496437
:1029E0006C65205461736B00FCA100200021034A38
:1029F0001160034A118001807047000080000020B0
:102A00008400002070B501461A4D2D681DB945F2AD
:102A10001E750D8070BD184D2D881DB945F21D75B0
:102A20000D80F7E7134D28682A681032124D2D8863
:102A30006D1EACB2002308E00260002545600581F0
:102A4000C560103010325D1CABB2A342F4DB002530
:102A5000056045600581C560064D2D68074E3560EF
:102A6000054D2D88B5800025F58035810D8000BF8E
:102A7000D0E700008847000880470008C4A2002073
:102A800010B5014648894B89002B17DD0A680C4BAD
:102A90001B6813600A4C4B6823602346DB884C8913
:102AA0001B1B074CE38023469B884C892344044C22
:102AB000A38000234B818B810B604B6010BD000015
:102AC000C4A2002001810022428182810260426012
:102AD000704700000021034A1160034A1180018001
:102AE00070470000880000208C0000202DE9F04194
:102AF00005460C4616461F461548006880F83460A7
:102B000000201349096881F83500394610480068EB
:102B100000F008FD6CB104F10808EC6001222946C0
:102B20000B48006800F016F82946404600F06BF8A4
:102B300006E0002006490968C88705490968086356
:102B400003480168204600F019F8BDE8F081000054
:102B50000001002010B5C287016300230AE00024B1
:102B60004C600C600C614C610C83CC61886020313E
:102B70005C1CA3B29342F2DB10BD000030B548B13B
:102B80004568C1F8C45000F10804226893681D6AC2
:102B9000C56113E091F83450022D02D0072D08D101
:102BA00003E007A5C1F8C45007E007A5C1F8C45069
:102BB00003E008A5C1F8C45000BF00BF30BD00004D
:102BC0005461736B205100005461736B2053656D29
:102BD000000000002000000030B507A5C1F8C45077
:102BE00000F1080422681AB193681D6AC56101E00A
:102BF00001A5C56130BD000020000000002101607A
:102C0000416001817047F0B58E6896F837500789AA
:102C10003FB90127078100274F600F6001604160C5
:102C200023E007897F1C0781026806E0946894F816
:102C30003770AF4200DD02E05268002AF6D100BFD3
:102C400032B900274F6043680B60596041600CE067
:102C500017682FB9116000270F604A60016004E017
:102C600013680B604A6059601160F0BD2DE9F041B6
:102C70000446256BE68F0AE0D5F80C8008F10807BA
:102C80002946384600F00AF82035701E86B2002E1C
:102C9000F2DC0020E0872063BDE8F08110B50489F4
:102CA000012C03D100240460446011E00C6824B9B5
:102CB0004A680024146002600AE04C6824B90B687A
:102CC00000245C60436003E00B684A685A6013604C
:102CD0000489641E048100244C600C6010BD2DE941
:102CE000F84306460C4617469846089D94F8360069
:102CF000082850D2DFE800F00405080906072B2C4D
:102D000000BF00BF00BF47E000BF94F834000328B5
:102D100007D143463A4621463046009500F03FF839
:102D200003E0E765A4F86080256436B12046FFF72C
:102D30009DFF21463046FFF74FFF204600F0C0FCC4
:102D400000203434A070607004F8340924E000BF1F
:102D500094F83400032807D143463A4621463046CA
:102D6000009500F01CF803E0E765A4F86080256496
:102D7000204600F0D3FF36B12046FFF777FF21460B
:102D80003046FFF729FF04203434A0700020607023
:102D900004F8340900E000BF00BFBDE8F883F0B5D7
:102DA0000446059E086BCD8F0AE0C768A74204D190
:102DB000046142610383C66104E020306F1EBDB22E
:102DC000002DF2DC00BFF0BD70B50025074C03E01C
:102DD00005F12000C5B2241D20680028F8D0206825
:102DE000FDF7D1F92844C5B2284670BD480000203F
:102DF000002004E00021034A42F82010401C002873
:102E0000F8D070474800002030B5420900F01F0399
:102E10000121C3F11F04A140034C54F822400C438C
:102E2000014D45F8224030BD4800002030B5420930
:102E300000F01F030121C3F11F04A140034C54F80B
:102E400022408C43014D45F8224030BD480000200F
:102E50000021034A1160034A11800180704700007D
:102E6000940000209800002000210AE001EB4102BC
:102E7000054B03EB820000220281026042604A1C83
:102E8000D1B22029F2D37047D0A2002010B5044659
:102E900094F83700FFF7B8FF94F837000549097830
:102EA000884203D1204600F027F802E0204600F0D7
:102EB00003F810BD8E00002010B590F8373003EBFA
:102EC00043030C4C04EB83010B893BB901230B81B9
:102ED0000023C36003610860486009E00B895B1C44
:102EE0000B810B68C360002303610A6810610860EE
:102EF00010BD0000D0A2002010B590F8373003EBD1
:102F000043030B4C04EB83010B893BB901230B8179
:102F10000023C36003610860486008E00B895B1C04
:102F20000B810023C3604A680261D060486010BD15
:102F3000D0A2002010B501460C8924B1012C03D089
:102F4000022C0CD101E000BF14E008684A6802615D
:102F50000024C4601461D0600A6048600AE0086818
:102F60004A68C36800241C61C4600261D0600B60C1
:102F7000486000BF00BF10BD2DE9F041054695F83F
:102F8000370000EB4000124901EB80042F69EE6826
:102F900087B946B9002020812060606095F837002D
:102FA000FFF744FF0EE02089401E208100203061A1
:102FB000266007E02089401E2081FE600EB9676010
:102FC00000E0376100202861E860BDE8F081000082
:102FD000D0A2002010B504480078012803D1FDF7E5
:102FE000C1FB0249086010BDA80000209C00002021
:102FF00010B50A48007880B9FDF7B4FB08490968A4
:10300000441A08480068A04201D2064804600648F5
:103010000068A04201D20448046010BDA80000204E
:103020009C000020A0000020A400002070B50546F0
:10303000002635480078012800D070BD00BF00BFD1
:10304000FDF796F8064600BFFDF7FEFA00BF2C68B4
:103050004CB900BFFDF712FB00BF3046FDF78CF8FE
:1030600000BF00BFE9E72948844209D100BFFDF74E
:1030700005FB00BF3046FDF77FF800BF00BFDCE76F
:10308000A06D10B1A06D401EA065A06D48B100BF3D
:10309000FDF7F4FA00BF3046FDF76EF800BF00BF41
:1030A000CBE72889022809DA00BFFDF7E7FA00BF5D
:1030B0003046FDF761F800BF00BFBEE71448007856
:1030C000002809DD00BFFDF7D9FA00BF3046FDF743
:1030D00053F800BF00BFB0E72846FFF72BFF2C686E
:1030E000606D18B90B480068A06501E0606DA065CF
:1030F00000BFFDF7C3FA00BF3046FDF73DF800BF43
:1031000000BF00BF99E70000B0000020FCA1002034
:10311000A8000020AC0000200021034A1160034AEF
:103120001180018070470000B4000020B80000202A
:1031300086B00020009000BF06E0B749096848004B
:1031400001AA0021FFF724F8B44800780128F4D13F
:1031500001A8FEF7AFFA0027B1480068AE49096838
:10316000884205D9AE480068AB490968B0FBF1F761
:1031700027B9AB4800680A21B0FBF1F74AE1FDF737
:10318000F1FA8246FDF74AFAA649086000BF00BF7F
:10319000FCF7EEFF009000BFFDF756FA00BFA24813
:1031A0000068A249086000209F49086000BFFDF741
:1031B00065FA00BF0098FCF7DFFF00BF00BF9C4826
:1031C00000689A490968884248D99948006899492D
:1031D000884205D242F2107003900120029023E051
:1031E000934800689449884205D24FF47A7003905E
:1031F0000A20029018E08E4800689049884203D265
:103200006420039002900FE0894800688C4988424E
:1032100005D20A2003904FF47A70029004E0012056
:10322000039042F210700290814801680298B1FB4D
:10323000F0F97E49039809684843B0FBF9F042F27F
:103240001071081A7F4908807F48008809888842E1
:1032500008DA7C4800887C49088003E042F210705C
:1032600078490880FEF752FB002500BF00BFFCF73D
:103270007FFF009000BFFDF7E7F900BF73480468C7
:1032800000BFFDF7FBF900BF0098FCF775FF00BF1A
:1032900000BF2EE000BF00BFFCF76AFF009000BF38
:1032A000FDF7D2F900BF54F89C0F6060002044F88D
:1032B0009C0900BFFDF7E2F900BF0098FCF75CFF36
:1032C00000BF00BFD4F8A000054400BF00BFFCF75A
:1032D0004FFF009000BFFDF7B7F900BFD4F8C04022
:1032E00000BFFDF7CBF900BF0098FCF745FF00BF1A
:1032F00000BF002CCED145B34E48854205D242F2E4
:10330000107005904FF0010B1BE04B48854205D231
:103310004FF47A7005904FF00A0B12E0474885424F
:1033200003D26420059083460BE04548854204D2D1
:103330000A2005904FF47A7B03E00120059042F2C9
:10334000107BB5FBFBF0049003E00020059001200A
:10335000049000BF00BFFCF70BFF009000BFFDF71B
:1033600073F900BF3948046800BFFDF787F900BF53
:103370000098FCF701FF00BF00BF2FE0D4F8A000C9
:10338000059948430499B0FBF1F086B242F21070FF
:10339000864200D90646A4F88C60B4F88E00B0428C
:1033A00001DAA4F88E6001AB04F1AC02111D2046D5
:1033B000FEF7AEFD00BF00BFFCF7DAFE009000BFD5
:1033C000FDF742F900BFD4F8C04000BFFDF756F941
:1033D00000BF0098FCF7D0FE00BF00BF002CCDD18D
:1033E0001B480078012805D100201949087001A860
:1033F000FEF760F9FDF7B6F9A0EB0A08154800687A
:10340000404502D21348C0F8008001AA0021384686
:10341000FEF7BEFEB3E6000090470008CC00002097
:10342000A847000870000020C0000020C80000204D
:10343000C4000020801A060000093D00005A620204
:103440000084D717BC000020BE000020D800002058
:10345000BA000020D000002010B58AB00446002039
:103460001F4908601F4908601F4908601F4908700C
:103470001F4908701F48006820B946F62B6020805D
:103480000AB010BD1C4800681C490968884203D274
:1034900046F62C602080F3E7194800781F2803D3F4
:1034A00046F62A602080EBE7032000210591CDE954
:1034B00007040691084610490968124A12680D4B24
:1034C0001B68CDE90132CDE903100D4800780023D7
:1034D0000D4A0EA100901248FEF722FA00BFCFE776
:1034E000C0000020C8000020C4000020CC00002044
:1034F000BA000020944700089C470008A447000831
:103500008C470008984700083131000875432F4F59
:10351000532D4949492053746174205461736B00E1
:1035200050A4002038B504460D4685B16B460222F2
:103530002946204600F014FBBDF8000018B903200E
:1035400084F8360006E0022084F8360002E002200B
:1035500084F836002046FFF70FFD38BD0021C0F883
:10356000BC100949096819B90021C0F8C01007E06A
:1035700005490968C0F8C01003490968C1F8BC00D2
:103580000149086070470000D8000020D0F8BC2036
:10359000D0F8C0104AB90D4B196011B10023C1F821
:1035A000BC300023C0F8C0300FE029B90023C2F8B6
:1035B000C030C0F8BC3008E0C2F8C010C1F8BC2070
:1035C0000023C0F8C030C0F8BC307047D8000020DD
:1035D0000021044A1160044A1180044A11600180EC
:1035E00070470000D8000020DC000020D40000203C
:1035F00070B5044600202060A0606060E06020613B
:103600006061A061E0612BA0206200206062A06286
:10361000E0622063E0872064E065A4F86000002198
:1036200004F16400FFF74EFA002044F8740F606064
:10363000E060A0822061743C002506E0002104F1D6
:103640007C0040F82510681CC5B2002DF6D0002083
:103650003434206120676067606084F85600E0675A
:10366000A06720814FF0004060610020A061E06110
:1036700020626062A4F85800A4F85A00E065206651
:10368000FDF770F8064666660020A066C4F8800064
:10369000C4F8840020706070A0702020E0700020CA
:1036A000C4F88800C4F88C0004A0C4F89000343C2E
:1036B00070BD00003F5461736B00000020000000EB
:1036C00010B50446204600F029FB94F8360000F0BF
:1036D000040010B92046FFF7D9FB10BD70B50446B1
:1036E0000D46002600BF00BFFCF742FD064600BFA6
:1036F000FCF7AAFF00BF0020288094F836000828B5
:1037000068D2DFE800F004050607142B3F5300BF22
:1037100000BF00BF00BFFCF7B1FF00BF3046FCF7A1
:103720002BFD00BF00BF47F2531028805FE014F864
:103730008A0F401E207014F88A0928B9002084F8E6
:1037400036002046FFF7BCFF00BFFCF797FF00BF25
:103750003046FCF711FD00BF00BF48E014F88A0FA7
:10376000401E207014F88A0910B9012084F8360030
:1037700000BFFCF783FF00BF3046FCF7FDFC00BF35
:1037800000BF34E014F88A0F401E207014F88A0934
:1037900010B9022084F8360000BFFCF76FFF00BFAD
:1037A0003046FCF7E9FC00BF00BF20E014F88A0FA8
:1037B000401E207014F88A0910B9032084F83600DE
:1037C00000BFFCF75BFF00BF3046FCF7D5FC00BF35
:1037D00000BF0CE000BFFCF751FF00BF3046FCF714
:1037E000CBFC00BF00BF46F62D60288070BD00BF37
:1037F000FDF74AFE00BFF9E708B504480068FEF788
:103800005FFA69460020FEF777F908BD0001002045
:103810002DE9F8430446884617461D464FF0000937
:1038200000BF00BFFCF7A4FC814600BFFCF70CFF03
:1038300000BF0CB97148046827640020288094F800
:103840003600082878D2DFE800F00405585906074A
:103850005A5B00BF00BF00BF0420012804D002282B
:1038600015D0042839D126E0606CFF280ED100BFA6
:10387000FCF704FF00BF4846FCF77EFC00BF00BF1A
:1038800046F6C55028800020BDE8F88326E04FF6B4
:10389000FF71606C88420DD100BFFCF7EFFE00BFE6
:1038A0004846FCF769FC00BF00BF46F6C5502880BB
:1038B0000020E9E712E0606C401C68B900BFFCF72B
:1038C000DDFE00BF4846FCF757FC00BF00BF46F6D0
:1038D000C55028800020D7E700E000BF00BF606C23
:1038E000401C6064666C00BFFCF7C8FE00BF484621
:1038F000FCF742FC00BF00BF7DE000BF00BF00BF7F
:1039000094F83400072818D100231A462146184697
:103910000097FFF7E4F9666C00BFFCF7AFFE00BF4D
:103920004846FCF729FC00BF00BF08F4004000280F
:1039300052D1FDF7A9FD4FE04FE00420012804D04B
:10394000022814D0042838D125E0606CFF280DD15E
:1039500000BFFCF793FE00BF4846FCF70DFC00BF1C
:1039600000BF46F6C550288000208DE726E04FF6C0
:10397000FF71606C88420DD100BFFCF77FFE00BF75
:103980004846FCF7F9FB00BF00BF46F6C55028804B
:10399000002079E712E0606C401C68B900BFFCF7BA
:1039A0006DFE00BF4846FCF7E7FB00BF00BF46F6D0
:1039B000C5502880002067E700E000BF00BF606CB2
:1039C000401C6064666C00BFFCF758FE00BF4846B0
:1039D000FCF7D2FB00BF00BF0DE000BFFCF74EFEBE
:1039E00000BF4846FCF7C8FB00BF00BF46F62D608D
:1039F0002880002600BF00BF304645E700010020B8
:103A000070B504460D46002600BF00BFFCF7B0FBB2
:103A1000064600BFFCF718FE00BF0CB94448046816
:103A200043480068844210D14248007800280CDDE9
:103A300000BFFCF723FE00BF3046FCF79DFB00BF34
:103A400000BF46F66350288070BD0020288094F89F
:103A5000360008285AD2DFE800F004172737474815
:103A6000494A042084F83600012084F88A00204660
:103A7000FFF782FA00BFFCF701FE00BF3046FCF7FB
:103A80007BFB00BF00BF4EE0052084F8360001201C
:103A900084F88A0000BFFCF7F1FD00BF3046FCF758
:103AA0006BFB00BF00BF3EE0062084F8360001201B
:103AB00084F88A0000BFFCF7E1FD00BF3046FCF748
:103AC0005BFB00BF00BF2EE0072084F8360001201A
:103AD00084F88A0000BFFCF7D1FD00BF3046FCF738
:103AE0004BFB00BF00BF1EE000BF00BF00BF94F84B
:103AF0008A00401C84F88A0000BFFCF7BFFD00BFAD
:103B00003046FCF739FB00BF00BF0CE000BFFCF7FC
:103B1000B5FD00BF3046FCF72FFB00BF00BF46F6E7
:103B20002D60288090E700BFFDF7AEFC00BF8BE75B
:103B300000010020A8000020002108E0064A02EB56
:103B4000C100002202608280C2804A1C91B2034AF6
:103B500012889142F2DB7047EC9E0020C0470008BB
:103B60002DE9F04F0C4616461D46042E1ED1DFF8F7
:103B7000A091D9F80090A4EB0909A9F1010313F56C
:103B8000803F0DD94FF00009C0F84C90C0F850901C
:103B9000C0F81C9047F27E29A5F80090BDE8F08F90
:103BA000C46403F10109C0F850903FE084B3082ECB
:103BB00025D1D0F8489009EB0407DFF85491D9F8E3
:103BC0000090A7EB0909A9F10103A34201D2C76440
:103BD00006E0DFF83C91D9F80090A144C0F84C9081
:103BE000DFF82CA1D0F84C90DAF800A0A9EB0A0974
:103BF000C0F85090D0F84C90C0F8489016E0DFF82C
:103C00001091D9F80090A144C0F84C9004650DE0E3
:103C1000FFE74FF00009C0F84C90C0F85090C0F892
:103C20001C9047F27E29A5F80090B7E7DFF8E4A0E2
:103C3000BAF800A0D0F84C90B9FBFAFB0AFB1B992C
:103C40001FFA89F8DFF8D09009EBC802B2F80490A7
:103C5000B9F1000F0BD14FF00009C0F81490C0F873
:103C6000189010604FF00109A2F804903EE011682E
:103C700034E0DFF89CA0D1F84C90DAF800A0A9EB72
:103C80000A09C1F85090D0F85090D1F850A0D14511
:103C90000ED9D1F81490B9F1000F01D049691DE097
:103CA0004FF00009C0F8149081614861002115E0CF
:103CB000D1F81890B9F1000F07D14FF00009C0F802
:103CC000189041618861106007E0D1F818C0C0F811
:103CD00018C04161CCF81400886100210029C8D1C6
:103CE000B2F8049009F10109A2F80490B2F8069024
:103CF000B2F804A0D14503DAB2F80490A2F8069015
:103D0000C2614FF00009A5F8009000BF46E700002F
:103D1000E0000020C0470008EC9E002010B5C269FA
:103D2000BAB1002404651468844205D14169116068
:103D300039B100248C6104E0816943694B6103B1AE
:103D40009961002444618461C461C4649488641EE0
:103D5000948010BD002006E0054A02EBC00100225D
:103D6000CA80421C90B2034A12889042F4DB70472A
:103D7000EC9E0020C04700082DE9F05F4FF0000BDB
:103D800000BF00BFFCF7F4F9834600BFFCF75CFC02
:103D900000BFFCF7E7FC054657480068401C564941
:103DA00008600846006855490988B0FBF1F201FB3C
:103DB00012001FFA80FA524800EBCA08D8F80040F7
:103DC000002782E0002C7FD0D4F8149094F83600BD
:103DD000082875D2DFE800F00408051B063D0750EF
:103DE00000BF00BF00BF6CE04349E06C0968401AA7
:103DF00020654149E06C0968884206D1002084F8BA
:103E000036002046FFF75CFC00E0012759E03A4904
:103E1000E06C0968401A20653749E06C09688842FF
:103E200015D10020E065A4F86000FCF79BFC20643D
:103E30002046FEF71BFF2046FFF742FC00203434EB
:103E4000A07003206070002004F8340900E001270E
:103E500037E02949E06C0968401A20652649E06C82
:103E60000968884206D1042084F836002046FFF70E
:103E700055FF00E0012724E01F49E06C0968401A63
:103E800020651D49E06C0968884217D10020E06573
:103E9000A4F86000FCF766FC20642046FEF7E6FE0E
:103EA0002046FFF73BFF04203434A07003206070ED
:103EB000002004F8340902E006E001E0012700E0F8
:103EC00000BF00BF4C4600E00127002F3FF47AAF4F
:103ED000FCF748FC461B0B480068B04201D2094879
:103EE000066000BFFCF7CAFB00BF5846FCF744F968
:103EF00000BF00BFBDE8F09FE0000020C047000801
:103F0000EC9E0020E40000201CB500BF0EE001ABD9
:103F10006A4600210846FDF7DFFEBDF8040028B917
:103F200003480078012801D1FFF726FFEFE70000E2
:103F30007400002010B58AB0044600201D490860B6
:103F40001D490860FFF7F8FD1C48006820B947F2DA
:103F5000122020800AB010BD19480068194909686C
:103F6000884203D247F213202080F3E716480078F6
:103F70001F2803D347F211202080EBE70B200021FC
:103F800005910A46CDE9070406910D4800680F49DE
:103F900009680A4B1B68CDE90131CDE903020A48E3
:103FA000007800230A4A0BA100900F48FDF7B8FCE7
:103FB00000BFCFE7E0000020E4000020B047000889
:103FC000B8470008A4470008AC470008B4470008F9
:103FD000093F000875432F4F532D49494920546923
:103FE000636B205461736B0018A5002070B58AB014
:103FF00004460020314908603148006840B131482A
:1040000000682F490968B0FBF1F02F49086006E00D
:104010002C4800680A21B0FBF1F02B4908602A48BF
:1040200000682A4908600020294908602949086079
:10403000002508E0284800EBC5060020B080F0808D
:104040003060681C85B2254800888542F2DB244830
:10405000006820B947F2473020800AB070BD21487F
:10406000006821490968884203D247F2483020801D
:10407000F3E71E4800781F2803D347F2463020801C
:10408000EBE70B2000210591CDE9070406910846D6
:1040900014490968164A1268114B1B68CDE90132B0
:1040A000CDE90310114800780023124A12A10090B4
:1040B0001748FDF735FC00BFCFE70000E8000020FF
:1040C000CC470008A8470008F8000020FC000020AA
:1040D000F4000020F000002074A10020E047000858
:1040E000D0470008D8470008A4470008C847000880
:1040F000D44700080942000875432F4F532D494902
:10410000492054696D6572205461736B0000000092
:10411000E0A50020F0B50C46022680F82A60012CAC
:1041200005D12D4F466A3F683E4486610CE0066A21
:104130002EB9294F466A3F683E44866104E0264F07
:10414000066A3F683E448661244F3F888669B6FB15
:10415000F7FC07FB1C66B5B2214E06EBC5021668DC
:1041600036B90026066146611060012696802CE073
:10417000194F86693F68F61BC661116820E0164F2B
:104180008E693F68F61BCE61C669CF69BE4209D908
:104190000E690EB1096913E00026066141610861EC
:1041A00000210DE04E692EB900264661016148618B
:1041B000106004E04B6943610161186148610021AE
:1041C0000029DCD19688761C9680D6889788BE42D6
:1041D00001DA9688D680F0BDF4000020E0470008A0
:1041E00074A10020002006E0054A02EBC001002275
:1041F000CA80421C90B2034A12889042F4DB704796
:1042000074A10020E04700081CB500BF53E001ABDB
:104210006A4600210846FDF75FFD01A8FDF788F911
:10422000FCF7A0FA064624480068401C22490860B2
:104230000846006821490988B0FBF1F201FB120031
:104240001FFA80FA1E4800EBCA08D8F800404FF069
:10425000000B21E0F4B1D4F810901749A069096867
:10426000884214D1204600F02FF8208D022804D176
:1042700001212046FFF74EFF02E0032084F82A00C8
:10428000A56815B12046E168A8474C4604E04FF008
:10429000010B01E04FF0010BBBF1000FDAD0FCF78E
:1042A00061FA871B01A8FDF781F906480068B8424A
:1042B00001D204480760AAE7F4000020E0470008A4
:1042C00074A10020F0000020F0B5114E36888569F9
:1042D000B5FBF6F706FB1755ACB20E4D05EBC40265
:1042E0001568854205D10169116039B100254D611C
:1042F00004E0416903690B6103B15961012580F84C
:104300002A5000250561456195886D1E9580F0BD98
:10431000E047000874A1002029B1064A92690243CF
:10432000044B9A6104E0034A92698243014B9A610B
:10433000704700000010024030B500210022002428
:1043400000232D4D6D6805F00C0121B1042905D025
:10435000082923D105E0294D056022E0274D05609D
:104360001FE0254D6D6805F47012234D6D6805F44E
:104370008034022505EB92421CB9214D554305605E
:104380000BE01D4D6D6805F400351DB11C4D554306
:10439000056002E0194D5543056002E0174D0560C8
:1043A00000BF00BF144D6D6805F0F0010909154DFF
:1043B0006B5C0568DD4045600F4D6D6805F4E0619C
:1043C000090A104D6B5C4568DD4085600A4D6D68DB
:1043D00005F46051C90A0B4D6B5C4568DD40C56052
:1043E000054D6D6805F44041890B074D6B5CC56850
:1043F000B5FBF3F5056130BD0010024000127A00F4
:1044000000093D000000002010000020704710B59A
:1044100000F002F810BD00000CB5002001900090E3
:104420003348006840F480303149086000BF3048AC
:10443000006800F4003000900198401C0190009842
:1044400018B90198B0F5A06FF1D12948006800F4BF
:10445000003010B10120009001E000200090009891
:10446000012843D12348006840F01000214908602A
:104470000846006820F0030008600846006840F025
:10448000020008601A4840681949486008464068B8
:1044900048600846406840F48060486008464068CC
:1044A00020F47C1048600846406840F4E8104860FA
:1044B0000846006840F08070086000BF0C48006843
:1044C00000F000700028F9D00948406820F003008F
:1044D000074948600846406840F00200486000BF55
:1044E0000348406800F00C000828F9D10CBD00001A
:1044F000001002400020024010B51348006840F050
:1045000001001149086008464068104908400E49FA
:104510004860084600680E4908400B490860084694
:10452000006820F4802008600846406820F4FE00FF
:1045300048604FF41F008860FFF769FF4FF000608C
:104540000449086010BD0000001002400000FFF8A0
:10455000FFFFF6FE08ED00E021B1828942F400522F
:10456000828104E082894DF6FF731A408281704790
:1045700002460020B1F5007F00D100BF13880B4038
:104580000BB1012000E00020704700002DE9F0474A
:1045900086B005460E460024A24600BFA14600276D
:1045A000B08900B100BF2F462C8A4CF6FF70044042
:1045B000F08804432C82AC894EF6F3100440B08896
:1045C00031890843718908430443AC81AC8A4FF6B2
:1045D000FF400440B0890443AC8201A8FFF7ACFE61
:1045E0001F48874202D1DDF810A001E0DDF80CA0E1
:1045F000A88900F4004040B10AEBCA0000EB0A10A1
:1046000031684900B0FBF1F807E00AEBCA0000EBA3
:104610000A1031688900B0FBF1F86420B8FBF0F0B3
:1046200004012009642101FB1089A88900F40040DD
:1046300040B1322000EBC900B0FBF1F000F0070000
:10464000044308E0322000EB09106421B0FBF1F0D4
:1046500000F00F0004432C8106B0BDE8F087000095
:1046600000380140C1F308028280704700BFFEE7B6
:10467000014A024900F013B8C146000808010020B1
:1046800002E008C8121F08C1002AFAD1704770471B
:10469000002001E001C1121F002AFBD170472DE963
:1046A000F04116460F460446002503E03946B04760
:1046B000641C6D1C20780028F8D12846BDE8F081E4
:1046C00070B504460D46E1B20548FFF7CBFF00BFC9
:1046D00080210348FFF74CFF0028F9D0204670BD29
:1046E0000038014000B58BB00AA8FCF77FFD0AA88E
:1046F000032100220592CDE90621089010464FF4CF
:1047000000713322094BCDE90132CDE903100220BB
:104710000023074A07A100900A48FDF701F90AA8FB
:10472000FCF794FF00200BB000BD00002C0400201B
:1047300049040008417070205461736B2053746108
:10474000727400000C010020AC9000200C000000EE
:1047500080000000000200000000000000000000D7
:104760000000000000000000000000000000000049
:1047700000000000AC920020800000000002000059
:104780006400000040060000AC9400201E00000001
:104790000A000000EC9A00200C00000080000000DD
:1047A0000002000040000000E803000001000000DB
:1047B000EC9C00200C0000008000000000020000C3
:1047C00011000000880000001D0000000A00000029
:1047D000749F00200C000000800000000002000018
:1047E00011000000880000005011000001010100CC
:1047F00078563412010100000000000000000000A3
:1048000000000000000000000000000000000000A8
:104810000000000000000000000000000000000098
:104820000101010028000400000000000000000059
:104830000000000000000000000000000000000078
:104840000000000000000000000000000100200047
:10485000010010000C00100000000000000000002B
:104860000000000000000000000000000000000048
:104870000000000000000000000000000000000038
:1048800000000000010101002C00010120000C00CB
:1048900020002000040004000000000000000000D0
:1048A0000000000000000000000000000000000008
:1048B00000000000000000000000000000000000F8
:1048C00000000000000000000101010130000100B3
:1048D00000000000000000000000000000000000D8
:1048E00000000000000000000000000000000000C8
:1048F00000000000000000000101010128000C0080
:104900008001000004010101010101010100010118
:10491000C8000800010100000000000000000000C5
:104920000000000000000000000000000000000087
:104930000000000000000000000000000000000077
:104940000000000000000000000000000101340031
:1049500008005D765005000078490008000000203E
:104960000C01000080460008844A00080C01002069
:104970009CB50000904600080000000001020304FE
:1049800001020304060708090204060800000000EB
:104990000000000000000000000000000000000017
:1049A0000000000000000000000000000000000007
:1049B00000000000000000000000000000000000F7
:1049C00000000000000000000000000000000000E7
:1049D00000000000000000000000000000000000D7
:1049E00000000000000000000000000000000000C7
:1049F00000000000000000000000000000000000B7
:104A000000000000000000000000000000000000A6
:104A10000000000000000000000000000000000096
:104A20000000000000000000000000000000000086
:104A30000000000000000000000000000000000076
:104A40000000000000000000000000000000000066
:104A50000000000000000000000000000000000056
:104A60000000000000000000000000000000000046
:104A70000000000000000000000000000000000036
:044A80000000000032
:0400000508000131BD
:00000001FF
