:020000040800F2
:1000000030A00020450100087307000849060008D9
:10001000B1060008CD020008794F0008000000007A
:100020000000000000000000000000002D4E00084D
:100030002D05000800000000E3010008351D000840
:100040005F0100085F0100085F0100085F01000810
:100050005F0100085F0100085F0100085F01000800
:100060005F0100085F0100085F0100085F010008F0
:100070005F0100085F0100085F0100085F010008E0
:100080005F0100085F0100085F0100085F010008D0
:100090005F0100085F0100085F0100085F010008C0
:1000A0005F0100085F0100085F0100085F010008B0
:1000B0005F0100085F0100085F0100085F010008A0
:1000C0005F0100085F0100085F0100085F01000890
:1000D0005F0100085F0100085F0100085F01000880
:1000E0005F0100085F0100085F0100085F01000870
:1000F0005F0100085F0100085F0100085F01000860
:100100005F0100085F0100085F0100085F0100084F
:100110005F0100085F0100085F0100085F0100083F
:100120005F0100085F0100085F0100085F0100082F
:10013000DFF80CD000F032F8004800479D4F00086F
:1001400030A000200648804706480047FEE7FEE74B
:10015000FEE7FEE7FEE7FEE7FEE7FEE7FEE7FEE777
:10016000194F00083101000872B6704762B6704737
:10017000EFF3108072B6704780F31088704730BF7D
:10018000704720BF7047B0FA80F0704790FAA0F037
:10019000B0FA80F0704790FAA0F07047064C074D17
:1001A00006E0E06840F0010394E807009847103447
:1001B000AC42F6D3FFF7C0FF1052000830520008DF
:1001C00018484FF0FF010170002080F3098816489D
:1001D000016881F3088815484FF08051016062B6CC
:1001E000FEE772B6EFF3098028B1203880E8F00FFF
:1001F0000F490968086000B50E4880475DF804EBB8
:100200000D480E490A78027009480D490A680260D3
:10021000106890E8F00F203080F309884EF0040E4B
:1002200062B6704722ED00E03400002004ED00E0EB
:1002300004010020BD180008920000209300002057
:1002400008010020704770470EB500F029F800F053
:100250003FF800F039FA02A800F0C6FD00F0A6F859
:10026000FFF7F1FFFFF7EEFF0FE00848006880F0AE
:1002700001000649086002A800214FF4FA730A46FB
:10028000CDE90010084601F013FCEEE70C0C01402C
:1002900000B585B0684604F05FFD019805B000BD6B
:1002A00010B500F067FA00F0D1F900F001F810BDC8
:1002B00070B5FFF7EDFF044603480068B4FBF0F5A6
:1002C000284601F057FD70BD6050000800BFFEE7F2
:1002D00010B500F0FBF800F003F800F0F3F810BDE3
:1002E00070B5002600201849088018490880184970
:1002F00008601849086018490860184908601849DA
:100300000860002400BFFFF733FF064600BF00254A
:100310000BE000201049086000F074F800F08CF841
:100320000D4800680444681C85B2002DF1D00C48CB
:1003300004600020084908600849086000BF304692
:10034000FFF71AFF00BF70BD180000201A00002040
:100350001C00002020000020280000202C0000208D
:100360002400002001460846044A1268904203D93E
:10037000024A1268801A00E0002070472400002022
:1003800070B5002500BFFFF7F3FE054600BF064825
:10039000046800BF2846FFF7EFFE00BF2046FFF7C6
:1003A000E1FF0646304670BD2800002070B50025EC
:1003B000FFF7E6FF044600BFFFF7DAFE054600BF81
:1003C00000200449086000BF2846FFF7D5FE00BFA3
:1003D000204670BD2800002070B5002500BFFFF743
:1003E000C7FE054600BF0648046800BF2846FFF761
:1003F000C3FE00BF2046FFF7B5FF0646304670BD7E
:100400002C00002010B509480088401C07490880CE
:100410000748008818B900F083F8064908600448C6
:100420000088401C0249088010BD00001800002010
:100430001A0000201C00002010B50F480088401E44
:100440000D49088008460088A0B900F069F80B49FA
:100450000860084600680A490968441A09480068A3
:10046000A04201D20748046007480068A04201D2B8
:100470000548046010BD00001A0000202000002084
:100480001C000020280000202C00002010B50024B3
:1004900000BF00BFFFF76CFE044600BFFFF7B2FFCE
:1004A00000BF1021064800F005F900BFFFF7C4FFA8
:1004B00000BF2046FFF760FE00BF00BF10BD000078
:1004C000D409002010B5FFF7E1FF10BD10B50020E2
:1004D0000249086000F00AF810BD00001400002076
:1004E00001490860704700001400002010B50A4858
:1004F000006840F0807008490860002007494860A3
:100500000846006840F001000860FFF7C1FE04469D
:100510002046FFF7E5FF10BDFCED00E0001000E015
:100520000148406870470000001000E070472DE966
:10053000F041024600250026002000230024002769
:1005400091F803C00CF00F0591F803C00CF0100CEB
:10055000BCF1000F03D091F802C04CEA050591F8F8
:1005600000C0BCF1000F31D0146800202BE04FF028
:10057000010C0CFA00F3B1F800C00CEA03069E422D
:1005800020D183004FF00F0C0CFA03F7BC4305FA9F
:1005900003FC4CEA040491F803C0BCF1280F06D117
:1005A0004FF0010C0CFA00FCC2F814C00AE091F8FC
:1005B00003C0BCF1480F05D14FF0010C0CFA00FC50
:1005C000C2F810C0401C0828D1D31460B1F800C094
:1005D000BCF1FF0F34DD546800202EE000F1080C60
:1005E0004FF0010808FA0CF3B1F800C00CEA03065A
:1005F0009E4221D183004FF00F0C0CFA03F7BC434D
:1006000005FA03FC4CEA040491F803C0BCF1280F7E
:1006100005D100F1080C08FA0CF8C2F8148091F822
:1006200003C0BCF1480F07D100F1080C4FF00108DE
:1006300008FA0CF8C2F81080401C0828CED3546089
:10064000BDE8F0814161704700BFFEE708B50121B8
:100650004FF4847004F070FB0120ADF8000003201B
:100660008DF8020010208DF8030069460E48FFF750
:100670005EFF4020ADF8000069460C48FFF757FFC9
:100680008020ADF8000069460848FFF750FF0121BF
:100690000548FFF7D7FF40210448FFF7D3FF80212B
:1006A0000248FFF7CFFF08BD000C014000200140C9
:1006B00000BFFEE730B505460C462246002128461D
:1006C00000F026F830BD00000D480E4901600146DB
:1006D000416000218160C160016141618161C1614E
:1006E00001620163C162416207498163C1634FF4E2
:1006F000D841016441640146044A1160704700001A
:10070000E4090020484541502C0A00203000002018
:100710002DE9F04103460C4617460FB9BDE8F081BC
:1007200003B9FBE70025002202E02D022543521CFD
:10073000042AFAD3384603F0030C1946BCF1000F23
:1007400008D0624603E001F8014B401E521C08B17C
:10075000042AF8D30E4601E020C6001F0428FBD26D
:10076000314602E001F8014B401E0028FAD100BFDB
:10077000D4E7704710B54FF4A06000F001F810BD49
:1007800002490143024A1160704700000000FA0567
:100790000CED00E07047000010B50348006810B190
:1007A00001480068804710BD4800002070B504462D
:1007B00000F0C2F8002048490870484908704849CC
:1007C0000870484908604849086048490870484925
:1007D0000870484908704849086048490860484915
:1007E000086048490870484800680A21B0FBF1F0E9
:1007F000464908604648006858B14648056845B112
:100800004348066803E0761E002028602D1D002E58
:10081000F9D100204049086040490860404908601B
:100820004049086040490860404908604049086004
:100830004049087002F030FA02F02EFB204601F029
:100840008BFB208800B170BD204601F0A5FF2088F9
:1008500000B1F8E7204601F0ABFF208800B1F2E7D5
:10086000204602F08FF8208800B1ECE7204602F025
:1008700043FA208800B1E6E7204602F093FC208886
:1008800000B1E0E7204602F0FDFF208800B1DAE782
:10089000204601F0EDFE208800B1D4E7204601F0AB
:1008A000F7FC208800B1CEE7204604F053F82088FA
:1008B00000B1C8E7204602F029FF208800B1C2E756
:1008C000204604F0A3F8208800B1BCE701F06AFAE2
:1008D000FFF760FF00BFB6E75C0000206400002067
:1008E000AC0000200401002008010020920000203C
:1008F0009300002094000020A0000020A40000200D
:10090000A8000020B400002060500008B0000020C3
:10091000305000082C5000083C000020400000200F
:1009200044000020480000204C000020500000201F
:1009300054000020E20000200A4A1168002002E072
:10094000002204C1401C084A12689042F8D3054AAC
:100950001268054B1B6802EB8302121F034B1A60DF
:10096000704700002C500008305000083400002070
:1009700010B500242E480078012800D010BD00BF1B
:10098000FFF7F6FB044600BF2A48007828B900BFED
:100990002046FFF7F1FB00BFF0E726480078401E35
:1009A0002449087008460078002805DD00BF20466D
:1009B000FFF7E2FB00BFE1E71F480078002805DDF4
:1009C00000BF2046FFF7D8FB00BFD7E702F050F981
:1009D0001A4908700846007800EB4000184951F8A1
:1009E00020001849086008460068174909688842CD
:1009F00005D100BF2046FFF7BFFB00BFBEE711488F
:100A00000068D0F89000401C0E490968C1F89000B9
:100A10000E480068401C0D4908604FF080500C499A
:100A2000086000BF2046FFF7A7FB00BF00BFA5E797
:100A3000640000205C000020AC0000209300002037
:100A4000588C00200801002004010020D80000205C
:100A500004ED00E010B5002420480078002800DDF7
:100A600010BD1F480078002800DDF9E700BFFFF740
:100A70007FFB044600BF02F0FBF81A4908700846E5
:100A8000007800EB4000184951F820001749086031
:100A90000846006816490968884205D100BF20460B
:100AA000FFF76AFB00BFDBE710480068D0F8900052
:100AB000401C0E490968C1F890000E480068401CAF
:100AC0000C4908604FF080500B49086000BF204679
:100AD000FFF752FB00BF00BFC2E700005C00002030
:100AE000AC00002093000020588C0020080100205A
:100AF00004010020D800002004ED00E070B5044699
:100B000000251A480078002803DD46F66250208050
:100B100070BD17480078012803D045F68960208011
:100B2000F6E714480078FA2803DB45F20920208014
:100B3000EEE700BF00BFFFF71BFB054600BFFFF756
:100B400061FC00BF0B480078401C0A49087002F0A5
:100B500087FA00BFFFF770FC00BF2846FFF70CFBC9
:100B600000BF00BF0020208000BFD1E75C00002054
:100B700064000020AC00002070B504460025234826
:100B80000078002803DD46F66550208070BD2048BF
:100B90000078012803D045F689602080F6E71D48DB
:100BA000007818B946F664502080EFE700BF00BF18
:100BB000FFF7DEFA054600BFFFF724FC00BF15482B
:100BC0000078401E134908700846007800280CDDA4
:100BD00000BFFFF731FC00BF2846FFF7CDFA00BF8A
:100BE00000BF46F663502080D0E702F047FA00BF0E
:100BF000FFF722FC00BF2846FFF7BEFA00BF00BF88
:100C0000FFF728FF0020208000BFBFE75C00002026
:100C100064000020AC00002010B5044612480078A3
:100C2000E8B902F025F81149087008460078104923
:100C300008700E48007800EB40000E4951F8200083
:100C40000D490860084600680C4908600120064903
:100C50000870FFF7B5FA43F69920208002E045F6C8
:100C60008A60208010BD00006400002093000020F6
:100C700092000020588C0020080100200401002070
:100C80002DE9F04107464FF0000800BF00BFFFF715
:100C90006FFA804600BFFFF7B5FB00BF0020474951
:100CA0000860474908804749088047490860474924
:100CB0000860474908604749086047490860474954
:100CC000088100BFFFF7B8FB00BF4046FFF754FAAA
:100CD00000BF00BF00BF00BFFFF74AFA804600BF59
:100CE000FFF790FB00BF3E48046800BFFFF7A4FB7E
:100CF00000BF4046FFF740FA00BF00BF26E000BF3C
:100D000000BFFFF735FA804600BFFFF77BFB00BF4F
:100D100000207834E063206420602063A061A0821A
:100D2000E0826062A062FFF7FBFB2062783C04F186
:100D300064060020B081D4F8C04000BFFFF77CFB00
:100D400000BF4046FFF718FA00BF00BF002CD6D105
:100D500000BF00BFFFF70CFA804600BFFFF752FB51
:100D600000BF2048056800BFFFF766FB00BF404694
:100D7000FFF702FA00BF00BF16E000BF00BFFFF799
:100D8000F7F9804600BFFFF73DFB00BF05F12006E5
:100D90000020B081AD6900BFFFF74EFB00BF4046A9
:100DA000FFF7EAF900BF00BF002DE6D103F09AFC7F
:100DB00003F028FF00203880BDE8F0817800002093
:100DC00072000020C2000020D4000020E8000020B3
:100DD000F400002060000020A40000204C8C0020C3
:100DE000DC00002098000020F8B504460026694683
:100DF000364800F033FDBDF8000018B1BDF8000022
:100E00002080F8BD6A460021022000F0A9FDBDF84F
:100E1000000018B1BDF800002080F2E700BF00BF5D
:100E2000FFF7A6F9064600BFFFF7ECFA00BF002067
:100E30002749086000BFFFF7FFFA00BF3046FFF701
:100E40009BF900BF00BF00252248006822490968BD
:100E5000884205D91F4800681F490968B0FBF1F5B1
:100E600025B91C4800680A21B0FBF1F56A4600214B
:100E7000284600F075FD6946144800F0A5FABDF853
:100E8000000018B1BDF800002080BAE700BF00BF25
:100E9000FFF76EF9064600BFFFF7B4FA00BF002067
:100EA0000E4908600A4800680D49086001200D4994
:100EB000087000BFFFF7C0FA00BF3046FFF75CF9CB
:100EC00000BF00BF0020208000BF9AE7688F00208D
:100ED000C40000206050000848500008D4000020E2
:100EE000C8000020D000002010B50348006810B1F1
:100EF00001480068804710BD4C0000202DE9FF4FDD
:100F000087B004469046DDE91BA5DDE91496179FDE
:100F10000020039095480078002805DD47F24A102C
:100F200028800BB0BDE8F08F1CB947F2AD102880C7
:100F3000F7E7B8F1000F03D147F24F102880F0E730
:100F40001EB946F62F602880EBE789480068874283
:100F500003D246F630602880E3E71698B84203D300
:100F600046F631602880DCE7B9F1200F03D346F262
:100F700073202880D5E7B9F1000F06D17D4884425F
:100F800003D046F273202880CBE7B9F11F0F06D1BA
:100F90007948844203D046F273202880C1E7204676
:100FA00002F080FC002028800AF0010090B10AF0D5
:100FB000020078B105960020069008E0002105980F
:100FC00001600598001D05900698401C0690069843
:100FD000B842F3D3169806EB80000490CDE9007A6E
:100FE00032464046049B0A9900F0D8FB0590C4F8AD
:100FF00028800A98E0620898206284F83790059863
:1010000020600498A06019986065199818B95B4829
:101010000068A06501E01998A0651A986060666292
:10102000A763A4F83CA04FF0000B08E0002104F1F6
:101030007C0040F82B100BF1010000F0FF0BBBF11E
:10104000000FF3D004F16400189901F011FC204660
:1010500000F09EF800BF00BF00BFFFF789F80390C3
:1010600000BFFFF7CFF900BF45480078401C444956
:10107000087008460078012801D101F0F1FF00BF97
:10108000FFF7DAF900BF0398FFF776F800BF00BF5B
:1010900000BF94F8370001F00BFE204601F044FF3A
:1010A000204602F0B5FB37480088401C35490880CF
:1010B00035480078012837D000BF00BF00BFFFF7D8
:1010C00057F8039000BFFFF79DF900BF2C48007848
:1010D000401E2B49087008460078D0B901F0CEFFB9
:1010E0002A48008800280BDD00BFFFF7A5F900BFE4
:1010F0000398FFF741F800BF00BF01F083FF11E044
:1011000000BFFFF799F900BF0398FFF735F800BF5C
:1011100008E000BFFFF790F900BF0398FFF72CF835
:1011200000BF00BF00BFFCE600BF00BF00BFFFF76D
:101130001FF8039000BFFFF765F900BF1048007863
:10114000401E0F4908700846007808B901F096FF64
:1011500000BFFFF771F900BF0398FFF70DF800BF5C
:1011600000BF00BFFFF776FC00BFDAE65C0000209E
:101170005C500008848B0020BC8A0020B000002056
:10118000AC000020E000002064000020700000207F
:1011900010B504460348006818B1204601490968A3
:1011A000884710BD3C00002070B504460D4600265F
:1011B00078480078002803DD47F24E10288070BD83
:1011C0007548844203D147F24C102880F7E77348F2
:1011D000844203D147F24D102880F0E79CB900BF4C
:1011E00000BFFEF7C5FF064600BFFFF70BF900BFC3
:1011F0006B48046800BFFFF71FF900BF3046FEF7D9
:10120000BBFF00BF00BF00BF00BF00BFFEF7B0FFC5
:10121000064600BFFFF7F6F800BF62480078401CA2
:101220006049087008460078012801D101F018FFD4
:1012300000BFFFF701F900BF3046FEF79DFF00BF7A
:1012400000BF00BF94F8360008282DD2DFE800F078
:1012500004090E10080A0F11204601F0A5FE5EE0F9
:101260005DE000BF204603F021FA58E000BF00BF58
:1012700000BF204603F01AFA94F83400082810D270
:10128000DFE800F004070508090A0B0600BF00BFED
:1012900008E000BF00BF00BF00BF204601F039FCDE
:1012A00000E000BF00BF3AE000BF00BF00BFFEF794
:1012B0005FFF064600BFFFF7A5F800BF394800787A
:1012C000401E3849087008460078D0B901F0D6FEB3
:1012D0003548008800280BDD00BFFFF7ADF800BFE0
:1012E0003046FEF749FF00BF00BF01F08BFE11E062
:1012F00000BFFFF7A1F800BF3046FEF73DFF00BF7B
:1013000008E000BFFFF798F800BF3046FEF734FF53
:1013100000BF00BF00BF46F62D6028804FE700BF2A
:1013200004F1640001F082FA204600F041F8204602
:1013300002F086FA1D480088401E1C49088020469D
:1013400002F0B0FAFF2084F8360000BF00BF00BFF3
:10135000FEF70EFF064600BFFFF754F800BF114826
:101360000078401E0F4908700846007808B901F05F
:1013700085FE00BFFFF760F800BF3046FEF7FCFEB9
:1013800000BF00BF00BF00202880FFF763FB00BF45
:1013900015E700005C000020BC8A0020848B002040
:1013A00004010020AC00002070000020E0000020BC
:1013B00010B504460348006818B120460149096881
:1013C000884710BD400000207FB504460D4600262A
:1013D00000BF00BFFEF7CCFE064600BFFFF712F8C5
:1013E00000BF1CB11748006884420CD100BFFFF752
:1013F00023F800BF3046FEF7BFFE00BF00BF47F234
:10140000571028807FBD00BFFFF716F800BF304699
:10141000FEF7B2FE00BF00BF0B48007800280BDDCE
:10142000002000900190034602462146CDE90205C6
:10143000064800F065FFE5E72946204602F0DEFB9E
:1014400000BFDFE7040100205C0000205452455338
:1014500010B504460348006818B1204601490968E0
:10146000884710BD440000202DE9F04780460E4615
:1014700014461D464FF000098C480078002805DD11
:1014800046F2AE1028800020BDE8F0871EB1B6F508
:10149000004F02D100E000BF04E045F6256028803F
:1014A0000020F1E700BF0CB10020206000BF00BFAA
:1014B000FEF75EFE814600BFFEF7A4FF00BF7C483A
:1014C0000068406CB8B37A480068406C401E7849A8
:1014D0000968486476480068476C1CB17448006825
:1014E000006C2060FFF71CF871490968096C401A0C
:1014F0006F490968C1F8A4006D480068D0F8A800D9
:101500006B490968D1F8A410884207D2684800687E
:10151000D0F8A40066490968C1F8A80000BFFEF72A
:101520008BFF00BF4846FEF727FE00BF00BF00202C
:1015300028803846A8E7FFE706F4004068B100BFFE
:10154000FEF77AFF00BF4846FEF716FE00BF00BF59
:1015500046F2B0102880002096E756480078002810
:101560000DDD00BFFEF768FF00BF4846FEF704FE32
:1015700000BF00BF46F663502880002084E700BF0C
:101580004C480078401C4B490870084600780128F8
:1015900001D101F065FD00BFFEF74EFF00BF4846D8
:1015A000FEF7EAFD00BF00BF00BF4346072200214F
:1015B000084601F0F3F900BF00BF00BFFEF7D8FDF9
:1015C000814600BFFEF71EFF00BF3A480078401E6C
:1015D000384908700846007808B901F04FFD00BF8F
:1015E000FEF72AFF00BF4846FEF7C6FD00BF00BF5A
:1015F00000BFFFF72FFA00BF00BFFEF7B9FD81461D
:1016000000BFFEF7FFFE00BF2948006890F83500D4
:1016100020B1012826D0032834D12CE0FCB1244885
:101620000068006C2060FEF77BFF21490968096CA7
:10163000401A1F490968C1F8A4001D480068D0F885
:10164000A8001B490968D1F8A410884207D218489D
:101650000068D0F8A40016490968C1F8A800002065
:10166000288013E01CB112480068006C206046F22C
:10167000A91028800AE00CB10020206047F2D92090
:10168000288003E046F62E60288000BF00BF08488F
:101690000068476C00BFFEF7CFFE00BF4846FEF76C
:1016A0006BFD00BF00BF3846EEE600005C00002086
:1016B00004010020AC0000202DE9F04705460E464D
:1016C00017461C464FF0000A32480078002804DD17
:1016D00047F259102080BDE8F0871EB946F2D520A8
:1016E0002080F8E71FB946F2D5202080F3E700BF3D
:1016F00000BFFEF73DFD824600BFFEF783FE00BF40
:101700000DB925480568286878B900BFFEF794FE32
:1017100000BF5046FEF730FD00BF00BF0020306024
:10172000386047F252102080D5E795F83C0000F071
:10173000010078B900BFFEF77FFE00BF5046FEF7FC
:101740001BFD00BF00BF00203060386047F254101E
:101750002080C0E700BFFEF76FFE00BF5046FEF7D7
:101760000BFD00BF00BF4FF00008D5F8249003E048
:1017700009F1040908F10108D9F800000028F7D0A0
:10178000C6F80080A86BA0EB08003860002020801D
:1017900000BFA0E75C00002004010020F0B5044673
:1017A000DDE9055602EB85004FF0807C071F3846C7
:1017B000C7F800C0071F38463C60DFF89CC0071F11
:1017C0003846C7F800C04FF0123C071F3846C7F82C
:1017D00000C04FF0033C071F3846C7F800C04FF069
:1017E000023C071F3846C7F800C0071F38463B6059
:1017F000071F384639604FF0113C071F3846C7F8BD
:1018000000C04FF0103C071F3846C7F800C04FF02B
:10181000093C071F3846C7F800C04FF0083C071FB7
:101820003846C7F800C04FF0073C071F3846C7F8D6
:1018300000C04FF0063C071F3846C7F800C04FF005
:10184000053C071F3846C7F800C04FF0043C071F8F
:101850003846C7F800C0F0BD793D00087FB50546A1
:101860000C461248854203D147F25B1020807FBDB1
:101870000F48854203D147F25C102080F7E70D48FE
:10188000007800280BDD00200090019003460246FE
:101890002946CDE90204084800F032FDE7E7214679
:1018A000284602F049FD00BFE1E70000BC8A0020A5
:1018B000848B00205C0000205453555370B524489D
:1018C000006810B1224800688047FEF729FE0446F0
:1018D0002048006820490968884215D01D480068E2
:1018E000D0F89800201A1B490968C1F894001948DB
:1018F0000068D0F89C0017490968D1F89410084492
:1019000014490968C1F89C0013480068C0F8984061
:10191000FEF74CFD05460F480068D0F8B400A84219
:1019200003D20C480068C0F8B4500A480068D0F8E8
:10193000B8000A490968884205D208480068054984
:101940000968C1F8B80000200449086070BD0000B3
:10195000500000200401002008010020A800002001
:101960002DE9F04105460E46144600274D48007803
:10197000002804DD47F275202080BDE8F0814A4848
:101980000078002803DD46F663502080F5E736B185
:10199000022E05D0042E0AD0082E09D101E000BF86
:1019A00000BF1DB947F27E202080E6E704E003E097
:1019B00045F625602080E0E700BF00BF00BF00BF04
:1019C000FEF7D6FB074600BFFEF71CFD00BF3648FA
:1019D0000078401C3449087008460078012801D17D
:1019E00001F03EFB00BFFEF727FD00BF3846FEF7C3
:1019F000C3FB00BF00BF00BF01202C49096881F86C
:101A000036002346324629462848006802F070FD19
:101A10002088F0B100BF00BF00BFFEF7A9FB07465A
:101A200000BFFEF7EFFC00BF1F480078401E1E49B4
:101A300008700846007808B901F020FB00BFFEF7E7
:101A4000FBFC00BF3846FEF797FB00BF00BF00BF9E
:101A500093E71648006801F0A7FA00BF00BF00BF77
:101A6000FEF786FB074600BFFEF7CCFC00BF0E4822
:101A70000078401E0C4908700846007808B901F04B
:101A8000FDFA00BFFEF7D8FC00BF3846FEF774FB36
:101A900000BF00BF00BFFEF7DDFF0020208000BFB9
:101AA0006BE700005C000020AC0000200401002077
:101AB0002DE9FF5F05460E4617469846DDE90EA460
:101AC0000020009081480078002804DD47F275204E
:101AD0002080BDE8FF9F7E480078002803DD46F6A1
:101AE00063502080F5E70AF00E0BBBF1000F09D020
:101AF000BBF1020F07D0BBF1040F10D0BBF1080FF0
:101B00000ED101E000BF00BFB8F1000F06D12FB920
:101B100026B91DB947F27E202080DAE704E003E011
:101B200045F625602080D4E700BF2AF01E0008B1EA
:101B3000012000E0002003900398012803D145F61E
:101B400025602080C5E7CAF3001002900298C0B952
:101B5000B8F57A7F03D347F27B202080B9E73B2F8B
:101B600003DD47F27A202080B3E73B2E03DD47F206
:101B700079202080ADE7632D12DD47F278202080A8
:101B8000A7E742F20F70864203DD47F279202080FA
:101B90009FE7B5F57A7F03DB47F27820208098E74E
:101BA0004C48D0F800904FF4FA70B0FBF9F0404484
:101BB00000FB09F04FF47A71B0FBF1F14FF4616072
:101BC0006843C6EB061200EB8200384400FB0910A4
:101BD00001900198002873D000BF00BF00BFFEF73E
:101BE000C7FA009000BFFEF70DFC00BF3848007830
:101BF000401C3749087008460078012801D101F0DF
:101C00002FFA00BFFEF718FC00BF0098FEF7B4FAE9
:101C100000BF00BF00BF01202F49096881F83600CE
:101C200023465A462C480199006802F061FC20883E
:101C3000F0B100BF00BF00BFFEF79AFA009000BFEE
:101C4000FEF7E0FB00BF22480078401E20490870E4
:101C50000846007808B901F011FA00BFFEF7ECFB66
:101C600000BF0098FEF788FA00BF00BF00BF30E752
:101C70001948006801F098F900BF00BF00BFFEF7E7
:101C800077FA009000BFFEF7BDFB00BF1048007858
:101C9000401E0F4908700846007808B901F0EEF9B7
:101CA00000BFFEF7C9FB00BF0098FEF765FA00BF52
:101CB00000BF00BFFEF7CEFE0020208003E0FFE75C
:101CC00047F27E20208000BF03E700005C00002078
:101CD000AC000020605000080401002010B586B060
:101CE00000F01EF8FEF71CFC044605A80021009138
:101CF000CDE9011403900748007800EB4000064A44
:101D000002EB800100231A46044800F0F9FA06B0FD
:101D100010BD000092000020588C00205449434B15
:101D200010B50348006810B101480068804710BD35
:101D30005400002010B5002400BF00BFFEF718FAC1
:101D4000044600BFFEF75EFB00BF09480078401C58
:101D50000749087000BFFEF76FFB00BF2046FEF783
:101D60000BFA00BF00BFFFF7B9FFFEF701FE10BD81
:101D70005C00002001464A1E4FF0E0235A61084AE9
:101D8000106820F07F4000BF10601A46126942F0D0
:101D900005021A611A46126942F002021A6170477E
:101DA00020ED00E0254A2649264A274A2749284AA5
:101DB0002848294A294A2A4A2A4A2B482B482C488B
:101DC0002C4A2D482D4A2E482E4A2F482F4830485D
:101DD0003048314A314A324A3248334A334A344829
:101DE000344835483548364836483748374A384AFF
:101DF000384A394A39483A483A483B4A3B4A3C4AC9
:101E00003C483D483D483E493E483F4A3F4A404A9B
:101E1000404A414A414A424A4248434A434A444866
:101E20004448454A454A4648464A474A474848483A
:101E3000484800BF00BF00BF70470000A450000822
:101E40000C520008A5500008A6500008A850000831
:101E5000AC500008B0500008AD500008D850000841
:101E6000D9500008DA500008DC500008DE500008A5
:101E7000E0500008E2500008E45000080451000857
:101E800006510008085100080A5100080C510008CA
:101E90000E510008105100083C5100083D51000847
:101EA0003E510008405100084251000843510008CB
:101EB0004451000846510008485100084A510008A2
:101EC0004C5100084E510008505100088051000844
:101ED0008151000882510008835100088451000894
:101EE0008651000888510008B0510008B15100081F
:101EF000B2510008B3510008B4510008B6510008AF
:101F0000B8510008BC510008BD510008BE5100087E
:101F1000BF510008C0510008C1510008C25100085B
:101F2000C3510008C4510008C6510008C751000839
:101F3000C8510008CA510008CC510008CD51000812
:101F4000D05100080452000805520008065200084B
:101F5000085200080A5200080021034A1160034A8F
:101F600011800180704700007C000020800000206C
:101F70002DE9F04F85B00446894692469B46DDF830
:101F800038800020009000BF00BFFEF7F1F80090FD
:101F900000BFFEF737FA00BFBAF1000F0AD0BAF15E
:101FA000010F0DD0BAF5004F05D06FF4004050443A
:101FB00060B906E000BF206A40EA0900206216E02E
:101FC00000BF206A20EA0900206210E000BFFEF78F
:101FD00033FA00BF0098FEF7CFF800BF00BF45F608
:101FE0002560A8F80000002005B0BDE8F08F00BF14
:101FF000C4F824B004F1080001900198008968B980
:1020000000BFFEF719FA00BF0098FEF7B5F800BF51
:1020100000BF0020A8F80000206AE5E700BF714873
:102020000078401C6F49087008460078012801D1EB
:1020300001F016F800BFFEF7FFF900BF0098FEF7A9
:102040009BF800BF00BF00BF01980768BD6889E02A
:102050007868029095F8880000F00F0003900398CC
:10206000012821D002282ED0042802D0082836D1F9
:102070000EE0206AD5F8801000EA0106D5F880004D
:10208000B04204D15A463146284600F0AFF863E02A
:10209000206AD5F8801000EA010626B15A4631467A
:1020A000284600F0A3F857E0D5F88000216A20EA1E
:1020B0000106D5F88000B04204D15A463146284680
:1020C00000F094F848E0D5F88000216A20EA010683
:1020D00026B15A463146284600F088F83CE000BF59
:1020E00000BF00BFFEF744F8009000BFFEF78AF97A
:1020F00000BF3C480078401E3A4908700846007806
:10210000D0B900F0BBFF3848008800280BDD00BFC5
:10211000FEF792F900BF0098FEF72EF800BF00BF4F
:1021200000F070FF11E000BFFEF786F900BF0098D5
:10213000FEF722F800BF08E000BFFEF77DF900BF00
:102140000098FEF719F800BF00BF00BF43F6FF205C
:10215000A8F80000002047E700BF029F0FB1BD684C
:1021600000E00025002D7FF473AF00BF00BF00BF6B
:10217000FDF7FEFF009000BFFEF744F900BF1948CD
:102180000078401E174908700846007808B900F02A
:1021900075FF00BFFEF750F900BF0098FDF7ECFF98
:1021A00000BF00BF00BF0AF4004008B9FEF752FCB0
:1021B00000BF00BFFDF7DCFF009000BFFEF722F973
:1021C00000BF206A049000BFFEF736F900BF0098F8
:1021D000FDF7D2FF00BF00BF0020A8F80000049860
:1021E00002E70000AC0000207000002070B504463B
:1021F0000E46154634342665002060702070E56078
:10220000A078343C082816D2DFE800F0040508095D
:102210000706101100BF00BF00BF0DE000BF204641
:1022200001F0DEFC002084F8360005E000BF042049
:1022300084F8360000E000BF00BF204600F069FCD3
:1022400070BD0000002400BF1DE000BF00BFFDF70F
:102250008FFF044600BFFEF7D5F800BF0A480068AC
:10226000401C0949086009480068401C074908608B
:1022700000BFFEF7E1F800BF2046FDF77DFF00BF7D
:1022800000BFFEF789FAE0E758000020C4000020F4
:1022900010B58AB0044600200E4908600B200021CA
:1022A0000591CDE90704069108460B4909680B4AD8
:1022B00012680B4B1B68CDE90132CDE903101F20DA
:1022C0000023084A08A100900C48FEF717FE0AB048
:1022D00010BD0000580000200850000804500008FD
:1022E000005000084522000875432F4F532D4949DF
:1022F000492049646C65205461736B00BC8A0020DE
:102300002DE9F84F04460D4616461F46DDE90BAB96
:10231000DDF82890DDF834800020009000BF00BF79
:10232000FDF726FF009000BFFEF76CF800BF2C48B9
:1023300000882C49098888423EDA29480088401CD8
:1023400027490880284800880988884203DA2448F9
:1023500000882549088025480068046023480068F3
:10236000856022480068C6602048006807821F48D0
:102370000068C0F814901D480068A0F818A01B4819
:102380000068C0F81CB01948006840681749086028
:10239000012017490881174808604860002000F0B4
:1023A00087FC1548007818B1134800781349087065
:1023B0000020A8F8000008E011480088401C1049DF
:1023C000088044F25360A8F8000000BFFEF734F81C
:1023D00000BF0098FDF7D0FE00BF00BFBDE8F88F3A
:1023E00070000020145000087200002068000020D7
:1023F000588C0020848B0020920000209400002044
:10240000740000203EB5594800680068584A811A97
:10241000904279D00FDC5749084400283ED05649F5
:102420000844A8B155490844002860D054490844DC
:1024300000286AD13FE053480844002850D0524950
:102440000844002862D0514908440028F1D110E026
:1024500002A8464D00902D68EB69444D2D682A8BEB
:10246000424D2D686969414D2D68A868FFF780FDD0
:102470007AE002A93D480068C0693C4DCDE9000101
:102480002D682B8B394D2D682A8A384D2D68E968C7
:10249000364D2D68A86800F03BFC65E0334B1B68A7
:1024A000DA69324B1B68198B304B1B68986802AB9A
:1024B00000F084FE58E002A92C480068C0692B4D4A
:1024C000CDE900012D682B8B284D2D682A8A274DD8
:1024D0002D68E968254D2D68A86801F04BFA43E0A6
:1024E00022490968886802A901F088FB3CE01F4B7B
:1024F0001B68DA691D4B1B68198B1C4B1B6898689D
:1025000002AB01F045FC2FE007E02CE01749096819
:10251000886802A901F010FF26E01D49097801EB47
:1025200041011C4A02EB810000F0C6FD0F48006823
:1025300002AB0021C269184801F02AFC1748006864
:10254000401E164908600846006858B914480068DB
:102550000860FDF7E5FF044602AB22460021114862
:1025600001F016FC00E000BF00BF3EBD6C00002083
:102570005449434BADBAB2BE0DF90BFAF2F8F7FF6E
:102580000006F6FF00F7FDF700FFEFFF03FE0FFE6A
:1025900094000020588C0020A08E00200001002014
:1025A000FC000020688F0020002700BF56E00026B6
:1025B00052E000BF00BFFDF7DBFD074600BFFDF79F
:1025C00021FF00BF2648008898B9002025490881CE
:1025D0000860486000F07EFB00BFFDF72DFF00BFE4
:1025E0003846FDF7C9FD00BF00BFFEF733FA0126EC
:1025F00032E000BFFDF720FF00BF3846FDF7BCFD0D
:1026000000BF00BFFDF78CFF0546FFF7FBFEFDF79F
:1026100087FF441B14480068A04201D2124804609E
:1026200000BF00BFFDF7A4FD074600BFFDF7EAFEAF
:1026300000BF0E48006840680C49086008480088E0
:10264000401E0749088000BFFDF7F6FE00BF384670
:10265000FDF792FD00BF00BF002EAAD0A7E7000043
:1026600070000020588C0020780000206C000020B2
:10267000F0B589B00546002031490880314800682E
:1026800020B944F25260288009B0F0BD2E4800887D
:10269000022803DA44F254602880F5E700202B4931
:1026A0000860284804682646203600270CE02848A1
:1026B00020600020A060E06020826061208366606E
:1026C00020342036781C87B21F4800888742EEDB12
:1026D000203C1C48066866601E4806601E4806606E
:1026E00000201E4908801E4908801E48006818B94D
:1026F00044F255602880C7E71B4800681B490968F9
:10270000884203D244F256602880BDE703200021AE
:102710000591CDE90705069113480068144A12682F
:10272000104B1B68CDE90301CDE9013200910B4646
:10273000104A11A11748FEF7E1FB00BFA4E7000013
:102740007400002010500008145000087800002089
:102750004E4F4E45680000206C00002070000020A5
:10276000720000201C500008245000085C50000833
:1027700020500008A925000875432F4F532D4949C3
:102780004920495352205175657565205461736B1A
:1027900000000000848B00200021034A1160034ADE
:1027A0001180018070470000840000208800002014
:1027B00070B501461A4D2D681DB945F21E750D8084
:1027C00070BD184D2D881DB945F21D750D80F7E7B8
:1027D000134D28682A681032124D2D886D1EACB238
:1027E000002308E00260002545600581C5601030C7
:1027F00010325D1CABB2A342F4DB002505604560DE
:102800000581C560064D2D68074E3560054D2D8844
:10281000B5800025F58035810D8000BFD0E7000030
:1028200040500008385000084C8C002010B501467C
:1028300048894B89002B17DD0A680C4B1B68136015
:102840000A4C4B6823602346DB884C891B1B074CD2
:10285000E38023469B884C892344044CA3800023B7
:102860004B818B810B604B6010BD00004C8C0020B5
:102870000181002242818281026042607047000033
:102880002DE9F0410D46DDE90674B0F80AC0B0F854
:102890000880C44505DB46F2935CA4F800C0BDE89F
:1028A000F081DFF8DCC0BCF804C0BCF1000F04D13B
:1028B00045F21D7CA4F800C0F1E7DFF8C4C0DCF8E5
:1028C0000010DFF8BC80D1F800C0C8F800C0C446D2
:1028D000BCF804C0ACF1010CA8F804C0C446BCF8B4
:1028E00006C00CF1010CA8F806C0C446BCF808C02C
:1028F000B8F80680C44507DADFF884C0BCF806C023
:10290000DFF87C80A8F808C0B0F80AC0BCF1000F5E
:102910000AD1016041604FF0010CA0F80AC04FF0ED
:10292000000CC1F800C017E003F0100CBCF1000F60
:1029300007D10668316001604FF0000CC1F800C09B
:1029400004E0D0F804C0C1F800C04160B0F80AC08B
:102950000CF1010CA0F80AC0B0F80CC0B0F80A8065
:10296000C44503DAB0F80AC0A0F80CC04D600A8173
:10297000CF604FF0000CA4F800C000BF8FE700004C
:102980004C8C00200021034A1160034A1180018011
:10299000704700008C000020900000202DE9F041DD
:1029A00005460C4616461F461548006880F83460F8
:1029B00000201349096881F835003946104800683D
:1029C00000F00AFF6CB104F10808EC60012229460E
:1029D0000B48006800F016F82946404600F066F8FB
:1029E00006E0002006490968C887054909680863A8
:1029F00003480168204600F019F8BDE8F0810000A6
:102A00000401002010B5C287016300230AE00024FE
:102A10004C600C600C614C610C83CC61886020318F
:102A20005C1CA3B29342F2DB10BD000030B548B18C
:102A30004568C1F8C45000F10804226893681D6A13
:102A4000C56113E091F83450022D02D0072D08D152
:102A500003E007A5C1F8C45007E007A5C1F8C450BA
:102A600003E008A5C1F8C45000BF00BF30BD00009E
:102A70005461736B205100005461736B2053656D7A
:102A8000000000002000000030B507A5C1F8C450C8
:102A900000F1080422681AB193681D6AC56101E05B
:102AA00001A5C56130BD000020000000F0B58E68B2
:102AB00096F8375007893FB90127078100274F60F3
:102AC0000F600160416023E007897F1C0781026875
:102AD00006E0946894F83770AF4200DD02E0526877
:102AE000002AF6D100BF32B900274F6043680B605F
:102AF000596041600CE017682FB9116000270F6022
:102B00004A60016004E013680B604A60596011601C
:102B1000F0BD2DE9F0410446256BE68F0AE0D5F8BB
:102B20000C8008F108072946384600F00AF82035DD
:102B3000701E86B2002EF2DC0020E0872063BDE824
:102B4000F08110B50489012C03D100240460446095
:102B500011E00C6824B94A680024146002600AE09D
:102B60004C6824B90B6800245C60436003E00B6888
:102B70004A685A6013600489641E048100244C6012
:102B80000C6010BD2DE9F84306460C4617469846E2
:102B9000089D94F83600082850D2DFE800F00405BC
:102BA000080906072B2C00BF00BF00BF47E000BF8D
:102BB00094F83400032807D143463A46214630466C
:102BC000009500F03FF803E0E765A4F86080256415
:102BD00036B12046FFF79DFF21463046FFF754FFF0
:102BE000204600F0FDFF00203434A070607004F82F
:102BF000340924E000BF94F83400032807D1434689
:102C00003A4621463046009500F01CF803E0E7659F
:102C1000A4F860802564204601F048FD36B12046C6
:102C2000FFF777FF21463046FFF72EFF04203434AC
:102C3000A0700020607004F8340900E000BF00BFFD
:102C4000BDE8F883F0B50446059E086BCD8F0AE019
:102C5000C768A74204D1046142610383C66104E0EE
:102C600020306F1EBDB2002DF2DC00BFF0BD0000B1
:102C700070B50025074C03E005F12000C5B2241D06
:102C800020680028F8D02068FDF77DFA2844C5B2F6
:102C9000284670BD38000020002004E00021034ACF
:102CA00042F82010401C0028F8D07047380000205F
:102CB00030B5420900F01F030121C3F11F04A140F8
:102CC000034C54F822400C43014D45F8224030BDDE
:102CD0003800002030B5420900F01F030121C3F184
:102CE0001F04A140034C54F822408C43014D45F889
:102CF000224030BD380000200021034A1160034A01
:102D00001180018070470000980000209C00002086
:102D10002DE9F04F85B007468A4693461C460020B1
:102D2000029000BF00BF00BFFDF722FA029000BF73
:102D3000FDF768FB00BF56480078401C54490870F6
:102D400008460078012801D100F08AF900BFFDF79C
:102D500073FB00BF0298FDF70FFA00BF00BF00BF72
:102D600007F10806308900284CD104F0100010B992
:102D70004FF0000801E04FF01008DDE90E01434676
:102D80005A46CDE90001514607F12000FFF778FDD2
:102D900000BF00BF00BFFDF7EBF9029000BFFDF7D9
:102DA00031FB00BF3A480078401E39490870084698
:102DB0000078D0B900F062F93648008800280BDDB1
:102DC00000BFFDF739FB00BF0298FDF7D5F900BF42
:102DD00000BF00F017F911E000BFFDF72DFB00BFA9
:102DE0000298FDF7C9F900BF08E000BFFDF724FB1A
:102DF00000BF0298FDF7C0F900BF00BF00BF05B0DB
:102E0000BDE8F08F04F4007008B1358900E00125B9
:102E1000D6F8009011E0D9F808000390D9F8040022
:102E200004900E985B465246009038460399FFF78F
:102E3000A9FEDDF81090681E85B2002DEBD100BF11
:102E400000BF00BFFDF794F9029000BFFDF7DAFA6A
:102E500000BF0F480078401E0D49087008460078F2
:102E600008B900F00BF900BFFDF7E6FA00BF0298C1
:102E7000FDF782F900BF00BF00BF04F4004008B9AD
:102E8000FDF7E8FD00210F98018000BFB7E70000C3
:102E9000AC0000207000002000210AE001EB41029C
:102EA000054B03EB820000220281026042604A1C53
:102EB000D1B22029F2D37047588C002010B50446B7
:102EC00094F83700FFF7F4FE94F8370005490978C5
:102ED000884203D1204600F027F802E0204600F0A7
:102EE00003F810BD9200002010B590F8373003EBC6
:102EF00043030C4C04EB83010B893BB901230B8189
:102F00000023C36003610860486009E00B895B1C13
:102F10000B810B68C360002303610A6810610860BD
:102F200010BD0000588C002010B590F8373003EB2E
:102F300043030B4C04EB83010B893BB901230B8149
:102F40000023C36003610860486008E00B895B1CD4
:102F50000B810023C3604A680261D060486010BDE5
:102F6000588C002010B501460C8924B1012C03D0E7
:102F7000022C0CD101E000BF14E008684A6802612D
:102F80000024C4601461D0600A6048600AE00868E8
:102F90004A68C36800241C61C4600261D0600B6091
:102FA000486000BF00BF10BD2DE9F041054695F80F
:102FB000370000EB4000124901EB80042F69EE68F6
:102FC00087B946B9002020812060606095F83700FD
:102FD000FFF780FE0EE02089401E20810020306136
:102FE000266007E02089401E2081FE600EB96760E0
:102FF00000E0376100202861E860BDE8F081000052
:10300000588C002010B5002400BFFDF7B1F804462D
:1030100000BF00200D4908700D480E4908600846A1
:103020000068D0F89000401C0968C1F890000A4878
:103030000068401C084908604FF08050074908604C
:1030400000BF2046FDF798F800BF10BD9300002098
:10305000848B002008010020D800002004ED00E04F
:1030600010B504480078012803D1FDF759FA024948
:10307000086010BDAC000020A000002010B50A4878
:10308000007880B9FDF74CFA08490968441A0848E5
:103090000068A04201D20648046006480068A042C9
:1030A00001D20448046010BDAC000020A000002044
:1030B000A4000020A800002070B505460026354871
:1030C0000078012800D070BD00BF00BFFDF750F8A8
:1030D000064600BFFDF796F900BF2C684CB900BF4B
:1030E000FDF7AAF900BF3046FDF746F800BF00BF64
:1030F000E9E72948844209D100BFFDF79DF900BFE7
:103100003046FDF739F800BF00BFDCE7A06D10B115
:10311000A06D401EA065A06D48B100BFFDF78CF901
:1031200000BF3046FDF728F800BF00BFCBE7288975
:10313000022809DA00BFFDF77FF900BF3046FDF72E
:103140001BF800BF00BFBEE714480078002809DD67
:1031500000BFFDF771F900BF3046FDF70DF800BF65
:1031600000BFB0E72846FFF7FDFE2C68606D18B978
:103170000B480068A06501E0606DA06500BFFDF729
:103180005BF900BF3046FCF7F7FF00BF00BF00BF90
:1031900099E70000B4000020BC8A0020AC000020A9
:1031A000B00000200021034A1160034A1180018011
:1031B00070470000B8000020BC0000202DE9FF5F30
:1031C0000446884691461D460020019000BF00BF7E
:1031D000FCF7CEFF019000BFFDF714F900BF04F12A
:1031E00008073889002857D10420012804D0022874
:1031F00016D004283AD127E0206AFF280FD100BF5B
:10320000FDF71AF900BF0198FCF7B6FF00BF00BF39
:1032100046F6C5502880002004B0BDE8F09F26E0A7
:103220004FF6FF71206A88420DD100BFFDF704F907
:1032300000BF0198FCF7A0FF00BF00BF46F6C550D5
:1032400028800020E8E712E0206A401C68B900BF2F
:10325000FDF7F2F800BF0198FCF78EFF00BF00BF3A
:1032600046F6C55028800020D6E700E000BF00BF2A
:10327000206A401C2062D4F820A0C4F8249000BF2B
:10328000FDF7DAF800BF0198FCF776FF00BF00BF3A
:10329000002028805046BFE700BF2D480078401C22
:1032A0002B49087008460078012801D1FFF7D8FEA5
:1032B00000BFFDF7C1F800BF0198FCF75DFF00BF3C
:1032C00000BF00BF08F4007008B13E8900E001268D
:1032D000D7F800B011E0DBF808000290DBF804003A
:1032E000039000231A46CDF8009020460299FFF77C
:1032F00049FCDDF80CB0701E86B2002EEBD1D4F87C
:1033000020A000BF00BF00BFFCF732FF019000BF4C
:10331000FDF778F800BF0E480078401E0C49087091
:103320000846007808B9FFF7A9FE00BFFDF784F84A
:1033300000BF0198FCF720FF00BF00BF00BF08F4EA
:10334000004008B9FDF786FB00202880504663E75F
:10335000AC00002086B00020009000BF06E0D949F4
:103360000968480001AA0021FEF7FAFAD648007859
:103370000128F4D101A8FDF783FC0027D348006899
:10338000D0490968884205D9D0480068CD49096804
:10339000B0FBF1F727B9CD4800680A21B0FBF1F77F
:1033A0008EE1FDF7BDF88246FDF716F8C8490860C2
:1033B00000BF00BFFCF7DCFE009000BFFDF722F865
:1033C00000BFC4480068C44908600020C1490860C3
:1033D00000BFFDF731F800BF0098FCF7CDFE00BF3D
:1033E00000BFBE480068BC490968884248D9BB484C
:1033F0000068BB49884205D242F210700390012058
:10340000029023E0B5480068B649884205D24FF4DF
:103410007A7003900A20029018E0B0480068B24920
:10342000884203D26420039002900FE0AB4800680A
:10343000AE49884205D20A2003904FF47A70029078
:1034400004E00120039042F210700290A34801684A
:103450000298B1FBF0F9A049039809684843B0FB12
:10346000F9F042F21071081AA1490880A1480088B9
:103470000988884208DA9E4800889E49088003E04F
:1034800042F210709A490880FDF72EFD002500BF1A
:1034900000BFFCF76DFE009000BFFCF7B3FF00BF5C
:1034A0009548046800BFFCF7C7FF00BF0098FCF711
:1034B00063FE00BF00BF72E000BF00BF00BFFCF7AB
:1034C00057FE009000BFFCF79DFF00BF8B480078BF
:1034D000401C8A49087008460078012801D1FFF78E
:1034E000BFFD00BFFCF7A8FF00BF0098FCF744FE3B
:1034F00000BF00BF00BF54F89C0F6060002044F87C
:103500009C0900BF00BF00BFFCF732FE009000BF67
:10351000FCF778FF00BF79480078401E77490870B3
:1035200008460078D0B9FFF7A9FD75480088002843
:103530000BDD00BFFCF780FF00BF0098FCF71CFE0E
:1035400000BF00BFFFF75EFD11E000BFFCF774FF96
:1035500000BF0098FCF710FE00BF08E000BFFCF7BA
:103560006BFF00BF0098FCF707FE00BF00BF00BF65
:10357000D4F8A000054400BF00BFFCF7F9FD00909F
:1035800000BFFCF73FFF00BFD4F8C04000BFFCF70E
:1035900053FF00BF0098FCF7EFFD00BF00BF002CF9
:1035A0008AD145B34E48854205D242F2107005904B
:1035B0004FF0010B1BE04B48854205D24FF47A7067
:1035C00005904FF00A0B12E04748854203D2642071
:1035D000059083460BE04548854204D20A200590B9
:1035E0004FF47A7B03E00120059042F2107BB5FB9B
:1035F000FBF0049003E0002005900120049000BF40
:1036000000BFFCF7B5FD009000BFFCF7FBFE00BF5C
:103610003948046800BFFCF70FFF00BF0098FCF7B3
:10362000ABFD00BF00BF2FE0D4F8A00005994843D0
:103630000499B0FBF1F086B242F21070864200D9D4
:103640000646A4F88C60B4F88E00B04201DAA4F803
:103650008E6001AB04F1AC02111D2046FEF72CF880
:1036600000BF00BFFCF784FD009000BFFCF7CAFE5E
:1036700000BFD4F8C04000BFFCF7DEFE00BF0098DA
:10368000FCF77AFD00BF00BF002CCDD11D480078AB
:10369000012805D100201B49087001A8FDF7F0FAA8
:1036A000FCF73EFFA0EB0A0817480068404502D22D
:1036B0001548C0F8008001AA00213846FEF750F9ED
:1036C0006FE6000048500008D0000020605000085D
:1036D00060000020C4000020CC000020C8000020B2
:1036E000801A060000093D00005A62020084D717C4
:1036F000C0000020C2000020DC000020AC00002040
:1037000070000020BE000020D400002010B58AB058
:10371000044600201F4908601F4908601F490860CF
:103720001F4908701F4908701F48006820B946F6F5
:103730002B6020800AB010BD1C4800681C49096835
:10374000884203D246F62C602080F3E719480078BF
:103750001F2803D346F62A602080EBE703200021D0
:103760000591CDE907040691084610490968124AF7
:1037700012680D4B1B68CDE90132CDE903100D48ED
:10378000007800230D4A0EA100901248FDF7B6FB09
:1037900000BFCFE7C4000020CC000020C8000020FC
:1037A000D0000020BE0000204C50000854500008FB
:1037B0005C50000844500008505000085533000881
:1037C00075432F4F532D4949492053746174205438
:1037D00061736B00D88D002038B504460D4685B165
:1037E0006B4602222946204600F082FEBDF800000A
:1037F00018B9032084F8360006E0022084F8360069
:1038000002E0022084F836002046FFF7CDFB38BDE9
:103810000021C0F8BC100949096819B90021C0F895
:10382000C01007E005490968C0F8C01003490968DD
:10383000C1F8BC000149086070470000DC000020AE
:10384000D0F8BC20D0F8C0104AB90D4B196011B1A6
:103850000023C1F8BC300023C0F8C0300FE029B904
:103860000023C2F8C030C0F8BC3008E0C2F8C01075
:10387000C1F8BC200023C0F8C030C0F8BC3070478D
:10388000DC0000200021044A1160044A1180044A2F
:103890001160018070470000DC000020E000002083
:1038A000D800002070B5044600202060A060606051
:1038B000E06020616061A061E0612BA020620020D7
:1038C0006062A062E0622063E0872064E065A4F8A3
:1038D0006000002104F16400FEF7CAFF002044F8F4
:1038E000740F6060E060A0822061743C002506E0F7
:1038F000002104F17C0040F82510681CC5B2002DA1
:10390000F6D000203434206120676067606084F85E
:103910005600E067A06720814FF000406061002002
:10392000A061E06120626062A4F85800A4F85A0027
:10393000E0652066FCF7F4FD064666660020A0669A
:10394000C4F88000C4F8840020706070A07020204B
:10395000E0700020C4F88800C4F88C0004A0C4F80B
:103960009000343C70BD00003F5461736B00000058
:10397000200000002DE9FC4704460F46904699467A
:10398000DDE90A654FF0000A00BF00BF00BFFCF789
:10399000EFFB824600BFFCF735FD00BF8D48007885
:1039A000401C8C49087008460078012801D1FFF7B7
:1039B00057FB00BFFCF740FD00BF5046FCF7DCFBA7
:1039C00000BF00BF00BF0CB98348046800202880F6
:1039D00094F8360008287CD2DFE800F00405484956
:1039E00006074A4B00BF00BF00BF4B464246394660
:1039F00004F16400CDE90065FEF742FF00BF00BF9F
:103A000000BFFCF7B5FB824600BFFCF7FBFC00BF24
:103A100070480078401E6F49087008460078D0B999
:103A2000FFF72CFB6D48008800280BDD00BFFCF77A
:103A300003FD00BF5046FCF79FFB00BF00BFFFF730
:103A4000E1FA11E000BFFCF7F7FC00BF5046FCF7BD
:103A500093FB00BF08E000BFFCF7EEFC00BF504640
:103A6000FCF78AFB00BF00BF00BFAFE000BF00BF94
:103A700000BF94F8340002282CD143463A46214630
:103A800000200096FFF77EF800BF00BF00BFFCF7E4
:103A90006FFB824600BFFCF7B5FC00BF4D480078C5
:103AA000401E4C4908700846007808B9FFF7E6FA4E
:103AB00000BFFCF7C1FC00BF5046FCF75DFB00BF38
:103AC00000BF00BF09F40040002843D1FCF7C2FF4B
:103AD00040E040E04B464246394604F16400CDE9FF
:103AE0000065FEF7CDFE00BF00BF00BFFCF740FB46
:103AF000824600BFFCF786FC00BF36480078401EB7
:103B00003449087008460078D0B9FFF7B7FA33484F
:103B1000008800280BDD00BFFCF78EFC00BF50467C
:103B2000FCF72AFB00BF00BFFFF76CFA11E000BFF3
:103B3000FCF782FC00BF5046FCF71EFB00BF08E00C
:103B400000BFFCF779FC00BF5046FCF715FB00BF37
:103B500000BF00BF3AE000BF00BF00BFFCF708FB9A
:103B6000824600BFFCF74EFC00BF1A480078401E9A
:103B70001849087008460078D0B9FFF77FFA17484F
:103B8000008800280BDD00BFFCF756FC00BF504644
:103B9000FCF7F2FA00BF00BFFFF734FA11E000BFF4
:103BA000FCF74AFC00BF5046FCF7E6FA00BF08E00D
:103BB00000BFFCF741FC00BF5046FCF7DDFA00BF38
:103BC00000BF00BF46F62D60288000BF00BFBDE8E3
:103BD000FC870000AC0000200401002070000020E1
:103BE00010B50446204600F061FD94F8360000F060
:103BF000040010B92046FFF761F910BD70B5044606
:103C00000D46002600BF00BFFCF7B2FA064600BF13
:103C1000FCF7F8FB00BF0020288094F83600082845
:103C20007ED2DFE800F00405060714566A8000BF64
:103C300000BF00BF00BFFCF7FFFB00BF3046FCF732
:103C40009BFA00BF00BF47F2531028808CE000BFF2
:103C500048480078401C4749087008460078012809
:103C600001D1FFF7FDF900BFFCF7E6FB00BF3046CE
:103C7000FCF782FA00BF00BF00BF14F88A0F401E95
:103C8000207014F88A0928B9002084F836002046EC
:103C9000FFF7A6FF00BF00BF00BFFCF769FA0646AA
:103CA00000BFFCF7AFFB00BF32480078401E31492F
:103CB00008700846007808B9FFF7E0F900BFFCF784
:103CC000BBFB00BF3046FCF757FA00BF00BF00BF88
:103CD0004AE014F88A0F401E207014F88A0910B9BF
:103CE000012084F8360000BFFCF7A6FB00BF304679
:103CF000FCF742FA00BF00BF36E014F88A0F401EFE
:103D0000207014F88A0910B9022084F8360000BF28
:103D1000FCF792FB00BF3046FCF72EFA00BF00E034
:103D200015E000BF20E014F88A0F401E207014F840
:103D30008A0910B9032084F8360000BFFCF77CFB29
:103D400000BF3046FCF718FA00BF00BF0CE000BF10
:103D5000FCF772FB00BF3046FCF70EFA00BF00BF55
:103D600046F62D60288070BD00BFFCF773FE00BFD3
:103D7000F9E70000AC00002008B504480068FDF732
:103D800067FB69460020FDF70FFA08BD040100201B
:103D90002DE9F8430446884617461D464FF00009B2
:103DA00000BF00BF00BFFCF7E3F9814600BFFCF78E
:103DB00029FB00BFFB480078401CFA490870084600
:103DC0000078012801D1FFF74BF900BFFCF734FB65
:103DD00000BF4846FCF7D0F900BF00BF00BF0CB9D8
:103DE000F148046827640020288094F836000828E9
:103DF0007AD2DFE800F00405FEFD0607FCFB00BFF9
:103E000000BF00BF0420012804D0022843D00428AA
:103E10006BD184E0606CFF283CD100BF00BF00BFC5
:103E2000FCF7A6F9814600BFFCF7ECFA00BFDD48BD
:103E30000078401EDB49087008460078D0B9FFF7CB
:103E40001DF9DA48008800280BDD00BFFCF7F4FA02
:103E500000BF4846FCF790F900BF00BFFFF7D2F85B
:103E600011E000BFFCF7E8FA00BF4846FCF784F910
:103E700000BF08E000BFFCF7DFFA00BF4846FCF7D0
:103E80007BF900BF00BF00BF46F6C5502880002068
:103E9000BDE8F88385E04FF6FF71606C88423DD144
:103EA00000BF00BF00BFFCF763F9814600BFFCF70D
:103EB000A9FA00BFBB480078401EBA4908700846FE
:103EC0000078E0B9FFF7DAF8B848008800280DDD7F
:103ED00000BFFCF7B1FA00BF4846FCF74DF900BF40
:103EE00000BFFFF78FF813E0E2E159E000BFFCF7F5
:103EF000A3FA00BF4846FCF73FF900BF08E000BF47
:103F0000FCF79AFA00BF4846FCF736F900BF00BF3D
:103F100000BF46F6C55028800020B9E741E0606C3C
:103F2000401CD8BB00BF00BF00BFFCF721F9814691
:103F300000BFFCF767FA00BF9A480078401E994915
:103F4000087008460078D0B9FFF798F897480088BD
:103F500000280BDD00BFFCF76FFA00BF4846FCF7F6
:103F60000BF900BF00BFFFF74DF811E000BFFCF7F1
:103F700063FA00BF4846FCF7FFF800BF08E000BF47
:103F8000FCF75AFA00BF4846FCF7F6F800BF00BF3E
:103F900000BF46F6C5502880002079E7FFE700E023
:103FA00000BF00BF606C401C6064666C00BF00BF57
:103FB00000BFFCF7DDF8814600BFFCF723FA00BF25
:103FC00078480078401E7749087008460078F8B9AC
:103FD000FFF754F875480088002810DD00BFFCF793
:103FE0002BFA00BF4846FCF7C7F803E01EE01CE0D0
:103FF0001AE018E000BF00BFFFF704F811E000BFAF
:10400000FCF71AFA00BF4846FCF7B6F800BF08E014
:1040100000BFFCF711FA00BF4846FCF7ADF800BF3F
:1040200000BF00BF80E100BF00BF00BF94F83400B4
:1040300007282CD100231A46214618460097FEF780
:10404000A1FD666C00BF00BF00BFFCF791F8814680
:1040500000BFFCF7D7F900BF52480078401E514915
:1040600008700846007808B9FFF708F800BFFCF7A9
:10407000E3F900BF4846FCF77FF800BF00BF00BF70
:1040800008F40040002801D1FCF7E4FC0FE1042013
:10409000012804D0022842D0042872D189E0606C43
:1040A000FF283BD100BF00BF00BFFCF761F881468D
:1040B00000BFFCF7A7F900BF3A480078401E394915
:1040C000087008460078D0B9FEF7D8FF3748008856
:1040D00000280BDD00BFFCF7AFF900BF4846FCF736
:1040E0004BF800BF00BFFEF78DFF11E000BFFCF7EB
:1040F000A3F900BF4846FCF73FF800BF08E000BF47
:10410000FCF79AF900BF4846FCF736F800BF00BF3D
:1041100000BF46F6C55028800020B9E68BE04FF678
:10412000FF71606C884243D100BF00BF00BFFCF745
:104130001FF8814600BFFCF765F900BF19480078F9
:10414000401E1849087008460078D8B9FEF796FF57
:104150001648008800280BDD00BFFCF76DF900BF92
:104160004846FCF709F800BF00BFFEF74BFF12E01E
:1041700000BFFCF761F900BF4846FBF7FDFF00BF39
:1041800009E057E000BFFCF757F900BF4846FBF7CE
:10419000F3FF00BF00BF00BF46F6C55028800020D7
:1041A00076E60000AC000020040100207000002032
:1041B00041E0606C401CD8BB00BF00BF00BFFBF7F4
:1041C000D7FF814600BFFCF71DF900BF58480078B3
:1041D000401E5749087008460078D0B9FEF74EFFD8
:1041E0005448008800280BDD00BFFCF725F900BF0C
:1041F0004846FBF7C1FF00BF00BFFEF703FF11E019
:1042000000BFFCF719F900BF4846FBF7B5FF00BF38
:1042100008E000BFFCF710F900BF4846FBF7ACFF11
:1042200000BF00BF00BF46F6C550288000202FE623
:10423000FFE700E000BF00BF606C401C6064666C7C
:1042400000BF00BF00BFFBF793FF814600BFFCF734
:10425000D9F800BF36480078401E35490870084636
:104260000078D0B9FEF70AFF3248008800280BDD3D
:1042700000BFFCF7E1F800BF4846FBF77DFF00BF39
:1042800000BFFEF7BFFE11E000BFFCF7D5F800BF8E
:104290004846FBF771FF00BF08E000BFFCF7CCF811
:1042A00000BF4846FBF768FF00BF00BF00BF3BE010
:1042B00000BF00BF00BFFBF75BFF814600BFFCF7FC
:1042C000A1F800BF1A480078401E19490870084636
:1042D0000078D0B9FEF7D2FE1648008800280BDD22
:1042E00000BFFCF7A9F800BF4846FBF745FF00BF39
:1042F00000BFFEF787FE11E000BFFCF79DF800BF8E
:104300004846FBF739FF00BF08E000BFFCF794F810
:1043100000BF4846FBF730FF00BF00BF00BF46F6B6
:104320002D602880002600BF00BF3046B0E50000A9
:10433000AC0000207000002070B504460D46002639
:1043400000BF00BFFBF714FF064600BFFCF75AF89A
:1043500000BF0CB95A48046859480068844210D11B
:104360005848007800280CDD00BFFCF765F800BF56
:104370003046FBF701FF00BF00BF46F663502880C0
:1043800070BD0020288094F83600082873D2DFE83A
:1043900000F0044252627374757600BF4948007899
:1043A000401C4849087008460078012801D1FEF7F2
:1043B00057FE00BFFCF740F800BF3046FBF7DCFEBD
:1043C00000BF00BF00BF042084F83600012084F83D
:1043D0008A002046FEF7E8FD00BF00BF00BFFBF7E4
:1043E000C7FE064600BFFCF70DF800BF3548007851
:1043F000401E344908700846007808B9FEF73EFEB2
:1044000000BFFCF719F800BF3046FBF7B5FE00BF50
:1044100000BF00BF4FE0052084F83600012084F87B
:104420008A0000BFFCF708F800BF3046FBF7A4FE87
:1044300000BF00BF3FE0062084F83600012084F86A
:104440008A0000BFFBF7F8FF00BF3046FBF794FE81
:1044500000BF00BF2FE0072084F83600012084F859
:104460008A0000BFFBF7E8FF00BF3046FBF784FE81
:1044700000BF00BF1FE011E000BF00BF00BF94F805
:104480008A00401C84F88A0000BFFBF7D5FF00BFFC
:104490003046FBF771FE00BF00BF0CE000BFFBF72A
:1044A000CBFF00BF3046FBF767FE00BF00BF46F6FC
:1044B0002D60288064E700BFFCF7CCFA00BF5FE7FF
:1044C00004010020AC000020002108E0064A02EBB5
:1044D000C100002202608280C2804A1C91B2034A5D
:1044E00012889142F2DB7047AC87002078500008B8
:1044F0002DE9F04F0C4616461D46042E1ED1DFF85E
:10450000A091D9F80090A4EB0909A9F1010313F5D2
:10451000803F0DD94FF00009C0F84C90C0F8509082
:10452000C0F81C9047F27E29A5F80090BDE8F08FF6
:10453000C46403F10109C0F850903FE084B3082E31
:1045400025D1D0F8489009EB0407DFF85491D9F849
:104550000090A7EB0909A9F10103A34201D2C764A6
:1045600006E0DFF83C91D9F80090A144C0F84C90E7
:10457000DFF82CA1D0F84C90DAF800A0A9EB0A09DA
:10458000C0F85090D0F84C90C0F8489016E0DFF892
:104590001091D9F80090A144C0F84C9004650DE04A
:1045A000FFE74FF00009C0F84C90C0F85090C0F8F9
:1045B0001C9047F27E29A5F80090B7E7DFF8E4A049
:1045C000BAF800A0D0F84C90B9FBFAFB0AFB1B9993
:1045D0001FFA89F8DFF8D09009EBC802B2F804900E
:1045E000B9F1000F0BD14FF00009C0F81490C0F8DA
:1045F000189010604FF00109A2F804903EE0116895
:1046000034E0DFF89CA0D1F84C90DAF800A0A9EBD8
:104610000A09C1F85090D0F85090D1F850A0D14577
:104620000ED9D1F81490B9F1000F01D049691DE0FD
:104630004FF00009C0F8149081614861002115E035
:10464000D1F81890B9F1000F07D14FF00009C0F868
:10465000189041618861106007E0D1F818C0C0F877
:1046600018C04161CCF81400886100210029C8D12C
:10467000B2F8049009F10109A2F80490B2F806908A
:10468000B2F804A0D14503DAB2F80490A2F806907B
:10469000C2614FF00009A5F8009000BF46E7000096
:1046A000E400002078500008AC87002010B5C269F3
:1046B000BAB1002404651468844205D141691160CF
:1046C00039B100248C6104E0816943694B6103B115
:1046D0009961002444618461C461C4649488641E47
:1046E000948010BD002006E0054A02EBC0010022C4
:1046F000CA80421C90B2034A12889042F4DB704791
:10470000AC870020785000082DE9F05F4FF0000BD7
:1047100000BF00BF00BFFBF72BFD834600BFFBF7C8
:1047200071FE00BF7A480078401C7949087008463D
:104730000078012801D1FEF793FC00BFFBF77CFE57
:1047400000BF5846FBF718FD00BF00BF00BFFBF7D6
:10475000E7FE05466F480068401C6E490860084641
:1047600000686D490988B0FBF1F201FB12001FFAE5
:1047700080FA6A4800EBCA08D8F80040002782E0B7
:10478000002C7FD0D4F8149094F83600082875D205
:10479000DFE800F00408051B063D075000BF00BF1E
:1047A00000BF6CE05B49E06C0968401A206559491C
:1047B000E06C0968884206D1002084F83600204663
:1047C000FFF70EFA00E0012759E05249E06C096852
:1047D000401A20654F49E06C0968884215D10020D5
:1047E000E065A4F86000FBF79BFE20642046FEF71E
:1047F00090F92046FFF7F4F900203434A07003202C
:104800006070002004F8340900E0012737E04149D6
:10481000E06C0968401A20653E49E06C09688842EE
:1048200006D1042084F836002046FFF73FFF00E061
:10483000012724E03749E06C0968401A20653549B2
:10484000E06C0968884217D10020E065A4F8600098
:10485000FBF766FE20642046FEF75BF92046FFF773
:1048600025FF04203434A07003206070002004F879
:10487000340902E006E001E0012700E000BF00BFCC
:104880004C4600E00127002F3FF47AAFFBF748FECB
:10489000461B23480068B04201D22148066000BF91
:1048A00000BF00BFFBF764FC834600BFFBF7AAFD17
:1048B00000BF17480078401E154908700846007868
:1048C000D0B9FEF7DBFB1748008800280BDD00BFDE
:1048D000FBF7B2FD00BF5846FBF74EFC00BF00BF20
:1048E000FEF790FB11E000BFFBF7A6FD00BF5846A6
:1048F000FBF742FC00BF08E000BFFBF79DFD00BFD7
:104900005846FBF739FC00BF00BF00BFBDE8F09F71
:10491000AC000020E400002078500008AC870020A4
:10492000E8000020700000201CB500BF0EE001ABC5
:104930006A4600210846FCF797FDBDF8040028B937
:1049400003480078012801D1FFF7DEFEEFE7000001
:104950006400002010B58AB0044600201D4908609C
:104960001D490860FFF7B0FD1C48006820B947F2F8
:10497000122020800AB010BD194800681949096842
:10498000884203D247F213202080F3E716480078CC
:104990001F2803D347F211202080EBE70B200021D2
:1049A00005910A46CDE9070406910D4800680F49B4
:1049B00009680A4B1B68CDE90131CDE903020A48B9
:1049C000007800230A4A0BA100900F48FCF796FAE2
:1049D00000BFCFE7E4000020E80000206850000896
:1049E000705000085C500008645000086C500008CB
:1049F0002949000875432F4F532D494949205469CF
:104A0000636B205461736B00A08E002070B58AB078
:104A100004460020314908603148006840B13148FF
:104A200000682F490968B0FBF1F02F49086006E0E3
:104A30002C4800680A21B0FBF1F02B4908602A4895
:104A400000682A490860002029490860294908604F
:104A5000002508E0284800EBC5060020B080F08063
:104A60003060681C85B2254800888542F2DB244806
:104A7000006820B947F2473020800AB070BD214855
:104A8000006821490968884203D247F248302080F3
:104A9000F3E71E4800781F2803D347F246302080F2
:104AA000EBE70B2000210591CDE9070406910846AC
:104AB00014490968164A1268114B1B68CDE9013286
:104AC000CDE90310114800780023124A12A100908A
:104AD0001748FCF713FA00BFCFE70000EC000020F6
:104AE0008450000860500008FC00002000010020F5
:104AF000F8000020F4000020348A002098500008BC
:104B000088500008905000085C5000088050000851
:104B10008C500008294C000875432F4F532D4949EC
:104B2000492054696D6572205461736B0000000068
:104B3000688F0020F0B50C46022680F82A60012C10
:104B400005D12D4F466A3F683E4486610CE0066AF7
:104B50002EB9294F466A3F683E44866104E0264FDD
:104B6000066A3F683E448661244F3F888669B6FBEB
:104B7000F7FC07FB1C66B5B2214E06EBC5021668B2
:104B800036B90026066146611060012696802CE049
:104B9000194F86693F68F61BC661116820E0164F01
:104BA0008E693F68F61BCE61C669CF69BE4209D9DE
:104BB0000E690EB1096913E00026066141610861C2
:104BC00000210DE04E692EB9002646610161486161
:104BD000106004E04B694361016118614861002184
:104BE0000029DCD19688761C9680D6889788BE42AC
:104BF00001DA9688D680F0BDF800002098500008B1
:104C0000348A0020002006E0054A02EBC0010022A1
:104C1000CA80421C90B2034A12889042F4DB70476B
:104C2000348A0020985000081CB500BF53E001AB47
:104C30006A4600210846FCF717FC01A8FBF75EFF57
:104C4000FBF76EFC064624480068401C22490860B9
:104C50000846006821490988B0FBF1F201FB120007
:104C60001FFA80FA1E4800EBCA08D8F800404FF03F
:104C7000000B21E0F4B1D4F810901749A06909683D
:104C8000884214D1204600F02FF8208D022804D14C
:104C900001212046FFF74EFF02E0032084F82A009E
:104CA000A56815B12046E168A8474C4604E04FF0DE
:104CB000010B01E04FF0010BBBF1000FDAD0FBF765
:104CC0002FFC871B01A8FBF757FF06480068B84276
:104CD00001D204480760AAE7F800002098500008B5
:104CE000348A0020F4000020F0B5114E3688856922
:104CF000B5FBF6F706FB1755ACB20E4D05EBC4023B
:104D00001568854205D10169116039B100254D61F1
:104D100004E0416903690B6103B15961012580F821
:104D20002A5000250561456195886D1E9580F0BD6E
:104D300098500008348A002029B1064A926902433B
:104D4000044B9A6104E0034A92698243014B9A61E1
:104D5000704700000010024030B5002100220024FE
:104D600000232D4D6D6805F00C0121B1042905D0FB
:104D7000082923D105E0294D056022E0274D056073
:104D80001FE0254D6D6805F47012234D6D6805F424
:104D90008034022505EB92421CB9214D5543056034
:104DA0000BE01D4D6D6805F400351DB11C4D5543DC
:104DB000056002E0194D5543056002E0174D05609E
:104DC00000BF00BF144D6D6805F0F0010909154DD5
:104DD0006B5C0568DD4045600F4D6D6805F4E06172
:104DE000090A104D6B5C4568DD4085600A4D6D68B1
:104DF00005F46051C90A0B4D6B5C4568DD40C56028
:104E0000054D6D6805F44041890B074D6B5CC56825
:104E1000B5FBF3F5056130BD0010024000127A00C9
:104E200000093D000000002010000020704710B570
:104E300000F002F810BD00000CB5002001900090B9
:104E40003348006840F480303149086000BF304882
:104E5000006800F4003000900198401C0190009818
:104E600018B90198B0F5A06FF1D12948006800F495
:104E7000003010B10120009001E000200090009867
:104E8000012843D12348006840F010002149086000
:104E90000846006820F0030008600846006840F0FB
:104EA000020008601A48406819494860084640688E
:104EB00048600846406840F48060486008464068A2
:104EC00020F47C1048600846406840F4E8104860D0
:104ED0000846006840F08070086000BF0C48006819
:104EE00000F000700028F9D00948406820F0030065
:104EF000074948600846406840F00200486000BF2B
:104F00000348406800F00C000828F9D10CBD0000EF
:104F1000001002400020024010B51348006840F025
:104F200001001149086008464068104908400E49D0
:104F30004860084600680E4908400B49086008466A
:104F4000006820F4802008600846406820F4FE00D5
:104F500048604FF41F008860FFF769FF4FF0006062
:104F60000449086010BD0000001002400000FFF876
:104F7000FFFFF6FE08ED00E000BFFEE702E008C814
:104F8000121F08C1002AFAD170477047002001E0C3
:104F900001C1121F002AFBD17047000000B58BB081
:104FA0000AA8FBF703FC0AA8032100220592CDE919
:104FB0000621089010464FF400713322094BCDE9C9
:104FC0000132CDE9031002200023074A07A1009017
:104FD0000A48FBF793FF0AA8FBF71EFE00200BB060
:104FE00000BD0000D401002049020008417070207B
:104FF0005461736B20537461727400000C010020C3
:105000002C7600200C000000800000000002000050
:105010002C7800200A000000400100006C7900207C
:105020000C00000080000000000200006C7B0020EB
:105030008000000000020000640000004006000044
:105040006C7D00200B0000000A000000AC830020F3
:105050000C00000080000000000200004000000082
:10506000E80300000A000000AC8500200C000000EE
:105070008000000000020000110000008800000015
:105080000B0000000A000000348800200C00000023
:1050900080000000000200001100000088000000F5
:1050A0009014000001010100785634120101000043
:1050B00000000000000000000000000000000000F0
:1050C00000000000000000000000000000000000E0
:1050D00000000000000000000101010028000400A1
:1050E000200001000000000000000000000000009F
:1050F00000000000000000000000000000000000B0
:105100000000000001002000010010000C00100051
:10511000000000000000000000000000000000008F
:10512000000000000000000000000000000000007F
:10513000000000000000000000000000010101006C
:105140002C00010120000C002000200004000400BD
:10515000000000000000000000000000000000004F
:10516000000000000000000000000000000000003F
:10517000000000000000000000000000000000002F
:1051800001010101300001000000000000000000EA
:10519000000000000000000000000000000000000F
:1051A00000000000000000000000000000000000FF
:1051B0000101010128000C0080010000040101012F
:1051C0000101010101000101C80008000101000006
:1051D00000000000000000000000000000000000CF
:1051E00000000000000000000000000000000000BF
:1051F00000000000000000000000000000000000AF
:10520000000000000101340008005D762A0600005D
:1052100030520008000000200C0100007C4F000804
:105220003C5300080C010020249F00008C4F000814
:10523000000000000102030401020304060708093C
:10524000020406080000000000000000000000004A
:10525000000000000000000000000000000000004E
:10526000000000000000000000000000000000003E
:10527000000000000000000000000000000000002E
:10528000000000000000000000000000000000001E
:10529000000000000000000000000000000000000E
:1052A00000000000000000000000000000000000FE
:1052B00000000000000000000000000000000000EE
:1052C00000000000000000000000000000000000DE
:1052D00000000000000000000000000000000000CE
:1052E00000000000000000000000000000000000BE
:1052F00000000000000000000000000000000000AE
:10530000000000000000000000000000000000009D
:10531000000000000000000000000000000000008D
:10532000000000000000000000000000000000007D
:0C53300000000000000000000000000071
:0400000508000131BD
:00000001FF
