:020000040800F2
:10000000E0B60020450100086F1400083D1200080A
:10001000AD130008A50C0008554D000800000000B5
:10002000000000000000000000000000F54A000889
:10003000850F00080000000027080008652B000855
:100040005F0100085F0100085F0100085F01000810
:100050005F0100085F0100085F0100085F01000800
:100060005F0100085F0100085F0100085F010008F0
:100070005F0100085F0100085F0100085F010008E0
:100080005F0100085F0100085F0100085F010008D0
:100090005F0100085F0100085F0100085F010008C0
:1000A0005F0100085F0100085F0100085F010008B0
:1000B0005F0100085F0100085F0100085F010008A0
:1000C0005F0100085F0100085F0100085F01000890
:1000D0005F0100085F0100085F0100085F01000880
:1000E0005F0100085F0100085F0100085F01000870
:1000F0005F0100085F0100085F0100085F01000860
:100100005F0100085F0100085F0100085F0100084F
:100110005F0100085F0100085F0100085F0100083F
:100120005F0100085F0100085F0100085F0100082F
:10013000DFF80CD000F0E4FA0048004781560008D0
:10014000E0B600200648804706480047FEE7FEE785
:10015000FEE7FEE7FEE7FEE7FEE7FEE7FEE7FEE777
:10016000E14B00083101000872B6704762B6704773
:10017000EFF3108072B6704780F31088704730BF7D
:10018000704720BF7047B0FA80F0704790FAA0F037
:10019000B0FA80F0704790FAA0F070472DE9F05F58
:1001A0000546002092469B468846064681464024E6
:1001B0001BE0284641464746224600F0A2F8534637
:1001C0005A46C01A914110D311461846224600F0F3
:1001D00089F82D1A67EB01084F46224601200021BD
:1001E00000F080F817EB00094E41201EA4F1010435
:1001F000DFDC484631462A464346BDE8F09F421CB4
:1002000010F8011B0029FBD1801A704730B480EA36
:10021000010202F0004530F0004221F0004013D00E
:1002200090B1C30DD40DC2F31601C0F31600E41A49
:1002300041F4000140F400027D34914201D3641C7A
:1002400000E04900002C02DA30BC002070474FF477
:1002500000000023914201D3891A034340084FEA6A
:100260004101F7D151B1914202D14FF0004105E077
:1002700002D24FF0010101E06FF0010103EBC45025
:10028000284430BC00F04DB896230022114600F0FF
:1002900051B800F0004230F000400AD0C10D01F525
:1002A0006071C0F3160042EA0151C20840071143D1
:1002B000704700200146704730B50B4601460020CC
:1002C0002022012409E021FA02F59D4205D303FA18
:1002D00002F5491B04FA02F52844151EA2F1010299
:1002E000F1DC30BD202A04DB203A00FA02F10020C4
:1002F00070479140C2F1200320FA03F31943904064
:100300007047202A04DB203A21FA02F000217047CE
:1003100021FA02F3D040C2F120029140084319466D
:1003200070470029A8BF7047401C490008BF20F053
:100330000100704710B4B0FA80FC00FA0CF050EAEB
:10034000010404BF10BC704749B1CCF1200421FA6C
:1003500004F411FA0CF118BF012121430843A3EB67
:100360000C01CB1D4FEA00614FEA102042BF002074
:1003700010BC704700EBC35010440029A4BF10BC50
:100380007047401C490008BF20F0010010BC7047B6
:100390002DE9FE4F804681EA0300C00F0C46009015
:1003A00021F0004123F00045B8EB0200A94105D23D
:1003B0004046214690461C460B46024623F000402C
:1003C000104347D0270DC7F30A00C3F30A51029028
:1003D000401A019040286BDAC3F3130040F4801BED
:1003E0000098924620B10023D2EB030A63EB0B0B7B
:1003F00001985946C0F140025046FFF773FF064688
:100400000D4650465946019A00F08CF910EB080051
:100410006141002487EA115284EAE7731A4340D00D
:10042000009A62B3019A012A4FEA075215DC001BB9
:1004300061EB02014FF0004202EA0752CDE90042AF
:10044000001C41F5801132462B4600F08CF903B0B8
:10045000BDE8F08F40462146F9E7001B61EB020141
:10046000001C41F5801300185B412018A2F500170D
:1004700047EB030140EAD570B6196D4111E06D08F4
:100480004FEA360645EAC0754FEA0752001B61EB9A
:100490000201001C41F5801149084FEA30000019A3
:1004A000514132462B4603B0BDE8F04F00F04CB945
:1004B0000098012240000023D0EB020263EBE073BE
:1004C000009821464FEAE074B8EB000061EB0401AC
:1004D000E9E783F000435BE781F0004158E72DE94D
:1004E000FE4F81EA030404F0004421F0004100942F
:1004F0004FF0000B23F0004350EA01045ED052EAB3
:1005000003045BD0C3F30A54C1F30A552C44A4F28C
:10051000F3340194A0FB0254C1F3130141F48011A0
:10052000C3F3130343F4801301FB024400FB034EA7
:10053000840A970A44EA815447EA8357A4FB076870
:1005400002958D0A05FB07854FEA932C04FB0C549A
:100550002705029D4FEA065847EA1637B5EB08050E
:100560006EEB070C870E920E47EA811742EA831260
:10057000A7FB0201B6EB0B0164EB00042B0D43EA71
:100580000C335E1844EB1C50DA465146E7FB02017F
:10059000C5F313044FEA0B3343EA14534FEA043212
:1005A000019C43EA0603A4F10C040294009CCDE9EB
:1005B00000B400F0D8F803B0BDE8F08F0020014689
:1005C000F9E72DE9F04D81EA030404F0004B21F036
:1005D000004514464FF0000A23F0004150EA05029E
:1005E00020D054EA01021DD0C5F30A570246C5F3D4
:1005F0001303C1F31300C1F30A5640F4801543F40A
:100600008013A7EB0608101BD64608F2FD3873EBE3
:10061000050002D308F1010801E092185B41B8F12E
:10062000000F03DA00200146BDE8F08D00204FF4F2
:100630008011064684460EE0171B73EB050705D3B1
:10064000121B63EB050306434CEA010C49084FEA11
:10065000300092185B4150EA0107EDD152EA0300E5
:1006600012D082EA040083EA0501084305D0101B7A
:10067000AB4106D20122002306E000224FF00043E6
:1006800002E06FF0010253101AEB06004CEB085128
:1006900010EB0A0041EB0B01BDE8F04D00F054B83F
:1006A000C1F30A52C1F3130140F2FF3341F4801148
:1006B0009A4202DA00200146704740F233439A42E0
:1006C000A2F2334202DC5242FFF71BBEFFF70ABE22
:1006D00030B5041E71F1000404DB4FF000444042C9
:1006E00064EB0101141E73F1000405DB1C464FF09E
:1006F0000043524263EB0403994208BF904230BD6D
:10070000064C074D06E0E06840F0010394E807005E
:1007100098471034AC42F6D3FFF70EFD3859000865
:1007200058590008202A06DBCB17203A41FA02F07C
:1007300043EAE07306E041FA02F3D040C2F120023E
:10074000914008431946704710B5141E73F1000418
:1007500008DA401C41F1000192185B411A4301D1B3
:1007600020F0010010BD2DE9F04D92469B4611B1DD
:10077000B1FA81F202E0B0FA80F220329046FFF73F
:10078000B1FD04460F4640EA0A0041EA0B01534618
:100790005A46084313D0114653EA010019D0C8F154
:1007A00040025046FFF7ADFD05460E4650465946FD
:1007B0004246FFF797FD084305D0012004E020469C
:1007C0003946BDE8F08D0020054346EAE0762C432B
:1007D00037430A986305E40AA0EB08000022FD0AEB
:1007E00044EA47540A3002D500200146E9E70105F2
:1007F00010196941DDE9084500196941BDE8F04D6E
:10080000A2E7000018484FF0FF010170002080F3BC
:1008100009881648016881F3088815484FF080510F
:10082000016062B6FEE772B6EFF3098028B12038A6
:1008300080E8F00F0F490968086000B50E4880474E
:100840005DF804EB0D480E490A78027009480D491D
:100850000A680260106890E8F00F203080F3098881
:100860004EF0040E62B6704722ED00E04800002012
:1008700004ED00E004010020D927000892000020C8
:1008800093000020080100200EB50949094800F036
:1008900003FD0949094800F0FFFC02A814210323C5
:1008A000074ACDE9001007A10A4800F04BFF0EBD32
:1008B0000912000814000020211200081C0000206A
:1008C000502400204D656D20466F7220546573746E
:1008D00000000000302400201FB5002600F0BEF903
:1008E00005463AE003A801AB02AA002100900846A1
:1008F00001F0FEFB044600F0FFFA0199401A019056
:100900001648006880F001001449086000BF00BF6D
:10091000FFF72EFC064600BF00F060FA00BFBDF8EE
:10092000082021460EA004F017FA1848B5FBF0F095
:100930000199B1FBF0F7394615A004F00DFA00BF9C
:1009400000F066FA00BF3046FFF716FC00BF00BF9C
:1009500003AA2146184800F0ABFFC3E70C0C014086
:10096000BDD3CAD5B5BDB5C4CFFBCFA2B5C4C4DA1B
:10097000C8DDCEAAA3BA2573A3ACB3A4B6C8CAC7B0
:10098000A3BA2564D7D6BDDAA1A30A0040420F005E
:10099000C8CECEF1CFFBCFA2B4D3B1BBB7A2B2BC0D
:1009A000B5BDB1BBBDD3CAD5B5C4CAB1BCE4B2EE06
:1009B000CAC7256475730A003024002008B50BE00F
:1009C0000648C06880F040000449C8606A460021BB
:1009D0004FF4FA7001F052FFF2E7000000200140EE
:1009E0000EB500243048017830A004F0B5F933A0EA
:1009F00004F0B2F956E03C4800F05FFC3B4800F0E0
:100A00005CFC0021384800F050FCB0B1264800786A
:100A1000401C2549087008460078032801D10120B0
:100A200008702148017821A004F096F923A004F071
:100A300093F901212C4800F038FC00212B4800F0EC
:100A400034FC30B318480078012802D002281BD1AA
:100A500002E000F099FA17E002A9254800F0F0FE44
:100A600006462246641C23A1304604F085F9304630
:100A7000FFF7C5FB85B202A800232A463146009045
:100A80001D4801F02FFC00BF00BF0121174800F0F6
:100A90000CFC02A8002114230A46CDE900100846E8
:100AA00001F054FFA7E70000240000206B657931B6
:100AB000636F756E743D25640A0000004B45593123
:100AC000B0B4BCFCD6B5317E32B6D4D3A6B2BBCD61
:100AD000ACC8CECEF1C7E9BFF6A3AC4B455932C87E
:100AE000B7B6A80A00000000140000201C00002077
:100AF0003024002025640000D801002000B58BB010
:100B00000AA8032100220592CDE90621089010468B
:100B10004FF4007133221F4BCDE90132CDE90310B0
:100B2000032000231C4A1DA100901F4801F04AF930
:100B30000AA8032100220592CDE90621089010465B
:100B40004FF400713322194BCDE90132CDE9031086
:100B500004200023164A17A10090194801F032F929
:100B60000AA8032100220592CDE90621089010462B
:100B70004FF400713322134BCDE90132CDE903105C
:100B800005200023104A11A10090134801F01AF922
:100B90000BB000BD300C0020D90800084170702057
:100BA0005461736B31000000D80100203014002024
:100BB000BD090008417070205461736B3200000061
:100BC000A0020020301C0020E109000841707020C4
:100BD0005461736B330000006803002038B504468D
:100BE00000F044F800F060F800F0ECFB684601F01B
:100BF0005FF800F0C7F807A004F0AEF8FFF77EFF3B
:100C00000CA004F0A9F8FFF73FFE6946124801F076
:100C1000C5F938BD4372656174696E6720417070B3
:100C20006C69636174696F6E205461736B732E2EEF
:100C30002E0A0D004372656174696E672041707001
:100C40006C69636174696F6E204576656E74732E8E
:100C50002E2E0A0D000000001001002000B585B006
:100C6000684603F0DDFE019805B000BD10B500F048
:100C7000FFFB00F069FB00F0E3FA00F0F7FA00F088
:100C800041F900F001F810BD70B5FFF7E7FF044629
:100C900003480068B4FBF0F5284601F083FF70BDFF
:100CA0004457000800BFFEE710B500F0FBF800F065
:100CB00003F800F0F3F810BD70B5002600201849C5
:100CC00008801849088018490860184908601849C0
:100CD00008601849086018490860002400BFFFF741
:100CE00047FA064600BF00250BE0002010490860C7
:100CF00000F074F800F08CF80D4800680444681C9B
:100D000085B2002DF1D00C4804600020084908602D
:100D10000849086000BF3046FFF72EFA00BF70BDDB
:100D20002C0000202E000020300000203400002085
:100D30003C0000204000002038000020014608460A
:100D4000044A1268904203D9024A1268801A00E0ED
:100D5000002070473800002070B5002500BFFFF765
:100D600007FA054600BF0648046800BF2846FFF79B
:100D700003FA00BF2046FFF7E1FF0646304670BD8C
:100D80003C00002070B50025FFF7E6FF044600BFD9
:100D9000FFF7EEF9054600BF00200449086000BFD8
:100DA0002846FFF7E9F900BF204670BD3C0000204F
:100DB00070B5002500BFFFF7DBF9054600BF064808
:100DC000046800BF2846FFF7D7F900BF2046FFF7A9
:100DD000B5FF0646304670BD4000002010B50948FA
:100DE0000088401C074908800748008818B900F0AF
:100DF00083F80649086004480088401C02490880BE
:100E000010BD00002C0000202E000020300000202B
:100E100010B50F480088401E0D490880084600881C
:100E2000A0B900F069F80B490860084600680A4953
:100E30000968441A09480068A04201D207480460C2
:100E400007480068A04201D20548046010BD0000B8
:100E50002E00002034000020300000203C00002044
:100E60004000002010B5002400BF00BFFFF780F94C
:100E7000044600BFFFF7B2FF00BF1021064800F094
:100E800097FA00BFFFF7C4FF00BF2046FFF774F9D1
:100E900000BF00BF10BD00008C24002010B5FFF77C
:100EA000E1FF10BD10B500200249086000F00AF80B
:100EB00010BD0000280000200149086070470000B4
:100EC0002800002010B50A48006840F080700849EA
:100ED00008600020074948600846006840F00100AB
:100EE0000860FFF7BBFE04462046FFF7E5FF10BD94
:100EF000FCED00E0001000E0014840687047000091
:100F0000001000E000B585B00121880303F078FDF2
:100F10000121052003F074FD4FF40070ADF81000BE
:100F200018208DF8130003208DF8120004A913482F
:100F300000F0D4F84FF48060ADF8100004208DF874
:100F4000130004A90D4800F0C9F84FF4E1300090F7
:100F50000020ADF80400ADF80600ADF80800ADF8CB
:100F60000C000C20ADF80A006946054803F082FE2B
:100F70000121034803F064FE05B000BD00080140F4
:100F800000380140704700002DE9F04387B000258C
:100F900000BF00BFFFF7ECF8054600BFFFF71EFFDC
:100FA00000BF2848046800BFFFF732FF00BF284693
:100FB000FFF7E2F800BF00BF234803F0CDFE23A0F7
:100FC00003F0CAFE2DA003F0C7FE36E034F88C0F04
:100FD000FFF75AF9069035490698FFF717F9814649
:100FE000FFF757F907468846D4E90801014464220F
:100FF0005043B0FBF1F654F86C0CCDE90278009642
:10100000049014F8551CD4E908238C3C28A003F064
:10101000A3FE00BF00BFFFF7ABF8054600BFFFF718
:10102000DDFE00BFD4F8C04000BFFFF7F1FE00BFF7
:101030002846FFF7A1F800BF00BF002CC6D107B0BB
:10104000BDE8F083DC000020F458000820D3C5CFB1
:10105000C8BCB620CAB9D3C3D5BB20CAA3D3E0D578
:10106000BB20B0D9B7D6B1C820C0FBD3C3C2CA20F9
:101070002020C8CECEF1C3FB0D0A00002020507204
:10108000696F2020205573656420204672656520B5
:101090002020506572202020204350552020202001
:1010A000205461736B6E616D650D0A000000C842CB
:1010B0002020202532642020253564202025356419
:1010C00020202025303264252520202025352E3271
:1010D00066252520202025730D0A00002DE9F0410A
:1010E000024600250026002000230024002791F856
:1010F00003C00CF00F0591F803C00CF0100CBCF10C
:10110000000F03D091F802C04CEA050591F800C029
:10111000BCF1000F31D0146800202BE04FF0010C1F
:101120000CFA00F3B1F800C00CEA03069E4220D18D
:1011300083004FF00F0C0CFA03F7BC4305FA03FCD5
:101140004CEA040491F803C0BCF1280F06D14FF01B
:10115000010C0CFA00FCC2F814C00AE091F803C0BC
:10116000BCF1480F05D14FF0010C0CFA00FCC2F89D
:1011700010C0401C0828D1D31460B1F800C0BCF1E5
:10118000FF0F34DD546800202EE000F1080C4FF012
:10119000010808FA0CF3B1F800C00CEA03069E42FD
:1011A00021D183004FF00F0C0CFA03F7BC4305FA72
:1011B00003FC4CEA040491F803C0BCF1280F05D1EC
:1011C00000F1080C08FA0CF8C2F8148091F803C07A
:1011D000BCF1480F07D100F1080C4FF0010808FAE4
:1011E0000CF8C2F81080401C0828CED35460BDE82B
:1011F000F0810246002093680B400BB1012000E013
:10120000002070474161704710B501210348FFF786
:10121000F0FF012800D110BD0020FCE700080140CC
:1012200010B54FF400510448FFF7E3FF08B901205F
:1012300010BD0020FCE700000010014000BFFEE7E9
:1012400008B50121042003F0DBFB0120ADF800000C
:1012500003208DF8020004208DF80300694602483F
:10126000FFF73CFF08BD00000008014008B5012160
:10127000102003F0C5FB4FF40050ADF80000032030
:101280008DF8020004208DF8030069460148FFF73D
:1012900025FF08BD001001400160002202710222FA
:1012A000427182710022C2717047024601F001034F
:1012B0000BB1002313711079704710B504466079A3
:1012C00001281ED0022804D0032822D0042839D1B6
:1012D00007E02068804718B10020E07104206071A9
:1012E00030E0E0790A30E071E0790A2808DB206814
:1012F000804718B10120A071607101E00220607187
:1013000020E02068804718B90020E0710320607158
:1013100018E0E0790A30E071E0790A2811DB2068F2
:10132000804760B90120A071022060712079401CC3
:1013300020712079FA2804DDFA20207101E00120D3
:10134000607100BF00BF10BD08B501214FF484706B
:1013500003F056FB0120ADF8000003208DF80200D9
:1013600010208DF8030069460E48FFF7B7FE4020B5
:10137000ADF8000069460C48FFF7B0FE8020ADF8DC
:10138000000069460848FFF7A9FE01210548FFF75C
:1013900039FF40210448FFF735FF80210248FFF75D
:1013A00031FF08BD000C01400020014000BFFEE7F6
:1013B00030B505460C4622460021284600F026F8A6
:1013C00030BD00000D480E4901600146416000211A
:1013D0008160C160016141618161C161016201633C
:1013E000C162416207498163C1634FF4D84101641E
:1013F00041640146044A1160704700009C240020AB
:1014000048454150E4240020440000202DE9F041EB
:1014100003460C4617460FB9BDE8F08103B9FBE758
:101420000025002202E02D022543521C042AFAD393
:10143000384603F0030C1946BCF1000F08D0624691
:1014400003E001F8014B401E521C08B1042AF8D3F6
:101450000E4601E020C6001F0428FBD2314602E000
:1014600001F8014B401E0028FAD100BFD4E77047B5
:1014700010B54FF4A06000F001F810BD024901431F
:10148000024A1160704700000000FA050CED00E010
:101490007047000010B50348006810B101480068AB
:1014A000804710BD5C00002070B5044600F0BCF819
:1014B000002045490870454908704549087045496C
:1014C0000860454908604549087045490870454924
:1014D0000870454908604549086045490860454924
:1014E0000870454800680A21B0FBF1F043490860E4
:1014F0004348006858B14348056845B1404806680C
:1015000003E0761E002028602D1D002EF9D100205A
:101510003D4908603D4908603D4908603D49086013
:101520003D4908603D4908603D4908603D490870F3
:1015300001F058FF01F092FF204601F021FC2088C5
:1015400000B170BD204601F099FC208800B1F8E799
:10155000204601F09FFC208800B1F2E7204601F010
:10156000B7FD208800B1ECE7204601F06BFF208832
:1015700000B1E6E7204602F0C9F8208800B1E0E7B4
:10158000204602F01FFB208800B1DAE7204601F078
:1015900029FC208800B1D4E7204603F03FF82088DA
:1015A00000B1CEE7204602F051FA208800B1C8E72A
:1015B000204603F08FF8208800B1C2E701F00AFB53
:1015C000FFF766FF00BFBCE7700000207800002036
:1015D000AC0000200401002008010020920000203F
:1015E0009300002094000020A0000020A400002010
:1015F000A8000020B400002044570008B0000020DC
:101600001457000810570008500000205400002014
:10161000580000205C0000206000002064000020D2
:1016200068000020E20000200A4A1168002002E061
:10163000002204C1401C084A12689042F8D3054AAF
:101640001268054B1B6802EB8302121F034B1A60E2
:101650007047000010570008145700084800002089
:1016600010B500242E480078012800D010BD00BF1E
:10167000FEF77EFD044600BF2A48007828B900BF67
:101680002046FEF779FD00BFF0E726480078401EAF
:101690002449087008460078002805DD00BF204670
:1016A000FEF76AFD00BFE1E71F480078002805DD6E
:1016B00000BF2046FEF760FD00BFD7E701F07EFEC9
:1016C0001A4908700846007800EB4000184951F8A4
:1016D00020001849086008460068174909688842D0
:1016E00005D100BF2046FEF747FD00BFBEE7114809
:1016F0000068D0F89000401C0E490968C1F89000BD
:101700000E480068401C0D4908604FF080500C499D
:10171000086000BF2046FEF72FFD00BF00BFA5E711
:101720007800002070000020AC0000209300002012
:1017300008A300200801002004010020D800002098
:1017400004ED00E02DE9FF4F83B0044615461F4627
:10175000DDE910960020009036480078002805DD6D
:1017600045F2B960308007B0BDE8F08F1DB945F291
:10177000BB603080F7E7022F03DA45F2BC603080AF
:10178000F1E7B9F1040F03D245F2C1603080EAE716
:101790004FF0030ABAF1000F0DD005EA0A0018B1A4
:1017A00045F2BB603080DEE709EA0A0018B145F275
:1017B000C1603080D7E7AB46A846781E80B2019062
:1017C0000020029007E0C844CBF80080C34602988E
:1017D000401C80B20290DDE901108842F3DB00205A
:1017E000CBF8000000BF00BFFEF7C2FC009000BFB6
:1017F000FFF7F4FA00BF104820600498A06065600D
:10180000E560A7826782A4F81090204601F022FBD1
:101810000A480088401C0949088000BFFFF7F8FA11
:1018200000BF0098FEF7A8FC00BF00BF002030807A
:1018300000BF98E7700000204D454D208800002033
:101840002DE9F04104460D4600272CB945F2BF6052
:1018500028800020BDE8F08100BF00BFFEF788FCB3
:10186000074600BFFFF7BAFA00BFA08A68B900BFF9
:10187000FFF7CEFA00BF3846FEF77EFC00BF00BF80
:1018800045F2C26028800020E4E7E6683068E06046
:10189000A08A401EA08200BFFFF7BAFA00BF3846F8
:1018A000FEF76AFC00BF00BF002028803046D1E769
:1018B0002DE9F04104460E461546002724B945F2AD
:1018C000BF602880BDE8F0811EB945F2BE60288067
:1018D000F8E700BF00BFFEF74BFC074600BFFFF76D
:1018E0007DFA00BFA08A618A88420CDB00BFFFF747
:1018F0008FFA00BF3846FEF73FFC00BF00BF45F23D
:10190000BA602880DEE7E0683060E660A08A401CAC
:10191000A08200BFFFF77CFA00BF3846FEF72CFC20
:1019200000BF00BF0020288000BFCBE710B5002417
:1019300020480078002800DD10BD1F4800780028EE
:1019400000DDF9E700BFFEF713FC044600BF01F01D
:1019500035FD1A4908700846007800EB4000184928
:1019600051F82000174908600846006816490968C0
:10197000884205D100BF2046FEF7FEFB00BFDBE733
:1019800010480068D0F89000401C0E490968C1F862
:1019900090000E480068401C0C4908604FF08050D1
:1019A0000B49086000BF2046FEF7E6FB00BF00BF02
:1019B000C2E7000070000020AC000020930000206F
:1019C00008A300200801002004010020D800002006
:1019D00004ED00E070B5044600251A4800780028A0
:1019E00003DD46F66250208070BD1748007801285C
:1019F00003D045F689602080F6E714480078FA287D
:101A000003DB45F209202080EEE700BF00BFFEF7B0
:101A1000AFFB054600BFFFF7E1F900BF0B480078B8
:101A2000401C0A49087001F0CFFD00BFFFF7F0F934
:101A300000BF2846FEF7A0FB00BF00BF00202080AB
:101A400000BFD1E77000002078000020AC0000202B
:101A500070B50446002523480078002803DD46F6CB
:101A60006550208070BD20480078012803D045F6DD
:101A700089602080F6E71D48007818B946F6645062
:101A80002080EFE700BF00BFFEF772FB054600BFF6
:101A9000FFF7A4F900BF15480078401E13490870ED
:101AA0000846007800280CDD00BFFFF7B1F900BF41
:101AB0002846FEF761FB00BF00BF46F6635020805A
:101AC000D0E701F08FFD00BFFFF7A2F900BF284665
:101AD000FEF752FB00BF00BFFFF728FF0020208069
:101AE00000BFBFE77000002078000020AC0000209D
:101AF00010B5044612480078E8B901F05FFC1149BE
:101B0000087008460078104908700E48007800EB0D
:101B100040000E4951F820000D4908600846006851
:101B20000C490860012006490870FEF76BFE43F679
:101B30009920208002E045F68A60208010BD0000D8
:101B400078000020930000209200002008A30020CD
:101B500008010020040100202DE9F04107464FF064
:101B6000000800BF00BFFEF703FB804600BFFFF781
:101B700035F900BF002045490880454908604549BE
:101B8000086045490860454908604549086045497D
:101B9000088100BFFFF73CF900BF4046FEF7ECFAB2
:101BA00000BF00BF00BF00BFFEF7E2FA804600BFE3
:101BB000FFF714F900BF3C48046800BFFFF728F99D
:101BC00000BF4046FEF7D8FA00BF00BF26E000BFC6
:101BD00000BFFEF7CDFA804600BFFFF7FFF800BF59
:101BE00000207834E063206420602063A061A0823C
:101BF000E0826062A062FFF77FF92062783C04F126
:101C000064060020B081D4F8C04000BFFFF700F99F
:101C100000BF4046FEF7B0FA00BF00BF002CD6D18F
:101C200000BF00BFFEF7A4FA804600BFFFF7D6F85A
:101C300000BF1E48056800BFFFF7EAF800BF404636
:101C4000FEF79AFA00BF00BF16E000BF00BFFEF724
:101C50008FFA804600BFFFF7C1F800BF05F12006EC
:101C60000020B081AD6900BFFFF7D2F800BF404649
:101C7000FEF782FA00BF00BF002DE6D102F0DEFBC6
:101C800002F024FE00203880BDE8F081C200002070
:101C9000D4000020E8000020F400002074000020A0
:101CA000A4000020FCA20020DC00002098000020FE
:101CB000F8B5044600266946364800F071FDBDF8C7
:101CC000000018B1BDF800002080F8BD6A46002170
:101CD000022000F0D3FDBDF8000018B1BDF80000EF
:101CE0002080F2E700BF00BFFEF742FA064600BFC1
:101CF000FFF774F800BF00202749086000BFFFF716
:101D000087F800BF3046FEF737FA00BF00BF002556
:101D10002248006822490968884205D91F4800689E
:101D20001F490968B0FBF1F525B91C4800680A2174
:101D3000B0FBF1F56A460021284600F09FFD694698
:101D4000144800F0F9FABDF8000018B1BDF8000021
:101D50002080BAE700BF00BFFEF70AFA064600BFC0
:101D6000FFF73CF800BF00200E4908600A480068F1
:101D70000D49086001200D49087000BFFFF748F8C1
:101D800000BF3046FEF7F8F900BF00BF00202080FA
:101D900000BF9AE718A60020C4000020445700089E
:101DA0002C570008D4000020C8000020D0000020DC
:101DB00010B50348006810B101480068804710BDA5
:101DC000600000202DE9FF4F85B004469046DDE914
:101DD0001995159F139E00200290644800780028F2
:101DE00005DD47F24A10288009B0BDE8F08F1CB924
:101DF00047F2AD102880F7E7B8F1000F03D147F2A2
:101E00004F102880F0E71EB946F62F602880EBE7D8
:101E100057480068874203D246F630602880E3E7DF
:101E20001498B84203D346F631602880DCE7129854
:101E3000202803D346F273202880D5E712981F2864
:101E400006D14C48844203D046F273202880CBE769
:101E5000204601F0C7FE0020288009F0010088B16B
:101E600009F0020070B1B3460020049007E00020A2
:101E7000CBF800000BF1040B0498401C049004986C
:101E8000B842F4D3149806EB80000390CDE90079B2
:101E900032464046039B089900F022FC8346C4F872
:101EA00028800898E06206982062129884F837002B
:101EB000C4F800B00398A06017986065179818B927
:101EC0002D480068A06501E01798A065189860602B
:101ED0006662A763A4F83C904FF0000A08E0002176
:101EE00004F17C0040F82A100AF1010000F0FF0A1A
:101EF000BAF1000FF3D004F16400169901F05EF816
:101F0000204600F03FF800BF00BFFEF731F9029015
:101F100000BFFEF763FF00BF94F8370001F06EFAD0
:101F2000204601F0E3FA204601F012FE1348008833
:101F3000401C1249088012480078012809D000BFCF
:101F4000FEF766FF00BF0298FEF716F900BF00BF5C
:101F50004AE700BFFEF75CFF00BF0298FEF70CF9EE
:101F600000BF00BFFFF7E2FC00BF3DE770000020AC
:101F70004057000834A20020B0000020E0000020FC
:101F80007800002010B504460348006818B12046C8
:101F900001490968884710BD5000002070B504460B
:101FA0000D46002648480078002803DD47F24E1011
:101FB000288070BD4548844203D147F24C102880E8
:101FC000F7E79CB900BF00BFFEF7D2F8064600BF96
:101FD000FEF704FF00BF3E48046800BFFEF718FF8D
:101FE00000BF3046FEF7C8F800BF00BF00BF00BF0B
:101FF000FEF7BEF8064600BFFEF7F0FE00BF94F8FD
:10200000360008282DD2DFE800F004090E10080A77
:102010000F11204601F0AAFA30E02FE000BF204661
:1020200002F0F0F92AE000BF00BF00BF204602F036
:10203000E9F994F83400082810D2DFE800F004072A
:102040000508090A0B0600BF00BF08E000BF00BF7B
:1020500000BF00BF204601F002F900E000BF00BF52
:102060000CE000BFFEF7D4FE00BF3046FEF784F858
:1020700000BF00BF46F62D6028809AE700BF04F13C
:10208000640000F045FF204600F026F8204601F0ED
:1020900077FD10480088401E0E490880204601F058
:1020A000A1FDFF2084F8360000BFFEF7B1FE00BF9F
:1020B0003046FEF761F800BF00BF00202880FFF720
:1020C00035FC00BF75E700007000002034A200203E
:1020D00004010020E000002010B504460348006819
:1020E00018B1204601490968884710BD54000020F6
:1020F0002DE9F05F80460F4616461C460A9D4FF0BC
:10210000000B75480078002805DD46F2AE102880E7
:102110000020BDE8F09F26B946F2D5202880002097
:10212000F7E71FB1B7F5004F02D100E000BF04E0B0
:1021300045F6256028800020EBE700BF0CB10020A9
:10214000206000BF00BFFEF713F8834600BFFEF714
:1021500045FE00BF6148006800F164092B46224635
:102160003146484600F0F6FE8246288800BBA4B1FE
:10217000FEF7C2FE2168401A584909684867574867
:102180000068806F55490968496F884205D25348F5
:102190000068406F51490968886700BFFEF738FE44
:1021A00000BF5846FDF7E8FF00BF00BF5046B0E74C
:1021B00007F4004068B146F2B010288000BFFEF777
:1021C00027FE00BF5846FDF7D7FF00BF00BF002025
:1021D0009FE74348007800280DDD00BFFEF718FE9A
:1021E00000BF5846FDF7C8FF00BF00BF46F663506A
:1021F000288000208DE7434602220021084600F097
:1022000073FF00BFFEF704FE00BF5846FDF7B4FFA2
:1022100000BF00BFFFF78AFB00BF00BFFDF7A8FFAC
:10222000834600BFFEF7DAFD00BF2C48006890F837
:10223000350020B101282AD0032832D132E02748C6
:102240000068D0F85CA025480068B0F860003080D5
:10225000D4B122480068006C2060FEF74DFE1F4993
:102260000968096C401A1D49096848671B480068DD
:10227000806F1A490968496F884205D2174800687B
:10228000406F1649096888670020288017E04FF0E2
:10229000000A0020308004B1206046F2A910288096
:1022A0000DE000BF4FF0000A002030801CB10B4849
:1022B0000068006C206047F2D920288000BF00BF72
:1022C00000BFFEF7A5FD00BF5846FDF755FF00BF54
:1022D00000BF50461DE700007000002004010020F0
:1022E000AC0000202DE9FC470746884691461C4675
:1022F0000A9D4CB1102C08D0B4F5004F06D0A4F5BF
:102300000040103820B902E000BF00BF00BF04E069
:1023100045F625602880BDE8FC8700BFFEF7ECFD90
:10232000064623464A4641463846CDE9006501F057
:10233000C1FC00BFEFE7000070B504460D46002663
:1023400018480078002803DD47F25510288070BD3A
:1023500000BF00BFFDF70CFF064600BFFEF73EFDC5
:1023600000BF1CB11048006884420CD100BFFEF7CA
:102370004FFD00BF3046FDF7FFFE00BF00BF47F234
:1023800057102880E3E700BFFEF742FD00BF30464C
:10239000FDF7F2FE00BF00BF2946204601F012FD06
:1023A00000BFD4E7700000200401002010B50446EF
:1023B0000348006818B1204601490968884710BDE4
:1023C000580000202DE9F04780460E4614461D4671
:1023D0004FF0000976480078002805DD46F2AE107F
:1023E00028800020BDE8F0871EB1B6F5004F02D16D
:1023F00000E000BF04E045F6256028800020F1E7FA
:1024000000BF0CB10020206000BF00BFFDF7B0FE90
:10241000814600BFFEF7E2FC00BF66480068406CE2
:10242000B8B364480068406C401E6249096848645B
:1024300060480068476C1CB15E480068006C206012
:10244000FEF75AFD5B490968096C401A5949096849
:10245000C1F8A40057480068D0F8A8005549096899
:10246000D1F8A410884207D252480068D0F8A400DE
:1024700050490968C1F8A80000BFFEF7C9FC00BFB9
:102480004846FDF779FE00BF00BF0020288038468F
:10249000A8E7FFE706F4004068B100BFFEF7B8FC0C
:1024A00000BF4846FDF768FE00BF00BF46F2B0100F
:1024B0002880002096E74048007800280DDD00BF06
:1024C000FEF7A6FC00BF4846FDF756FE00BF00BF62
:1024D00046F663502880002084E743460722002107
:1024E000084600F001FE00BFFEF792FC00BF484620
:1024F000FDF742FE00BF00BFFFF718FA00BF00BFA4
:10250000FDF736FE814600BFFEF768FC00BF294894
:10251000006890F8350020B1012826D0032834D176
:102520002CE0FCB123480068006C2060FEF7E4FC5E
:1025300020490968096C401A1E490968C1F8A400BD
:102540001C480068D0F8A8001A490968D1F8A410FE
:10255000884207D217480068D0F8A40015490968D6
:10256000C1F8A8000020288013E01CB111480068C1
:10257000006C206046F2A91028800AE00CB100200F
:10258000206047F2D920288003E046F62E6028809C
:1025900000BF00BF07480068476C00BFFEF738FC6B
:1025A00000BF4846FDF7E8FD00BF00BF384619E709
:1025B0007000002004010020AC0000202DE9F04153
:1025C00006460D4614461DB1B5F5004F02D100E098
:1025D00000BF05E045F6256020800020BDE8F081C1
:1025E00000BFFEF789FC8046234642462946304616
:1025F00001F082FC07463846F0E700002DE9F0477D
:1026000005460E4617461C464FF0000A3248007831
:10261000002804DD47F259102080BDE8F0871EB97C
:1026200046F2D5202080F8E71FB946F2D520208059
:10263000F3E700BF00BFFDF79BFD824600BFFEF73A
:10264000CDFB00BF0DB925480568286878B900BFE3
:10265000FEF7DEFB00BF5046FDF78EFD00BF00BF5A
:1026600000203060386047F252102080D5E795F89E
:102670003C0000F0010078B900BFFEF7C9FB00BFC5
:102680005046FDF779FD00BF00BF00203060386084
:1026900047F254102080C0E700BFFEF7B9FB00BF2F
:1026A0005046FDF769FD00BF00BF4FF00008D5F8A8
:1026B000249003E009F1040908F10108D9F80000A9
:1026C0000028F7D0C6F80080A86BA0EB080038609F
:1026D0000020208000BFA0E770000020040100203F
:1026E000F0B50446DDE9055602EB85004FF0807C2D
:1026F000071F3846C7F800C0071F38463C60DFF8A0
:102700009CC0071F3846C7F800C04FF0123C071F97
:102710003846C7F800C04FF0033C071F3846C7F8DB
:1027200000C04FF0023C071F3846C7F800C0071F23
:1027300038463B60071F384639604FF0113C071F91
:102740003846C7F800C04FF0103C071F3846C7F89E
:1027500000C04FF0093C071F3846C7F800C04FF0D3
:10276000083C071F3846C7F800C04FF0073C071F5A
:102770003846C7F800C04FF0063C071F3846C7F878
:1027800000C04FF0053C071F3846C7F800C04FF0A7
:10279000043C071F3846C7F800C0F0BDE13E000802
:1027A00070B505460C460A480078002803DD47F25C
:1027B0005D10208070BD0748854203D147F25B1051
:1027C0002080F7E72146284601F08EFC00BFF1E7A4
:1027D0007000002034A2002070B52448006810B1B9
:1027E000224800688047FEF787FB044620480068BF
:1027F00020490968884215D01D480068D0F8980023
:10280000201A1B490968C1F8940019480068D0F8DB
:102810009C0017490968D1F89410084414490968C4
:10282000C1F89C0013480068C0F89840FEF7AAFA67
:1028300005460F480068D0F8B400A84203D20C48FF
:102840000068C0F8B4500A480068D0F8B8000A49D7
:102850000968884205D20848006805490968C1F836
:10286000B80000200449086070BD0000640000202A
:102870000401002008010020A80000202DE9F041FB
:1028800005460E46144600272D480078002804DD32
:1028900047F275202080BDE8F0812A4800780028A2
:1028A00003DD46F663502080F5E736B1022E05D0F1
:1028B000042E0AD0082E09D101E000BF00BF1DB9C7
:1028C00047F27E202080E6E704E003E045F625603D
:1028D0002080E0E700BF00BF00BFFDF749FC0746CE
:1028E00000BFFEF77BFA00BF01201749096881F895
:1028F00036002346324629461348006801F0A4FCFE
:10290000208848B100BFFEF783FA00BF3846FDF7C4
:1029100033FC00BF00BFBEE70B48006800F026FE96
:1029200000BFFEF775FA00BF3846FDF725FC00BF73
:1029300000BFFEF7FBFF0020208000BFABE70000D8
:1029400070000020AC000020040100202DE9FF5F92
:1029500005460E4617469846DDE90EA40020009075
:1029600060480078002804DD47F275202080BDE82B
:10297000FF9F5D480078002803DD46F66350208005
:10298000F5E70AF00E0BBBF1000F09D0BBF1020F07
:1029900007D0BBF1040F10D0BBF1080F0ED101E03E
:1029A00000BF00BFB8F1000F06D12FB926B91DB97D
:1029B00047F27E202080DAE704E003E045F6256058
:1029C0002080D4E700BF2AF01E0008B1012000E0FB
:1029D000002003900398012803D145F6256020804C
:1029E000C5E7CAF3001002900298C0B9B8F57A7F23
:1029F00003D347F27B202080B9E73B2F03DD47F26A
:102A00007A202080B3E73B2E03DD47F27920208037
:102A1000ADE7632D12DD47F278202080A7E742F270
:102A20000F70864203DD47F2792020809FE7B5F5DD
:102A30007A7F03DB47F27820208098E72B48D0F894
:102A400000904FF4FA70B0FBF9F0404400FB09F03D
:102A50004FF47A71B0FBF1F14FF461606843C6EB5B
:102A6000061200EB8200384400FB09100190019827
:102A700090B300BF00BFFDF77BFB009000BFFEF7E7
:102A8000ADF900BF01201A49096881F836002346D4
:102A90005A4617480199006801F0D6FB208848B1D2
:102AA00000BFFEF7B5F900BF0098FDF765FB00BF5A
:102AB00000BF5CE70E48006800F058FD00BFFEF75D
:102AC000A7F900BF0098FDF757FB00BF00BFFEF756
:102AD0002DFF0020208003E0FFE747F27E202080CA
:102AE00000BF44E770000020AC00002044570008FD
:102AF0000401002008B500F02BF86A4600210E48BA
:102B0000FFF75CFD0D49097801EB41010C4A02EB2E
:102B1000810000F085FD0B480068401E09490860EF
:102B20000846006838B90848006808606A4600210D
:102B30000648FFF743FD08BD50A500209200002085
:102B400008A3002000010020FC00002018A600209F
:102B500010B50348006810B101480068804710BDF7
:102B60006800002010B5002400BF00BFFDF700FB87
:102B7000044600BFFEF732F900BF09480078401C48
:102B80000749087000BFFEF743F900BF2046FDF774
:102B9000F3FA00BF00BFFFF7ADFFFEF761FD10BD08
:102BA0007000002001464A1E4FF0E0235A61084A97
:102BB000106820F07F4000BF10601A46126942F092
:102BC00005021A611A46126942F002021A61704740
:102BD00020ED00E0244A2549254A264A2649274A6D
:102BE0002748284A284A294A294A2A482A482B4A53
:102BF0002B482C4A2C482D4A2D482E482E482F4829
:102C00002F4A304A304A3148314A324A32483348F2
:102C100033483448344835483548364A364A374AC6
:102C2000374A384838483948394A3A4A3A4A3B4894
:102C30003B483C483C493D483D4A3E4A3E4A3F4A63
:102C40003F4A404A404A4148414A424A4248434832
:102C5000434A444A4448454A454A46484648474804
:102C600000BF00BF00BF704788570008F058000839
:102C7000895700088A5700088C57000890570008A9
:102C80009457000891570008BC570008BD5700082A
:102C9000BE570008C0570008C2570008C6570008B2
:102CA000C8570008E8570008EA570008EC57000822
:102CB000EE570008F0570008F2570008F4570008D4
:102CC00020580008215800082258000824580008FD
:102CD0002658000827580008285800082A580008D5
:102CE0002C5800082E5800083058000832580008A8
:102CF00034580008645800086558000866580008F1
:102D000067580008685800086A5800086C5800089E
:102D100094580008955800089658000897580008DD
:102D2000985800089A5800089C580008A0580008B5
:102D3000A1580008A2580008A3580008A458000889
:102D4000A5580008A6580008A7580008A858000869
:102D5000AA580008AB580008AC580008AE58000844
:102D6000B0580008B1580008B4580008E8580008E6
:102D7000E9580008EA580008EC580008EE58000826
:102D80000021034A1160034A11800180704700004E
:102D90007C00002080000020002400BF1DE000BF58
:102DA00000BFFDF7E5F9044600BFFEF717F800BFC6
:102DB0000A480068401C0949086009480068401C2E
:102DC0000749086000BFFEF723F800BF2046FDF763
:102DD000D3F900BF00BFFEF75DFBE0E76C00002009
:102DE000C400002010B58AB0044600200E490860D7
:102DF0000B2000210591CDE90704069108460B49F7
:102E000009680B4A12680B4B1B68CDE90132CDE90A
:102E100003101F200023084A08A100900C48FEF769
:102E2000D1FF0AB010BD00006C000020EC56000875
:102E3000E8560008E4560008992D000875432F4F06
:102E4000532D4949492049646C65205461736B00D6
:102E500034A20020002181610749096811B90021CD
:102E6000C16105E004490968C161034909688861D5
:102E70000149086070470000840000200021034AD7
:102E80001160034A11800180704700008400002017
:102E90008800002070B501461A4D2D681DB945F215
:102EA0001E750D8070BD184D2D881DB945F21D751C
:102EB0000D80F7E7134D28682A681032124D2D88CF
:102EC0006D1EACB2002308E002600025456005815C
:102ED000C560103010325D1CABB2A342F4DB00259C
:102EE000056045600581C560064D2D68074E35605B
:102EF000054D2D88B5800025F58035810D8000BFFA
:102F0000D0E70000245700081C570008FCA200204E
:102F100010B5014648894B89002B17DD0A680C4B18
:102F20001B6813600A4C4B6823602346DB884C897E
:102F30001B1B074CE38023469B884C892344044C8D
:102F4000A38000234B818B810B604B6010BD000080
:102F5000FCA20020F0B504460D46608940B900206F
:102F6000288002B1106046F2925018800020F0BD17
:102F700061684E68088928800AB1C86810600868CE
:102F80006060606818B900202060608102E060899C
:102F9000401E60810848006808600748016080881A
:102FA000401C054FB8803846C088401EF88000207D
:102FB00018803046DBE70000FCA2002001810022DF
:102FC0004281828102604260704700002DE9F04139
:102FD0000D46DDE90674B0F80AC0B0F80880C445B3
:102FE00005DB46F2935CA4F800C0BDE8F081DFF891
:102FF000DCC0BCF804C0BCF1000F04D145F21D7C5C
:10300000A4F800C0F1E7DFF8C4C0DCF80010DFF876
:10301000BC80D1F800C0C8F800C0C446BCF804C0E9
:10302000ACF1010CA8F804C0C446BCF806C00CF111
:10303000010CA8F806C0C446BCF808C0B8F8068061
:10304000C44507DADFF884C0BCF806C0DFF87C802E
:10305000A8F808C0B0F80AC0BCF1000F0AD101609E
:1030600041604FF0010CA0F80AC04FF0000CC1F80D
:1030700000C017E003F0100CBCF1000F07D1066888
:10308000316001604FF0000CC1F800C004E0D0F8DE
:1030900004C0C1F800C04160B0F80AC00CF1010CD6
:1030A000A0F80AC0B0F80CC0B0F80A80C44503DA32
:1030B000B0F80AC0A0F80CC04D600A81CF604FF094
:1030C000000CA4F800C000BF8FE70000FCA20020A5
:1030D0000021034A1160034A1180018070470000FB
:1030E0008C000020900000202DE9F04105460C46A0
:1030F00016461F461548006880F8346000201349C2
:10310000096881F8350039461048006800F004FD70
:103110006CB104F10808EC60012229460B480068F4
:1031200000F016F82946404600F066F806E0002058
:1031300006490968C88705490968086303480168A2
:10314000204600F019F8BDE8F081000004010020DD
:1031500010B5C287016300230AE000244C600C60B4
:103160000C614C610C83CC61886020315C1CA3B283
:103170009342F2DB10BD000030B548B14568C1F89C
:10318000C45000F10804226893681D6AC56113E009
:1031900091F83450022D02D0072D08D103E007A585
:1031A000C1F8C45007E007A5C1F8C45003E008A562
:1031B000C1F8C45000BF00BF30BD00005461736B44
:1031C000205100005461736B2053656D00000000B6
:1031D0002000000030B507A5C1F8C45000F1080474
:1031E00022681AB193681D6AC56101E001A5C56135
:1031F00030BD000020000000F0B58E6896F8375012
:1032000007893FB90127078100274F600F600160E0
:10321000416023E007897F1C0781026806E094680B
:1032200094F83770AF4200DD02E05268002AF6D110
:1032300000BF32B900274F6043680B60596041609E
:103240000CE017682FB9116000270F604A60016019
:1032500004E013680B604A6059601160F0BD2DE90D
:10326000F0410446256BE68F0AE0D5F80C8008F1A2
:1032700008072946384600F00AF82035701E86B245
:10328000002EF2DC0020E0872063BDE8F08110B55D
:103290000489012C03D100240460446011E00C680F
:1032A00024B94A680024146002600AE04C6824B91A
:1032B0000B6800245C60436003E00B684A685A6056
:1032C00013600489641E048100244C600C6010BDEE
:1032D0002DE9F84306460C4617469846089D94F893
:1032E0003600082850D2DFE800F004050809060778
:1032F0002B2C00BF00BF00BF47E000BF94F8340094
:10330000032807D143463A4621463046009500F04F
:103310003FF803E0E765A4F86080256436B12046F5
:10332000FFF79DFF21463046FFF754FF204600F08F
:103330003BFD00203434A070607004F8340924E0B0
:1033400000BF94F83400032807D143463A4621468B
:103350003046009500F01CF803E0E765A4F86080B3
:103360002564204601F04EF836B12046FFF777FF7E
:1033700021463046FFF72EFF04203434A070002091
:10338000607004F8340900E000BF00BFBDE8F883B6
:10339000F0B50446059E086BCD8F0AE0C768A742CA
:1033A00004D1046142610383C66104E020306F1ED2
:1033B000BDB2002DF2DC00BFF0BD000070B50025ED
:1033C000074C03E005F12000C5B2241D2068002849
:1033D000F8D02068FCF7D7FE2844C5B2284670BD57
:1033E0004C000020002004E00021034A42F8201095
:1033F000401C0028F8D070474C00002030B542092E
:1034000000F01F030121C3F11F04A140034C54F835
:1034100022400C43014D45F8224030BD4C000020B5
:1034200030B5420900F01F030121C3F11F04A14080
:10343000034C54F822408C43014D45F8224030BDE6
:103440004C0000200021034A1160034A11800180D2
:1034500070470000980000209C00002000210AE036
:1034600001EB4102054B03EB820000220281026066
:1034700042604A1CD1B22029F2D3704708A3002031
:1034800010B5044694F83700FFF7B8FF94F83700FA
:1034900005490978884203D1204600F027F802E068
:1034A000204600F003F810BD9200002010B590F8FF
:1034B000373003EB43030C4C04EB83010B893BB91E
:1034C00001230B810023C36003610860486009E0A9
:1034D0000B895B1C0B810B68C360002303610A68C6
:1034E0001061086010BD000008A3002010B590F81E
:1034F000373003EB43030B4C04EB83010B893BB9DF
:1035000001230B810023C36003610860486008E069
:103510000B895B1C0B810023C3604A680261D06089
:10352000486010BD08A3002010B501460C8924B1E5
:10353000012C03D0022C0CD101E000BF14E008687C
:103540004A6802610024C4601461D0600A60486067
:103550000AE008684A68C36800241C61C46002610C
:10356000D0600B60486000BF00BF10BD2DE9F04186
:10357000054695F8370000EB4000124901EB800446
:103580002F69EE6887B946B900202081206060600D
:1035900095F83700FFF744FF0EE02089401E208198
:1035A00000203061266007E02089401E2081FE60F7
:1035B0000EB9676000E0376100202861E860BDE86F
:1035C000F081000008A3002010B50448007801280D
:1035D00003D1FDF791FC0249086010BDAC0000204A
:1035E000A000002010B50A48007880B9FDF784FCDF
:1035F00008490968441A08480068A04201D20648F0
:10360000046006480068A04201D20448046010BD6E
:10361000AC000020A0000020A4000020A800002092
:1036200070B50546002635480078012800D070BDE9
:1036300000BF00BFFCF79CFD064600BFFDF7CEFBB8
:1036400000BF2C684CB900BFFDF7E2FB00BF30465D
:10365000FCF792FD00BF00BFE9E72948844209D189
:1036600000BFFDF7D5FB00BF3046FCF785FD00BF6E
:1036700000BFDCE7A06D10B1A06D401EA065A06D7D
:1036800048B100BFFDF7C4FB00BF3046FCF774FD36
:1036900000BF00BFCBE72889022809DA00BFFDF789
:1036A000B7FB00BF3046FCF767FD00BF00BFBEE7B9
:1036B00014480078002809DD00BFFDF7A9FB00BF12
:1036C0003046FCF759FD00BF00BFB0E72846FFF7C2
:1036D0002BFF2C68606D18B90B480068A06501E0ED
:1036E000606DA06500BFFDF793FB00BF3046FCF79F
:1036F00043FD00BF00BF00BF99E70000B4000020F9
:1037000034A20020AC000020B00000200021034AB9
:103710001160034A1180018070470000B80000204A
:10372000BC00002086B00020009000BF06E0B74932
:103730000968480001AA0021FFF7A0F8B448007802
:103740000128F4D101A8FEF707FA0027B148006864
:10375000AE490968884205D9AE480068AB49096896
:10376000B0FBF1F727B9AB4800680A21B0FBF1F7CD
:103770004AE1FDF7C1FB8246FDF71AFBA649086046
:1037800000BF00BFFCF7F4FC009000BFFDF726FB74
:1037900000BFA2480068A249086000209F49086055
:1037A00000BFFDF735FB00BF0098FCF7E5FC00BF4C
:1037B00000BF9C4800689A490968884248D99948DE
:1037C00000689949884205D242F2107003900120A6
:1037D000029023E0934800689449884205D24FF450
:1037E0007A7003900A20029018E08E480068904991
:1037F000884203D26420039002900FE08948006859
:103800008C49884205D20A2003904FF47A700290C6
:1038100004E00120039042F2107002908148016898
:103820000298B1FBF0F97E49039809684843B0FB60
:10383000F9F042F21071081A7F4908807F48008829
:103840000988884208DA7C4800887C49088003E0BF
:1038500042F2107078490880FEF7AAFA002500BFEE
:1038600000BFFCF785FC009000BFFDF7B7FA00BF72
:103870007348046800BFFDF7CBFA00BF0098FCF75F
:103880007BFC00BF00BF2EE000BF00BFFCF770FC58
:10389000009000BFFDF7A2FA00BF54F89C0F6060D3
:1038A000002044F89C0900BFFDF7B2FA00BF009861
:1038B000FCF762FC00BF00BFD4F8A000054400BFC5
:1038C00000BFFCF755FC009000BFFDF787FA00BF72
:1038D000D4F8C04000BFFDF79BFA00BF0098FCF78A
:1038E0004BFC00BF00BF002CCED145B34E488542F3
:1038F00005D242F2107005904FF0010B1BE04B48CF
:10390000854205D24FF47A7005904FF00A0B12E011
:103910004748854203D26420059083460BE0454822
:10392000854204D20A2005904FF47A7B03E00120FF
:10393000059042F2107BB5FBFBF0049003E0002001
:1039400005900120049000BF00BFFCF711FC00901F
:1039500000BFFDF743FA00BF3948046800BFFDF718
:1039600057FA00BF0098FCF707FC00BF00BF2FE02C
:10397000D4F8A000059948430499B0FBF1F086B251
:1039800042F21070864200D90646A4F88C60B4F862
:103990008E00B04201DAA4F88E6001AB04F1AC02F3
:1039A000111D2046FEF72AFE00BF00BFFCF7E0FB1A
:1039B000009000BFFDF712FA00BFD4F8C04000BF6E
:1039C000FDF726FA00BF0098FCF7D6FB00BF00BF4A
:1039D000002CCDD11B480078012805D100201949C1
:1039E000087001A8FEF7B8F8FDF786FAA0EB0A0800
:1039F00015480068404502D21348C0F8008001AA6B
:103A000000213846FEF73AFFB3E600002C570008C5
:103A1000D00000204457000874000020C40000209B
:103A2000CC000020C8000020801A060000093D00DC
:103A3000005A62020084D717C0000020C200002094
:103A4000DC000020BE000020D400002010B58AB0A9
:103A5000044600201F4908601F4908601F4908608C
:103A60001F4908701F4908701F48006820B946F6B2
:103A70002B6020800AB010BD1C4800681C490968F2
:103A8000884203D246F62C602080F3E7194800787C
:103A90001F2803D346F62A602080EBE7032000218D
:103AA0000591CDE907040691084610490968124AB4
:103AB00012680D4B1B68CDE90132CDE903100D48AA
:103AC000007800230D4A0EA100901248FEF77AF903
:103AD00000BFCFE7C4000020CC000020C8000020B9
:103AE000D0000020BE0000203057000838570008E2
:103AF00040570008285700083457000825370008A9
:103B000075432F4F532D49494920537461742054F4
:103B100061736B0088A4002038B504460D4685B15A
:103B20006B4602222946204600F08EFBBDF80000BD
:103B300018B9032084F8360006E0022084F8360025
:103B400002E0022084F836002046FFF70FFD38BD62
:103B50000021C0F8BC100949096819B90021C0F852
:103B6000C01007E005490968C0F8C010034909689A
:103B7000C1F8BC000149086070470000DC0000206B
:103B8000D0F8BC20D0F8C0104AB90D4B196011B163
:103B90000023C1F8BC300023C0F8C0300FE029B9C1
:103BA0000023C2F8C030C0F8BC3008E0C2F8C01032
:103BB000C1F8BC200023C0F8C030C0F8BC3070474A
:103BC000DC0000200021044A1160044A1180044AEC
:103BD0001160018070470000DC000020E000002040
:103BE000D800002070B5044600202060A06060600E
:103BF000E06020616061A061E0612BA02062002094
:103C00006062A062E0622063E0872064E065A4F85F
:103C10006000002104F16400FFF7D0F9002044F8AF
:103C2000740F6060E060A0822061743C002506E0B3
:103C3000002104F17C0040F82510681CC5B2002D5D
:103C4000F6D000203434206120676067606084F81B
:103C50005600E067A06720814FF0004060610020BF
:103C6000A061E06120626062A4F85800A4F85A00E4
:103C7000E0652066FDF740F9064666660020A0660E
:103C8000C4F88000C4F8840020706070A070202008
:103C9000E0700020C4F88800C4F88C0004A0C4F8C8
:103CA0009000343C70BD00003F5461736B00000015
:103CB000200000002DE9FC4704460F469046994637
:103CC000DDE90A654FF0000A00BF00BFFCF750FABB
:103CD000824600BFFDF782F800BF0CB93148046886
:103CE0000020288094F8360008284BD2DFE800F046
:103CF00004051A1B06071C1D00BF00BF00BF4B4672
:103D00004246394604F16400CDE90065FFF75EF9EB
:103D100000BFFDF77DF800BF5046FCF72DFA00BF4D
:103D200000BF3CE000BF00BF00BF94F83400022891
:103D300015D143463A46214600200096FFF7C8FABF
:103D400000BFFDF765F800BF5046FCF715FA00BF4D
:103D500000BF09F40040A0B9FDF7E8FD11E04B46B3
:103D60004246394604F16400CDE90065FFF72EF9BB
:103D700000BFFDF74DF800BF5046FCF7FDF900BF4E
:103D800000BF0CE000BFFDF743F800BF5046FCF752
:103D9000F3F900BF00BF46F62D60288000BF00BFCA
:103DA000BDE8FC870401002010B50446204600F061
:103DB00029FB94F8360000F0040010B92046FFF704
:103DC0005FFB10BD70B504460D46002600BF00BF66
:103DD000FCF7CEF9064600BFFDF700F800BF002053
:103DE000288094F83600082868D2DFE800F004053F
:103DF0000607142B3F5300BF00BF00BF00BFFDF7F5
:103E000007F800BF3046FCF7B7F900BF00BF47F224
:103E1000531028805FE014F88A0F401E207014F8B9
:103E20008A0928B9002084F836002046FFF7BCFF35
:103E300000BFFCF7EDFF00BF3046FCF79DF900BF67
:103E400000BF48E014F88A0F401E207014F88A0959
:103E500010B9012084F8360000BFFCF7D9FF00BF7D
:103E60003046FCF789F900BF00BF34E014F88A0F30
:103E7000401E207014F88A0910B9022084F8360018
:103E800000BFFCF7C5FF00BF3046FCF775F900BF67
:103E900000BF20E014F88A0F401E207014F88A0931
:103EA00010B9032084F8360000BFFCF7B1FF00BF53
:103EB0003046FCF761F900BF00BF0CE000BFFCF723
:103EC000A7FF00BF3046FCF757F900BF00BF46F61A
:103ED0002D60288070BD00BFFDF728FD00BFF9E709
:103EE00008B504480068FEF761FA69460020FEF74D
:103EF00055F808BD040100202DE9F8430446884622
:103F000017461D464FF0000900BF00BFFCF730F90F
:103F1000814600BFFCF762FF00BF0CB9714804681E
:103F200027640020288094F83600082878D2DFE83B
:103F300000F00405585906075A5B00BF00BF00BFD8
:103F40000420012804D0022815D0042839D126E005
:103F5000606CFF280ED100BFFCF75AFF00BF484637
:103F6000FCF70AF900BF00BF46F6C55028800020C4
:103F7000BDE8F88326E04FF6FF71606C88420DD1F2
:103F800000BFFCF745FF00BF4846FCF7F5F800BF4F
:103F900000BF46F6C55028800020E9E712E0606CBB
:103FA000401C68B900BFFCF733FF00BF4846FCF770
:103FB000E3F800BF00BF46F6C55028800020D7E7D1
:103FC00000E000BF00BF606C401C6064666C00BF16
:103FD000FCF71EFF00BF4846FCF7CEF800BF00BF4D
:103FE0007DE000BF00BF00BF94F83400072818D15F
:103FF00000231A46214618460097FFF769F9666CB8
:1040000000BFFCF705FF00BF4846FCF7B5F800BF4E
:1040100000BF08F40040002852D1FDF787FC4FE0B4
:104020004FE00420012804D0022814D0042838D1FD
:1040300025E0606CFF280DD100BFFCF7E9FE00BF52
:104040004846FCF799F800BF00BF46F6C5502880E7
:1040500000208DE726E04FF6FF71606C88420DD19D
:1040600000BFFCF7D5FE00BF4846FCF785F800BF4F
:1040700000BF46F6C5502880002079E712E0606C4A
:10408000401C68B900BFFCF7C3FE00BF4846FCF700
:1040900073F800BF00BF46F6C5502880002067E7D0
:1040A00000E000BF00BF606C401C6064666C00BF35
:1040B000FCF7AEFE00BF4846FCF75EF800BF00BF4D
:1040C0000DE000BFFCF7A4FE00BF4846FCF754F823
:1040D00000BF00BF46F62D602880002600BF00BF4D
:1040E000304645E70401002070B504460D46002621
:1040F00000BF00BFFCF73CF8064600BFFCF76EFEB1
:1041000000BF0CB94448046843480068844210D199
:104110004248007800280CDD00BFFCF779FE00BFA4
:104120003046FCF729F800BF00BF46F663502880F0
:1041300070BD0020288094F8360008285AD2DFE8A5
:1041400000F0041727374748494A042084F836000E
:10415000012084F88A002046FFF708FA00BFFCF728
:1041600057FE00BF3046FCF707F800BF00BF4EE027
:10417000052084F83600012084F88A0000BFFCF78F
:1041800047FE00BF3046FBF7F7FF00BF00BF3EE031
:10419000062084F83600012084F88A0000BFFCF76E
:1041A00037FE00BF3046FBF7E7FF00BF00BF2EE041
:1041B000072084F83600012084F88A0000BFFCF74D
:1041C00027FE00BF3046FBF7D7FF00BF00BF1EE051
:1041D00000BF00BF00BF94F88A00401C84F88A002A
:1041E00000BFFCF715FE00BF3046FBF7C5FF00BF60
:1041F00000BF0CE000BFFCF70BFE00BF3046FBF732
:10420000BBFF00BF00BF46F62D60288090E700BFCF
:10421000FDF78CFB00BF8BE704010020AC00002001
:10422000002108E0064A02EBC10000220260828001
:10423000C2804A1C91B2034A12889142F2DB704755
:10424000249F00205C5700082DE9F04F0C461646CD
:104250001D46042E1ED1DFF8A091D9F80090A4EBE2
:104260000909A9F1010313F5803F0DD94FF00009A9
:10427000C0F84C90C0F85090C0F81C9047F27E29CE
:10428000A5F80090BDE8F08FC46403F10109C0F8FF
:1042900050903FE084B3082E25D1D0F8489009EB28
:1042A0000407DFF85491D9F80090A7EB0909A9F1A8
:1042B0000103A34201D2C76406E0DFF83C91D9F8BC
:1042C0000090A144C0F84C90DFF82CA1D0F84C909D
:1042D000DAF800A0A9EB0A09C0F85090D0F84C9089
:1042E000C0F8489016E0DFF81091D9F80090A1448A
:1042F000C0F84C9004650DE0FFE74FF00009C0F8EE
:104300004C90C0F85090C0F81C9047F27E29A5F858
:104310000090B7E7DFF8E4A0BAF800A0D0F84C901E
:10432000B9FBFAFB0AFB1B991FFA89F8DFF8D0905A
:1043300009EBC802B2F80490B9F1000F0BD14FF0AD
:104340000009C0F81490C0F8189010604FF00109EF
:10435000A2F804903EE0116834E0DFF89CA0D1F8A8
:104360004C90DAF800A0A9EB0A09C1F85090D0F8F7
:104370005090D1F850A0D1450ED9D1F81490B9F190
:10438000000F01D049691DE04FF00009C0F81490FA
:1043900081614861002115E0D1F81890B9F1000F52
:1043A00007D14FF00009C0F8189041618861106092
:1043B00007E0D1F818C0C0F818C04161CCF814006B
:1043C000886100210029C8D1B2F8049009F10109DF
:1043D000A2F80490B2F80690B2F804A0D14503DA2E
:1043E000B2F80490A2F80690C2614FF00009A5F857
:1043F000009000BF46E70000E40000205C57000882
:10440000249F002010B5C269BAB100240465146865
:10441000844205D14169116039B100248C6104E006
:10442000816943694B6103B19961002444618461EE
:10443000C461C4649488641E948010BD002006E0AA
:10444000054A02EBC0010022CA80421C90B2034A16
:1044500012889042F4DB7047249F00205C570008CC
:104460002DE9F05F4FF0000B00BF00BFFBF780FEAF
:10447000834600BFFCF7B2FC00BFFCF73DFD0546DC
:1044800057480068401C564908600846006855496E
:104490000988B0FBF1F201FB12001FFA80FA5248C2
:1044A00000EBCA08D8F80040002782E0002C7FD03B
:1044B000D4F8149094F83600082875D2DFE800F09C
:1044C0000408051B063D075000BF00BF00BF6CE09D
:1044D0004349E06C0968401A20654149E06C09686D
:1044E000884206D1002084F836002046FFF75CFCA5
:1044F00000E0012759E03A49E06C0968401A20655C
:104500003749E06C0968884215D10020E065A4F8BD
:104510006000FCF7F1FC20642046FEF7A0FE204678
:10452000FFF742FC00203434A070032060700020AC
:1045300004F8340900E0012737E02949E06C0968F4
:10454000401A20652649E06C0968884206D104209B
:1045500084F836002046FFF755FF00E0012724E0ED
:104560001F49E06C0968401A20651D49E06C096824
:10457000884217D10020E065A4F86000FCF7BCFC7D
:1045800020642046FEF76BFE2046FFF73BFF042029
:104590003434A07003206070002004F8340902E075
:1045A00006E001E0012700E000BF00BF4C4600E04C
:1045B0000127002F3FF47AAFFCF79EFC461B0B4807
:1045C0000068B04201D20948066000BFFCF720FC39
:1045D00000BF5846FBF7D0FD00BF00BFBDE8F09F0D
:1045E000E40000205C570008249F0020E800002021
:1045F0001CB500BF0EE001AB6A4600210846FDF77E
:10460000E1FEBDF8040028B903480078012801D173
:10461000FFF726FFEFE700007800002010B58AB012
:10462000044600201D4908601D490860FFF7F8FD99
:104630001C48006820B947F2122020800AB010BD43
:104640001948006819490968884203D247F21320C3
:104650002080F3E7164800781F2803D347F2112083
:104660002080EBE70B20002105910A46CDE90704E5
:1046700006910D4800680F4909680A4B1B68CDE98F
:104680000131CDE903020A48007800230A4A0BA150
:1046900000900F48FDF796FB00BFCFE7E400002035
:1046A000E80000204C570008545700084057000805
:1046B0004857000850570008F145000875432F4F30
:1046C000532D494949205469636B205461736B0031
:1046D00050A5002070B58AB004460020314908601A
:1046E0003148006840B1314800682F490968B0FB83
:1046F000F1F02F49086006E02C4800680A21B0FB61
:10470000F1F02B4908602A4800682A490860002017
:104710002949086029490860002508E0284800EB7D
:10472000C5060020B080F0803060681C85B2254846
:1047300000888542F2DB2448006820B947F2473000
:1047400020800AB070BD214800682149096888426C
:1047500003D247F248302080F3E71E4800781F2834
:1047600003D347F246302080EBE70B200021059170
:10477000CDE907040691084614490968164A1268EB
:10478000114B1B68CDE90132CDE9031011480078C7
:104790000023124A12A100901748FDF713FB00BF37
:1047A000CFE70000EC0000206857000844570008DD
:1047B000FC00002000010020F8000020F400002090
:1047C000ACA100207C5700086C5700087457000803
:1047D000405700086457000870570008F148000867
:1047E00075432F4F532D4949492054696D657220F7
:1047F0005461736B0000000018A60020F0B50C4651
:10480000022680F82A60012C05D12D4F466A3F68A8
:104810003E4486610CE0066A2EB9294F466A3F681D
:104820003E44866104E0264F066A3F683E44866146
:10483000244F3F888669B6FBF7FC07FB1C66B5B2C0
:10484000214E06EBC502166836B9002606614661A0
:104850001060012696802CE0194F86693F68F61B90
:10486000C661116820E0164F8E693F68F61BCE6165
:10487000C669CF69BE4209D90E690EB1096913E054
:10488000002606614161086100210DE04E692EB9E4
:104890000026466101614861106004E04B69436194
:1048A00001611861486100210029DCD19688761CDD
:1048B0009680D6889788BE4201DA9688D680F0BD69
:1048C000F80000207C570008ACA10020002006E082
:1048D000054A02EBC0010022CA80421C90B2034A82
:1048E00012889042F4DB7047ACA100207C5700088E
:1048F0001CB500BF53E001AB6A4600210846FDF736
:1049000061FD01A8FDF766F8FCF7F6FA06462448B3
:104910000068401C2249086008460068214909884F
:10492000B0FBF1F201FB12001FFA80FA1E4800EB07
:10493000CA08D8F800404FF0000B21E0F4B1D4F8D9
:1049400010901749A0690968884214D1204600F0E8
:104950002FF8208D022804D101212046FFF74EFFB9
:1049600002E0032084F82A00A56815B12046E1681A
:10497000A8474C4604E04FF0010B01E04FF0010B5B
:10498000BBF1000FDAD0FCF7B7FA871B01A8FDF7DF
:104990005FF806480068B84201D204480760AAE7F9
:1049A000F80000207C570008ACA10020F400002093
:1049B000F0B5114E36888569B5FBF6F706FB17553D
:1049C000ACB20E4D05EBC4021568854205D10169F4
:1049D000116039B100254D6104E0416903690B6143
:1049E00003B15961012580F82A5000250561456110
:1049F00095886D1E9580F0BD7C570008ACA1002005
:104A000029B1064A92690243044B9A6104E0034AC1
:104A100092698243014B9A61704700000010024086
:104A200030B500210022002400232D4D6D6805F0D3
:104A30000C0121B1042905D0082923D105E0294D15
:104A4000056022E0274D05601FE0254D6D6805F4E7
:104A50007012234D6D6805F48034022505EB9242F7
:104A60001CB9214D554305600BE01D4D6D6805F4E3
:104A700000351DB11C4D5543056002E0194D5543ED
:104A8000056002E0174D056000BF00BF144D6D6862
:104A900005F0F0010909154D6B5C0568DD404560C6
:104AA0000F4D6D6805F4E061090A104D6B5C4568B7
:104AB000DD4085600A4D6D6805F46051C90A0B4DF3
:104AC0006B5C4568DD40C560054D6D6805F440418F
:104AD000890B074D6B5CC568B5FBF3F5056130BD0F
:104AE0000010024000127A0000093D000000002082
:104AF00010000020704710B500F002F810BD000053
:104B00000CB50020019000903348006840F48030DC
:104B10003149086000BF3048006800F40030009060
:104B20000198401C0190009818B90198B0F5A06F49
:104B3000F1D12948006800F4003010B10120009044
:104B400001E0002000900098012843D1234800682C
:104B500040F01000214908600846006820F003007A
:104B600008600846006840F0020008601A48406883
:104B7000194948600846406848600846406840F463
:104B8000806048600846406820F47C104860084611
:104B9000406840F4E81048600846006840F08070C3
:104BA000086000BF0C48006800F000700028F9D0D1
:104BB0000948406820F003000749486008464068FB
:104BC00040F00200486000BF0348406800F00C005D
:104BD0000828F9D10CBD000000100240002002405E
:104BE00010B51348006840F00100114908600846FC
:104BF0004068104908400E494860084600680E4960
:104C000008400B4908600846006820F480200860CE
:104C10000846406820F4FE0048604FF41F0088609A
:104C2000FFF769FF4FF000600449086010BD000005
:104C3000001002400000FFF8FFFFF6FE08ED00E064
:104C400021B1828942F40052828104E082894DF6CA
:104C5000FF731A408281704702460020B1F5007F41
:104C600000D100BF13880B400BB1012000E00020F1
:104C7000704700002DE9F04786B005460E46002437
:104C8000A24600BFA1460027B08900B100BF2F4651
:104C90002C8A4CF6FF700440F08804432C82AC89C7
:104CA0004EF6F3100440B0883189084371890843F7
:104CB0000443AC81AC8A4FF6FF400440B089044302
:104CC000AC8201A8FFF7ACFE1F48874202D1DDF895
:104CD00010A001E0DDF80CA0A88900F4004040B16C
:104CE0000AEBCA0000EB0A1031684900B0FBF1F88A
:104CF00007E00AEBCA0000EB0A1031688900B0FB3C
:104D0000F1F86420B8FBF0F004012009642101FBF4
:104D10001089A88900F4004040B1322000EBC9009E
:104D2000B0FBF1F000F00700044308E0322000EB94
:104D300009106421B0FBF1F000F00F0004432C8156
:104D400006B0BDE8F087000000380140C1F308025A
:104D50008280704700BFFEE70FB4054B10B503A972
:104D6000044A029800F0DEF810BC5DF814FB000065
:104D70005D5600080C0100200FB4084B10B504A9C3
:104D800002AA039800F0CEF8044602A9002000F021
:104D900060FC204610BC5DF814FB00005356000870
:104DA00002E008C8121F08C1002AFAD170477047F4
:104DB000002001E001C1121F002AFBD17047000052
:104DC0002DE9FF5FDDE90220010DDDF838B0024377
:104DD00018D044F61050A1F2FF3141430D140F9842
:104DE000012820D0A5EB0B00401C5FEA000A4FF021
:104DF0000004474EDFF81C91A046504616D5CAF174
:104E0000000728E00F98012443A2012808D00021C0
:104E100000980F9BC0E90021C0E90243BDE8FF9F55
:104E20006FEA0B01F4E7CBF10000DEE7074612E082
:104E3000F80707D02246334640464946FBF74FFB6A
:104E4000804689462246334610461946FBF747FB03
:104E500004460E467F10002FEAD1DDE90201BAF1C7
:104E6000000F42464B4602DAFBF739FB01E0FBF745
:104E7000A8FB04460E460022284BFBF729FC03D86A
:104E80004FF0FF30014607E00022254B2046314617
:104E9000FBF77EFAFBF704FC102409E0002C0ADB88
:104EA0000A220023FBF77AF9019B30321A55641E5F
:104EB00050EA0102F2D1641C019AC4F111031444B6
:104EC0000F9A012A03D0012208430DD10AE00843BA
:104ED00004D000204FF0110B0F9080E7A3EB0B05DF
:104EE0006D1E0DE05B4504DD4FF0000205F101058C
:104EF00004E003DA4FF00002A5F10105002AECD02E
:104F000000980F99C0E90231C0E9004586E700002A
:104F1000000024400000F03F300000000000F0439B
:104F20000000E03F2DE9FF4F95B09B4689460646BD
:104F300000250FE2252877D100242746F84A0121D1
:104F4000059400E0044316F8013F203B01FA03F00A
:104F50001042F7D130782A2811D06FF02F03307823
:104F6000A0F13002092A16D8059A44F0020402EB97
:104F7000820203EB42021044761C0590EFE759F8D9
:104F8000042B0592002A03DA504244F400540590A1
:104F900044F00204761C30782E2816D116F8010F42
:104FA00044F004042A280DD06FF02F023078A0F1CD
:104FB0003003092B09D807EB870302EB4303C7181B
:104FC000761CF3E759F8047B761C30786C280FD0F8
:104FD00006DC4C2817D068280DD06A2814D104E0CC
:104FE000742810D07A280FD10DE044F400140AE0A0
:104FF00044F4801401E044F440147278824202D1F7
:1050000004F58014761C761C307866280BD013DCEF
:10501000582877D009DC002875D04528F6D04628D6
:10502000F4D047281AD19DE118E0632835D06428D0
:1050300079D0652812D195E1702873D008DC6728F3
:10504000F1D069286FD06E280DD06F2806D1B5E059
:1050500073282CD0752875D0782874D05A461799A3
:1050600090476D1C75E1C4F30250022809D0032853
:105070000DD0D9F8001004280DD00D6009F10409F5
:1050800067E1D9F80010EA17C1E90052F6E7D9F84C
:1050900000100D80F2E70D70F0E719F8041B8DF891
:1050A000001000208DF80100EA46012003E059F8C5
:1050B00004AB4FF0FF3061074FF0000102D40DE068
:1050C00008F101018846B9420FDA8045F8DB1AF889
:1050D00008100029F4D108E008F101018846814256
:1050E000FADB1AF808100029F6D105985B46A0EB08
:1050F000080721463846179A00F094FA284400EB36
:10510000080507E04DE029E10DE01AF8010B5A46C9
:1051100017999047B8F10108F7D25B462146384607
:10512000179A13E142E00A220092C4F302524FF0B0
:10513000000A022A08D059F804CB032A4FEAEC717E
:105140000AD00DE029E02AE009F1070121F0070269
:10515000F2E802C1914609E00FFA8CFC4FEAEC71CB
:10516000042A03D14FFA8CFC4FEAEC71002907DACC
:105170000A460021DCF1000C61EB02012D2202E065
:10518000220504D52B228DF80420012203E0E2073A
:1051900001D02022F7E7904659E00A2102E01022D0
:1051A0000DE010214FF0000A00910BE010224FF0AB
:1051B000000A44F004040827009203E008224FF09C
:1051C000000A0092C4F30252022A05D059F804CB17
:1051D0000021032A08D009E009F1070121F00702A4
:1051E000F2E802C1914605E01FFA8CFC042A01D1C5
:1051F0000CF0FF0C4FF00008220728D5702806D0CD
:10520000009B83F0100353EA0A0305D00EE040220E
:105210008DF80420012208E05CEA010206D0302269
:105220008DF804208DF8050002229046009B83F043
:10523000080353EA0A030AD15CEA010201D16207BA
:1052400005D530228DF804204FF001087F1E582824
:1052500004D034A003900EA802900DE036A0F9E728
:1052600053466046009AFAF799FF84460398825C99
:105270000298401E029002705CEA0100F0D1029890
:1052800006A9081A00F1200A600702D524F4803428
:1052900000E00127574502DDA7EB0A0000E00020EF
:1052A00000EB0A01009005984144401A0590E00384
:1052B00006D45B462146179A059800F0B3F90544D9
:1052C000002706E001A85A46C05D179990476D1C5B
:1052D0007F1C4745F6DBE0030CD55B462146179A59
:1052E000059800F09FF9054404E030205A461799CC
:1052F00090476D1C0099481E00900029F5DC08E0DD
:10530000029802995A460078491C029117999047D1
:105310006D1CBAF10001AAF1010AF1DC65E100009F
:10532000092801003031323334353637383961627B
:10533000636465660000000030313233343536373F
:1053400038394142434445460000000000F058F916
:105350000544761C307800287FF4ECAD19B028465F
:10536000BDE8F08F620700D4062709F1070222F09A
:10537000070CFCE80223E14603F000485FEA080C52
:1053800002D00FF2702C0DE05FEA045C02D50FF240
:10539000682C07E05FEAC47C02D00FF2602C01E0C9
:1053A000AFF2700C4FF0FF3823F00043CDF850C03F
:1053B00065280CD006DC452809D046281DD0472892
:1053C0003DD13DE0662818D067287ED138E0002125
:1053D000112F01DB112000E0781CCDE9000106A9A6
:1053E0000EA8FFF7EDFCDDE90F010E9A03910021F5
:1053F000009207F1010A04914DE04FF00040009740
:10540000CDE9011006A90EA8FFF7DAFCDDE90F02CD
:1054100003920E9B11990022DDF80CA000930492D8
:1054200011B9791C00EB010AB7EB0A0004D4C0F1F2
:10543000FF3007F1010A0490AAEB0700019044E055
:10544000012F00DA01270021112F01DD112000E0DA
:105450003846CDE9000106A90EA8FFF7B1FCDDE949
:105460000F010E9A0391002104910092BA46210780
:105470000CD40399514500DA8A46BAF1010F05DDD3
:10548000009AAAF10101515C302908D0B84202DA31
:1054900010F1040F06DA0121CDE9011015E0AAF19F
:1054A0000101E9E7002805DC049901440491AAEB15
:1054B000000102E0411C514500DD8A460499401A72
:1054C000401C01904FF000400290200704D4019846
:1054D000504501DBCDF8048000208DF84F00029884
:1054E0000DF14F07B0F1004F25D02B200E90029800
:1054F0004FF0020800280CDA404202902D200E9056
:1055000007E00A210298FAF7D7FE3031029007F837
:10551000011DB8F10001A8F10108F2DC0298002891
:10552000EFD1791E0E980870307800F0200040F01E
:10553000450007F8020D12A8C01B00F107081498D7
:10554000007800B1012000EB0A01019801EBE07145
:1055500005984144401A401E0590E00306D45B467E
:105560002146179A059800F05DF8054414980078D4
:1055700018B15A46179990476D1CE00324D55B4635
:105580002146179A059800F04DF805441CE0049850
:10559000002807DBDDE90301884203DD0098405C59
:1055A000179901E0179930205A469047049805F161
:1055B0000105401C04900198401E019004D12E204A
:1055C0005A46179990476D1CBAF10001AAF1010AD9
:1055D000DDDC05E017F8010B5A46179990476D1C62
:1055E000B8F10001A8F10108F4DC5B462146179AE6
:1055F0000598ABE62D0000002B0000002000000005
:105600002DE9F041044600251E461746880404D4BF
:1056100005E039462020B0476D1C641EF9D52846A8
:10562000BDE8F0812DE9F041044600251E46904674
:10563000C80301D5302700E02027880404D505E001
:1056400041463846B0476D1C641EF9D52846BDE872
:10565000F0810A68531C0B601070704770B50446E7
:105660000D46E1B20548FFF771FB00BF80210348FA
:10567000FFF7F2FA0028F9D0204670BD003801404B
:1056800000B58BB00AA8FBF70FFF0AA80321002280
:105690000592CDE90621089010464FF4007133229F
:1056A000094BCDE90132CDE9031002200023074A5E
:1056B00007A100900A48FCF785FB0AA8FCF718FA36
:1056C00000200BB000BD000030040020DD0B0008FE
:1056D000417070205461736B2053746172740000C8
:1056E00010010020E49000200C0000008000000069
:1056F00000020000000000000000000000000000A8
:105700000000000000000000000000000000000099
:10571000E49200208000000000020000640000000D
:1057200040060000E49400201E0000000A00000073
:10573000249B00200C0000008000000000020000FC
:1057400040000000E803000001000000249D00204C
:105750000C000000800000000002000011000000AA
:10576000880000001D0000000A000000AC9F00201F
:105770000C0000008000000000020000110000008A
:105780008800000050110000010101007856341219
:105790000101000000000000000000000000000007
:1057A00000000000000000000000000000000000F9
:1057B00000000000000000000000000001010100E6
:1057C00028000400000000000000000000000000AD
:1057D00000000000000000000000000000000000C9
:1057E0000000000000000000010020000100100087
:1057F0000C0010000000000000000000000000008D
:105800000000000000000000000000000000000098
:105810000000000000000000000000000000000088
:10582000010101002C00010120000C0020002000DB
:105830000400040000000000000000000000000060
:105840000000000000000000000000000000000058
:105850000000000000000000000000000000000048
:105860000000000001010101300001000000000003
:105870000000000000000000000000000000000028
:105880000000000000000000000000000000000018
:10589000000000000101010128000C00800100004F
:1058A000040101010101010101000101C80008001A
:1058B00001010000000000000000000000000000E6
:1058C00000000000000000000000000000000000D8
:1058D00000000000000000000000000000000000C8
:1058E00000000000000000000101340008005D76A7
:1058F000500500003D3D3D3D3D3D3D3D3D3D3D3D77
:105900003D3D3D3D3D3D3D3D3D3D3D3D3D3D3D3DC7
:105910003D3D3D3D3D3D3D3D3D3D3D3D3D3D3D3DB7
:105920003D3D3D3D3D3D3D3D3D3D3D3D3D3D3D3DA7
:105930003D3D3D0D0A0000005859000800000020C0
:1059400010010000A04D0008685A00081001002056
:10595000D0B50000B04D00080000000001020304B3
:1059600001020304060708090204060800000000FB
:105970000000000000000000000000000100000026
:105980000000000000000000000000000000000017
:105990000000000000000000000000000000000007
:1059A00000000000000000000000000000000000F7
:1059B00000000000000000000000000000000000E7
:1059C00000000000000000000000000000000000D7
:1059D00000000000000000000000000000000000C7
:1059E00000000000000000000000000000000000B7
:1059F00000000000000000000000000000000000A7
:105A00000000000000000000000000000000000096
:105A10000000000000000000000000000000000086
:105A20000000000000000000000000000000000076
:105A30000000000000000000000000000000000066
:105A40000000000000000000000000000000000056
:105A50000000000000000000000000000000000046
:085A600000000000000000003E
:0400000508000131BD
:00000001FF
