:020000040800F2
:100000000078002045010008530B00082109000872
:10001000910A0008E5050008A52600080000000078
:10002000000000000000000000000000452400085F
:10003000A906000800000000E7010008F91A0008FE
:100040005F0100085F0100085F0100085F01000810
:100050005F0100085F0100085F0100085F01000800
:100060005F0100085F0100085F0100085F010008F0
:100070005F0100085F0100085F0100085F010008E0
:100080005F0100085F0100085F0100085F010008D0
:100090005F0100085F0100085F0100085F010008C0
:1000A0005F0100085F0100085F0100085F010008B0
:1000B0005F0100085F0100085F0100085F010008A0
:1000C0005F0100085F0100085F0100085F01000890
:1000D0005F0100085F0100085F0100085F01000880
:1000E0005F0100085F0100085F0100085F01000870
:1000F0005F0100085F0100085F0100085F01000860
:100100005F0100085F0100085F0100085F0100084F
:100110005F0100085F0100085F0100085F0100083F
:100120005F0100085F0100085F0100085F0100082F
:10013000DFF80CD000F0A0F800480047512A000872
:10014000007800200648804706480047FEE7FEE7A3
:10015000FEE7FEE7FEE7FEE7FEE7FEE7FEE7FEE777
:10016000312500083101000872B6704762B6704749
:10017000EFF3108072B6704780F31088704730BF7D
:10018000704720BF7047B0FA80F0704790FAA0F037
:10019000B0FA80F0704790FAA0F07047EFF310804B
:1001A00072B6704780F3108870471F484FF0FF0108
:1001B0000170002080F309881C48016881F30888D9
:1001C0001B48012101701B484FF08051016062B64D
:1001D000FEE718484FF080510160704715484FF016
:1001E00080510160704772B6EFF3098028B1203862
:1001F00080E8F00F10490968086000B50F48804793
:100200005DF804EB0E480F490A7802700A480E495F
:100210000A680260106890E8F00F203080F30988C7
:100220004EF0040E62B6704722ED00E02C00002074
:100230005A00002004ED00E0600000206116000874
:100240004F000020500000206800002030B50B4611
:10025000014600202022012409E021FA02F59D42F6
:1002600005D303FA02F5491B04FA02F52844151ECA
:10027000A2F10102F1DC30BD064C074D06E0E0685A
:1002800040F0010394E8070098471034AC42F6D3DD
:10029000FFF752FFA82B0008C82B000810B507492C
:1002A000074800F06BFB0749074800F067FB0A218D
:1002B000064800F007FD0649086010BDED0800087B
:1002C00014000020050900081C0000209C1A0020D2
:1002D0002400002008B51EE06A4664210E4800682C
:1002E00000F040FD04469DF8000040B921780BA0C5
:1002F00002F0DAF961780EA002F0D6F90BE01148AD
:10030000006880F001000F4908600F48C06880F065
:1003100080000D49C860DFE7240000206D6173652F
:100320006567655B305D203D2025640D0A00000097
:100330006D6173656567655B315D203D2025640DEA
:100340000A0000000C0C0140002001400CE00748AE
:10035000C06880F040000549C8604FF4FA7300227D
:100360001146104601F0BCF9F1E700000020014001
:1003700008B500240125294625A002F095F928A0FA
:1003800002F092F943E0314800F009FB304800F0F8
:1003900006FB00212D4800F0FAFA78B1681CC5B2BE
:1003A000032D00D10125294619A002F07DF91CA0DA
:1003B00002F07AF90121254800F0E9FA00212448E9
:1003C00000F0E5FAE8B1012D02D0022D14D102E0CF
:1003D00000F06CF910E0601CC4B20A2C00D10024BB
:1003E0008DF80040601CC0B28DF8010069461948C4
:1003F000006800F049FD00BF00BF0121144800F073
:10040000C6FA142300221146104601F069F9BAE732
:100410006B657931636F756E743D25640A00000069
:100420004B455931B0B4BCFCD6B5317E32B6D4D3CD
:10043000A6B2BBCDACC8CECEF1C7E9BFF6A3AC4BDC
:10044000455932C8B7B6A80A0000000014000020C1
:100450001C0000202400002000B587B003200021EC
:100460004FF400721D4BCDE90310CDE9013200902D
:1004700003461B4A1B4800F0AFFE06AA1AA1032040
:1004800000F0C6FF032000214FF40072184BCDE9A5
:100490000132CDE9031004200346164A00901648A5
:1004A00000F09AFE06AA15A1042000F0B1FF032077
:1004B00000214FF40072134BCDE90132CDE9031056
:1004C00005200346104A0090104800F085FE06AA59
:1004D0000FA1052000F09CFF07B000BD9C0200208A
:1004E000980A0020D50200085441534B3100000007
:1004F0009C0A0020981200204D0300085441534BE1
:10050000320000009C120020981A0020710300089D
:100510005441534B3300000000F04AF800F064F8F7
:1005200000F0C2FA00F02CFE08A002F0BDF8FFF7C0
:10053000B5FE0FA002F0B8F8FFF78EFF05E000232C
:100540000A221946184601F0CBF8F8E743726561B4
:1005500074696E67204170706C69636174696F6E55
:10056000204576656E74732E2E2E0A0D0000000055
:100570004372656174696E67204170706C69636174
:1005800074696F6E205461736B732E2E2E0A0D00EA
:1005900070477047704770477047704770477047A3
:1005A00000B585B0684601F0E3FE019805B000BDD6
:1005B00010B500F0CFFA00F039FA00F0B3F900F00E
:1005C000C7F900F031F800F001F810BD70B5FFF781
:1005D000E7FF04464FF47A70B4FBF0F5284601F0CB
:1005E0009FFA70BD00BFFEE710B500F019F810BD0E
:1005F00010B5002400BF00BFFFF7BAFD044600BFDE
:1006000000BF1021054800F045FA00BF00BF20469A
:10061000FFF7B2FD00BF00BF10BD0000C41A0020EC
:1006200010B5FFF7E5FF10BD00B585B001218803C7
:1006300001F08EFE0121052001F08AFE4FF40070CA
:10064000ADF8100018208DF8130003208DF812006B
:1006500004A9134800F0B4F84FF48060ADF810001E
:1006600004208DF8130004A90D4800F0A9F84FF4F8
:10067000E13000900020ADF80400ADF80600ADF8C0
:100680000800ADF80C000C20ADF80A0069460548DA
:1006900001F098FF0121034801F07AFF05B000BD89
:1006A0000008014000380140704700007FB5134C3E
:1006B00013A001F0F9FF20A001F0F6FF2AA001F03D
:1006C000F3FF0A2000F0D0FF15E01834A07F02A944
:1006D00000F0E0FEDDE90210014464225043B0FB6B
:1006E000F1F5A06BCDE90050A17F2BA0DDE902322E
:1006F00001F0DAFF2468002CE7D17FBDD45A002036
:100700003D3D3D3D3D3D3D3D3D3D3D3D3D3D3D3D19
:100710003D3D3D3D3D3D3D3D3D3D3D3D3D3D3D3D09
:100720003D3D3D3D3D3D3D3D3D3D3D3D3D3D3D3DF9
:100730003D3D0D0A000000002020D3C5CFC8BCB647
:10074000202020CAB9D3C3D5BB2020CAA3D3E0D56B
:10075000BB2020B0D9B7D6B1C8202020C8CECEF15A
:10076000C3FB0D0A0000000020205072696F20209A
:100770002020205573656420202020467265652066
:100780002020205065722020202020205461736B8F
:100790006E616D650D0A0000202020253264202046
:1007A000202025356420202020253564202020208D
:1007B000253032642525202020202025730D0A00B5
:1007C0002DE9F041024600250026002000230024E8
:1007D000002791F803C00CF00F0591F803C00CF04E
:1007E000100CBCF1000F03D091F802C04CEA0505D3
:1007F00091F800C0BCF1000F31D0146800202BE04C
:100800004FF0010C0CFA00F3B1F800C00CEA03063B
:100810009E4220D183004FF00F0C0CFA03F7BC432B
:1008200005FA03FC4CEA040491F803C0BCF1280F5C
:1008300006D14FF0010C0CFA00FCC2F814C00AE01B
:1008400091F803C0BCF1480F05D14FF0010C0CFA30
:1008500000FCC2F810C0401C0828D1D31460B1F8C5
:1008600000C0BCF1FF0F34DD546800202EE000F121
:10087000080C4FF0010808FA0CF3B1F800C00CEABC
:1008800003069E4221D183004FF00F0C0CFA03F7B0
:10089000BC4305FA03FC4CEA040491F803C0BCF124
:1008A000280F05D100F1080C08FA0CF8C2F81480E2
:1008B00091F803C0BCF1480F07D100F1080C4FF0CC
:1008C000010808FA0CF8C2F81080401C0828CED3A2
:1008D0005460BDE8F0810246002093680B400BB1E4
:1008E000012000E0002070474161704710B50121F0
:1008F0000348FFF7F0FF012800D110BD0020FCE7FE
:100900000008014010B54FF400510448FFF7E3FF21
:1009100008B9012010BD0020FCE7000000100140D4
:1009200000BFFEE708B50121042001F011FD012000
:10093000ADF8000003208DF8020004208DF80300BC
:1009400069460248FFF73CFF08BD0000000801406F
:1009500008B50121102001F0FBFC4FF40050ADF868
:10096000000003208DF8020004208DF80300694682
:100970000148FFF725FF08BD00100140016000227B
:1009800002710222427182710022C27170470246D6
:1009900001F001030BB1002313711079704710B5FA
:1009A0000446607901281ED0022804D0032822D0F2
:1009B000042839D107E02068804718B10020E07191
:1009C0000420607130E0E0790A30E071E0790A28B3
:1009D00008DB2068804718B10120A071607101E038
:1009E0000220607120E02068804718B90020E07183
:1009F0000320607118E0E0790A30E071E0790A289C
:100A000011DB2068804760B90120A071022060716D
:100A10002079401C20712079FA2804DDFA20207109
:100A200001E00120607100BF00BF10BD08B50121C9
:100A30004FF4847001F08CFC0120ADF8000003201D
:100A40008DF8020010208DF8030069460E48FFF76C
:100A5000B7FE4020ADF8000069460C48FFF7B0FE35
:100A60008020ADF8000069460848FFF7A9FE012183
:100A70000548FFF739FF40210448FFF735FF802183
:100A80000248FFF731FF08BD000C01400020014083
:100A900000BFFEE730B505460C4622460021284639
:100AA00000F026F830BD00000D480E4901600146F7
:100AB000416000218160C160016141618161C1616A
:100AC00001620163C162416207498163C1634FF4FE
:100AD0002051016441640146044A116070470000DE
:100AE000D41A0020484541501C1B0020280000203B
:100AF0002DE9F04103460C4617460FB9BDE8F081D9
:100B000003B9FBE70025002202E02D022543521C19
:100B1000042AFAD3384603F0030C1946BCF1000F3F
:100B200008D0624603E001F8014B401E521C08B198
:100B3000042AF8D30E4601E020C6001F0428FBD289
:100B4000314602E001F8014B401E0028FAD100BFF7
:100B5000D4E7704710B54FF4A06000F001F810BD65
:100B600002490143024A1160704700000000FA0583
:100B70000CED00E02DE9F04105460E461446002735
:100B80001148007818B112202070BDE8F081287853
:100B9000012808D0022807D0032802D0042804D155
:100BA00000E000BF00BF00BF02E001202070ECE7C2
:100BB00000BFFFF7F3FA07466E613846FFF7F2FA17
:100BC0000020207000BFE0E74D00002010B500F0CD
:100BD00017F801F0F3F801F01FF901F03FF901F007
:100BE000BDF801F07DF801F0D3F901F0FDF901F055
:100BF00075F901F09BF900F045FE00F019F810BD01
:100C00000748802102E0491E002204C00029FAD1D1
:100C1000044A054B1A600022044B1A8070470000FA
:100C20001C430020184500202C000020300000202C
:100C30007047000010B500241A480078012830D110
:100C4000FFF7ACFA04461848007820B1164800783F
:100C5000401E1549087014480078F8B91348007808
:100C6000E0B901F023FA12481249097850F821003E
:100C7000114908600F4800781049097888420DD062
:100C80000D480068C06B401C0B490968C8630C48DC
:100C90000068401C0A490860FFF7A0FA2046FFF7E9
:100CA00081FA10BD5A0000204D0000204E000020A7
:100CB000D459002050000020680000204F00002080
:100CC000340000202DE9F04106460F464FF00008A1
:100CD0002048007810B10020BDE8F081FFF75EFAEF
:100CE00080461D480468006820B11B4800684068C1
:100CF000194908604046FFF755FAFCB1FFF74EFA74
:100D0000804616480568D5B1006800681349086038
:100D10004046FFF747FA6E6006EB8700A860EE607A
:100D20002E61AF820020E882022020700020208106
:100D300065600BA06061204600F0C4FF08E0064833
:100D400000686060044804604046FFF72BFA002406
:100D50002046C1E74D000020380000207800002028
:100D60003F0000002DE9F0470746884615464FF042
:100D700000093878022804D0012028700020BDE83E
:100D8000F0873E48007818B1022028700020F6E76E
:100D90003B48007818B10D2028700020EFE7FFF7DE
:100DA000FDF981467C68E08A98B12169081D2061BF
:100DB0000E68E08A401EE082A1682069884201D165
:100DC000606820614846FFF7EDF900202870304642
:100DD000D5E72C48006890F8340040F00400294919
:100DE000096881F8340000202649096881F8350037
:100DF00024480068C0F83080384600F025FF484697
:100E0000FFF7D0F901F018F9FFF7C8F981461D483E
:100E1000006890F8350020B101280DD002280AD1D1
:100E200005E018480068466A002028700DE000269A
:100E30000E20287009E000BF39461248006800F013
:100E4000D1FE00260A20287000BF00BF00200D49F7
:100E5000096881F834000B49096881F835000949AF
:100E60000968C86107490968086206490968486253
:100E70004846FFF797F9304681E700004D00002013
:100E80004E000020600000202DE9F04105460E468E
:100E900000272878022802D00120BDE8F081FFF762
:100EA0007DF90746A87A60B100230422314628461E
:100EB00000F050FE3846FFF775F901F0BDF800204C
:100EC000EBE76C68E08AA18A884204DB3846FFF7CA
:100ED00069F91E20E1E7E168081DE0600E60E08A24
:100EE000401CE082D4E90210884201D16068E060D1
:100EF0003846FFF757F90020CFE7000010B500246F
:100F00000B480078012811D1FFF748F90446094839
:100F1000007840B908480078FF2804D206480078D5
:100F2000401C054908702046FFF73CF910BD000041
:100F30005A0000204D0000204E00002010B5002473
:100F400013480078012821D1FFF728F904461148F9
:100F50000078C0B91048007888B10F480078401E6A
:100F60000D4908700846007828B92046FFF71AF99D
:100F700001F062F80AE02046FFF714F906E0204687
:100F8000FFF710F902E02046FFF70CF910BD000052
:100F90005A0000204D0000204E00002070B505468C
:100FA00000261048007808B1002070BDFFF7F6F861
:100FB00006460D480468006820B10B480068406888
:100FC000094908603046FFF7EDF84CB10320207066
:100FD00025810020606005A06061204600F072FE5F
:100FE0002046E2E74D000020380000203F000000CE
:100FF0002DE9F04105460E461446002728780328BF
:1010000003D001202070BDE8F0813248007810B193
:1010100002202070F7E73048007810B10D202070D2
:10102000F1E7FFF7BBF80746288940B12889401E41
:1010300028813846FFF7B6F800202070E3E72748FC
:10104000006890F8340040F001002449096881F8F4
:10105000340000202149096881F835001F480068E4
:101060000663284600F0F0FD3846FFF79BF800F0D5
:10107000E3FFFFF793F807461848006890F835003B
:1010800020B1012809D0022806D102E000202070FA
:101090000BE00E20207008E000BF29460F480068D2
:1010A00000F0A0FD0A20207000BF00BF00200B4907
:1010B000096881F834000949096881F83500074951
:1010C0000968C8610549096808623846FFF76AF887
:1010D00000BF98E74D0000204E0000206000002077
:1010E00070B5044600252078032801D0012070BD8A
:1010F000FFF754F80546A07A60B100230122194693
:10110000204600F027FD2846FFF74CF800F094FF3A
:101110000020ECE720894FF6FF71884207D2208932
:10112000401C20812846FFF73DF80020DFE72846D5
:10113000FFF738F83320DAE710B50B48007890B99C
:1011400000F0B4FF094800780949087009480749C8
:10115000097850F8210008490860084600680749E6
:101160000860FFF722F810BD5A0000205000002050
:101170004F000020D45900206800002060000020AB
:1011800010B50024022000F06FFAFFF707F80446BC
:1011900000200B4908602046FFF704F8642000F0A7
:1011A00063FAFEF7FBFF044605480068054908603E
:1011B0000120054908702046FEF7F4FF10BD00002D
:1011C0005C000020440000204C00002010B50446C4
:1011D0002046FFF7DDF910BD2DE9F04F85B08146BF
:1011E0008A4693461C46DDE90F78129D0020039045
:1011F000FEF7D4FF03902348007830B10398FEF740
:10120000D1FF3C2005B0BDE8F08F1F4850F8240006
:1012100088BB01201C4941F824000398FEF7C2FF57
:101220002A464146384601F085F82B465A46514633
:10123000484600F073F904901198CDE900800295BA
:101240003A4620460E9B049900F046FF064636B902
:101250000E48007801280CD100F0EEFE09E0FEF700
:101260009DFF03900020084941F824000398FEF7F1
:1012700099FF3046C6E7FFE70398FEF793FF282063
:10128000C0E700004D000020D45900205A00002083
:1012900010B504462046FFF77CF910BD2DE9F0415A
:1012A000054600274A48007810B14020BDE8F0818B
:1012B0003F2D01D13E20F9E7FEF770FF0746FF2DD5
:1012C00003D14448006890F83650434850F8254010
:1012D00024B93846FEF766FF4320E7E7012C04D126
:1012E0003846FEF75FFF3D20E0E714F8380F3B4932
:1012F000085C617888432178384A505414F83809DA
:101300001146085C30B994F83A10354800788843A3
:1013100033490870E06918B12046E16900F062FCC9
:10132000206A18B12046216A00F071FCA66A16B145
:10133000304600F001FD0020206384F8340084F87A
:10134000350028480078FF2804D226480078401C41
:10135000244908703846FEF725FF00F0F9FBFEF738
:101360001DFF07461F48007820B11E480078401E28
:101370001C490870204600F041F81B480078401EC8
:10138000194908700020144941F82500A06930B9B6
:1013900000206169886115496069086005E0D4E949
:1013A00005014861D4E90510886111480068606151
:1013B0000F4804600FA020653846FEF7F3FE0E4884
:1013C0000078012801D100F037FE00206EE7000010
:1013D0004D00002060000020D45900205200002061
:1013E000510000204E0000205B0000206C00002017
:1013F000640000203F0000005A00002010B50446A1
:101400002046FFF7C7F810BD10B5FFF7C4F810BDB0
:101410002DE9F04106460F4614464FF000081548E6
:10142000007818B112202070BDE8F081FEF7B6FEFA
:101430008046FF2E03D11048006890F836600F48B0
:1014400050F826502DB94046FEF7ACFE43202070E0
:10145000EAE7012D05D14046FEF7A4FE43202070A7
:10146000E2E72F654046FEF79DFE0020207000BF9A
:10147000DAE700004D00002060000020D459002071
:1014800010B504462046FFF787F810BD10B5FFF7EA
:1014900084F810BD2DE9F04707460D464FF0000ACD
:1014A000002028606860FEF779FE8246FF2F03D196
:1014B0001848006890F83670174850F827402CB943
:1014C0005046FEF76FFE4320BDE8F087012C04D1A3
:1014D0005046FEF767FE4320F6E7207C00F001004F
:1014E00020B95046FEF75EFE4520EDE70026D4F811
:1014F0000C90D4F808805046FEF754FE00E0761CAD
:1015000058F8041B0029FAD02E60A9EB0600686089
:101510000020D9E760000020D459002070B50446AF
:1015200010464FF080750560051F28462C60214E3F
:10153000051F28462E604FF01236051F28462E60E4
:101540004FF00336051F28462E604FF00236051F68
:1015500028462E607610051F28462E60051F284657
:1015600029604FF01136051F28462E604FF01036C7
:10157000051F28462E604FF00936051F28462E60AD
:101580004FF00836051F28462E604FF00736051F1E
:1015900028462E604FF00636051F28462E604FF075
:1015A0000536051F28462E604FF00436051F2846D5
:1015B0002E6070BD412200082DE9F04105464FF034
:1015C0000008FEF7EBFD8046FF2D05D1204800689E
:1015D00090F83650012608E01D48006890F8360063
:1015E000A84201D1012600E000261A4850F8254003
:1015F0002CB94046FEF7D6FD4820BDE8F081012C0D
:1016000004D14046FEF7CEFD4320F6E794F838704B
:101610001148C05D94F8391088430F49C8550846F1
:10162000C05D30B994F83A100C48007888430B49F3
:10163000087094F8340040F0080084F83400404604
:10164000FEF7B0FD012E01D100F0F6FC0020D4E73A
:1016500060000020D45900205200002051000020DA
:1016600010B5FEF79BFF10BD70B505460026174864
:10167000007800B170BD1648007800B1FAE71DB3DC
:10168000FEF78CFD06461348006890F83840124873
:10169000005D1049096891F8391088430E490855D2
:1016A0000846005D40B90B48006890F83A100B48B6
:1016B0000078884309490870064800680563304689
:1016C000FEF770FD00F0B8FC00BFD3E74D0000202E
:1016D0004E00002060000020520000205100002039
:1016E0002DE9F04105460E4617461C461248007883
:1016F00010B15520BDE8F0811048007808B13220C3
:10170000F8E74FF47A7060434FF47A71B0FBF1F16F
:101710004FF461606843C6EB061200EB8200384468
:1017200000EB4002C2EBC01001EBC0084046FFF7DF
:101730009BFF0020DEE700004D0000204E0000204F
:1017400070B504460025FEF729FD054602480460F1
:101750002846FEF727FD70BD8000002070B50026EA
:1017600000F072F8FEF71AFD064631480068401C8A
:101770002F4908603046FEF715FD2E4800780128F5
:1017800053D12D48007820B1012804D0022809D176
:1017900003E001250BE0002509E001250120264991
:1017A000087004E0012500202349087000BF00BF35
:1017B00005B970BD2148046833E0FEF7EFFC06462A
:1017C000206B50B3206B401E2063206B28BB94F825
:1017D000340000F0370040B114F8340F00F0C800B6
:1017E000207001206070343C02E0002084F8350055
:1017F00094F8340000F0080078B93834A078104923
:10180000097808430E49087020780E49085C617811
:10181000084314F838190B4A505464693046FEF7EF
:10182000C1FC94F836003F28C7D100BFC1E70000D3
:10183000800000205A000020700000206C00002072
:10184000510000205200002010B5FEF7A8FE074806
:101850000088401C0549088008460088642803DB8E
:101860000020088000F004F810BD000030000020C7
:1018700010B503480068FFF733FC0446204610BD4E
:1018800090000020F8B54FF42071284800F076FB56
:101890004021274800F072FB002514E0681C86B246
:1018A00005EB8500214901EBC00406EB860001EB46
:1018B000C00764202070002084F82500E7601DA088
:1018C0002062681C85B20F2DE8D305EB850017490F
:1018D00001EBC00464202070002084F82500E06043
:1018E00014A02062002014490860144908801020C8
:1018F000134908800D48134908600120FFF74EFB8B
:10190000114908600020FFF749FB104908606A464A
:101910000FA10D480068FFF72DF96A4611A10B4889
:101920000068FFF727F900F027F8F8BD3C630020B6
:10193000BC6700203F0000008800002086000020D7
:1019400084000020940000208C00002090000020E3
:1019500075432F4F532D494920546D724C6F636B63
:101960000000000075432F4F532D494920546D72DC
:101970005369676E616C000000B587B003200021D9
:1019800080220A4BCDE90132CDE903104FF6FD70FC
:101990003D23074A00900748FFF71EFC06AA06A150
:1019A0003D20FFF735FD07B000BD0000BC650020FD
:1019B000B8670020351A000875432F4F532D494949
:1019C00020546D720000000070B50B46032580F8AE
:1019D0002550012B05D1154EC56936683544456142
:1019E0000CE085692DB9114EC569366835444561ED
:1019F00004E00E4E8569366835444561057D05F085
:101A000007040B4D05EBC4010D682DB908600025D6
:101A1000C56001258D8006E00A680860C26010611B
:101A20008D886D1C8D800025056170BD88000020AB
:101A3000BC67002008B500BF00BF6A4600211A48F5
:101A40000068FFF7D5FAFFF759FA18480068401CFC
:101A5000164908600846007800F00708144800EBB3
:101A6000C8073C681AE0E66810496069096888425E
:101A700013D1204600F01EF894F82400022804D167
:101A800001212046FFF7A0FF02E0022084F8250094
:101A9000656815B12046A168A8473446002CE2D1FC
:101AA000FFF74CFAC9E700009000002088000020F2
:101AB000BC67002030B5057D05F007040D4D05EB32
:101AC000C4031D68854205D1C168196039B100257C
:101AD0000D6104E00169C268CA6002B111610125AB
:101AE00080F825500025C56005619D886D1E9D808C
:101AF00030BD0000BC67002010B5FEF74FFB044668
:101B000006480078401C054908702046FEF74AFB4D
:101B1000FFF724FEFFF78EF810BD00004D000020F7
:101B2000411E4FF0E0225161FF21084A11704FF031
:101B3000E021096941F005014FF0E02211611146F1
:101B4000096941F0020111617047000023ED00E0D6
:101B5000704700002DE9F04F05460F469046994624
:101B6000A87A1C490E5C05F10B00805D11F800B0ED
:101B70000BEBC60000F0FF0A174850F82A4000207F
:101B80002434E0602760207C20EA0800207484F878
:101B90001190207C243C00F0080068B994F83A00C9
:101BA0000E49097808430D4908700D48805D94F886
:101BB000391008430A4988552946204600F012F892
:101BC000206A20B12046216A00F021F8E5615046E4
:101BD000BDE8F08FA82A0008D45900205100002049
:101BE0005200002010B590F8382001F10B039B5CE7
:101BF00090F83940A34301F10B04A35423469B5CA6
:101C000023B98B7A90F83A40A3438B7210BDF0B59C
:101C1000024612F8384F95785678383A0B461868CD
:101C20000FE000F10B073F5DB74300F10B0C0CF820
:101C3000047067463F5D17B9877AAF4387721B1DF3
:101C400018680028EDD1F0BD10B51B4A1268D061AC
:101C5000194A126892F8383000F10B02D25C164B28
:101C60001B6893F839301A43134B1B6893F83840BC
:101C700000F10B031A55827A0F4B1B6893F83A3028
:101C80001A4382720C4A126892F838100B4A525C5E
:101C9000094B1B6893F839309A43084B5A541A463B
:101CA000525C42B9044A126892F83A30044A1278F7
:101CB0009A43034B1A7010BD6000002052000020B0
:101CC00051000020014600228A72002005E0002316
:101CD00001F10B021354421CD0B20828F7D370470D
:101CE0002DE9F0415021114800F048F900250DE0A0
:101CF000681C86B20D4800EB051400EB06170020A7
:101D0000207067600AA0E060681C85B2042DEFD3E4
:101D1000064800EB051400202070606004A0E0601D
:101D2000024804490860BDE8F081000084550020A5
:101D30003F0000003C00002030B501464A680868BA
:101D40002AB9CC68606028B10025456002E01060C7
:101D500000B142608B6800259D6230BD70B541F2D4
:101D60006801134800F00AF9002411E0601C85B2F4
:101D700004EB44000E4901EBC00305EB450001EB09
:101D8000C006002018705E600AA05861601C84B212
:101D9000AE2CEBD304EB4400054901EBC00300205B
:101DA0001870586003A0586108460349086070BD68
:101DB0001C4500203F0000003800002000200B4997
:101DC00008600B4908700B4908700B4908700B49F3
:101DD00008700B4908600B4908600B4908600B4903
:101DE00008600B4908700B4908707047800000209C
:101DF0004D0000204E0000205B0000205A00002013
:101E0000340000205C000020480000204400002036
:101E10004C0000207C00002000210A4A11700020A4
:101E200004E00021084A1154411CC8B20828F8D324
:101E30000021064A1170064A1170064A1160064ACE
:101E40001160704751000020520000204F00002018
:101E500050000020680000206000002070B54FF4A2
:101E6000F261194800F08AF84FF48071174800F0C9
:101E700085F8002413E0601CC5B204EB440000EBBD
:101E8000C400114901EBC00305EB450000EBC500A0
:101E900001EBC0065E610EA01865601CC4B2152C73
:101EA000E9D304EB440000EBC400074901EBC00395
:101EB0000020586106A01865002006490860024805
:101EC0000549086070BD0000D45A0020D459002094
:101ED0003F0000006C0000206400002000B587B0C7
:101EE0000320002180220A4BCDE90132CDE9031005
:101EF0004FF6FF703F23074A00900748FFF76CF941
:101F000006AA06A13F20FFF783FA07B000BD000034
:101F1000D4570020D05900201922000875432F4FB4
:101F2000532D49492049646C6500000000B587B015
:101F30000320002180220A4BCDE90132CDE90310B4
:101F40004FF6FE703E23074A00900748FFF744F91A
:101F500006AA06A13E20FFF75BFA07B000BD00000D
:101F6000D4550020D05700205922000875432F4F28
:101F7000532D4949205374617400000004E000228D
:101F800000F8012B4A1E91B20029F8D170470000D9
:101F900070B578211148FFF7F1FF00240EE004EB43
:101FA00044000E4901EBC005601C00EB400001EB52
:101FB000C00068600AA06861601C84B2042CEED383
:101FC00004EB4400054901EBC0050020686004A053
:101FD000686108460349086070BD00006462002023
:101FE0003F000000740000202DE9F04160211048FE
:101FF000FFF7C4FF00240DE0601C86B204EB440030
:102000000B4901EBC00506EB460001EBC0072F6052
:10201000601C84B2032CEFD304EB4400044901EBB1
:10202000C00500202860084602490860BDE8F0812C
:10203000DC6200207800002010B50024FEF7AEF826
:10204000044613480078F8B912480078E0B900F067
:102050002DF811481149097850F8210010490860FD
:102060000E4800780F49097888420DD00C48006866
:10207000C06B401C0A490968C8630B480068401CD3
:1020800009490860FEF7A5F82046FEF78BF810BD59
:102090004D0000204E000020D459002050000020A8
:1020A000680000204F000020340000200649074A45
:1020B0001278885C0649095C034A515C01EBC00157
:1020C000044A117070470000A82A0008510000203F
:1020D00052000020500000202DE9F84F05460F4621
:1020E00090469946DDE90AAB00200090FEF756F8CD
:1020F000009042480468002C7BD01C3454F8080C33
:102100003E4908600098FEF74DF844F81C7CA5761F
:10211000002020766076606144F818BC44F810AC6A
:1021200044F8148C0C9824F80C0C24F80A9C002019
:10213000E077E810207705F00700E076217F0120A6
:102140008840A077E17E01208840607700202060F1
:102150006060E060A0602062A0626062E062206374
:1021600027A060631C3C002606E0002104F1540017
:1021700040F82610701CC6B2012EF6DB2046FFF791
:1021800025F8FEF70BF800901E4840F8254000980F
:10219000FEF708F82046FFF77BF8FDF7FFFF0090F9
:1021A0001948006860610020A0611748006810B1FC
:1021B000154800688461144804603834A0781349D5
:1021C000097808431149087020781149085C617842
:1021D000084314F838190E4A50540E480078401C31
:1021E0000C4908700098FDF7DDFF0020BDE8F88F6E
:1021F000FFE70098FDF7D6FF4220F7E764000020D4
:102200003F000000D45900206C0000205100002045
:10221000520000205B000020002400BF00BFFDF73B
:10222000BDFF044605480068401C0449086020467C
:10223000FDF7B8FFFFF7E8F8F1E700005C000020C9
:1022400010B504480068FFF71BF9FF20FFF726F8D8
:1022500010BD00006000002000BF00BF02E0C820E9
:10226000FFF702FA1F4800780028F8D01E480068DF
:102270006421B0FBF1F01C4908600846006828B9E9
:1022800000201A490870FF20FFF796F9FDF786FF36
:1022900004461548006864214843154908602046F3
:1022A000FDF780FF00BFFDF779FF04461048006886
:1022B0001049086000200E4908602046FDF772FFB3
:1022C0000C48006808490968B0FBF1F0C0F16400EF
:1022D00006490870FFF7DAF800F00EF86420FFF7FF
:1022E000C3F9E0E74C00002044000020400000203B
:1022F0005C000020480000207CB5002514E0694601
:102300002846FFF7C7F8064666B9094850F8254041
:1023100044B1012C06D0D4E9020100EB8100A06495
:102320000198E064681CC5B23F2DE8DD7CBD00006B
:10233000D459002002F0010343B102F002032BB193
:1023400002E0491E002308C00029FAD170470000AE
:1023500029B1064A92690243044B9A6104E0034A98
:1023600092698243014B9A6170470000001002405D
:1023700030B500210022002400232D4D6D6805F0AA
:102380000C0121B1042905D0082923D105E0294DEC
:10239000056022E0274D05601FE0254D6D6805F4BE
:1023A0007012234D6D6805F48034022505EB9242CE
:1023B0001CB9214D554305600BE01D4D6D6805F4BA
:1023C00000351DB11C4D5543056002E0194D5543C4
:1023D000056002E0174D056000BF00BF144D6D6839
:1023E00005F0F0010909154D6B5C0568DD4045609D
:1023F0000F4D6D6805F4E061090A104D6B5C45688E
:10240000DD4085600A4D6D6805F46051C90A0B4DC9
:102410006B5C4568DD40C560054D6D6805F4404165
:10242000890B074D6B5CC568B5FBF3F5056130BDE5
:102430000010024000127A0000093D000000002058
:1024400010000020704710B500F002F810BD000029
:102450000CB50020019000903348006840F48030B3
:102460003149086000BF3048006800F40030009037
:102470000198401C0190009818B90198B0F5A06F20
:10248000F1D12948006800F4003010B1012000901B
:1024900001E0002000900098012843D12348006803
:1024A00040F01000214908600846006820F0030051
:1024B00008600846006840F0020008601A4840685A
:1024C000194948600846406848600846406840F43A
:1024D000806048600846406820F47C1048600846E8
:1024E000406840F4E81048600846006840F080709A
:1024F000086000BF0C48006800F000700028F9D0A8
:102500000948406820F003000749486008464068D1
:1025100040F00200486000BF0348406800F00C0033
:102520000828F9D10CBD0000001002400020024034
:1025300010B51348006840F00100114908600846D2
:102540004068104908400E494860084600680E4936
:1025500008400B4908600846006820F480200860A5
:102560000846406820F4FE0048604FF41F00886071
:10257000FFF769FF4FF000600449086010BD0000DC
:10258000001002400000FFF8FFFFF6FE08ED00E03B
:1025900021B1828942F40052828104E082894DF6A1
:1025A000FF731A408281704702460020B1F5007F18
:1025B00000D100BF13880B400BB1012000E00020C8
:1025C000704700002DE9F04786B005460E4600240E
:1025D000A24600BFA1460027B08900B100BF2F4628
:1025E0002C8A4CF6FF700440F08804432C82AC899E
:1025F0004EF6F3100440B0883189084371890843CE
:102600000443AC81AC8A4FF6FF400440B0890443D8
:10261000AC8201A8FFF7ACFE1F48874202D1DDF86B
:1026200010A001E0DDF80CA0A88900F4004040B142
:102630000AEBCA0000EB0A1031684900B0FBF1F860
:1026400007E00AEBCA0000EB0A1031688900B0FB12
:10265000F1F86420B8FBF0F004012009642101FBCB
:102660001089A88900F4004040B1322000EBC90075
:10267000B0FBF1F000F00700044308E0322000EB6B
:1026800009106421B0FBF1F000F00F0004432C812D
:1026900006B0BDE8F087000000380140C1F3080231
:1026A0008280704700BFFEE70FB4054B10B503A949
:1026B000044A029800F018F810BC5DF814FB000002
:1026C0002D2A00089800002002E008C8121F08C147
:1026D000002AFAD170477047002001E001C1121FA3
:1026E000002AFBD1704700002DE9FF4F8BB08846D0
:1026F0000546002606E025280BD0DDE90D1290479F
:102700006D1C761C28780028F5D10FB03046BDE846
:10271000F08F0024A146A2460122AE4900E0044306
:1027200015F8013F203B02FA03F00842F7D1287860
:102730002A2810D06FF02F022878A0F13001092943
:1027400015D809EB890102EB410144F0020400EBCA
:1027500001096D1CF0E758F8041B5FEA010903D575
:1027600044F40054C9F1000944F002046D1C2878B7
:102770002E2817D115F8010F44F004042A280ED092
:102780006FF02F022878A0F1300109290AD80AEB4E
:102790008A0102EB410100EB010A6D1CF2E758F8D7
:1027A00004AB6D1C28786C280FD006DC4C2817D0A1
:1027B00068280DD06A2814D104E0742810D07A2833
:1027C0000FD10DE044F400140AE044F4801401E059
:1027D00044F440146978814202D104F580146D1CE0
:1027E0006D1C2878692865D006DC00288DD0632808
:1027F00027D0642806D15DE06E2808D073282AD03F
:10280000752877D0DDE90D129047761CE0E0C4F31F
:102810000250022809D003280DD0D8F8001004284F
:102820000DD00E6008F10408D2E0D8F80010F217BD
:10283000C1E90062F6E7D8F800100E80F2E70E70EA
:10284000F0E718F8041B8DF8001000208DF8010047
:10285000EB46012003E058F804BB4FF0FF3061075E
:102860004FF0000701D40AE07F1C57450DDA87427C
:10287000FADB1BF807100029F6D106E07F1C87421F
:10288000FCDB1BF807100029F8D1DDE90D23A9EBCB
:1028900007008146214600F0B1F83044C61904E033
:1028A000DDE90D121BF8010B90477F1EF8D221467F
:1028B000484688E058F8040BC4F302514FF00A0B65
:1028C000032900D100B2042900D140B2002802DA65
:1028D00040422D2102E0210505D52B218DF8241041
:1028E000012104E006E0E10710D02021F6E708AF5F
:1028F000089113E058F8040BC4F302514FF00A0B8F
:10290000032900D180B2042900D1C0B20021EEE732
:102910005946FDF79BFC303107F8011D0028F7D11F
:10292000ADEB070000F1200B600702D524F48034E2
:1029300001E04FF0010ADA4502DDAAEB0B0000E0EE
:102940000020824600EB0B0108980144A9EB01002E
:102950000A90E00306D4DDE90D2321460A9800F031
:102960004DF806444FF0000908E009A911F80900E4
:10297000DDE90D12904709F10109761C0899894596
:10298000F3DBE0030CD5DDE90D2321460A9800F0C6
:1029900035F8064404E0DDE90D1230209047761C3E
:1029A000BAF10001AAF1010AF5DC05E0DDE90D123A
:1029B00017F8010B9047761CBBF10001ABF1010B3E
:1029C000F4DC0A982146DDE90D2300F005F8064401
:1029D0006D1C97E6092801002DE9F0410446002509
:1029E0001E461746880404D405E039462020B04727
:1029F0006D1C641EF9D52846BDE8F0812DE9F04133
:102A0000044600251E469046C80301D5302700E045
:102A10002027880404D505E041463846B0476D1CA0
:102A2000641EF9D52846BDE8F081000070B5044663
:102A30000D46E1B20548FFF731FE00BF8021034893
:102A4000FFF7B2FD0028F9D0204670BD00380140E4
:102A500000B587B0FEF7BAF80320002180220C4BA6
:102A6000CDE90132CDE9031002200346094A009066
:102A70000948FEF7B1FB0020FEF762FE06AA07A197
:102A80000220FEF7C5FCFEF757FB002007B000BD93
:102A90009C00002098020020190500085374617200
:102AA00074205461736B00000000010002000100FB
:102AB0000300010002000100040001000200010007
:102AC00003000100020001000500010002000100F6
:102AD00003000100020001000400010002000100E7
:102AE00003000100020001000600010002000100D5
:102AF00003000100020001000400010002000100C7
:102B000003000100020001000500010002000100B5
:102B100003000100020001000400010002000100A6
:102B20000300010002000100070001000200010093
:102B30000300010002000100040001000200010086
:102B40000300010002000100050001000200010075
:102B50000300010002000100040001000200010066
:102B60000300010002000100060001000200010054
:102B70000300010002000100040001000200010046
:102B80000300010002000100050001000200010035
:102B90000300010002000100040001000200010026
:102BA0000300010002000100C82B00080000002003
:102BB0009C000000C8260008642C00089C0000202F
:102BC00064770000D826000800000000010203041A
:102BD00001020304060708090204060800000000B9
:102BE00000000000000000000000000000000000E5
:102BF00000000000000000000000000000000000D5
:102C000000000000000000000000000000000000C4
:102C100000000000000000000000000000000000B4
:102C200000000000000000000000000000000000A4
:102C30000000000000000000000000000000000094
:102C40000000000000000000000000000000000084
:102C50000000000000000000000000000000000074
:042C60000000000070
:0400000508000131BD
:00000001FF
