:020000040800F2
:10000000C8BA002045010008BF1300088D11000880
:10001000FD120008F50B0008955F000800000000C5
:10002000000000000000000000000000755B0008F8
:10003000D50E0008000000006F0800085D2A0008C7
:100040005F0100085F0100085F0100085F01000810
:100050005F0100085F0100085F0100085F01000800
:100060005F0100085F0100085F0100085F010008F0
:100070005F0100085F0100085F0100085F010008E0
:100080005F0100085F0100085F0100085F010008D0
:100090005F0100085F0100085F0100085F010008C0
:1000A0005F0100085F0100085F0100085F010008B0
:1000B000C15C00085F0100085F0100085F010008E3
:1000C0005F0100085F0100085F0100085F01000890
:1000D0005F0100085F0100085F0100085F01000880
:1000E0005F0100085F0100085F0100085F01000870
:1000F0005F0100085F0100085F0100085F01000860
:100100005F0100085F0100085F0100085F0100084F
:100110005F0100085F0100085F0100085F0100083F
:100120005F0100085F0100085F0100085F0100082F
:10013000DFF80CD000F0DEFA00480047C169000883
:10014000C8BA00200648804706480047FEE7FEE799
:10015000FEE7FEE7FEE7FEE7FEE7FEE7FEE7FEE777
:10016000615C00083101000872B6704762B67047E2
:10017000EFF3108072B6704780F31088704730BF7D
:10018000704720BF7047B0FA80F0704790FAA0F037
:10019000B0FA80F0704790FAA0F070472DE9F05F58
:1001A0000546002092469B468846064681464024E6
:1001B0001BE0284641464746224600F09BF853463E
:1001C0005A46C01A914110D311461846224600F0F3
:1001D00082F82D1A67EB01084F46224601200021C4
:1001E00000F079F817EB00094E41201EA4F101043C
:1001F000DFDC484631462A464346BDE8F09F30B42E
:1002000080EA010202F0004530F0004221F0004097
:1002100013D090B1C30DD40DC2F31601C0F3160074
:10022000E41A41F4000140F400027D34914201D30C
:10023000641C00E04900002C02DA30BC002070474A
:100240004FF400000023914201D3891A0343400870
:100250004FEA4101F7D151B1914202D14FF0004133
:1002600005E002D24FF0010101E06FF0010103EB64
:10027000C450284430BC00F04DB8962300221146EB
:1002800000F051B800F0004230F000400AD0C10D3B
:1002900001F56071C0F3160042EA0151C20840073F
:1002A0001143704700200146704730B50B460146A8
:1002B00000202022012409E021FA02F59D4205D305
:1002C00003FA02F5491B04FA02F52844151EA2F1AF
:1002D0000102F1DC30BD202A04DB203A00FA02F1F1
:1002E000002070479140C2F1200320FA03F3194324
:1002F00090407047202A04DB203A21FA02F00021C6
:10030000704721FA02F3D040C2F120029140084325
:10031000194670470029A8BF7047401C490008BF14
:1003200020F00100704710B4B0FA80FC00FA0CF025
:1003300050EA010404BF10BC704749B1CCF120045D
:1003400021FA04F411FA0CF118BF012121430843EA
:10035000A3EB0C01CB1D4FEA00614FEA102042BF16
:10036000002010BC704700EBC35010440029A4BF0C
:1003700010BC7047401C490008BF20F0010010BCB1
:1003800070472DE9FE4F804681EA0300C00F0C46FE
:10039000009021F0004123F00045B8EB0200A94194
:1003A00005D24046214690461C460B46024623F0A5
:1003B0000040104347D0270DC7F30A00C3F30A518A
:1003C0000290401A019040286BDAC3F3130040F406
:1003D000801B0098924620B10023D2EB030A63EB06
:1003E0000B0B01985946C0F140025046FFF773FFCE
:1003F00006460D4650465946019A00F08DF910EB1D
:1004000008006141002487EA115284EAE7731A4325
:1004100040D0009A62B3019A012A4FEA075215DCD4
:10042000001B61EB02014FF0004202EA0752CDE9E6
:100430000042001C41F5801132462B4600F08DF938
:1004400003B0BDE8F08F40462146F9E7001B61EBA1
:100450000201001C41F5801300185B412018A2F531
:10046000001747EB030140EAD570B6196D4111E062
:100470006D084FEA360645EAC0754FEA0752001B81
:1004800061EB0201001C41F5801149084FEA300080
:100490000019514132462B4603B0BDE8F04F00F041
:1004A0004DB90098012240000023D0EB020263EB1B
:1004B000E073009821464FEAE074B8EB000061EB6E
:1004C0000401E9E783F000435BE781F0004158E76E
:1004D0002DE9FE4F81EA030404F0004421F00041BD
:1004E00000944FF0000B23F0004350EA01045ED06B
:1004F00052EA03045BD0C3F30A54C1F30A552C44F7
:10050000A4F2F3340194A0FB0254C1F3130141F4AB
:100510008011C3F3130343F4801301FB024400FB77
:10052000034E840A970A44EA815447EA8357A4FB9E
:10053000076802958D0A05FB07854FEA932C04FB9B
:100540000C542705029D4FEA065847EA1637B5EBCB
:1005500008056EEB070C870E920E47EA811742EAF8
:100560008312A7FB0201B6EB0B0164EB00042B0D19
:1005700043EA0C335E1844EB1C50DA465146E7FB65
:100580000201C5F313044FEA0B3343EA14534FEA55
:100590000432019C43EA0603A4F10C040294009C7B
:1005A000CDE900B400F0D9F803B0BDE8F08F002029
:1005B0000146F9E72DE9F04D81EA030404F0004B10
:1005C00021F0004514464FF0000A23F0004150EAA4
:1005D000050220D054EA01021DD0C5F30A57024695
:1005E000C5F31303C1F31300C1F30A5640F4801599
:1005F00043F48013A7EB0608101BD64608F2FD381B
:1006000073EB050002D308F1010801E092185B4189
:10061000B8F1000F03DA00200146BDE8F08D00209C
:100620004FF48011064684460EE0171B73EB050756
:1006300005D3121B63EB050306434CEA010C490882
:100640004FEA300092185B4150EA0107EDD152EABF
:10065000030012D082EA040083EA0501084305D0B2
:10066000101BAB4106D20122002306E000224FF00E
:10067000004302E06FF0010253101AEB06004CEB4E
:10068000085110EB0A0041EB0B01BDE8F04D00F002
:1006900055B8C1F30A52C1F3130140F2FF3341F4DC
:1006A00080119A4202DA00200146704740F233433B
:1006B0009A42A2F2334202DC5242FFF71BBEFFF71E
:1006C0000ABE000030B5041E71F1000404DB4FF0D7
:1006D0000044404264EB0101141E73F1000405DB89
:1006E0001C464FF00043524263EB0403994208BF9B
:1006F000904230BD064C074D06E0E06840F0010333
:1007000094E8070098471034AC42F6D3FFF714FD85
:10071000786C0008986C0008202A06DBCB17203A7A
:1007200041FA02F043EAE07306E041FA02F3D040F6
:10073000C2F12002914008431946704710B5141EBB
:1007400073F1000408DA401C41F1000192185B418A
:100750001A4301D120F0010010BD2DE9F04D924661
:100760009B4611B1B1FA81F202E0B0FA80F2203278
:100770009046FFF7B0FD04460F4640EA0A0041EA02
:100780000B0153465A46084313D0114653EA010061
:1007900019D0C8F140025046FFF7ACFD05460E46A1
:1007A000504659464246FFF796FD084305D00120C2
:1007B00004E020463946BDE8F08D0020054346EAB6
:1007C000E0762C4337430A986305E40AA0EB08005F
:1007D0000022FD0A44EA47540A3002D500200146AF
:1007E000E9E7010510196941DDE90845001969418A
:1007F000BDE8F04DA2E770B58C1810F8015B15F05C
:10080000070301D110F8013B2A1106D110F8012B82
:1008100003E010F8016B01F8016B5B1EF9D12B07A7
:1008200005D40023521E0DD401F8013BFAE710F85D
:10083000013BCB1A921C03E013F8015B01F8015B4A
:10084000521EF9D5A142D8D3002070BD18484FF0F0
:10085000FF010170002080F309881648016881F3C8
:10086000088815484FF08051016062B6FEE772B605
:10087000EFF3098028B1203880E8F00F0F490968AC
:10088000086000B50E4880475DF804EB0D480E493E
:100890000A78027009480D490A680260106890E8F9
:1008A000F00F203080F309884EF0040E62B67047D6
:1008B00022ED00E06C00002004ED00E03C0100208F
:1008C000E5250008CA000020CB00002040010020E0
:1008D00010B50449044800F087FC0449044800F0BE
:1008E00083FC10BD59110008280000207111000878
:1008F000300000201CB508E001AB6A460021084624
:1009000001F010FC01A005F047FBF5E7BDD3CADC00
:10091000B5BDB6A8CAB1C6F7D6D0B6CFBAAFCAFD74
:10092000B7A2C0B4B5C4CDACB2BDCFFBCFA20D0A47
:100930000000000008B50BE00648006880F00100E8
:10094000044908606A4600214FF4FA7001F09CFEE9
:10095000F2E700000C0C01400EB52848017828A0F1
:1009600005F01AFB2AA005F017FB46E0334800F01B
:100970004CFC334800F049FC0021304800F03DFCBD
:10098000B0B11E480078401C1C4908700846007829
:10099000032801D1012008701848017818A005F03B
:1009A000FBFA1BA005F0F8FA0121244800F025FC11
:1009B0000021234800F021FCB0B110480078012844
:1009C00002D002280AD102E000F086FA07E01D4AB0
:1009D0004CF25031012005F07DFF00E000BF00BF68
:1009E0000121174800F009FC02A8002114230A463F
:1009F000CDE90010084601F0EFFEB7E748000020FF
:100A00006B657931636F756E743D25640A00000073
:100A10004B455931B0B4BCFCD6B5317E32B6D4D3D7
:100A2000A6B2BBCDACC8CECEF1C7E9BFF6A3AC4BE6
:100A3000455932C8B7B6A80A0000000028000020B7
:100A4000300000205D5D000800B58BB00AA80321CE
:100A500000220592CDE90621089010464FF400715E
:100A600033221F4BCDE90132CDE9031003200023CF
:100A70001C4A1DA100901F4801F09EF80AA80321FE
:100A800000220592CDE90621089010464FF400712E
:100A90003322194BCDE90132CDE9031004200023A4
:100AA000164A17A10090194801F086F80AA80321F8
:100AB00000220592CDE90621089010464FF40071FE
:100AC0003322134BCDE90132CDE903100520002379
:100AD000104A11A10090134801F06EF80BB000BD50
:100AE000680C0020F5080008417070205461736B99
:100AF00031000000100200206814002035090008B1
:100B0000417070205461736B32000000D8020020E5
:100B1000681C002059090008417070205461736BF3
:100B200033000000A003002038B5044600F044F86C
:100B300000F062F800F0EEFB684600F0B3FF00F052
:100B4000C9F807A005F028FAFFF77EFF0CA005F012
:100B500023FAFFF7BDFE6946124801F083F938BD5C
:100B60004372656174696E67204170706C6963617E
:100B700074696F6E205461736B732E2E2E0A0D00F4
:100B80004372656174696E67204170706C6963615E
:100B900074696F6E204576656E74732E2E2E0A0D65
:100BA000000000004801002000B585B0684604F050
:100BB00077FF019805B000BD10B500F001FC00F012
:100BC0006BFB00F0E5FA00F0F9FA00F043F905F0EC
:100BD0004DFE00F001F810BD70B5FFF7E5FF0446CB
:100BE00003480068B4FBF0F5284601F057FF70BDDC
:100BF000846A000800BFFEE710B500F0FBF800F0C3
:100C000003F800F0F3F810BD70B500260020184975
:100C10000880184908801849086018490860184970
:100C200008601849086018490860002400BFFFF7F1
:100C30009FFA064600BF00250BE00020104908601F
:100C400000F074F800F08CF80D4800680444681C4B
:100C500085B2002DF1D00C480460002008490860DE
:100C60000849086000BF3046FFF786FA00BF70BD34
:100C700050000020520000205400002058000020A6
:100C800060000020640000205C000020014608464F
:100C9000044A1268904203D9024A1268801A00E09E
:100CA000002070475C00002070B5002500BFFFF7F2
:100CB0005FFA054600BF0648046800BF2846FFF7F4
:100CC0005BFA00BF2046FFF7E1FF0646304670BDE5
:100CD0006000002070B50025FFF7E6FF044600BF66
:100CE000FFF746FA054600BF00200449086000BF30
:100CF0002846FFF741FA00BF204670BD6000002083
:100D000070B5002500BFFFF733FA054600BF06485F
:100D1000046800BF2846FFF72FFA00BF2046FFF700
:100D2000B5FF0646304670BD6400002010B5094886
:100D30000088401C074908800748008818B900F05F
:100D400083F80649086004480088401C024908806E
:100D500010BD000050000020520000205400002070
:100D600010B50F480088401E0D49088008460088CD
:100D7000A0B900F069F80B490860084600680A4904
:100D80000968441A09480068A04201D20748046073
:100D900007480068A04201D20548046010BD000069
:100DA0005200002058000020540000206000002065
:100DB0006400002010B5002400BF00BFFFF7D8F981
:100DC000044600BFFFF7B2FF00BF1021064800F045
:100DD00097FA00BFFFF7C4FF00BF2046FFF7CCF92A
:100DE00000BF00BF10BD00006824002010B5FFF751
:100DF000E1FF10BD10B500200249086000F00AF8BC
:100E000010BD00004C000020014908607047000040
:100E10004C00002010B50A48006840F08070084976
:100E200008600020074948600846006840F001005B
:100E30000860FFF7B9FE04462046FFF7E5FF10BD46
:100E4000FCED00E0001000E0014840687047000041
:100E5000001000E000B585B00121880304F010FE09
:100E60000121052004F00CFE4FF40070ADF81000D5
:100E700018208DF8130003208DF8120004A91348E0
:100E800000F0D4F84FF48060ADF8100004208DF825
:100E9000130004A90D4800F0C9F84FF4E1300090A8
:100EA0000020ADF80400ADF80600ADF80800ADF87C
:100EB0000C000C20ADF80A006946054804F0FAFF62
:100EC0000121034804F0DCFF05B000BD000801402B
:100ED00000380140704700002DE9F04387B000253D
:100EE00000BF00BFFFF744F9054600BFFFF71EFF34
:100EF00000BF2848046800BFFFF732FF00BF284644
:100F0000FFF73AF900BF00BF234805F045F823A0DA
:100F100005F042F82DA005F03FF836E034F88C0FCC
:100F2000FFF7ABF9069035490698FFF768F9814657
:100F3000FFF7A8F907468846D4E90801014464226E
:100F40005043B0FBF1F654F86C0CCDE902780096F2
:100F5000049014F8551CD4E908238C3C28A005F013
:100F60001BF800BF00BFFFF703F9054600BFFFF7FE
:100F7000DDFE00BFD4F8C04000BFFFF7F1FE00BFA8
:100F80002846FFF7F9F800BF00BF002CC6D107B014
:100F9000BDE8F08314010020346C000820D3C5CFD5
:100FA000C8BCB620CAB9D3C3D5BB20CAA3D3E0D529
:100FB000BB20B0D9B7D6B1C820C0FBD3C3C2CA20AA
:100FC0002020C8CECEF1C3FB0D0A000020205072B5
:100FD000696F202020557365642020467265652066
:100FE00020205065722020202043505520202020B2
:100FF000205461736B6E616D650D0A000000C8427C
:1010000020202025326420202535642020253564C9
:1010100020202025303264252520202025352E3221
:1010200066252520202025730D0A00002DE9F041BA
:10103000024600250026002000230024002791F806
:1010400003C00CF00F0591F803C00CF0100CBCF1BC
:10105000000F03D091F802C04CEA050591F800C0DA
:10106000BCF1000F31D0146800202BE04FF0010CD0
:101070000CFA00F3B1F800C00CEA03069E4220D13E
:1010800083004FF00F0C0CFA03F7BC4305FA03FC86
:101090004CEA040491F803C0BCF1280F06D14FF0CC
:1010A000010C0CFA00FCC2F814C00AE091F803C06D
:1010B000BCF1480F05D14FF0010C0CFA00FCC2F84E
:1010C00010C0401C0828D1D31460B1F800C0BCF196
:1010D000FF0F34DD546800202EE000F1080C4FF0C3
:1010E000010808FA0CF3B1F800C00CEA03069E42AE
:1010F00021D183004FF00F0C0CFA03F7BC4305FA23
:1011000003FC4CEA040491F803C0BCF1280F05D19C
:1011100000F1080C08FA0CF8C2F8148091F803C02A
:10112000BCF1480F07D100F1080C4FF0010808FA94
:101130000CF8C2F81080401C0828CED35460BDE8DB
:10114000F0810246002093680B400BB1012000E0C3
:10115000002070474161704710B501210348FFF737
:10116000F0FF012800D110BD0020FCE7000801407D
:1011700010B54FF400510448FFF7E3FF08B9012010
:1011800010BD0020FCE700000010014000BFFEE79A
:1011900008B50121042004F073FC0120ADF8000023
:1011A00003208DF8020004208DF8030069460248F0
:1011B000FFF73CFF08BD00000008014008B5012111
:1011C000102004F05DFC4FF40050ADF80000032047
:1011D0008DF8020004208DF8030069460148FFF7EE
:1011E00025FF08BD001001400160002202710222AB
:1011F000427182710022C2717047024601F0010300
:101200000BB1002313711079704710B50446607953
:1012100001281ED0022804D0032822D0042839D166
:1012200007E02068804718B10020E0710420607159
:1012300030E0E0790A30E071E0790A2808DB2068C4
:10124000804718B10120A071607101E00220607137
:1012500020E02068804718B90020E0710320607109
:1012600018E0E0790A30E071E0790A2811DB2068A3
:10127000804760B90120A071022060712079401C74
:1012800020712079FA2804DDFA20207101E0012084
:10129000607100BF00BF10BD08B501214FF484701C
:1012A00004F0EEFB0120ADF8000003208DF80200F1
:1012B00010208DF8030069460E48FFF7B7FE402066
:1012C000ADF8000069460C48FFF7B0FE8020ADF88D
:1012D000000069460848FFF7A9FE01210548FFF70D
:1012E00039FF40210448FFF735FF80210248FFF70E
:1012F00031FF08BD000C01400020014000BFFEE7A7
:1013000030B505460C4622460021284600F026F856
:1013100030BD00000D480E490160014641600021CA
:101320008160C160016141618161C16101620163EC
:10133000C162416207498163C1634FF4D8410164CE
:1013400041640146044A116070470000782400207F
:1013500048454150C0240020680000202DE9F0419C
:1013600003460C4617460FB9BDE8F08103B9FBE709
:101370000025002202E02D022543521C042AFAD344
:10138000384603F0030C1946BCF1000F08D0624642
:1013900003E001F8014B401E521C08B1042AF8D3A7
:1013A0000E4601E020C6001F0428FBD2314602E0B1
:1013B00001F8014B401E0028FAD100BFD4E7704766
:1013C00010B54FF4A06000F039F810BD70B50021E1
:1013D00000230F22C47804B3154C246804F4E0649D
:1013E000C4F5E064210AC1F10403CA40447804FA58
:1013F00003F184781440214309010E4C0678A1556D
:10140000047804F01F050124AC4005786D11AD008F
:1014100005F1E025C5F8004109E0047804F01F0556
:101420000124AC40044D0678761145F8264070BD85
:101430000CED00E000E400E080E100E0024901433F
:10144000024A1160704700000000FA050CED00E050
:101450007047000010B50348006810B101480068EB
:10146000804710BD8000002070B5044600F0C2F82F
:1014700000204849087048490870484908704849A0
:101480000860484908604849087048490870484958
:101490000870484908604849086048490860484958
:1014A0000870484800680A21B0FBF1F0464908601E
:1014B0004648006858B14648056845B14348066843
:1014C00003E0761E002028602D1D002EF9D100209B
:1014D0004049086040490860404908604049086048
:1014E0004049086040490860404908604049087028
:1014F00002F066FA02F064FB204601F0C1FB20888E
:1015000000B170BD204601F0DBFF208800B1F8E794
:10151000204601F0E1FF208800B1F2E7204602F00A
:10152000C5F8208800B1ECE7204602F079FA20885F
:1015300000B1E6E7204602F0C9FC208800B1E0E7F0
:10154000204603F033F8208800B1DAE7204601F0A6
:1015500023FF208800B1D4E7204601F02DFD20882C
:1015600000B1CEE7204604F089F8208800B1C8E732
:10157000204602F05FFF208800B1C2E7204604F059
:10158000D9F8208800B1BCE701F0A0FAFFF760FFAE
:1015900000BFB6E7940000209C000020E40000207B
:1015A0003C01002040010020CA000020CB000020A8
:1015B000CC000020D8000020DC000020E00000204B
:1015C000EC000020846A0008E8000020546A00084B
:1015D000506A000874000020780000207C00002081
:1015E0008000002084000020880000208C00002063
:1015F0001A0100200A4A1168002002E0002204C1FA
:10160000401C084A12689042F8D3054A1268054BFC
:101610001B6802EB8302121F034B1A607047000025
:10162000506A0008546A00086C00002010B50024BD
:101630002E480078012800D010BD00BFFEF798FDAD
:10164000044600BF2A48007828B900BF2046FEF7AC
:1016500093FD00BFF0E726480078401E244908703B
:1016600008460078002805DD00BF2046FEF784FD0F
:1016700000BFE1E71F480078002805DD00BF2046D5
:10168000FEF77AFD00BFD7E702F086F91A49087025
:101690000846007800EB4000184951F8200018492E
:1016A00008600846006817490968884205D100BFEC
:1016B0002046FEF761FD00BFBEE711480068D0F884
:1016C0009000401C0E490968C1F890000E4800685F
:1016D000401C0D4908604FF080500C49086000BF65
:1016E0002046FEF749FD00BF00BFA5E79C00002093
:1016F00094000020E4000020CB000020ECA6002095
:10170000400100203C0100201001002004ED00E019
:1017100010B5002420480078002800DD10BD1F48C7
:101720000078002800DDF9E700BFFEF721FD044640
:1017300000BF02F031F91A4908700846007800EB42
:101740004000184951F82000174908600846006811
:1017500016490968884205D100BF2046FEF70CFDF6
:1017600000BFDBE710480068D0F89000401C0E492D
:101770000968C1F890000E480068401C0C490860D8
:101780004FF080500B49086000BF2046FEF7F4FC84
:1017900000BF00BFC2E7000094000020E40000206A
:1017A000CB000020ECA60020400100203C010020DE
:1017B0001001002004ED00E070B5044600251A4831
:1017C0000078002803DD46F66250208070BD17487F
:1017D0000078012803D045F689602080F6E7144898
:1017E0000078FA2803DB45F209202080EEE700BFED
:1017F00000BFFEF7BDFC054600BFFFF797FA00BF2C
:101800000B480078401C0A49087002F0BDFA00BF7E
:10181000FFF7A6FA00BF2846FEF7AEFC00BF00BFE8
:101820000020208000BFD1E7940000209C00002011
:10183000E400002070B50446002523480078002805
:1018400003DD46F66550208070BD204800780128F1
:1018500003D045F689602080F6E71D48007818B966
:1018600046F664502080EFE700BF00BFFEF780FC23
:10187000054600BFFFF75AFA00BF15480078401E22
:10188000134908700846007800280CDD00BFFFF7F8
:1018900067FA00BF2846FEF76FFC00BF00BF46F6A0
:1018A00063502080D0E702F07DFA00BFFFF758FABE
:1018B00000BF2846FEF760FC00BF00BFFFF728FF0F
:1018C0000020208000BFBFE7940000209C00002083
:1018D000E400002010B5044612480078E8B902F090
:1018E0005BF81149087008460078104908700E48E6
:1018F000007800EB40000E4951F820000D490860C7
:10190000084600680C490860012006490870FEF787
:101910009DFF43F69920208002E045F68A602080F2
:1019200010BD00009C000020CB000020CA00002059
:10193000ECA60020400100203C0100202DE9F041F0
:1019400007464FF0000800BF00BFFEF711FC8046BD
:1019500000BFFFF7EBF900BF002047490860474987
:101960000880474908804749086047490860474957
:10197000086047490860474908604749088100BF37
:10198000FFF7EEF900BF4046FEF7F6FB00BF00BFD1
:1019900000BF00BFFEF7ECFB804600BFFFF7C6F9B3
:1019A00000BF3E48046800BFFFF7DAF900BF4046B9
:1019B000FEF7E2FB00BF00BF26E000BF00BFFEF75E
:1019C000D7FB804600BFFFF7B1F900BF0020783495
:1019D000E063206420602063A061A082E0826062F6
:1019E000A062FFF731FA2062783C04F1640600201F
:1019F000B081D4F8C04000BFFFF7B2F900BF404645
:101A0000FEF7BAFB00BF00BF002CD6D100BF00BF5D
:101A1000FEF7AEFB804600BFFFF788F900BF204805
:101A2000056800BFFFF79CF900BF4046FEF7A4FB26
:101A300000BF00BF16E000BF00BFFEF799FB804665
:101A400000BFFFF773F900BF05F120060020B08149
:101A5000AD6900BFFFF784F900BF4046FEF78CFB7D
:101A600000BF00BF002DE6D103F0D0FC03F05EFF05
:101A700000203880BDE8F081B0000020AA000020DE
:101A8000FA0000200C010020200100202C01002081
:101A900098000020DC000020E0A6002014010020B7
:101AA000D0000020F8B5044600266946364800F00C
:101AB00069FDBDF8000018B1BDF800002080F8BD38
:101AC0006A460021022000F0DFFDBDF8000018B1D9
:101AD000BDF800002080F2E700BF00BFFEF748FB22
:101AE000064600BFFFF722F900BF00202749086023
:101AF00000BFFFF735F900BF3046FEF73DFB00BFE2
:101B000000BF00252248006822490968884205D99B
:101B10001F4800681F490968B0FBF1F525B91C484A
:101B200000680A21B0FBF1F56A460021284600F062
:101B3000ABFD6946144800F0A5FABDF8000018B1E5
:101B4000BDF800002080BAE700BF00BFFEF710FB21
:101B5000064600BFFFF7EAF800BF00200E49086004
:101B60000A4800680D49086001200D49087000BF4F
:101B7000FFF7F6F800BF3046FEF7FEFA00BF00BFE1
:101B80000020208000BF9AE7FCA90020FC00002074
:101B9000846A00086C6A00080C0100200001002023
:101BA0000801002010B50348006810B10148006822
:101BB000804710BD840000202DE9FF4F87B0044608
:101BC0009046DDE91BA5DDE91496179F00200390E0
:101BD00095480078002805DD47F24A1028800BB0B0
:101BE000BDE8F08F1CB947F2AD102880F7E7B8F1D7
:101BF000000F03D147F24F102880F0E71EB946F6D8
:101C00002F602880EBE789480068874203D246F6B8
:101C100030602880E3E71698B84203D346F6316077
:101C20002880DCE7B9F1200F03D346F27320288027
:101C3000D5E7B9F1000F06D17D48844203D046F2C2
:101C400073202880CBE7B9F11F0F06D17948844271
:101C500003D046F273202880C1E7204602F0B6FC8C
:101C6000002028800AF0010090B10AF0020078B14B
:101C700005960020069008E000210598016005986F
:101C8000001D05900698401C06900698B842F3D3B4
:101C9000169806EB80000490CDE9007A3246404663
:101CA000049B0A9900F00EFC0590C4F828800A985D
:101CB000E0620898206284F83790059820600498C4
:101CC000A06019986065199818B95B480068A0650C
:101CD00001E01998A0651A9860606662A763A4F88D
:101CE0003CA04FF0000B08E0002104F17C0040F81C
:101CF0002B100BF1010000F0FF0BBBF1000FF3D034
:101D000004F16400189901F047FC204600F09EF8A9
:101D100000BF00BF00BFFEF72BFA039000BFFFF724
:101D200005F800BF45480078401C44490870084643
:101D30000078012801D102F027F800BFFFF710F862
:101D400000BF0398FEF718FA00BF00BF00BF94F869
:101D5000370001F041FE204601F07AFF204602F0F4
:101D6000EBFB37480088401C35490880354800782F
:101D7000012837D000BF00BF00BFFEF7F9F903907C
:101D800000BFFEF7D3FF00BF2C480078401E2B4950
:101D9000087008460078D0B902F004F82A48008894
:101DA00000280BDD00BFFEF7DBFF00BF0398FEF746
:101DB000E3F900BF00BF01F0B9FF11E000BFFEF77B
:101DC000CFFF00BF0398FEF7D7F900BF08E000BFC0
:101DD000FEF7C6FF00BF0398FEF7CEF900BF00BFB5
:101DE00000BFFCE600BF00BF00BFFEF7C1F90390D3
:101DF00000BFFEF79BFF00BF10480078401E0F4950
:101E000008700846007808B901F0CCFF00BFFEF763
:101E1000A7FF00BF0398FEF7AFF900BF00BF00BFE8
:101E2000FFF776FC00BFDAE694000020806A000825
:101E300018A6002050A50020E8000020E4000020A3
:101E4000180100209C000020A800002010B50446C6
:101E50000348006818B1204601490968884710BD49
:101E60007400002070B504460D46002678480078BE
:101E7000002803DD47F24E10288070BD754884426B
:101E800003D147F24C102880F7E77348844203D10E
:101E900047F24D102880F0E79CB900BF00BFFEF765
:101EA00067F9064600BFFEF741FF00BF6B480468B4
:101EB00000BFFEF755FF00BF3046FEF75DF900BFDB
:101EC00000BF00BF00BF00BFFEF752F9064600BFCB
:101ED000FEF72CFF00BF62480078401C6049087084
:101EE00008460078012801D101F04EFF00BFFEF73F
:101EF00037FF00BF3046FEF73FF900BF00BF00BF0D
:101F000094F8360008282DD2DFE800F004090E10FE
:101F1000080A0F11204601F0DBFE5EE05DE000BF25
:101F2000204603F057FA58E000BF00BF00BF20462C
:101F300003F050FA94F83400082810D2DFE800F0DB
:101F400004070508090A0B0600BF00BF08E000BF30
:101F500000BF00BF00BF204601F06FFC00E000BFE3
:101F600000BF3AE000BF00BF00BFFEF701F9064620
:101F700000BFFEF7DBFE00BF39480078401E38493D
:101F8000087008460078D0B901F00CFF3548008889
:101F900000280BDD00BFFEF7E3FE00BF3046FEF772
:101FA000EBF800BF00BF01F0C1FE11E000BFFEF77B
:101FB000D7FE00BF3046FEF7DFF800BF08E000BFE5
:101FC000FEF7CEFE00BF3046FEF7D6F800BF00BFDA
:101FD00000BF46F62D6028804FE700BF04F1640083
:101FE00001F0B8FA204600F041F8204602F0BCFAB1
:101FF0001D480088401E1C490880204602F0E6FA71
:10200000FF2084F8360000BF00BF00BFFEF7B0F825
:10201000064600BFFEF78AFE00BF11480078401E4A
:102020000F4908700846007808B901F0BBFE00BFF0
:10203000FEF796FE00BF3046FEF79EF800BF00BFD9
:1020400000BF00202880FFF763FB00BF15E70000FA
:102050009400002050A5002018A600203C0100207C
:10206000E4000020A80000201801002010B504465C
:102070000348006818B1204601490968884710BD27
:10208000780000207FB504460D46002600BF00BF43
:10209000FEF76EF8064600BFFEF748FE00BF1CB113
:1020A0001748006884420CD100BFFEF759FE00BFFC
:1020B0003046FEF761F800BF00BF47F25710288096
:1020C0007FBD00BFFEF74CFE00BF3046FEF754F860
:1020D00000BF00BF0B48007800280BDD00200090F7
:1020E0000190034602462146CDE90205064800F06C
:1020F0009BFFE5E72946204602F014FC00BFDFE71E
:102100003C010020940000205452455310B5044671
:102110000348006818B1204601490968884710BD86
:102120007C0000202DE9F04780460E4614461D46EF
:102130004FF000098C480078002805DD46F2AE100B
:1021400028800020BDE8F0871EB1B6F5004F02D10F
:1021500000E000BF04E045F6256028800020F1E79C
:1021600000BF0CB10020206000BF00BFFEF700F8E8
:10217000814600BFFEF7DAFD00BF7C480068406C76
:10218000B8B37A480068406C401E784909684864D2
:1021900076480068476C1CB174480068006C206089
:1021A000FEF752FE71490968096C401A6F490968C7
:1021B000C1F8A4006D480068D0F8A8006B49096810
:1021C000D1F8A410884207D268480068D0F8A4006B
:1021D00066490968C1F8A80000BFFEF7C1FD00BF4D
:1021E0004846FDF7C9FF00BF00BF002028803846E1
:1021F000A8E7FFE706F4004068B100BFFEF7B0FDB6
:1022000000BF4846FDF7B8FF00BF00BF46F2B01060
:102210002880002096E75648007800280DDD00BF92
:10222000FEF79EFD00BF4846FDF7A6FF00BF00BFBA
:1022300046F663502880002084E700BF4C480078B1
:10224000401C4B49087008460078012801D101F074
:102250009BFD00BFFEF784FD00BF4846FDF78CFFE5
:1022600000BF00BF00BF434607220021084601F01F
:1022700029FA00BF00BF00BFFDF77AFF814600BF0B
:10228000FEF754FD00BF3A480078401E38490870F8
:102290000846007808B901F085FD00BFFEF760FD33
:1022A00000BF4846FDF768FF00BF00BF00BFFFF753
:1022B0002FFA00BF00BFFDF75BFF814600BFFEF7AE
:1022C00035FD00BF2948006890F8350020B101288D
:1022D00026D0032834D12CE0FCB124480068006CDF
:1022E0002060FEF7B1FD21490968096C401A1F49B9
:1022F0000968C1F8A4001D480068D0F8A8001B496F
:102300000968D1F8A410884207D218480068D0F8AC
:10231000A40016490968C1F8A8000020288013E02D
:102320001CB112480068006C206046F2A910288099
:102330000AE00CB10020206047F2D920288003E099
:1023400046F62E60288000BF00BF08480068476C32
:1023500000BFFEF705FD00BF4846FDF70DFF00BFBB
:1023600000BF3846EEE60000940000203C0100204B
:10237000E40000202DE9FF4106460F4614461FB138
:10238000B7F5004F02D100E000BF06E045F625603A
:102390002080002004B0BDE8F08100BFFEF754FDAE
:1023A00005460D48007800280CDD0020009003460B
:1023B00002463146CDE902540190084800F034FE4F
:1023C0000020E7E723462A463946304602F074FBF0
:1023D00080464046DEE70000940000205453494701
:1023E0002DE9F04705460E4617461C464FF0000AF9
:1023F00032480078002804DD47F259102080BDE8FB
:10240000F0871EB946F2D5202080F8E71FB946F2C2
:10241000D5202080F3E700BF00BFFDF7A9FE82466C
:1024200000BFFEF783FC00BF0DB92548056828688A
:1024300078B900BFFEF794FC00BF5046FDF79CFE44
:1024400000BF00BF00203060386047F2521020808B
:10245000D5E795F83C0000F0010078B900BFFEF721
:102460007FFC00BF5046FDF787FE00BF00BF002085
:102470003060386047F254102080C0E700BFFEF79C
:102480006FFC00BF5046FDF777FE00BF00BF4FF066
:102490000008D5F8249003E009F1040908F10108C7
:1024A000D9F800000028F7D0C6F80080A86BA0EB90
:1024B000080038600020208000BFA0E794000020C2
:1024C0003C010020F0B50446DDE9055602EB85002D
:1024D0004FF0807C071F3846C7F800C0071F3846FA
:1024E0003C60DFF89CC0071F3846C7F800C04FF0BB
:1024F000123C071F3846C7F800C04FF0033C071FC7
:102500003846C7F800C04FF0023C071F3846C7F8EE
:1025100000C0071F38463B60071F384639604FF040
:10252000113C071F3846C7F800C04FF0103C071F8A
:102530003846C7F800C04FF0093C071F3846C7F8B7
:1025400000C04FF0083C071F3846C7F800C04FF0E6
:10255000073C071F3846C7F800C04FF0063C071F6E
:102560003846C7F800C04FF0053C071F3846C7F88B
:1025700000C04FF0043C071F3846C7F800C0F0BD4C
:10258000A14A00087FB505460C461248854203D192
:1025900047F25B1020807FBD0F48854203D147F290
:1025A0005C102080F7E70D48007800280BDD002044
:1025B00000900190034602462946CDE902040848EE
:1025C00000F032FDE7E72146284602F049FD00BF52
:1025D000E1E7000050A5002018A60020940000208C
:1025E0005453555370B52448006810B12248006810
:1025F0008047FEF729FC0446204800682049096806
:10260000884215D01D480068D0F89800201A1B4950
:102610000968C1F8940019480068D0F89C0017496F
:102620000968D1F89410084414490968C1F89C005D
:1026300013480068C0F89840FEF74CFB05460F4869
:102640000068D0F8B400A84203D20C480068C0F873
:10265000B4500A480068D0F8B8000A4909688842AE
:1026600005D20848006805490968C1F8B80000208B
:102670000449086070BD0000880000203C01002073
:1026800040010020E00000202DE9F04105460E4603
:10269000144600274D480078002804DD47F27520D5
:1026A0002080BDE8F0814A480078002803DD46F626
:1026B00063502080F5E736B1022E05D0042E0AD0F3
:1026C000082E09D101E000BF00BF1DB947F27E20EE
:1026D0002080E6E704E003E045F625602080E0E79F
:1026E00000BF00BF00BF00BFFDF742FD074600BFAF
:1026F000FEF71CFB00BF36480078401C34490870C8
:1027000008460078012801D101F03EFB00BFFEF72A
:1027100027FB00BF3846FDF72FFD00BF00BF00BFFD
:1027200001202C49096881F83600234632462946A3
:102730002848006802F070FD2088F0B100BF00BF9B
:1027400000BFFDF715FD074600BFFEF7EFFA00BF1B
:102750001F480078401E1E4908700846007808B9D6
:1027600001F020FB00BFFEF7FBFA00BF3846FDF783
:1027700003FD00BF00BF00BF93E71648006801F0EB
:10278000A7FA00BF00BF00BFFDF7F2FC074600BF7D
:10279000FEF7CCFA00BF0E480078401E0C490870C6
:1027A0000846007808B901F0FDFA00BFFEF7D8FA34
:1027B00000BF3846FDF7E0FC00BF00BF00BFFEF7DA
:1027C000A7FF0020208000BF6BE7000094000020DE
:1027D000E40000203C0100202DE9FF5F05460E4685
:1027E00017469846DDE90EA4002000908148007845
:1027F000002804DD47F275202080BDE8FF9F7E4859
:102800000078002803DD46F663502080F5E70AF0E3
:102810000E0BBBF1000F09D0BBF1020F07D0BBF1CB
:10282000040F10D0BBF1080F0ED101E000BF00BFB4
:10283000B8F1000F06D12FB926B91DB947F27E2095
:102840002080DAE704E003E045F625602080D4E745
:1028500000BF2AF01E0008B1012000E00020039014
:102860000398012803D145F625602080C5E7CAF307
:10287000001002900298C0B9B8F57A7F03D347F2EE
:102880007B202080B9E73B2F03DD47F27A202080B0
:10289000B3E73B2E03DD47F279202080ADE7632DBF
:1028A00012DD47F278202080A7E742F20F708642BF
:1028B00003DD47F2792020809FE7B5F57A7F03DBBF
:1028C00047F27820208098E74C48D0F800904FF4E9
:1028D000FA70B0FBF9F0404400FB09F04FF47A7154
:1028E000B0FBF1F14FF461606843C6EB061200EBF8
:1028F0008200384400FB091001900198002873D031
:1029000000BF00BF00BFFDF733FC009000BFFEF723
:102910000DFA00BF38480078401C37490870084657
:102920000078012801D101F02FFA00BFFEF718FA54
:1029300000BF0098FDF720FC00BF00BF00BF0120D2
:102940002F49096881F8360023465A462C480199D8
:10295000006802F061FC2088F0B100BF00BF00BF3A
:10296000FDF706FC009000BFFEF7E0F900BF22482B
:102970000078401E204908700846007808B901F028
:1029800011FA00BFFEF7ECF900BF0098FDF7F4FB69
:1029900000BF00BF00BF30E71948006801F098F998
:1029A00000BF00BF00BFFDF7E3FB009000BFFEF7D4
:1029B000BDF900BF10480078401E0F490870084656
:1029C000007808B901F0EEF900BFFEF7C9F900BFC1
:1029D0000098FDF7D1FB00BF00BF00BFFEF798FED7
:1029E0000020208003E0FFE747F27E20208000BF28
:1029F00003E7000094000020E4000020846A00083F
:102A00003C01002010B586B000F01EF8FEF71CFA5D
:102A1000044605A800210091CDE901140390074860
:102A2000007800EB4000064A02EB800100231A46C2
:102A3000044800F0F9FA06B010BD0000CA000020FA
:102A4000ECA600205449434B10B50348006810B170
:102A500001480068804710BD8C00002010B500249C
:102A600000BF00BFFDF784FB044600BFFEF75EF920
:102A700000BF09480078401C0749087000BFFEF7F6
:102A80006FF900BF2046FDF777FB00BF00BFFFF7DF
:102A9000B9FFFEF7CBFD10BD9400002001464A1E91
:102AA0004FF0E0235A61084A106820F07F4000BFD1
:102AB00010601A46126942F005021A611A4612693C
:102AC00042F002021A61704720ED00E0254A2649D3
:102AD000264A274A2749284A2848294A294A2A4A69
:102AE0002A4A2B482B482C482C4A2D482D4A2E4840
:102AF0002E4A2F482F4830483048314A314A324A0E
:102B00003248334A334A34483448354835483648E1
:102B100036483748374A384A384A394A39483A48AD
:102B20003A483B4A3B4A3C4A3C483D483D483E497E
:102B30003E483F4A3F4A404A404A414A414A424A47
:102B40004248434A434A44484448454A454A46481D
:102B5000464A474A47484848484800BF00BF00BF68
:102B600070470000C86A0008306C0008C96A000895
:102B7000CA6A0008CC6A0008D06A0008D46A000853
:102B8000D16A0008FC6A0008FD6A0008FE6A0008B5
:102B9000006B0008026B0008046B0008066B00085D
:102BA000086B0008286B00082A6B00082C6B0008D3
:102BB0002E6B0008306B0008326B0008346B000885
:102BC000606B0008616B0008626B0008646B0008B2
:102BD000666B0008676B0008686B00086A6B00088A
:102BE0006C6B00086E6B0008706B0008726B00085D
:102BF000746B0008A46B0008A56B0008A66B0008A6
:102C0000A76B0008A86B0008AA6B0008AC6B000853
:102C1000D46B0008D56B0008D66B0008D76B000892
:102C2000D86B0008DA6B0008DC6B0008E06B00086A
:102C3000E16B0008E26B0008E36B0008E46B00083E
:102C4000E56B0008E66B0008E76B0008E86B00081E
:102C5000EA6B0008EB6B0008EC6B0008EE6B0008F9
:102C6000F06B0008F16B0008F46B0008286C00089A
:102C7000296C00082A6C00082C6C00082E6C0008D7
:102C80000021034A1160034A11800180704700004F
:102C9000B4000020B80000202DE9F04F85B00446B4
:102CA000894692469B46DDF838800020009000BFA0
:102CB00000BFFDF75DFA009000BFFEF737F800BFD8
:102CC000BAF1000F0AD0BAF1010F0DD0BAF5004FDA
:102CD00005D06FF40040504460B906E000BF206AA0
:102CE00040EA0900206216E000BF206A20EA0900DD
:102CF000206210E000BFFEF733F800BF0098FDF738
:102D00003BFA00BF00BF45F62560A8F80000002090
:102D100005B0BDE8F08F00BFC4F824B004F108008E
:102D200001900198008968B900BFFEF719F800BF4B
:102D30000098FDF721FA00BF00BF0020A8F80000AE
:102D4000206AE5E700BF71480078401C6F490870B1
:102D500008460078012801D101F016F800BFFDF700
:102D6000FFFF00BF0098FDF707FA00BF00BF00BFDC
:102D700001980768BD6889E07868029095F8880036
:102D800000F00F0003900398012821D002282ED0D4
:102D9000042802D0082836D10EE0206AD5F8801029
:102DA00000EA0106D5F88000B04204D15A46314607
:102DB000284600F0AFF863E0206AD5F8801000EAFA
:102DC000010626B15A463146284600F0A3F857E0DE
:102DD000D5F88000216A20EA0106D5F88000B042CB
:102DE00004D15A463146284600F094F848E0D5F818
:102DF0008000216A20EA010626B15A46314628465B
:102E000000F088F83CE000BF00BF00BFFDF7B0F95C
:102E1000009000BFFDF78AFF00BF3C480078401ECD
:102E20003A49087008460078D0B900F0BBFF38482E
:102E3000008800280BDD00BFFDF792FF00BF00985F
:102E4000FDF79AF900BF00BF00F070FF11E000BF6E
:102E5000FDF786FF00BF0098FDF78EF900BF08E080
:102E600000BFFDF77DFF00BF0098FDF785F900BFAB
:102E700000BF00BF43F6FF20A8F80000002047E78E
:102E800000BF029F0FB1BD6800E00025002D7FF458
:102E900073AF00BF00BF00BFFDF76AF9009000BF2D
:102EA000FDF744FF00BF19480078401E174908701D
:102EB0000846007808B900F075FF00BFFDF750FF25
:102EC00000BF0098FDF758F900BF00BF00BF0AF42B
:102ED000004008B9FEF71CFC00BF00BFFDF748F931
:102EE000009000BFFDF722FF00BF206A049000BFE2
:102EF000FDF736FF00BF0098FDF73EF900BF00BFA9
:102F00000020A8F80000049802E70000E400002078
:102F1000A800002070B504460E46154634342665D8
:102F2000002060702070E560A078343C082816D23C
:102F3000DFE800F0040508090706101100BF00BF14
:102F400000BF0DE000BF204601F0DEFC002084F849
:102F5000360005E000BF042084F8360000E000BF22
:102F600000BF204600F069FC70BD0000002400BFD7
:102F70001DE000BF00BFFDF7FBF8044600BFFDF7F2
:102F8000D5FE00BF0A480068401C0949086009488E
:102F90000068401C0749086000BFFDF7E1FE00BF64
:102FA0002046FDF7E9F800BF00BFFEF753FAE0E75F
:102FB00090000020FC00002010B58AB004460020DC
:102FC0000E4908600B2000210591CDE90704069108
:102FD00008460B4909680B4A12680B4B1B68CDE980
:102FE0000132CDE903101F200023084A08A10090F8
:102FF0000C48FEF7E1FD0AB010BD00009000002073
:103000002C6A0008286A0008246A00086D2F00084E
:1030100075432F4F532D4949492049646C6520540D
:1030200061736B0050A500202DE9F84F04460D4652
:1030300016461F46DDE90BABDDF82890DDF834803D
:103040000020009000BF00BFFDF792F8009000BF85
:10305000FDF76CFE00BF2C4800882C490988884287
:103060003EDA29480088401C274908802848008803
:103070000988884203DA24480088254908802548C1
:103080000068046023480068856022480068C660C4
:103090002048006807821F480068C0F814901D4847
:1030A0000068A0F818A01B480068C0F81CB01948B8
:1030B00000684068174908600120174908811748CF
:1030C00008604860002000F087FC1548007818B1BF
:1030D00013480078134908700020A8F8000008E0A1
:1030E00011480088401C1049088044F25360A8F839
:1030F000000000BFFDF734FE00BF0098FDF73CF86C
:1031000000BF00BFBDE8F88FA8000020386A0008A3
:10311000AA000020A0000020ECA6002018A6002095
:10312000CA000020CC000020AC0000203EB5594869
:1031300000680068584A811A904279D00FDC5749DC
:10314000084400283ED056490844A8B155490844CF
:10315000002860D05449084400286AD13FE0534811
:103160000844002850D052490844002862D05149F0
:1031700008440028F1D110E002A8464D00902D68C7
:10318000EB69444D2D682A8B424D2D686969414D8C
:103190002D68A868FFF780FD7AE002A93D48006825
:1031A000C0693C4DCDE900012D682B8B394D2D6850
:1031B0002A8A384D2D68E968364D2D68A86800F0D8
:1031C0003BFC65E0334B1B68DA69324B1B68198B9B
:1031D000304B1B68986802AB00F084FE58E002A9EF
:1031E0002C480068C0692B4DCDE900012D682B8B60
:1031F000284D2D682A8A274D2D68E968254D2D68B0
:10320000A86801F04BFA43E022490968886802A9DE
:1032100001F088FB3CE01F4B1B68DA691D4B1B6803
:10322000198B1C4B1B68986802AB01F045FC2FE022
:1032300007E02CE017490968886802A901F010FF2F
:1032400026E01D49097801EB41011C4A02EB81008F
:1032500000F0C6FD0F48006802AB0021C2691848A3
:1032600001F02AFC17480068401E1649086008460D
:10327000006858B9144800680860FDF7E5FD044689
:1032800002AB22460021114801F016FC00E000BF0D
:1032900000BF3EBDA40000205449434BADBAB2BEAE
:1032A0000DF90BFAF2F8F7FF0006F6FF00F7FDF74D
:1032B00000FFEFFF03FE0FFECC000020ECA6002075
:1032C00034A900203801002034010020FCA900208E
:1032D000002700BF56E0002652E000BF00BFFCF709
:1032E00047FF074600BFFDF721FD00BF26480088C5
:1032F00098B90020254908810860486000F07EFBED
:1033000000BFFDF72DFD00BF3846FCF735FF00BFBD
:1033100000BFFEF7FDF9012632E000BFFDF720FDFA
:1033200000BF3846FCF728FF00BF00BFFDF78CFD4B
:103330000546FFF7FBFEFDF787FD441B14480068B8
:10334000A04201D21248046000BF00BFFCF710FF8A
:10335000074600BFFDF7EAFC00BF0E480068406862
:103360000C49086008480088401E0749088000BFD3
:10337000FDF7F6FC00BF3846FCF7FEFE00BF00BFBD
:10338000002EAAD0A7E70000A8000020ECA600208D
:10339000B0000020A4000020F0B589B00546002050
:1033A000314908803148006820B944F252602880D1
:1033B00009B0F0BD2E480088022803DA44F25460B8
:1033C0002880F5E700202B49086028480468264635
:1033D000203600270CE0284820600020A060E06034
:1033E000208260612083666020342036781C87B29A
:1033F0001F4800888742EEDB203C1C480668666058
:103400001E4806601E48066000201E4908801E49AE
:1034100008801E48006818B944F255602880C7E744
:103420001B4800681B490968884203D244F2566071
:103430002880BDE7032000210591CDE9070506910D
:1034400013480068144A1268104B1B68CDE9030149
:10345000CDE9013200910B46104A11A11748FEF741
:10346000ABFB00BFA4E70000AC000020346A0008FA
:10347000386A0008B00000204E4F4E45A0000020E2
:10348000A4000020A8000020AA000020406A000834
:10349000486A0008806A0008446A0008D1320008BF
:1034A00075432F4F532D4949492049535220517597
:1034B000657565205461736B0000000018A600203C
:1034C0000021034A1160034A118001807047000007
:1034D000BC000020C000002070B501461A4D2D68C8
:1034E0001DB945F21E750D8070BD184D2D881DB992
:1034F00045F21D750D80F7E7134D28682A681032D4
:10350000124D2D886D1EACB2002308E0026000252C
:1035100045600581C560103010325D1CABB2A3421E
:10352000F4DB0025056045600581C560064D2D680A
:10353000074E3560054D2D88B5800025F580358115
:103540000D8000BFD0E70000646A00085C6A0008D4
:10355000E0A6002010B5014648894B89002B17DDF5
:103560000A680C4B1B6813600A4C4B6823602346A7
:10357000DB884C891B1B074CE38023469B884C89C6
:103580002344044CA38000234B818B810B604B6050
:1035900010BD0000E0A6002001810022428182814E
:1035A00002604260704700002DE9F0410D46DDE900
:1035B0000674B0F80AC0B0F80880C44505DB46F2CE
:1035C000935CA4F800C0BDE8F081DFF8DCC0BCF873
:1035D00004C0BCF1000F04D145F21D7CA4F800C06A
:1035E000F1E7DFF8C4C0DCF80010DFF8BC80D1F8E8
:1035F00000C0C8F800C0C446BCF804C0ACF1010C5F
:10360000A8F804C0C446BCF806C00CF1010CA8F828
:1036100006C0C446BCF808C0B8F80680C44507DA3E
:10362000DFF884C0BCF806C0DFF87C80A8F808C0CA
:10363000B0F80AC0BCF1000F0AD1016041604FF040
:10364000010CA0F80AC04FF0000CC1F800C017E050
:1036500003F0100CBCF1000F07D106683160016067
:103660004FF0000CC1F800C004E0D0F804C0C1F86D
:1036700000C04160B0F80AC00CF1010CA0F80AC00B
:10368000B0F80CC0B0F80A80C44503DAB0F80AC03C
:10369000A0F80CC04D600A81CF604FF0000CA4F878
:1036A00000C000BF8FE70000E0A600200021034A11
:1036B0001160034A1180018070470000C40000209F
:1036C000C80000202DE9F04105460C4616461F466D
:1036D0001548006880F8346000201349096881F8B3
:1036E000350039461048006800F00AFF6CB104F15B
:1036F0000808EC60012229460B48006800F016F823
:103700002946404600F066F806E0002006490968B0
:10371000C88705490968086303480168204600F026
:1037200019F8BDE8F08100003C01002010B5C28707
:10373000016300230AE000244C600C600C614C61C2
:103740000C83CC61886020315C1CA3B29342F2DB15
:1037500010BD000030B548B14568C1F8C45000F153
:103760000804226893681D6AC56113E091F834501B
:10377000022D02D0072D08D103E007A5C1F8C450DF
:1037800007E007A5C1F8C45003E008A5C1F8C4507C
:1037900000BF00BF30BD00005461736B20510000BA
:1037A0005461736B2053656D000000002000000021
:1037B00030B507A5C1F8C45000F1080422681AB159
:1037C00093681D6AC56101E001A5C56130BD0000B7
:1037D00020000000F0B58E6896F8375007893FB991
:1037E0000127078100274F600F600160416023E0DF
:1037F00007897F1C0781026806E0946894F8377097
:10380000AF4200DD02E05268002AF6D100BF32B9B3
:1038100000274F6043680B60596041600CE01768F7
:103820002FB9116000270F604A60016004E013683F
:103830000B604A6059601160F0BD2DE9F04104460B
:10384000256BE68F0AE0D5F80C8008F108072946B9
:10385000384600F00AF82035701E86B2002EF2DCE1
:103860000020E0872063BDE8F08110B50489012CB9
:1038700003D100240460446011E00C6824B94A6854
:103880000024146002600AE04C6824B90B6800242C
:103890005C60436003E00B684A685A601360048907
:1038A000641E048100244C600C6010BD2DE9F843B7
:1038B00006460C4617469846089D94F83600082898
:1038C00050D2DFE800F00405080906072B2C00BFE2
:1038D00000BF00BF47E000BF94F83400032807D1C1
:1038E00043463A4621463046009500F03FF803E053
:1038F000E765A4F86080256436B12046FFF79DFF98
:1039000021463046FFF754FF204600F0FDFF00201F
:103910003434A070607004F8340924E000BF94F8D7
:103920003400032807D143463A46214630460095E5
:1039300000F01CF803E0E765A4F8608025642046E9
:1039400001F048FD36B12046FFF777FF21463046AB
:10395000FFF72EFF04203434A0700020607004F8BC
:10396000340900E000BF00BFBDE8F883F0B50446AD
:10397000059E086BCD8F0AE0C768A74204D1046199
:1039800042610383C66104E020306F1EBDB2002D8A
:10399000F2DC00BFF0BD000070B50025074C03E06D
:1039A00005F12000C5B2241D20680028F8D0206849
:1039B000FCF7E9FB2844C5B2284670BD7000002022
:1039C000002004E00021034A42F82010401C002897
:1039D000F8D070477000002030B5420900F01F0396
:1039E0000121C3F11F04A140034C54F822400C43B1
:1039F000014D45F8224030BD7000002030B542092D
:103A000000F01F030121C3F11F04A140034C54F82F
:103A100022408C43014D45F8224030BD700000200B
:103A20000021034A1160034A1180018070470000A1
:103A3000D0000020D40000202DE9F04F85B00746CB
:103A40008A4693461C460020029000BF00BF00BF7C
:103A5000FCF78EFB029000BFFDF768F900BF5648E7
:103A60000078401C5449087008460078012801D1AC
:103A700000F08AF900BFFDF773F900BF0298FCF768
:103A80007BFB00BF00BF00BF07F10806308900289C
:103A90004CD104F0100010B94FF0000801E04FF0D5
:103AA0001008DDE90E0143465A46CDE900015146B2
:103AB00007F12000FFF778FD00BF00BF00BFFCF753
:103AC00057FB029000BFFDF731F900BF3A4800787C
:103AD000401E3949087008460078D0B900F062F9F4
:103AE0003648008800280BDD00BFFDF739F900BF1C
:103AF0000298FCF741FB00BF00BF00F017F911E08E
:103B000000BFFDF72DF900BF0298FCF735FB00BFA1
:103B100008E000BFFDF724F900BF0298FCF72CFB7A
:103B200000BF00BF00BF05B0BDE8F08F04F4007017
:103B300008B1358900E00125D6F8009011E0D9F8E8
:103B400008000390D9F8040004900E985B46524692
:103B5000009038460399FFF7A9FEDDF81090681E23
:103B600085B2002DEBD100BF00BF00BFFCF700FB0A
:103B7000029000BFFDF7DAF800BF0F480078401E42
:103B80000D4908700846007808B900F00BF900BF2D
:103B9000FDF7E6F800BF0298FCF7EEFA00BF00BFA1
:103BA00000BF04F4004008B9FDF7B2FD00210F98F2
:103BB000018000BFB7E70000E4000020A80000205B
:103BC00000210AE001EB4102054B03EB82000022D9
:103BD0000281026042604A1CD1B22029F2D37047B0
:103BE000ECA6002010B5044694F83700FFF7F4FE69
:103BF00094F8370005490978884203D1204600F03F
:103C000027F802E0204600F003F810BDCA000020AB
:103C100010B590F8373003EB43030C4C04EB8301F1
:103C20000B893BB901230B810023C360036108604A
:103C3000486009E00B895B1C0B810B68C3600023A3
:103C400003610A681061086010BD0000ECA6002046
:103C500010B590F8373003EB43030B4C04EB8301B2
:103C60000B893BB901230B810023C360036108600A
:103C7000486008E00B895B1C0B810023C3604A6825
:103C80000261D060486010BDECA6002010B501466E
:103C90000C8924B1012C03D0022C0CD101E000BF0F
:103CA00014E008684A6802610024C4601461D060AE
:103CB0000A6048600AE008684A68C36800241C611A
:103CC000C4600261D0600B60486000BF00BF10BDDF
:103CD0002DE9F041054695F8370000EB4000124908
:103CE00001EB80042F69EE6887B946B90020208176
:103CF0002060606095F83700FFF780FE0EE02089B5
:103D0000401E208100203061266007E02089401E8F
:103D10002081FE600EB9676000E0376100202861F5
:103D2000E860BDE8F0810000ECA6002010B500249A
:103D300000BFFCF71DFA044600BF00200D490870C3
:103D40000D480E49086008460068D0F89000401CF5
:103D50000968C1F890000A480068401C08490860DA
:103D60004FF080500749086000BF2046FCF704FA76
:103D700000BF10BDCB00002018A60020400100208D
:103D80001001002004ED00E010B50448007801287F
:103D900003D1FDF759F80249086010BDE400002086
:103DA000D800002010B50A48007880B9FDF74CF81B
:103DB00008490968441A08480068A04201D2064828
:103DC000046006480068A04201D20448046010BDA7
:103DD000E4000020D8000020DC000020E0000020EB
:103DE00070B50546002635480078012800D070BD22
:103DF00000BF00BFFCF7BCF9064600BFFCF796FF0A
:103E000000BF2C684CB900BFFCF7AAFF00BF3046CA
:103E1000FCF7B2F900BF00BFE9E72948844209D1A5
:103E200000BFFCF79DFF00BF3046FCF7A5F900BFBF
:103E300000BFDCE7A06D10B1A06D401EA065A06DB5
:103E400048B100BFFCF78CFF00BF3046FCF794F987
:103E500000BF00BFCBE72889022809DA00BFFCF7C2
:103E60007FFF00BF3046FCF787F900BF00BFBEE709
:103E700014480078002809DD00BFFCF771FF00BF7F
:103E80003046FCF779F900BF00BFB0E72846FFF7DE
:103E9000FDFE2C68606D18B90B480068A06501E054
:103EA000606DA06500BFFCF75BFF00BF3046FCF70C
:103EB00063F900BF00BF00BF99E70000EC000020DD
:103EC00050A50020E4000020E80000200021034A63
:103ED0001160034A1180018070470000F00000204B
:103EE000F40000202DE9FF5F0446884691461D46F8
:103EF0000020019000BF00BFFCF73AF9019000BF1D
:103F0000FCF714FF00BF04F108073889002857D1D7
:103F10000420012804D0022816D004283AD127E032
:103F2000206AFF280FD100BFFCF71AFF00BF0198DD
:103F3000FCF722F900BF00BF46F6C55028800020DC
:103F400004B0BDE8F09F26E04FF6FF71206A88427A
:103F50000DD100BFFCF704FF00BF0198FCF70CF97E
:103F600000BF00BF46F6C55028800020E8E712E0F9
:103F7000206A401C68B900BFFCF7F2FE00BF019840
:103F8000FCF7FAF800BF00BF46F6C55028800020B5
:103F9000D6E700E000BF00BF206A401C2062D4F8D2
:103FA00020A0C4F8249000BFFCF7DAFE00BF0198FF
:103FB000FCF7E2F800BF00BF002028805046BFE7B2
:103FC00000BF2D480078401C2B4908700846007837
:103FD000012801D1FFF7D8FE00BFFCF7C1FE00BFEA
:103FE0000198FCF7C9F800BF00BF00BF08F40070DB
:103FF00008B13E8900E00126D7F800B011E0DBF8F7
:1040000008000290DBF80400039000231A46CDF864
:10401000009020460299FFF749FCDDF80CB0701EB5
:1040200086B2002EEBD1D4F820A000BF00BF00BFA5
:10403000FCF79EF8019000BFFCF778FE00BF0E4829
:104040000078401E0C4908700846007808B9FFF750
:10405000A9FE00BFFCF784FE00BF0198FCF78CF8B6
:1040600000BF00BF00BF08F4004008B9FDF750FBD7
:1040700000202880504663E7E400002086B000203E
:10408000009000BF06E0D9490968480001AA002154
:10409000FEF7FAFAD64800780128F4D101A8FDF716
:1040A0004DFC0027D3480068D0490968884205D9EB
:1040B000D0480068CD490968B0FBF1F727B9CD4871
:1040C00000680A21B0FBF1F78EE1FCF7BDFE8246E5
:1040D000FCF716FEC849086000BF00BFFCF748F8AF
:1040E000009000BFFCF722FE00BFC4480068C4492E
:1040F00008600020C149086000BFFCF731FE00BF26
:104100000098FCF739F800BF00BFBE480068BC4902
:104110000968884248D9BB480068BB49884205D233
:1041200042F2107003900120029023E0B54800682D
:10413000B649884205D24FF47A7003900A20029063
:1041400018E0B0480068B249884203D26420039066
:1041500002900FE0AB480068AE49884205D20A20C1
:1041600003904FF47A70029004E00120039042F231
:1041700010700290A34801680298B1FBF0F9A049C1
:10418000039809684843B0FBF9F042F21071081A2D
:10419000A1490880A14800880988884208DA9E4819
:1041A00000889E49088003E042F210709A49088016
:1041B000FDF7F8FC002500BF00BFFBF7D9FF00901A
:1041C00000BFFCF7B3FD00BF9548046800BFFCF7D3
:1041D000C7FD00BF0098FBF7CFFF00BF00BF72E034
:1041E00000BF00BF00BFFBF7C3FF009000BFFCF79C
:1041F0009DFD00BF8B480078401C8A490870084626
:104200000078012801D1FFF7BFFD00BFFCF7A8FD32
:1042100000BF0098FBF7B0FF00BF00BF00BF54F81D
:104220009C0F6060002044F89C0900BF00BF00BFE5
:10423000FBF79EFF009000BFFCF778FD00BF7948B8
:104240000078401E7749087008460078D0B9FFF71B
:10425000A9FD7548008800280BDD00BFFCF780FD34
:1042600000BF0098FBF788FF00BF00BFFFF75EFDAF
:1042700011E000BFFCF774FD00BF0098FBF77CFF66
:1042800000BF08E000BFFCF76BFD00BF0098FBF724
:1042900073FF00BF00BF00BFD4F8A000054400BFFB
:1042A00000BFFBF765FF009000BFFCF73FFD00BFBC
:1042B000D4F8C04000BFFCF753FD00BF0098FBF7E7
:1042C0005BFF00BF00BF002C8AD145B34E4885423A
:1042D00005D242F2107005904FF0010B1BE04B48E5
:1042E000854205D24FF47A7005904FF00A0B12E028
:1042F0004748854203D26420059083460BE0454839
:10430000854204D20A2005904FF47A7B03E0012015
:10431000059042F2107BB5FBFBF0049003E0002017
:1043200005900120049000BF00BFFBF721FF009023
:1043300000BFFCF7FBFC00BF3948046800BFFCF776
:104340000FFD00BF0098FBF717FF00BF00BF2FE075
:10435000D4F8A000059948430499B0FBF1F086B267
:1043600042F21070864200D90646A4F88C60B4F878
:104370008E00B04201DAA4F88E6001AB04F1AC0209
:10438000111D2046FEF72CF800BF00BFFBF7F0FE22
:10439000009000BFFCF7CAFC00BFD4F8C04000BFCB
:1043A000FCF7DEFC00BF0098FBF7E6FE00BF00BF95
:1043B000002CCDD11D480078012805D100201B49D3
:1043C000087001A8FDF7BAFAFCF73EFDA0EB0A0859
:1043D00017480068404502D21548C0F8008001AA7D
:1043E00000213846FEF750F96FE600006C6A0008BD
:1043F00008010020846A000898000020FC000020CA
:104400000401002000010020801A060000093D0080
:10441000005A62020084D717F8000020FA0000203A
:1044200014010020E4000020A8000020F600002075
:104430000C01002010B58AB0044600201F49086016
:104440001F4908601F4908601F4908701F4908700C
:104450001F48006820B946F62B6020800AB010BDC6
:104460001C4800681C490968884203D246F62C6043
:104470002080F3E7194800781F2803D346F62A6006
:104480002080EBE7032000210591CDE90704069188
:10449000084610490968124A12680D4B1B68CDE99D
:1044A0000132CDE903100D48007800230D4A0EA11A
:1044B00000901248FDF780FB00BFCFE7FC00002012
:1044C000040100200001002008010020F600002067
:1044D000706A0008786A0008806A0008686A000844
:1044E000746A00087D40000875432F4F532D4949D9
:1044F000492053746174205461736B006CA80020D0
:1045000038B504460D4685B16B4602222946204641
:1045100000F082FEBDF8000018B9032084F83600D0
:1045200006E0022084F8360002E0022084F836001B
:104530002046FFF7CDFB38BD0021C0F8BC1009496B
:10454000096819B90021C0F8C01007E005490968D9
:10455000C0F8C01003490968C1F8BC0001490860EF
:104560007047000014010020D0F8BC20D0F8C01023
:104570004AB90D4B196011B10023C1F8BC300023BA
:10458000C0F8C0300FE029B90023C2F8C030C0F82D
:10459000BC3008E0C2F8C010C1F8BC200023C0F84D
:1045A000C030C0F8BC307047140100200021044A1C
:1045B0001160044A1180044A1160018070470000B4
:1045C00014010020180100201001002070B50446DD
:1045D00000202060A0606060E06020616061A061F8
:1045E000E0612BA0206200206062A062E062206394
:1045F000E0872064E065A4F86000002104F1640015
:10460000FEF7CAFF002044F8740F6060E060A082EB
:104610002061743C002506E0002104F17C0040F894
:104620002510681CC5B2002DF6D00020343420615E
:1046300020676067606084F85600E067A0672081AB
:104640004FF0004060610020A061E0612062606284
:10465000A4F85800A4F85A00E0652066FCF7F4FBC3
:10466000064666660020A066C4F88000C4F8840090
:1046700020706070A0702020E0700020C4F88800D6
:10468000C4F88C0004A0C4F89000343C70BD000055
:104690003F5461736B000000200000002DE9FC47CF
:1046A00004460F4690469946DDE90A654FF0000A38
:1046B00000BF00BF00BFFBF75BFD824600BFFCF7F9
:1046C00035FB00BF8D480078401C8C4908700846B7
:1046D0000078012801D1FFF757FB00BFFCF740FB32
:1046E00000BF5046FBF748FD00BF00BF00BF0CB93C
:1046F000834804680020288094F8360008287CD27B
:10470000DFE800F00405484906074A4B00BF00BF38
:1047100000BF4B464246394604F16400CDE90065CE
:10472000FEF742FF00BF00BF00BFFBF721FD82463E
:1047300000BFFCF7FBFA00BF70480078401E6F49CD
:10474000087008460078D0B9FFF72CFB6D48008848
:1047500000280BDD00BFFCF703FB00BF5046FBF752
:104760000BFD00BF00BFFFF7E1FA11E000BFFCF74F
:10477000F7FA00BF5046FBF7FFFC00BF08E000BFA0
:10478000FCF7EEFA00BF5046FBF7F6FC00BF00BF97
:1047900000BFAFE000BF00BF00BF94F834000228A4
:1047A0002CD143463A46214600200096FFF77EF87A
:1047B00000BF00BF00BFFBF7DBFC824600BFFCF779
:1047C000B5FA00BF4D480078401E4C4908700846B5
:1047D000007808B9FFF7E6FA00BFFCF7C1FA00BF9E
:1047E0005046FBF7C9FC00BF00BF00BF09F4004002
:1047F000002843D1FCF78CFF40E040E04B464246A6
:10480000394604F16400CDE90065FEF7CDFE00BF36
:1048100000BF00BFFBF7ACFC824600BFFCF786FA86
:1048200000BF36480078401E3449087008460078BA
:10483000D0B9FFF7B7FA3348008800280BDD00BF76
:10484000FCF78EFA00BF5046FBF796FC00BF00BF96
:10485000FFF76CFA11E000BFFCF782FA00BF504688
:10486000FBF78AFC00BF08E000BFFCF779FA00BF45
:104870005046FBF781FC00BF00BF00BF3AE000BF1D
:1048800000BF00BFFBF774FC824600BFFCF74EFA86
:1048900000BF1A480078401E184908700846007882
:1048A000D0B9FFF77FFA1748008800280BDD00BF5A
:1048B000FCF756FA00BF5046FBF75EFC00BF00BF96
:1048C000FFF734FA11E000BFFCF74AFA00BF504688
:1048D000FBF752FC00BF08E000BFFCF741FA00BF45
:1048E0005046FBF749FC00BF00BF00BF46F62D60F5
:1048F000288000BF00BFBDE8FC870000E400002066
:104900003C010020A800002010B50446204600F01D
:1049100061FD94F8360000F0040010B92046FFF75E
:1049200061F910BD70B504460D46002600BF00BFFA
:10493000FBF71EFC064600BFFCF7F8F900BF00209D
:10494000288094F8360008287ED2DFE800F00405BD
:10495000060714566A8000BF00BF00BF00BFFCF707
:10496000FFF900BF3046FBF707FC00BF00BF47F26E
:10497000531028808CE000BF48480078401C47490D
:10498000087008460078012801D1FFF7FDF900BF43
:10499000FCF7E6F900BF3046FBF7EEFB00BF00BFB7
:1049A00000BF14F88A0F401E207014F88A0928B935
:1049B000002084F836002046FFF7A6FF00BF00BFA6
:1049C00000BFFBF7D5FB064600BFFCF7AFF900BF01
:1049D00032480078401E314908700846007808B90E
:1049E000FFF7E0F900BFFCF7BBF900BF3046FBF76B
:1049F000C3FB00BF00BF00BF4AE014F88A0F401E8F
:104A0000207014F88A0910B9012084F8360000BF1C
:104A1000FCF7A6F900BF3046FBF7AEFB00BF00BFB6
:104A200036E014F88A0F401E207014F88A0910B975
:104A3000022084F8360000BFFCF792F900BF304630
:104A4000FBF79AFB00BF00E015E000BF20E014F880
:104A50008A0F401E207014F88A0910B9032084F8C8
:104A6000360000BFFCF77CF900BF3046FBF784FB43
:104A700000BF00BF0CE000BFFCF772F900BF30467A
:104A8000FBF77AFB00BF00BF46F62D60288070BDA3
:104A900000BFFCF73DFE00BFF9E70000E400002086
:104AA00008B504480068FDF731FB69460020FDF7B2
:104AB000D9F908BD3C0100202DE9F8430446884699
:104AC00017461D464FF0000900BF00BF00BFFBF7AF
:104AD0004FFB814600BFFCF729F900BFFB48007877
:104AE000401CFA49087008460078012801D1FFF7F8
:104AF0004BF900BFFCF734F900BF4846FBF73CFB1D
:104B000000BF00BF00BF0CB9F14804682764002053
:104B1000288094F8360008287AD2DFE800F00405EF
:104B2000FEFD0607FCFB00BF00BF00BF04200128FC
:104B300004D0022843D004286BD184E0606CFF28A5
:104B40003CD100BF00BF00BFFBF712FB814600BF96
:104B5000FCF7ECF800BFDD480078401EDB49087028
:104B600008460078D0B9FFF71DF9DA480088002818
:104B70000BDD00BFFCF7F4F800BF4846FBF7FCFA7A
:104B800000BF00BFFFF7D2F811E000BFFCF7E8F864
:104B900000BF4846FBF7F0FA00BF08E000BFFCF793
:104BA000DFF800BF4846FBF7E7FA00BF00BF00BFD1
:104BB00046F6C55028800020BDE8F88385E04FF612
:104BC000FF71606C88423DD100BF00BF00BFFBF7A2
:104BD000CFFA814600BFFCF7A9F800BFBB480078B8
:104BE000401EBA49087008460078E0B9FFF7DAF8C5
:104BF000B848008800280DDD00BFFCF7B1F800BF01
:104C00004846FBF7B9FA00BF00BFFFF78FF813E083
:104C1000E2E159E000BFFCF7A3F800BF4846FBF70C
:104C2000ABFA00BF08E000BFFCF79AF800BF4846A7
:104C3000FBF7A2FA00BF00BF00BF46F6C5502880B0
:104C40000020B9E741E0606C401CD8BB00BF00BF4A
:104C500000BFFBF78DFA814600BFFCF767F800BF85
:104C60009A480078401E9949087008460078D0B9E3
:104C7000FFF798F89748008800280BDD00BFFCF785
:104C80006FF800BF4846FBF777FA00BF00BFFFF799
:104C90004DF811E000BFFCF763F800BF4846FBF792
:104CA0006BFA00BF08E000BFFCF75AF800BF4846A7
:104CB000FBF762FA00BF00BF00BF46F6C550288070
:104CC000002079E7FFE700E000BF00BF606C401CF8
:104CD0006064666C00BF00BF00BFFBF749FA814605
:104CE00000BFFCF723F800BF78480078401E7749E2
:104CF000087008460078F8B9FFF754F8754800883E
:104D0000002810DD00BFFCF72BF800BF4846FBF77A
:104D100033FA03E01EE01CE01AE018E000BF00BF19
:104D2000FFF704F811E000BFFCF71AF800BF48468F
:104D3000FBF722FA00BF08E000BFFCF711F800BF44
:104D40004846FBF719FA00BF00BF00BF80E100BF73
:104D500000BF00BF94F8340007282CD100231A4666
:104D6000214618460097FEF7A1FD666C00BF00BF04
:104D700000BFFBF7FDF9814600BFFBF7D7FF00BF7F
:104D800052480078401E514908700846007808B91A
:104D9000FFF708F800BFFBF7E3FF00BF4846FBF74B
:104DA000EBF900BF00BF00BF08F40040002801D1AC
:104DB000FCF7AEFC0FE10420012804D0022842D009
:104DC000042872D189E0606CFF283BD100BF00BF8E
:104DD00000BFFBF7CDF9814600BFFBF7A7FF00BF7F
:104DE0003A480078401E3949087008460078D0B922
:104DF000FEF7D8FF3748008800280BDD00BFFBF71F
:104E0000AFFF00BF4846FBF7B7F900BF00BFFEF792
:104E10008DFF11E000BFFBF7A3FF00BF4846FBF783
:104E2000ABF900BF08E000BFFBF79AFF00BF4846A0
:104E3000FBF7A2F900BF00BF00BF46F6C5502880AF
:104E40000020B9E68BE04FF6FF71606C884243D1D9
:104E500000BF00BF00BFFBF78BF9814600BFFBF727
:104E600065FF00BF19480078401E184908700846C1
:104E70000078D8B9FEF796FF1648008800280BDDA9
:104E800000BFFBF76DFF00BF4846FBF775F900BF99
:104E900000BFFEF74BFF12E000BFFBF761FF00BF52
:104EA0004846FBF769F900BF09E057E000BFFBF790
:104EB00057FF00BF4846FBF75FF900BF00BF00BFC8
:104EC00046F6C5502880002076E60000E400002069
:104ED0003C010020A800002041E0606C401CD8BBD1
:104EE00000BF00BF00BFFBF743F9814600BFFBF7DF
:104EF0001DFF00BF58480078401E574908700846FB
:104F00000078D0B9FEF74EFF5448008800280BDD2A
:104F100000BFFBF725FF00BF4846FBF72DF900BF98
:104F200000BFFEF703FF11E000BFFBF719FF00BF52
:104F30004846FBF721F900BF08E000BFFBF710FF70
:104F400000BF4846FBF718F900BF00BF00BF46F698
:104F5000C550288000202FE6FFE700E000BF00BF1B
:104F6000606C401C6064666C00BF00BF00BFFBF754
:104F7000FFF8814600BFFBF7D9FE00BF3648007836
:104F8000401E3549087008460078D0B9FEF70AFF80
:104F90003248008800280BDD00BFFBF7E1FE00BFB0
:104FA0004846FBF7E9F800BF00BFFEF7BFFE11E07F
:104FB00000BFFBF7D5FE00BF4846FBF7DDF800BF9A
:104FC00008E000BFFBF7CCFE00BF4846FBF7D4F873
:104FD00000BF00BF00BF3BE000BF00BF00BFFBF74A
:104FE000C7F8814600BFFBF7A1FE00BF1A48007852
:104FF000401E1949087008460078D0B9FEF7D2FE65
:105000001648008800280BDD00BFFBF7A9FE00BF93
:105010004846FBF7B1F800BF00BFFEF787FE11E07E
:1050200000BFFBF79DFE00BF4846FBF7A5F800BF99
:1050300008E000BFFBF794FE00BF4846FBF79CF872
:1050400000BF00BF00BF46F62D602880002600BFCD
:1050500000BF3046B0E50000E4000020A8000020BA
:1050600070B504460D46002600BF00BFFBF780F870
:10507000064600BFFBF75AFE00BF0CB95A48046849
:1050800059480068844210D15848007800280CDD47
:1050900000BFFBF765FE00BF3046FBF76DF800BFB1
:1050A00000BF46F66350288070BD0020288094F829
:1050B0003600082873D2DFE800F0044252627374AD
:1050C000757600BF49480078401C4849087008467A
:1050D0000078012801D1FEF757FE00BFFBF740FE24
:1050E00000BF3046FBF748F800BF00BF00BF0420F8
:1050F00084F83600012084F88A002046FEF7E8FD97
:1051000000BF00BF00BFFBF733F8064600BFFBF748
:105110000DFE00BF35480078401E3449087008462F
:10512000007808B9FEF73EFE00BFFBF719FE00BF8E
:105130003046FBF721F800BF00BF00BF4FE005205D
:1051400084F83600012084F88A0000BFFBF708FECF
:1051500000BF3046FBF710F800BF00BF3FE006205D
:1051600084F83600012084F88A0000BFFBF7F8FDC0
:1051700000BF3046FBF700F800BF00BF2FE007205C
:1051800084F83600012084F88A0000BFFBF7E8FDB0
:1051900000BF3046FAF7F0FF00BF00BF1FE011E08C
:1051A00000BF00BF00BF94F88A00401C84F88A004A
:1051B00000BFFBF7D5FD00BF3046FAF7DDFF00BFAB
:1051C00000BF0CE000BFFBF7CBFD00BF3046FAF795
:1051D000D3FF00BF00BF46F62D60288064E700BF04
:1051E000FCF796FA00BF5FE73C010020E4000020D6
:1051F000002108E0064A02EBC10000220260828022
:10520000C2804A1C91B2034A12889142F2DB704775
:1052100040A200209C6A00082DE9F04F0C4616467B
:105220001D46042E1ED1DFF8A091D9F80090A4EB02
:105230000909A9F1010313F5803F0DD94FF00009C9
:10524000C0F84C90C0F85090C0F81C9047F27E29EE
:10525000A5F80090BDE8F08FC46403F10109C0F81F
:1052600050903FE084B3082E25D1D0F8489009EB48
:105270000407DFF85491D9F80090A7EB0909A9F1C8
:105280000103A34201D2C76406E0DFF83C91D9F8DC
:105290000090A144C0F84C90DFF82CA1D0F84C90BD
:1052A000DAF800A0A9EB0A09C0F85090D0F84C90A9
:1052B000C0F8489016E0DFF81091D9F80090A144AA
:1052C000C0F84C9004650DE0FFE74FF00009C0F80E
:1052D0004C90C0F85090C0F81C9047F27E29A5F879
:1052E0000090B7E7DFF8E4A0BAF800A0D0F84C903F
:1052F000B9FBFAFB0AFB1B991FFA89F8DFF8D0907B
:1053000009EBC802B2F80490B9F1000F0BD14FF0CD
:105310000009C0F81490C0F8189010604FF001090F
:10532000A2F804903EE0116834E0DFF89CA0D1F8C8
:105330004C90DAF800A0A9EB0A09C1F85090D0F817
:105340005090D1F850A0D1450ED9D1F81490B9F1B0
:10535000000F01D049691DE04FF00009C0F814901A
:1053600081614861002115E0D1F81890B9F1000F72
:1053700007D14FF00009C0F81890416188611060B2
:1053800007E0D1F818C0C0F818C04161CCF814008B
:10539000886100210029C8D1B2F8049009F10109FF
:1053A000A2F80490B2F80690B2F804A0D14503DA4E
:1053B000B2F80490A2F80690C2614FF00009A5F877
:1053C000009000BF46E700001C0100209C6A000816
:1053D00040A2002010B5C269BAB100240465146867
:1053E000844205D14169116039B100248C6104E027
:1053F000816943694B6103B199610024446184610F
:10540000C461C4649488641E948010BD002006E0CA
:10541000054A02EBC0010022CA80421C90B2034A36
:1054200012889042F4DB704740A200209C6A00087A
:105430002DE9F05F4FF0000B00BF00BF00BFFAF78F
:1054400097FE834600BFFBF771FC00BF7A480078E7
:10545000401C7949087008460078012801D1FEF700
:1054600093FC00BFFBF77CFC00BF5846FAF784FEB4
:1054700000BF00BF00BFFBF7E7FC05466F480068B0
:10548000401C6E490860084600686D490988B0FBF9
:10549000F1F201FB12001FFA80FA6A4800EBCA0819
:1054A000D8F80040002782E0002C7FD0D4F8149078
:1054B00094F83600082875D2DFE800F00408051BD0
:1054C000063D075000BF00BF00BF6CE05B49E06CC9
:1054D0000968401A20655949E06C0968884206D17C
:1054E000002084F836002046FFF70EFA00E001277E
:1054F00059E05249E06C0968401A20654F49E06C58
:105500000968884215D10020E065A4F86000FBF727
:105510009BFC20642046FEF790F92046FFF7F4F943
:1055200000203434A07003206070002004F8340997
:1055300000E0012737E04149E06C0968401A206526
:105540003E49E06C0968884206D1042084F83600A0
:105550002046FFF73FFF00E0012724E03749E06CD9
:105560000968401A20653549E06C0968884217D1FE
:105570000020E065A4F86000FBF766FC206420468C
:10558000FEF75BF92046FFF725FF04203434A070B6
:1055900003206070002004F8340902E006E001E016
:1055A000012700E000BF00BF4C4600E00127002FAC
:1055B0003FF47AAFFBF748FC461B23480068B04233
:1055C00001D22148066000BF00BF00BFFAF7D0FD3E
:1055D000834600BFFBF7AAFB00BF17480078401EB8
:1055E0001549087008460078D0B9FEF7DBFB17486C
:1055F000008800280BDD00BFFBF7B2FB00BF584658
:10560000FAF7BAFD00BF00BFFEF790FB11E000BF44
:10561000FBF7A6FB00BF5846FAF7AEFD00BF08E057
:1056200000BFFBF79DFB00BF5846FAF7A5FD00BF82
:1056300000BF00BFBDE8F09FE40000201C01002077
:105640009C6A000840A2002020010020A800002041
:105650001CB500BF0EE001AB6A4600210846FCF70E
:1056600061FDBDF8040028B903480078012801D184
:10567000FFF7DEFEEFE700009C00002010B58AB0C7
:10568000044600201D4908601D490860FFF7B0FD71
:105690001C48006820B947F2122020800AB010BDD3
:1056A0001948006819490968884203D247F2132053
:1056B0002080F3E7164800781F2803D347F2112013
:1056C0002080EBE70B20002105910A46CDE9070475
:1056D00006910D4800680F4909680A4B1B68CDE91F
:1056E0000131CDE903020A48007800230A4A0BA1E0
:1056F00000900F48FCF760FA00BFCFE71C010020C4
:10570000200100208C6A0008946A0008806A000862
:10571000886A0008906A00085156000875432F4FA8
:10572000532D494949205469636B205461736B00C0
:1057300034A9002070B58AB00446002031490860C1
:105740003148006840B1314800682F490968B0FB12
:10575000F1F02F49086006E02C4800680A21B0FBF0
:10576000F1F02B4908602A4800682A4908600020A7
:105770002949086029490860002508E0284800EB0D
:10578000C5060020B080F0803060681C85B22548D6
:1057900000888542F2DB2448006820B947F2473090
:1057A00020800AB070BD21480068214909688842FC
:1057B00003D247F248302080F3E71E4800781F28C4
:1057C00003D347F246302080EBE70B200021059100
:1057D000CDE907040691084614490968164A12687B
:1057E000114B1B68CDE90132CDE903101148007857
:1057F0000023124A12A100901748FCF7DDF900BF00
:10580000CFE7000024010020A86A0008846A00088D
:105810003401002038010020300100202C0100203C
:10582000C8A40020BC6A0008AC6A0008B46A00087A
:10583000806A0008A46A0008B06A0008515900088C
:1058400075432F4F532D4949492054696D65722086
:105850005461736B00000000FCA90020F0B50C46F9
:10586000022680F82A60012C05D12D4F466A3F6838
:105870003E4486610CE0066A2EB9294F466A3F68AD
:105880003E44866104E0264F066A3F683E448661D6
:10589000244F3F888669B6FBF7FC07FB1C66B5B250
:1058A000214E06EBC502166836B900260661466130
:1058B0001060012696802CE0194F86693F68F61B20
:1058C000C661116820E0164F8E693F68F61BCE61F5
:1058D000C669CF69BE4209D90E690EB1096913E0E4
:1058E000002606614161086100210DE04E692EB974
:1058F0000026466101614861106004E04B69436124
:1059000001611861486100210029DCD19688761C6C
:105910009680D6889788BE4201DA9688D680F0BDF8
:1059200030010020BC6A0008C8A40020002006E066
:10593000054A02EBC0010022CA80421C90B2034A11
:1059400012889042F4DB7047C8A40020BC6A0008AB
:105950001CB500BF53E001AB6A4600210846FCF7C6
:10596000E1FB01A8FBF728FFFBF76EFA0646244887
:105970000068401C224908600846006821490988DF
:10598000B0FBF1F201FB12001FFA80FA1E4800EB97
:10599000CA08D8F800404FF0000B21E0F4B1D4F869
:1059A00010901749A0690968884214D1204600F078
:1059B0002FF8208D022804D101212046FFF74EFF49
:1059C00002E0032084F82A00A56815B12046E168AA
:1059D000A8474C4604E04FF0010B01E04FF0010BEB
:1059E000BBF1000FDAD0FBF72FFA871B01A8FBF7FA
:1059F00021FF06480068B84201D204480760AAE7C0
:105A000030010020BC6A0008C8A400202C0100203E
:105A1000F0B5114E36888569B5FBF6F706FB1755CC
:105A2000ACB20E4D05EBC4021568854205D1016983
:105A3000116039B100254D6104E0416903690B61D2
:105A400003B15961012580F82A500025056145619F
:105A500095886D1E9580F0BDBC6A0008C8A4002022
:105A600029B1064AD2690243044BDA6104E0034AD1
:105A7000D2698243014BDA61704700000010024096
:105A800029B1064A92690243044B9A6104E0034A31
:105A900092698243014B9A617047000000100240F6
:105AA00030B500210022002400232D4D6D6805F043
:105AB0000C0121B1042905D0082923D105E0294D85
:105AC000056022E0274D05601FE0254D6D6805F457
:105AD0007012234D6D6805F48034022505EB924267
