:020000040800F2
:100000002878002045010008970B000865090008C2
:10001000D50A00082906000875290008000000001C
:10002000000000000000000000000000192500088A
:10003000ED06000800000000E7010008AD1B000805
:100040005F0100085F0100085F0100085F01000810
:100050005F0100085F0100085F0100085F01000800
:100060005F0100085F0100085F0100085F010008F0
:100070005F0100085F0100085F0100085F010008E0
:100080005F0100085F0100085F0100085F010008D0
:100090005F0100085F0100085F0100085F010008C0
:1000A0005F0100085F0100085F0100085F010008B0
:1000B000652600085F0100085F0100085F01000875
:1000C0005F0100085F0100085F0100085F01000890
:1000D0005F0100085F0100085F0100085F01000880
:1000E0005F0100085F0100085F0100085F01000870
:1000F0005F0100085F0100085F0100085F01000860
:100100005F0100085F0100085F0100085F0100084F
:100110005F0100085F0100085F0100085F0100083F
:100120005F0100085F0100085F0100085F0100082F
:10013000DFF80CD000F0BCF800480047712F000831
:10014000287800200648804706480047FEE7FEE77B
:10015000FEE7FEE7FEE7FEE7FEE7FEE7FEE7FEE777
:10016000052600083101000872B6704762B6704774
:10017000EFF3108072B6704780F31088704730BF7D
:10018000704720BF7047B0FA80F0704790FAA0F037
:10019000B0FA80F0704790FAA0F07047EFF310804B
:1001A00072B6704780F3108870471F484FF0FF0108
:1001B0000170002080F309881C48016881F30888D9
:1001C0001B48012101701B484FF08051016062B64D
:1001D000FEE718484FF080510160704715484FF016
:1001E00080510160704772B6EFF3098028B1203862
:1001F00080E8F00F10490968086000B50F48804793
:100200005DF804EB0E480F490A7802700A480E495F
:100210000A680260106890E8F00F203080F30988C7
:100220004EF0040E62B6704722ED00E05800002048
:100230008600002004ED00E08C0000201517000867
:100240007B0000207C000020940000202DE9F05F5E
:100250000546002092469B46884606468146402435
:100260001BE0284641464746224600F042F85346E6
:100270005A46C01A914110D311461846224600F042
:1002800029F82D1A67EB01084F462246012000216C
:1002900000F020F817EB00094E41201EA4F10104E4
:1002A000DFDC484631462A464346BDE8F09F000061
:1002B000064C074D06E0E06840F0010394E80700B3
:1002C00098471034AC42F6D3FFF736FFC830000829
:1002D000E8300008202A04DB203A00FA02F100206E
:1002E00070479140C2F1200320FA03F31943904074
:1002F0007047202A04DB203A21FA02F000217047DF
:1003000021FA02F3D040C2F120029140084319467D
:100310007047000010B50749074800F051FB074936
:10032000074800F04DFB0A21064800F025FD06496C
:10033000086010BD310900082800002049090008A4
:1003400030000020C81A00203800002008B50EE058
:100350006A4600210648006800F05EFD04469DF8EC
:10036000000020B92278214602A002F005FBEFE749
:1003700038000020CAFDBEDDB5D8D6B7616464720E
:10038000203D2030782558A3ACCAFDBEDDCAFDD67D
:10039000B570736D67203D2025640D0A00000000D4
:1003A0000CE00748C06880F040000549C8604FF481
:1003B000FA7300221146104601F0ECF9F1E7000053
:1003C000002001400124214621A002F0D5FA24A0FA
:1003D00002F0D2FA3AE02D4800F003FB2C4800F07E
:1003E00000FB0021294800F0F4FA78B1601CC4B287
:1003F000032C00D10124214615A002F0BDFA18A05B
:1004000002F0BAFA0121214800F0E3FA0021204865
:1004100000F0DFFAA0B1012C02D0022C0AD102E0D8
:1004200000F066F907E01B4A4CF25031012002F05F
:1004300029FD00E000BF00BF0121154800F0C9FA06
:10044000142300221146104601F0A4F9C3E700006E
:100450006B657931636F756E743D25640A00000029
:100460004B455931B0B4BCFCD6B5317E32B6D4D38D
:10047000A6B2BBCDACC8CECEF1C7E9BFF6A3AC4B9C
:10048000455932C8B7B6A80A00000000280000206D
:10049000300000200127000800B587B003200021AC
:1004A0004FF400721D4BCDE90310CDE901320090ED
:1004B00003461B4A1B4800F0E9FE06AA1AA10320C6
:1004C00001F000F8032000214FF40072184BCDE931
:1004D0000132CDE9031004200346164A0090164865
:1004E00000F0D4FE06AA15A1042000F0EBFF0320C3
:1004F00000214FF40072134BCDE90132CDE9031016
:1005000005200346104A0090104800F0BFFE06AADE
:100510000FA1052000F0D6FF07B000BDC8020020E3
:10052000C40A00204D0300085441534B3100000021
:10053000C80A0020C4120020A10300085441534BF4
:1005400032000000C8120020C41A0020C5030008B1
:100550005441534B3300000000F04AF800F066F8B5
:1005600000F0C4FA00F066FE08A002F005FAFFF7FA
:10057000D1FE0FA002F000FAFFF78EFF05E0002386
:100580000A221946184601F005F9F8E74372656139
:1005900074696E67204170706C69636174696F6E15
:1005A000204576656E74732E2E2E0A0D0000000015
:1005B0004372656174696E67204170706C69636134
:1005C00074696F6E205461736B732E2E2E0A0D00AA
:1005D0007047704770477047704770477047704763
:1005E00000B585B0684601F02DFF019805B000BD4B
:1005F00010B500F0D1FA00F03BFA00F0B5F900F0C8
:10060000C9F900F033F802F009FC00F001F810BD60
:1006100070B5FFF7E5FF04464FF47A70B4FBF0F5D0
:10062000284601F0D7FA70BD00BFFEE710B500F014
:1006300019F810BD10B5002400BF00BFFFF798FDEA
:10064000044600BF00BF1021054800F045FA00BF76
:1006500000BF2046FFF790FD00BF00BF10BD0000A7
:10066000F01A002010B5FFF7E5FF10BD00B585B00A
:100670000121880301F0D6FE0121052001F0D2FE00
:100680004FF40070ADF8100018208DF8130003200F
:100690008DF8120004A9134800F0B4F84FF48060FC
:1006A000ADF8100004208DF8130004A90D4800F0E7
:1006B000A9F84FF4E13000900020ADF80400ADF847
:1006C0000600ADF80800ADF80C000C20ADF80A00EB
:1006D0006946054802F0DEF80121034802F0C0F83F
:1006E00005B000BD0008014000380140704700001F
:1006F0007FB5134C13A002F03FF920A002F03CF9A3
:100700002AA002F039F90A2001F008F815E018349F
:10071000A07F02A900F018FFDDE902100144642265
:100720005043B0FBF1F5A06BCDE90050A17F2BA0A9
:10073000DDE9023202F020F92468002CE7D17FBD08
:10074000005B00203D3D3D3D3D3D3D3D3D3D3D3D52
:100750003D3D3D3D3D3D3D3D3D3D3D3D3D3D3D3DC9
:100760003D3D3D3D3D3D3D3D3D3D3D3D3D3D3D3DB9
:100770003D3D3D3D3D3D0D0A000000002020D3C51C
:10078000CFC8BCB6202020CAB9D3C3D5BB2020CA4D
:10079000A3D3E0D5BB2020B0D9B7D6B1C820202044
:1007A000C8CECEF1C3FB0D0A00000000202050721D
:1007B000696F20202020205573656420202020466A
:1007C0007265652020202050657220202020202086
:1007D0005461736B6E616D650D0A00002020202549
:1007E00032642020202025356420202020253564F7
:1007F000202020202530326425252020202020257F
:10080000730D0A002DE9F041024600250026002064
:1008100000230024002791F803C00CF00F0591F885
:1008200003C00CF0100CBCF1000F03D091F802C013
:100830004CEA050591F800C0BCF1000F31D01468F6
:1008400000202BE04FF0010C0CFA00F3B1F800C0CF
:100850000CEA03069E4220D183004FF00F0C0CFAE5
:1008600003F7BC4305FA03FC4CEA040491F803C007
:10087000BCF1280F06D14FF0010C0CFA00FCC2F8B5
:1008800014C00AE091F803C0BCF1480F05D14FF045
:10089000010C0CFA00FCC2F810C0401C0828D1D38F
:1008A0001460B1F800C0BCF1FF0F34DD54680020C3
:1008B0002EE000F1080C4FF0010808FA0CF3B1F833
:1008C00000C00CEA03069E4221D183004FF00F0CBA
:1008D0000CFA03F7BC4305FA03FC4CEA040491F854
:1008E00003C0BCF1280F05D100F1080C08FA0CF880
:1008F000C2F8148091F803C0BCF1480F07D100F191
:10090000080C4FF0010808FA0CF8C2F81080401CDF
:100910000828CED35460BDE8F081024600209368D9
:100920000B400BB1012000E000207047416170478F
:1009300010B501210348FFF7F0FF012800D110BDD9
:100940000020FCE70008014010B54FF400510448B6
:10095000FFF7E3FF08B9012010BD0020FCE700000D
:100960000010014000BFFEE708B50121042001F09E
:1009700059FD0120ADF8000003208DF8020004208D
:100980008DF8030069460248FFF73CFF08BD0000F0
:100990000008014008B50121102001F043FD4FF48B
:1009A0000050ADF8000003208DF8020004208DF8FF
:1009B000030069460148FFF725FF08BD001001400C
:1009C0000160002202710222427182710022C27112
:1009D0007047024601F001030BB100231371107937
:1009E000704710B50446607901281ED0022804D053
:1009F000032822D0042839D107E02068804718B1A5
:100A00000020E0710420607130E0E0790A30E0718C
:100A1000E0790A2808DB2068804718B10120A0711E
:100A2000607101E00220607120E02068804718B901
:100A30000020E0710320607118E0E0790A30E07175
:100A4000E0790A2811DB2068804760B90120A07195
:100A5000022060712079401C20712079FA2804DD81
:100A6000FA20207101E00120607100BF00BF10BDBD
:100A700008B501214FF4847001F0D4FC0120ADF8D9
:100A8000000003208DF8020010208DF80300694655
:100A90000E48FFF7B7FE4020ADF8000069460C484D
:100AA000FFF7B0FE8020ADF8000069460848FFF768
:100AB000A9FE01210548FFF739FF40210448FFF74F
:100AC00035FF80210248FFF731FF08BD000C0140CF
:100AD0000020014000BFFEE730B505460C46224627
:100AE0000021284600F026F830BD00000D480E49D0
:100AF00001600146416000218160C1600161416186
:100B00008161C16101620163C16241620749816320
:100B1000C1634FF42051016441640146044A1160ED
:100B200070470000001B002048454150481B002032
:100B3000540000202DE9F04103460C4617460FB93A
:100B4000BDE8F08103B9FBE70025002202E02D0299
:100B50002543521C042AFAD3384603F0030C1946E5
:100B6000BCF1000F08D0624603E001F8014B401EC3
:100B7000521C08B1042AF8D30E4601E020C6001F1B
:100B80000428FBD2314602E001F8014B401E002848
:100B9000FAD100BFD4E7704710B54FF4A06000F061
:100BA00039F810BD70B5002100230F22C47804B3BA
:100BB000154C246804F4E064C4F5E064210AC1F132
:100BC0000403CA40447804FA03F1847814402143B2
:100BD00009010E4C0678A155047804F01F05012484
:100BE000AC4005786D11AD0005F1E025C5F8004178
:100BF00009E0047804F01F050124AC40044D067898
:100C0000761145F8264070BD0CED00E000E400E0F0
:100C100080E100E002490143024A11607047000090
:100C20000000FA050CED00E02DE9F04105460E4606
:100C3000144600271148007818B112202070BDE832
:100C4000F0812878012808D0022807D0032802D094
:100C5000042804D100E000BF00BF00BF02E0012073
:100C60002070ECE700BFFFF799FA07466E6138463F
:100C7000FFF798FA0020207000BFE0E7790000201D
:100C800010B500F017F801F0F3F801F01FF901F0CA
:100C90003FF901F0BDF801F07DF801F0D3F901F062
:100CA000FDF901F075F901F09BF900F045FE00F047
:100CB00019F810BD0748802102E0491E002204C037
:100CC0000029FAD1044A054B1A600022044B1A800D
:100CD0007047000048430020444500205800002091
:100CE0005C0000207047000010B500241A4800780E
:100CF000012830D1FFF752FA04461848007820B195
:100D000016480078401E1549087014480078F8B954
:100D100013480078E0B901F023FA12481249097823
:100D200050F82100114908600F48007810490978EF
:100D300088420DD00D480068C06B401C0B49096803
:100D4000C8630C480068401C0A490860FFF746FA6F
:100D50002046FFF727FA10BD86000020790000200A
:100D60007A000020005A00207C000020940000201F
:100D70007B000020600000202DE9F04106460F4670
:100D80004FF000082048007810B10020BDE8F08145
:100D9000FFF704FA80461D480468006820B11B482C
:100DA00000684068194908604046FFF7FBF9FCB14C
:100DB000FFF7F4F9804616480568D5B10068006869
:100DC000134908604046FFF7EDF96E6006EB8700B7
:100DD000A860EE602E61AF820020E88202202070C1
:100DE0000020208165600BA06061204600F0C4FFF8
:100DF00008E0064800686060044804604046FFF769
:100E0000D1F900242046C1E77900002064000020C9
:100E1000A40000203F0000002DE9F0470746884667
:100E200015464FF000093878022804D001202870B8
:100E30000020BDE8F0873E48007818B102202870F5
:100E40000020F6E73B48007818B10D2028700020FC
:100E5000EFE7FFF7A3F981467C68E08A98B1216942
:100E6000081D20610E68E08A401EE082A1682069AA
:100E7000884201D1606820614846FFF793F900205D
:100E800028703046D5E72C48006890F8340040F0D0
:100E900004002949096881F83400002026490968BE
:100EA00081F8350024480068C0F83080384600F0EA
:100EB00025FF4846FFF776F901F018F9FFF76EF9BC
:100EC00081461D48006890F8350020B101280DD0FA
:100ED00002280AD105E018480068466A00202870F8
:100EE0000DE000260E20287009E000BF39461248A8
:100EF000006800F0D1FE00260A20287000BF00BF65
:100F000000200D49096881F834000B49096881F80F
:100F1000350009490968C861074909680862064936
:100F2000096848624846FFF73DF9304681E700000E
:100F3000790000207A0000208C0000202DE9F0418B
:100F400005460E4600272878022802D00120BDE879
:100F5000F081FFF723F90746A87A60B10023042245
:100F60003146284600F050FE3846FFF71BF901F0E5
:100F7000BDF80020EBE76C68E08AA18A884204DBB8
:100F80003846FFF70FF91E20E1E7E168081DE06031
:100F90000E60E08A401CE082D4E90210884201D150
:100FA0006068E0603846FFF7FDF80020CFE70000FA
:100FB00010B500240B480078012811D1FFF7EEF896
:100FC00004460948007840B908480078FF2804D250
:100FD00006480078401C054908702046FFF7E2F8F3
:100FE00010BD000086000020790000207A0000205B
:100FF00010B5002413480078012821D1FFF7CEF85E
:10100000044611480078C0B91048007888B10F48EC
:101010000078401E0D4908700846007828B920461F
:10102000FFF7C0F801F062F80AE02046FFF7BAF8CF
:1010300006E02046FFF7B6F802E02046FFF7B2F8D8
:1010400010BD000086000020790000207A000020FA
:1010500070B5054600261048007808B1002070BD24
:10106000FFF79CF806460D480468006820B10B485D
:1010700000684068094908603046FFF793F84CB1B2
:101080000320207025810020606005A0606120465B
:1010900000F072FE2046E2E77900002064000020A4
:1010A0003F0000002DE9F04105460E46144600279A
:1010B0002878032803D001202070BDE8F081324851
:1010C000007810B102202070F7E73048007810B1A6
:1010D0000D202070F1E7FFF761F80746288940B13D
:1010E0002889401E28813846FFF75CF800202070D0
:1010F000E3E72748006890F8340040F001002449F5
:10110000096881F8340000202149096881F8350018
:101110001F4800680663284600F0F0FD3846FFF7D8
:1011200041F800F0E3FFFFF739F807461848006878
:1011300090F8350020B1012809D0022806D102E03C
:10114000002020700BE00E20207008E000BF294630
:101150000F48006800F0A0FD0A20207000BF00BF0B
:1011600000200B49096881F834000949096881F8B1
:10117000350007490968C8610549096808623846A9
:10118000FFF710F800BF98E7790000207A000020F0
:101190008C00002070B5044600252078032801D07B
:1011A000012070BDFEF7FAFF0546A07A60B100236A
:1011B00001221946204600F027FD2846FEF7F2FFDF
:1011C00000F094FF0020ECE720894FF6FF71884281
:1011D00007D22089401C20812846FEF7E3FF00202B
:1011E000DFE72846FEF7DEFF3320DAE710B50B48CD
:1011F000007890B900F0B4FF0948007809490870F8
:1012000009480749097850F821000849086008464C
:10121000006807490860FEF7C8FF10BD860000207F
:101220007C0000207B000020005A00209400002059
:101230008C00002010B50024022000F06FFAFEF7A9
:10124000ADFF044600200B4908602046FEF7AAFFC8
:10125000642000F063FAFEF7A1FF04460548006829
:10126000054908600120054908702046FEF79AFFED
:1012700010BD0000880000207000002078000020D1
:1012800010B504462046FFF7A3F910BD2DE9F04F35
:1012900085B081468A4693461C46DDE90F78129D4B
:1012A00000200390FEF77AFF03902348007830B1C6
:1012B0000398FEF777FF3C2005B0BDE8F08F1F488C
:1012C00050F8240088BB01201C4941F824000398F1
:1012D000FEF768FF2A464146384601F085F82B465E
:1012E0005A465146484600F073F904901198CDE9EA
:1012F000008002953A4620460E9B049900F046FF76
:10130000064636B90E48007801280CD100F0EEFEF2
:1013100009E0FEF743FF03900020084941F824004C
:101320000398FEF73FFF3046C6E7FFE70398FEF756
:1013300039FF2820C0E7000079000020005A002073
:101340008600002010B504462046FFF742F910BD84
:101350002DE9F041054600274A48007810B14020A9
:10136000BDE8F0813F2D01D13E20F9E7FEF716FFE1
:101370000746FF2D03D14448006890F83650434893
:1013800050F8254024B93846FEF70CFF4320E7E724
:10139000012C04D13846FEF705FF3D20E0E714F8A4
:1013A000380F3B49085C617888432178384A5054AB
:1013B00014F838091146085C30B994F83A103548E9
:1013C0000078884333490870E06918B12046E16924
:1013D00000F062FC206A18B12046216A00F071FC1E
:1013E000A66A16B1304600F001FD0020206384F8A3
:1013F000340084F8350028480078FF2804D22648B5
:101400000078401C244908703846FEF7CBFE00F0F7
:10141000F9FBFEF7C3FE07461F48007820B11E48BF
:101420000078401E1C490870204600F041F81B4817
:101430000078401E194908700020144941F8250021
:10144000A06930B900206169886115496069086048
:1014500005E0D4E905014861D4E905108861114827
:10146000006860610F4804600FA020653846FEF7F1
:1014700099FE0E480078012801D100F037FE0020C7
:101480006EE70000790000208C000020005A002048
:101490007E0000207D0000207A00002087000020D0
:1014A00098000020900000203F00000086000020EF
:1014B00010B504462046FFF78DF810BD10B5FFF7B4
:1014C0008AF810BD2DE9F04106460F4614464FF04C
:1014D00000081548007818B112202070BDE8F0818E
:1014E000FEF75CFE8046FF2E03D11048006890F89E
:1014F00036600F4850F826502DB94046FEF752FE90
:1015000043202070EAE7012D05D14046FEF74AFE50
:1015100043202070E2E72F654046FEF743FE00209F
:10152000207000BFDAE70000790000208C00002066
:10153000005A002010B504462046FFF74DF810BDB4
:1015400010B5FFF74AF810BD2DE9F04707460D46E4
:101550004FF0000A002028606860FEF71FFE8246F8
:10156000FF2F03D11848006890F83670174850F8DC
:1015700027402CB95046FEF715FE4320BDE8F08702
:10158000012C04D15046FEF70DFE4320F6E7207CE7
:1015900000F0010020B95046FEF704FE4520EDE7BB
:1015A0000026D4F80C90D4F808805046FEF7FAFDD7
:1015B00000E0761C58F8041B0029FAD02E60A9EB35
:1015C000060068600020D9E78C000020005A002047
:1015D00070B5044610464FF080750560051F28461B
:1015E0002C60214E051F28462E604FF01236051F35
:1015F00028462E604FF00336051F28462E604FF018
:101600000236051F28462E607610051F28462E60DC
:10161000051F284629604FF01136051F28462E6009
:101620004FF01036051F28462E604FF00936051F73
:1016300028462E604FF00836051F28462E604FF0D2
:101640000736051F28462E604FF00636051F284630
:101650002E604FF00536051F28462E604FF00436E9
:10166000051F28462E6070BDF52200082DE9F041C7
:1016700005464FF00008FEF791FD8046FF2D05D18D
:101680002048006890F83650012608E01D480068A0
:1016900090F83600A84201D1012600E000261A4841
:1016A00050F825402CB94046FEF77CFD4820BDE8A7
:1016B000F081012C04D14046FEF774FD4320F6E78B
:1016C00094F838701148C05D94F8391088430F4978
:1016D000C8550846C05D30B994F83A100C480078F7
:1016E00088430B49087094F8340040F0080084F8EF
:1016F00034004046FEF756FD012E01D100F0F6FC05
:101700000020D4E78C000020005A00207E0000203A
:101710007D00002010B5FEF761FF10BD70B50546D5
:1017200000261748007800B170BD1648007800B157
:10173000FAE71DB3FEF732FD06461348006890F83D
:1017400038401248005D1049096891F83910884303
:101750000E4908550846005D40B90B48006890F8EE
:101760003A100B4800788843094908700648006819
:1017700005633046FEF716FD00F0B8FC00BFD3E766
:10178000790000207A0000208C0000207E000020DC
:101790007D0000202DE9F04105460E4617461C4607
:1017A0001248007810B15520BDE8F081104800784B
:1017B00008B13220F8E74FF47A7060434FF47A7141
:1017C000B0FBF1F14FF461606843C6EB061200EB29
:1017D0008200384400EB4002C2EBC01001EBC008AD
:1017E0004046FFF79BFF0020DEE700007900002065
:1017F0007A00002070B504460025FEF7CFFC0546B0
:10180000024804602846FEF7CDFC70BDAC00002005
:1018100070B5002600F072F8FEF7C0FC06463148AD
:101820000068401C2F4908603046FEF7BBFC2E487C
:101830000078012853D12D48007820B1012804D028
:10184000022809D103E001250BE0002509E001256C
:1018500001202649087004E0012500202349087072
:1018600000BF00BF05B970BD2148046833E0FEF732
:1018700095FC0646206B50B3206B401E2063206B06
:1018800028BB94F8340000F0370040B114F8340F4E
:1018900000F0C800207001206070343C02E000209D
:1018A00084F8350094F8340000F0080078B9383432
:1018B000A0781049097808430E49087020780E492D
:1018C000085C6178084314F838190B4A505464696D
:1018D0003046FEF767FC94F836003F28C7D100BFBA
:1018E000C1E70000AC000020860000209C00002022
:1018F000980000207D0000207E00002010B5FEF73B
:101900006EFE07480088401C05490880084600888C
:10191000642803DB0020088000F004F810BD0000FC
:101920005C00002010B503480068FFF733FC044654
:10193000204610BDBC000020F8B54FF420712848A7
:1019400000F076FB4021274800F072FB002514E0F0
:10195000681C86B205EB8500214901EBC00406EB4B
:10196000860001EBC00764202070002084F8250069
:10197000E7601DA02062681C85B20F2DE8D305EB3F
:101980008500174901EBC00464202070002084F812
:101990002500E06014A0206200201449086014496A
:1019A00008801020134908800D4813490860012061
:1019B000FFF74EFB114908600020FFF749FB104973
:1019C00008606A460FA10D480068FFF72DF96A46C6
:1019D00011A10B480068FFF727F900F027F8F8BDC0
:1019E00068630020E86700203F000000B40000208A
:1019F000B2000020B0000020C0000020B80000208D
:101A0000BC00002075432F4F532D494920546D725F
:101A10004C6F636B0000000075432F4F532D4949F5
:101A200020546D725369676E616C000000B587B019
:101A30000320002180220A4BCDE90132CDE90310B9
:101A40004FF6FD703D23074A00900748FFF71EFC44
:101A500006AA06A13D20FFF735FD07B000BD000036
:101A6000E8650020E4670020E91A000875432F4F5D
:101A7000532D494920546D720000000070B50B468B
:101A8000032580F82550012B05D1154EC569366810
:101A9000354445610CE085692DB9114EC56936683C
:101AA0003544456104E00E4E85693668354445612C
:101AB000057D05F007040B4D05EBC4010D682DB93C
:101AC00008600025C56001258D8006E00A68086071
:101AD000C26010618D886D1C8D800025056170BD10
:101AE000B4000020E867002008B500BF00BF6A46C8
:101AF00000211A480068FFF7D5FAFFF759FA18488D
:101B00000068401C164908600846007800F0070885
:101B1000144800EBC8073C681AE0E66810496069A1
:101B20000968884213D1204600F01EF894F824007A
:101B3000022804D101212046FFF7A0FF02E0022085
:101B400084F82500656815B12046A168A847344689
:101B5000002CE2D1FFF74CFAC9E70000BC000020DE
:101B6000B4000020E867002030B5057D05F00704CB
:101B70000D4D05EBC4031D68854205D1C168196090
:101B800039B100250D6104E00169C268CA6002B183
:101B90001161012580F825500025C56005619D88EB
:101BA0006D1E9D8030BD0000E867002010B5FEF777
:101BB000F5FA044606480078401C0549087020469E
:101BC000FEF7F0FAFFF724FEFFF78EF810BD0000D5
:101BD00079000020411E4FF0E0225161FF21084AA8
:101BE00011704FF0E021096941F005014FF0E0224A
:101BF00011611146096941F002011161704700004D
:101C000023ED00E0704700002DE9F04F05460F4638
:101C100090469946A87A1C490E5C05F10B00805D40
:101C200011F800B00BEBC60000F0FF0A174850F89F
:101C30002A4000202434E0602760207C20EA08004D
:101C4000207484F81190207C243C00F0080068B9CE
:101C500094F83A000E49097808430D4908700D4878
:101C6000805D94F8391008430A4988552946204672
:101C700000F012F8206A20B12046216A00F021F815
:101C8000E5615046BDE8F08FC82F0008005A0020DB
:101C90007D0000207E00002010B590F8382001F172
:101CA0000B039B5C90F83940A34301F10B04A35450
:101CB00023469B5C23B98B7A90F83A40A3438B72FE
:101CC00010BDF0B5024612F8384F95785678383A7C
:101CD0000B4618680FE000F10B073F5DB74300F1BA
:101CE0000B0C0CF8047067463F5D17B9877AAF4359
:101CF00087721B1D18680028EDD1F0BD10B51B4A76
:101D00001268D061194A126892F8383000F10B025B
:101D1000D25C164B1B6893F839301A43134B1B687F
:101D200093F8384000F10B031A55827A0F4B1B6869
:101D300093F83A301A4382720C4A126892F83810BB
:101D40000B4A525C094B1B6893F839309A43084B95
:101D50005A541A46525C42B9044A126892F83A3010
:101D6000044A12789A43034B1A7010BD8C0000206D
:101D70007E0000207D000020014600228A720020A3
:101D800005E0002301F10B021354421CD0B20828D5
:101D9000F7D370472DE9F0415021114800F048F980
:101DA00000250DE0681C86B20D4800EB051400EB21
:101DB00006170020207067600AA0E060681C85B2EA
:101DC000042DEFD3064800EB05140020207060605E
:101DD00004A0E060024804490860BDE8F08100000A
:101DE000B05500203F0000006800002030B50146DB
:101DF0004A6808682AB9CC68606028B10025456047
:101E000002E0106000B142608B6800259D6230BD29
:101E100070B541F26801134800F00AF9002411E09E
:101E2000601C85B204EB44000E4901EBC00305EBD6
:101E3000450001EBC006002018705E600AA05861E2
:101E4000601C84B2AE2CEBD304EB4400054901EBDB
:101E5000C00300201870586003A058610846034969
:101E6000086070BD484500203F000000640000206D
:101E700000200B4908600B4908700B4908700B499A
:101E800008700B4908700B4908600B4908600B4942
:101E900008600B4908600B4908700B4908707047CF
:101EA000AC000020790000207A000020870000208C
:101EB00086000020600000208800002074000020C0
:101EC0007000002078000020A800002000210A4AAD
:101ED0001170002004E00021084A1154411CC8B2CE
:101EE0000828F8D30021064A1170064A1170064AE4
:101EF0001160064A116070477D0000207E000020BE
:101F00007B0000207C000020940000208C0000203A
:101F100070B54FF4F261194800F08AF84FF48071FF
:101F2000174800F085F8002413E0601CC5B204EBEC
:101F3000440000EBC400114901EBC00305EB450070
:101F400000EBC50001EBC0065E610EA01865601CC9
:101F5000C4B2152CE9D304EB440000EBC4000749DC
:101F600001EBC0030020586106A018650020064957
:101F7000086002480549086070BD0000005B002051
:101F8000005A00203F000000980000209000002030
:101F900000B587B00320002180220A4BCDE9013231
:101FA000CDE903104FF6FF703F23074A0090074822
:101FB000FFF76CF906AA06A13F20FFF783FA07B0E6
:101FC00000BD000000580020FC590020CD22000870
:101FD00075432F4F532D49492049646C650000001B
:101FE00000B587B00320002180220A4BCDE90132E1
:101FF000CDE903104FF6FE703E23074A00900748D4
:10200000FFF744F906AA06A13E20FFF75BFA07B0E6
:1020100000BD000000560020FC5700200D230008E2
:1020200075432F4F532D49492053746174000000AC
:1020300004E0002200F8012B4A1E91B20029F8D1D9
:102040007047000070B578211148FFF7F1FF0024B8
:102050000EE004EB44000E4901EBC005601C00EBF0
:10206000400001EBC00068600AA06861601C84B297
:10207000042CEED304EB4400054901EBC00500201D
:10208000686004A0686108460349086070BD0000EC
:10209000906200203F000000A00000202DE9F041E8
:1020A00060211048FFF7C4FF00240DE0601C86B2D9
:1020B00004EB44000B4901EBC00506EB460001EBC5
:1020C000C0072F60601C84B2032CEFD304EB4400E4
:1020D000044901EBC0050020286008460249086059
:1020E000BDE8F08108630020A400002010B50024A2
:1020F000FEF754F8044613480078F8B912480078FF
:10210000E0B900F02DF811481149097850F8210084
:10211000104908600E4800780F49097888420DD0B0
:102120000C480068C06B401C0A490968C8630B482A
:102130000068401C09490860FEF74BF82046FEF78E
:1021400031F810BD790000207A000020005A0020EC
:102150007C000020940000207B0000206000002014
:102160000649074A1278885C0649095C034A515CB3
:1021700001EBC001044A117070470000C82F00082D
:102180007D0000207E0000207C0000202DE9F84F1B
:1021900005460F4690469946DDE90AAB00200090BF
:1021A000FDF7FCFF009042480468002C7BD01C34F3
:1021B00054F8080C3E4908600098FDF7F3FF44F816
:1021C0001C7CA576002020766076606144F818BCFF
:1021D00044F810AC44F8148C0C9824F80C0C24F837
:1021E0000A9C0020E077E810207705F00700E076F1
:1021F000217F01208840A077E17E01208840607720
:10220000002020606060E060A0602062A0626062E8
:10221000E062206327A060631C3C002606E00021EA
:1022200004F1540040F82610701CC6B2012EF6DBF3
:102230002046FFF725F8FDF7B1FF00901E4840F853
:1022400025400098FDF7AEFF2046FFF77BF8FDF72D
:10225000A5FF00901948006860610020A061174840
:10226000006810B11548006884611448046038346F
:10227000A07813490978084311490870207811495A
:10228000085C6178084314F838190E4A50540E4817
:102290000078401C0C4908700098FDF783FF00206F
:1022A000BDE8F88FFFE70098FDF77CFF4220F7E7D5
:1022B000900000203F000000005A002098000020FD
:1022C0007D0000207E00002087000020002400BF49
:1022D00000BFFDF763FF044605480068401C044941
:1022E00008602046FDF75EFFFFF7E8F8F1E7000021
:1022F0008800002010B504480068FFF71BF9FF2094
:10230000FFF726F810BD00008C00002000BF00BFC2
:1023100002E0C820FFF702FA1F4800780028F8D032
:102320001E4800686421B0FBF1F01C4908600846B3
:10233000006828B900201A490870FF20FFF796F9B5
:10234000FDF72CFF044615480068642148431549F1
:1023500008602046FDF726FF00BFFDF71FFF04467B
:10236000104800681049086000200E4908602046A7
:10237000FDF718FF0C48006808490968B0FBF1F048
:10238000C0F1640006490870FFF7DAF800F00EF8B3
:102390006420FFF7C3F9E0E7780000207000002018
:1023A0006C00002088000020740000207CB500250F
:1023B00014E069462846FFF7C7F8064666B909489B
:1023C00050F8254044B1012C06D0D4E9020100EBBD
:1023D0008100A0640198E064681CC5B23F2DE8DD6F
:1023E0007CBD0000005A002002F0010343B102F05E
:1023F00002032BB102E0491E002308C00029FAD1D4
:102400007047000029B1064AD2690243044BDA61E1
:1024100004E0034AD2698243014BDA61704700004D
:102420000010024029B1064A92690243044B9A61A6
:1024300004E0034A92698243014B9A6170470000AD
:102440000010024030B500210022002400232D4D51
:102450006D6805F00C0121B1042905D0082923D1AC
:1024600005E0294D056022E0274D05601FE0254D60
:102470006D6805F47012234D6D6805F480340225F3
:1024800005EB92421CB9214D554305600BE01D4DF3
:102490006D6805F400351DB11C4D5543056002E023
:1024A000194D5543056002E0174D056000BF00BFA0
:1024B000144D6D6805F0F0010909154D6B5C056858
:1024C000DD4045600F4D6D6805F4E061090A104D6F
:1024D0006B5C4568DD4085600A4D6D6805F46051B0
:1024E000C90A0B4D6B5C4568DD40C560054D6D68E4
:1024F00005F44041890B074D6B5CC568B5FBF3F5EE
:10250000056130BD0010024000127A0000093D0054
:102510001400002024000020704710B500F002F8DD
:1025200010BD00000CB500200190009033480068F9
:1025300040F480303149086000BF3048006800F442
:10254000003000900198401C0190009818B9019843
:10255000B0F5A06FF1D12948006800F4003010B147
:102560000120009001E0002000900098012843D154
:102570002348006840F010002149086008460068C0
:1025800020F0030008600846006840F00200086080
:102590001A4840681949486008464068486008463B
:1025A000406840F4806048600846406820F47C1031
:1025B00048600846406840F4E810486008460068F3
:1025C00040F08070086000BF0C48006800F00070A8
:1025D0000028F9D00948406820F003000749486006
:1025E0000846406840F00200486000BF0348406869
:1025F00000F00C000828F9D10CBD000000100240CA
:102600000020024010B51348006840F00100114955
:10261000086008464068104908400E49486008466E
:1026200000680E4908400B4908600846006820F41D
:10263000802008600846406820F4FE0048604FF49F
:102640001F008860FFF769FF4FF0006004490860D1
:1026500010BD0000001002400000FFF8FFFFF6FE72
:1026600008ED00E010B50221480700F083F858B1EA
:102670000221480700F06CF800220221480700F010
:102680008AF81B48006880470421080700F072F8A8
:1026900058B10421080700F05BF800220421080764
:1026A00000F079F81348006880470821C80600F058
:1026B00061F858B10821C80600F04AF80022082144
:1026C000C80600F068F80C480068804710218806AA
:1026D00000F050F858B11021880600F039F80022B7
:1026E0001021880600F057F804480068804710BDA4
:1026F0003C00002040000020440000204800002052
:1027000010B50F480078401C0D4908700D4800882E
:10271000801C0C4908800C480068C01C0A490860ED
:1027200007490A480068FEF709FC0649074800689F
:10273000FEF704FC044905480068FEF7FFFB10BDE6
:102740004C0000204E0000205000002038000020E7
:10275000CA430282704721B1028842F0010202801E
:1027600004E002884FF6FE731A400280704701466B
:10277000888C704730B50246002000230024158A5B
:1027800005EA0103958905EA010413B10CB10120A2
:1027900000E0002030BD1AB183890B43838102E041
:1027A00083898B4383817047818670470187704797
:1027B00081877047A0F8401070470000002202880F
:1027C0001D4B98420ED01D4B98420BD0B0F1804F5C
:1027D00008D01B4B984205D01A4B984202D01A4B96
:1027E000984204D14FF68F731A404B881A43174B07
:1027F000984207D0164B984204D04FF6FF431A4038
:10280000CB881A4302808B8883850B8803850A4B0B
:1028100098420BD0094B984208D00E4B984205D0F5
:102820000D4B984202D00D4B984201D10B7A038692
:102830000123838270470000002C014000340140D6
:102840000004004000080040000C00400010004060
:102850000014004000400140004401400048014095
:1028600021B1828942F40052828104E082894DF6CE
:10287000FF731A408281704702460020B1F5007F45
:1028800000D100BF13880B400BB1012000E00020F5
:10289000704700002DE9F04786B005460E4600243B
:1028A000A24600BFA1460027B08900B100BF2F4655
:1028B0002C8A4CF6FF700440F08804432C82AC89CB
:1028C0004EF6F3100440B0883189084371890843FB
:1028D0000443AC81AC8A4FF6FF400440B089044306
:1028E000AC8201A8FFF7AEFD1F48874202D1DDF898
:1028F00010A001E0DDF80CA0A88900F4004040B170
:102900000AEBCA0000EB0A1031684900B0FBF1F88D
:1029100007E00AEBCA0000EB0A1031688900B0FB3F
:10292000F1F86420B8FBF0F004012009642101FBF8
:102930001089A88900F4004040B1322000EBC900A2
:10294000B0FBF1F000F00700044308E0322000EB98
:1029500009106421B0FBF1F000F00F0004432C815A
:1029600006B0BDE8F087000000380140C1F308025E
:102970008280704700BFFEE70FB4054B10B503A976
:10298000044A029800F018F810BC5DF814FB00002F
:102990004D2F0008C400002002E008C8121F08C123
:1029A000002AFAD170477047002001E001C1121FD0
:1029B000002AFBD1704700002DE9FF4F8DB00F4674
:1029C0000546002606E025280BD0DDE90F129047CA
:1029D0006D1C761C28780028F5D111B03046BDE872
:1029E000F08F0024A246A1460122EC4900E00443F6
:1029F00015F8013F203B02FA03F00842F7D128788E
:102A00002A2810D06FF02F022878A0F13001092970
:102A100014D80AEB8A0102EB410144F0020400EBF6
:102A2000010A6D1CF0E701CF5FEA000A03D544F408
:102A30000054CAF1000A44F002046D1C28782E28C4
:102A400017D115F8010F44F004042A280ED06FF0B6
:102A50002F022878A0F1300109290AD809EB890151
:102A600002EB410100EB01096D1CF2E757F8049BF2
:102A70006D1C28786C280FD006DC4C2817D06828ED
:102A80000DD06A2814D104E0742810D07A280FD110
:102A90000DE044F400140AE044F4801401E044F42E
:102AA00040146978814202D104F580146D1C6D1CBC
:102AB0002A786E2A1FD00CDC632A31D004DC002A6D
:102AC0008BD0582A11D1A3E0642A68D0692A0CD18E
:102AD00065E0732A2ED004DC6F2A73D0702A04D1EB
:102AE0009BE0752A6FD0782A6ED01046DDE90F1270
:102AF0009047761C50E1C4F30250022806D0032808
:102B000009D0042801CF09D0066045E101CFF117B3
:102B1000C0E9006140E101CF06803DE106703BE184
:102B200017F8040B8DF8000000208DF80100EB462B
:102B3000012003E057F804BB4FF0FF3061074FF06E
:102B4000000102D40DE008F10101884649450FDA81
:102B50008045F8DB1BF808100029F4D108E008F1E3
:102B6000010188468142FADB1BF808100029F6D1E2
:102B7000DDE90F23AAEB08008146214600F036F973
:102B8000304400EB080604E0DDE90F121BF8010BEE
:102B90009047B8F10108F7D221464846F7E00A21EC
:102BA000C4F302534FF0000B0891022B04D001CF65
:102BB000C117032B09D00AE0FF1D27F00707F7E82C
:102BC000020108E032E01FE020E000B2C117042B50
:102BD00001D140B2C117031E71F1000307DA4FF0B3
:102BE000000CD0EB0C006CEB01012D2302E023055F
:102BF00004D52B238DF82430012303E0E30701D013
:102C00002023F7E7984658E00A2110E010210EE053
:102C100010204FF0000B08900CE010214FF0000B3B
:102C200044F004044FF00809089103E008214FF034
:102C3000000B0891C4F30253022B04D001CF0021F2
:102C4000032B06D006E0FF1D27F00707F7E8020177
:102C500003E080B2042B00D1C0B24FF0000823077C
:102C60002BD5702A07D0DDF820C08CF0100C5CEA60
:102C70000B0C05D00EE040238DF82430012308E032
:102C800050EA010306D030238DF824308DF825203A
:102C900002239846DDF820C08CF0080C5CEA0B0C8F
:102CA0000BD150EA010301D1630706D530238DF81B
:102CB00024304FF00108A9F10109582A04D038A2A4
:102CC0000B9208AA0A920BE03AA2F9E75B46089A2F
:102CD000FDF7BCFA0B9B9B5C0A9A521E0A9213707A
:102CE00050EA0102F2D10A98ADEB000000F1200B8E
:102CF000600702D524F4803401E04FF00109D94582
:102D000002DDA9EB0B0000E0002000EB0B014144C9
:102D10000890AAEB010AE00306D4DDE90F2321465F
:102D2000504600F063F806444FF0000908E009A996
:102D300011F80900DDE90F12904709F10109761C2D
:102D4000C145F4DBE0030CD5DDE90F2321465046F5
:102D500000F04CF8064404E0DDE90F123020904703
:102D6000761C0899481E08900029F5DC08E00A98AE
:102D70000A990078491C0A91DDE90F129047761CE8
:102D8000BBF10001ABF1010BF1DC21465046DDE95E
:102D90000F2300F019F806446D1C1BE609280100FA
:102DA00030313233343536373839616263646566C1
:102DB0000000000030313233343536373839414283
:102DC00043444546000000002DE9F041044600253B
:102DD0001E461746880404D405E039462020B04733
:102DE0006D1C641EF9D52846BDE8F0812DE9F0413F
:102DF000044600251E469046C80301D5302700E052
:102E00002027880404D505E041463846B0476D1CAC
:102E1000641EF9D52846BDE8F08100007FB5012188
:102E20000846FFF7EFFA154806681548B6FBF0F0BC
:102E300085B24FF6FF74ADF80440ADF800500020A5
:102E4000ADF80600ADF8020069464FF08040FFF78C
:102E5000B5FC01218807FFF77EFC1C208DF80C00D3
:102E600001208DF80D0000208DF80E0001208DF856
:102E70000F0003A8FDF796FE7FBD000000000020B4
:102E800040420F002DE9F04104460F461546052F3C
:102E900000D37F1F4FF08040FFF769FC804608EBAE
:102EA0000706012C0FD125480560B1B2A007FFF736
:102EB0007BFC02214807FFF74BFC01220221480757
:102EC000FFF769FC38E0022C0FD11D480560B1B254
:102ED0006007FFF76BFC04210807FFF739FC0122AC
:102EE00004210807FFF757FC26E0032C10D11548F2
:102EF0000560B1B24FF08040FFF75AFC0821C806C8
:102F0000FFF726FC01220821C806FFF744FC13E066
:102F1000042C0FD10C480560B1B22007FFF74AFC22
:102F200010218806FFF714FC012210218806FFF704
:102F300032FC01E0BDE8F08100BFFBE73C0000206F
:102F400040000020440000204800002070B50446E6
:102F50000D46E1B20548FFF709FD00BF8021034897
:102F6000FFF78AFC0028F9D0204670BD00380140E8
:102F700000B587B0FDF784FE0320002180220C4BB2
:102F8000CDE90132CDE9031002200346094A009041
:102F90000948FEF77BF90020FEF72CFC06AA07A1E2
:102FA0000220FEF78FFAFEF721F9002007B000BDDE
:102FB000C8000020C4020020590500085374617243
:102FC00074205461736B00000000010002000100D6
:102FD00003000100020001000400010002000100E2
:102FE00003000100020001000500010002000100D1
:102FF00003000100020001000400010002000100C2
:1030000003000100020001000600010002000100AF
:1030100003000100020001000400010002000100A1
:103020000300010002000100050001000200010090
:103030000300010002000100040001000200010081
:10304000030001000200010007000100020001006E
:103050000300010002000100040001000200010061
:103060000300010002000100050001000200010050
:103070000300010002000100040001000200010041
:10308000030001000200010006000100020001002F
:103090000300010002000100040001000200010021
:1030A0000300010002000100050001000200010010
:1030B0000300010002000100040001000200010001
:1030C0000300010002000100E830000800000020B9
:1030D000C800000098290008B0310008C80000208E
:1030E00060770000A829000800A24A040000000040
:1030F00000000000010203040607080900000000A8
:103100000102030401020304060708090204060879
:1031100000000000000000000000000000000000AF
:10312000000000000000000000000000000000009F
:10313000000000000000000000000000000000008F
:10314000000000000000000000000000000000007F
:10315000000000000000000000000000000000006F
:10316000000000000000000000000000000000005F
:10317000000000000000000000000000000000004F
:10318000000000000000000000000000000000003F
:10319000000000000000000000000000000000002F
:1031A000000000000000000000000000000000001F
:0400000508000131BD
:00000001FF
