:020000040800F2
:1000000088B6002045010008771300084511000854
:10001000B5120008AD0B0008A5450008000000005F
:100020000000000000000000000000004543000840
:100030008D0E0008000000001B0800083D26000887
:100040005F0100085F0100085F0100085F01000810
:100050005F0100085F0100085F0100085F01000800
:100060005F0100085F0100085F0100085F010008F0
:100070005F0100085F0100085F0100085F010008E0
:100080005F0100085F0100085F0100085F010008D0
:100090005F0100085F0100085F0100085F010008C0
:1000A0005F0100085F0100085F0100085F010008B0
:1000B0005F0100085F0100085F0100085F010008A0
:1000C0005F0100085F0100085F0100085F01000890
:1000D0005F0100085F0100085F0100085F01000880
:1000E0005F0100085F0100085F0100085F01000870
:1000F0005F0100085F0100085F0100085F01000860
:100100005F0100085F0100085F0100085F0100084F
:100110005F0100085F0100085F0100085F0100083F
:100120005F0100085F0100085F0100085F0100082F
:10013000DFF80CD000F0DEFA00480047A14E0008BE
:1001400088B600200648804706480047FEE7FEE7DD
:10015000FEE7FEE7FEE7FEE7FEE7FEE7FEE7FEE777
:10016000314400083101000872B6704762B670472A
:10017000EFF3108072B6704780F31088704730BF7D
:10018000704720BF7047B0FA80F0704790FAA0F037
:10019000B0FA80F0704790FAA0F070472DE9F05F58
:1001A0000546002092469B468846064681464024E6
:1001B0001BE0284641464746224600F09BF853463E
:1001C0005A46C01A914110D311461846224600F0F3
:1001D00082F82D1A67EB01084F46224601200021C4
:1001E00000F079F817EB00094E41201EA4F101043C
:1001F000DFDC484631462A464346BDE8F09F30B42E
:1002000080EA010202F0004530F0004221F0004097
:1002100013D090B1C30DD40DC2F31601C0F3160074
:10022000E41A41F4000140F400027D34914201D30C
:10023000641C00E04900002C02DA30BC002070474A
:100240004FF400000023914201D3891A0343400870
:100250004FEA4101F7D151B1914202D14FF0004133
:1002600005E002D24FF0010101E06FF0010103EB64
:10027000C450284430BC00F04DB8962300221146EB
:1002800000F051B800F0004230F000400AD0C10D3B
:1002900001F56071C0F3160042EA0151C20840073F
:1002A0001143704700200146704730B50B460146A8
:1002B00000202022012409E021FA02F59D4205D305
:1002C00003FA02F5491B04FA02F52844151EA2F1AF
:1002D0000102F1DC30BD202A04DB203A00FA02F1F1
:1002E000002070479140C2F1200320FA03F3194324
:1002F00090407047202A04DB203A21FA02F00021C6
:10030000704721FA02F3D040C2F120029140084325
:10031000194670470029A8BF7047401C490008BF14
:1003200020F00100704710B4B0FA80FC00FA0CF025
:1003300050EA010404BF10BC704749B1CCF120045D
:1003400021FA04F411FA0CF118BF012121430843EA
:10035000A3EB0C01CB1D4FEA00614FEA102042BF16
:10036000002010BC704700EBC35010440029A4BF0C
:1003700010BC7047401C490008BF20F0010010BCB1
:1003800070472DE9FE4F804681EA0300C00F0C46FE
:10039000009021F0004123F00045B8EB0200A94194
:1003A00005D24046214690461C460B46024623F0A5
:1003B0000040104347D0270DC7F30A00C3F30A518A
:1003C0000290401A019040286BDAC3F3130040F406
:1003D000801B0098924620B10023D2EB030A63EB06
:1003E0000B0B01985946C0F140025046FFF773FFCE
:1003F00006460D4650465946019A00F08DF910EB1D
:1004000008006141002487EA115284EAE7731A4325
:1004100040D0009A62B3019A012A4FEA075215DCD4
:10042000001B61EB02014FF0004202EA0752CDE9E6
:100430000042001C41F5801132462B4600F08DF938
:1004400003B0BDE8F08F40462146F9E7001B61EBA1
:100450000201001C41F5801300185B412018A2F531
:10046000001747EB030140EAD570B6196D4111E062
:100470006D084FEA360645EAC0754FEA0752001B81
:1004800061EB0201001C41F5801149084FEA300080
:100490000019514132462B4603B0BDE8F04F00F041
:1004A0004DB90098012240000023D0EB020263EB1B
:1004B000E073009821464FEAE074B8EB000061EB6E
:1004C0000401E9E783F000435BE781F0004158E76E
:1004D0002DE9FE4F81EA030404F0004421F00041BD
:1004E00000944FF0000B23F0004350EA01045ED06B
:1004F00052EA03045BD0C3F30A54C1F30A552C44F7
:10050000A4F2F3340194A0FB0254C1F3130141F4AB
:100510008011C3F3130343F4801301FB024400FB77
:10052000034E840A970A44EA815447EA8357A4FB9E
:10053000076802958D0A05FB07854FEA932C04FB9B
:100540000C542705029D4FEA065847EA1637B5EBCB
:1005500008056EEB070C870E920E47EA811742EAF8
:100560008312A7FB0201B6EB0B0164EB00042B0D19
:1005700043EA0C335E1844EB1C50DA465146E7FB65
:100580000201C5F313044FEA0B3343EA14534FEA55
:100590000432019C43EA0603A4F10C040294009C7B
:1005A000CDE900B400F0D9F803B0BDE8F08F002029
:1005B0000146F9E72DE9F04D81EA030404F0004B10
:1005C00021F0004514464FF0000A23F0004150EAA4
:1005D000050220D054EA01021DD0C5F30A57024695
:1005E000C5F31303C1F31300C1F30A5640F4801599
:1005F00043F48013A7EB0608101BD64608F2FD381B
:1006000073EB050002D308F1010801E092185B4189
:10061000B8F1000F03DA00200146BDE8F08D00209C
:100620004FF48011064684460EE0171B73EB050756
:1006300005D3121B63EB050306434CEA010C490882
:100640004FEA300092185B4150EA0107EDD152EABF
:10065000030012D082EA040083EA0501084305D0B2
:10066000101BAB4106D20122002306E000224FF00E
:10067000004302E06FF0010253101AEB06004CEB4E
:10068000085110EB0A0041EB0B01BDE8F04D00F002
:1006900055B8C1F30A52C1F3130140F2FF3341F4DC
:1006A00080119A4202DA00200146704740F233433B
:1006B0009A42A2F2334202DC5242FFF71BBEFFF71E
:1006C0000ABE000030B5041E71F1000404DB4FF0D7
:1006D0000044404264EB0101141E73F1000405DB89
:1006E0001C464FF00043524263EB0403994208BF9B
:1006F000904230BD064C074D06E0E06840F0010333
:1007000094E8070098471034AC42F6D3FFF714FD85
:100710005851000878510008202A06DBCB17203AF0
:1007200041FA02F043EAE07306E041FA02F3D040F6
:10073000C2F12002914008431946704710B5141EBB
:1007400073F1000408DA401C41F1000192185B418A
:100750001A4301D120F0010010BD2DE9F04D924661
:100760009B4611B1B1FA81F202E0B0FA80F2203278
:100770009046FFF7B0FD04460F4640EA0A0041EA02
:100780000B0153465A46084313D0114653EA010061
:1007900019D0C8F140025046FFF7ACFD05460E46A1
:1007A000504659464246FFF796FD084305D00120C2
:1007B00004E020463946BDE8F08D0020054346EAB6
:1007C000E0762C4337430A986305E40AA0EB08005F
:1007D0000022FD0A44EA47540A3002D500200146AF
:1007E000E9E7010510196941DDE90845001969418A
:1007F000BDE8F04DA2E7000018484FF0FF0101707E
:10080000002080F309881648016881F3088815489C
:100810004FF08051016062B6FEE772B6EFF30980D7
:1008200028B1203880E8F00F0F490968086000B54A
:100830000E4880475DF804EB0D480E490A780270B7
:1008400009480D490A680260106890E8F00F2030EE
:1008500080F309884EF0040E62B6704722ED00E086
:100860004800002004ED00E004010020B12200084F
:1008700092000020930000200801002010B50449D8
:10088000044800F08DFC0449044800F089FC10BDC8
:100890001111000814000020291100081C0000207C
:1008A00008B511E00948006880F0010007490860B8
:1008B0000748C06880F080000549C8606A4600218A
:1008C0004FF4FA7001F046FDECE700000C0C01401B
:1008D000002001401CB508E001AB6A460021084633
:1008E00001F0DCFA01A003F05FFEF5E7BDD3CADC3E
:1008F000B5BDC8CECEF14170705461736B55736550
:10090000724946B7A2C0B4B5C4CDACB2BDCFFBCF1F
:10091000A20D0A000EB52848017828A003F044FE75
:100920002AA003F041FE45E0334800F04AFC33487A
:1009300000F047FC0021304800F03BFCB0B11E48FD
:100940000078401C1C49087008460078032801D133
:10095000012008701848017818A003F025FE1BA09C
:1009600003F022FE0121244800F023FC002123484B
:1009700000F01FFCA8B110480078012802D002281E
:1009800009D102E000F084FA06E002AA00211C4826
:1009900001F080FB00E000BF00BF0121174800F01C
:1009A00008FC02A8002114230A46CDE900100846DD
:1009B00001F038FDB8E70000240000206B657931B4
:1009C000636F756E743D25640A0000004B45593114
:1009D000B0B4BCFCD6B5317E32B6D4D3A6B2BBCD52
:1009E000ACC8CECEF1C7E9BFF6A3AC4B455932C86F
:1009F000B7B6A80A00000000140000201C00002068
:100A0000A002002000B58BB00AA8032100220592A5
:100A1000CDE90621089010464FF4007133221F4B98
:100A2000CDE90132CDE90310032000231C4A1DA1AA
:100A300000901F4801F056F80AA8032100220592F1
:100A4000CDE90621089010464FF400713322194B6E
:100A5000CDE90132CDE9031004200023164A17A185
:100A60000090194801F03EF80AA8032100220592DF
:100A7000CDE90621089010464FF400713322134B44
:100A8000CDE90132CDE9031005200023104A11A160
:100A90000090134801F026F80BB000BD300C002088
:100AA000A1080008417070205461736B3100000090
:100AB000D801002030140020D508000841707020B3
:100AC0005461736B32000000A0020020301C002033
:100AD00015090008417070205461736B33000000E9
:100AE0006803002038B5044600F044F800F060F8D0
:100AF00000F0ECFB684600F06BFF00F0C7F807A0C1
:100B000003F052FDFFF77EFF0CA003F04DFDFFF751
:100B1000B5FE6946124801F0D1F838BD43726561EF
:100B200074696E67204170706C69636174696F6E7F
:100B3000205461736B732E2E2E0A0D004372656173
:100B400074696E67204170706C69636174696F6E5F
:100B5000204576656E74732E2E2E0A0D000000005F
:100B60001001002000B585B0684603F081FB0198B4
:100B700005B000BD10B500F0FFFB00F069FB00F010
:100B8000E3FA00F0F7FA00F041F900F001F810BDC7
:100B900070B5FFF7E7FF044603480068B4FBF0F5C3
:100BA000284601F06BFD70BD644F000800BFFEE7F2
:100BB00010B500F0FBF800F003F800F0F3F810BDFA
:100BC00070B5002600201849088018490880184987
:100BD00008601849086018490860184908601849F1
:100BE0000860002400BFFFF7C3FA064600BF0025D7
:100BF0000BE000201049086000F074F800F08CF859
:100C00000D4800680444681C85B2002DF1D00C48E2
:100C100004600020084908600849086000BF3046A9
:100C2000FFF7AAFA00BF70BD2C0000202E000020A4
:100C300030000020340000203C0000204000002054
:100C40003800002001460846044A1268904203D941
:100C5000024A1268801A00E0002070473800002025
:100C600070B5002500BFFFF783FA054600BF0648B0
:100C7000046800BF2846FFF77FFA00BF2046FFF751
:100C8000E1FF0646304670BD3C00002070B50025EF
:100C9000FFF7E6FF044600BFFFF76AFA054600BF0C
:100CA00000200449086000BF2846FFF765FA00BF2E
:100CB000204670BD3C00002070B5002500BFFFF746
:100CC00057FA054600BF0648046800BF2846FFF7EC
:100CD00053FA00BF2046FFF7B5FF0646304670BD09
:100CE0004000002010B509480088401C07490880D2
:100CF0000748008818B900F083F8064908600448DE
:100D00000088401C0249088010BD00002C00002013
:100D10002E0000203000002010B50F480088401E33
:100D20000D49088008460088A0B900F069F80B4911
:100D30000860084600680A490968441A09480068BA
:100D4000A04201D20748046007480068A04201D2CF
:100D50000548046010BD00002E0000203400002073
:100D6000300000203C0000204000002010B500248E
:100D700000BF00BFFFF7FCF9044600BFFFF7B2FF5A
:100D800000BF1021064800F097FA00BFFFF7C4FF2C
:100D900000BF2046FFF7F0F900BF00BF10BD000004
:100DA0003024002010B5FFF7E1FF10BD10B5002082
:100DB0000249086000F00AF810BD00002800002079
:100DC00001490860704700002800002010B50A485B
:100DD000006840F0807008490860002007494860BA
:100DE0000846006840F001000860FFF7BBFE0446BB
:100DF0002046FFF7E5FF10BDFCED00E0001000E02D
:100E00000148406870470000001000E000B585B060
:100E10000121880303F01CFA0121052003F018FAD0
:100E20004FF40070ADF8100018208DF81300032067
:100E30008DF8120004A9134800F0D4F84FF4806034
:100E4000ADF8100004208DF8130004A90D4800F03F
:100E5000C9F84FF4E13000900020ADF80400ADF87F
:100E60000600ADF80800ADF80C000C20ADF80A0043
:100E70006946054803F026FB0121034803F008FBFF
:100E800005B000BD00080140003801407047000077
:100E90002DE9F04387B0002500BF00BFFFF768F9D8
:100EA000054600BFFFF71EFF00BF2848046800BFCB
:100EB000FFF732FF00BF2846FFF75EF900BF00BF13
:100EC000234803F071FB23A003F06EFB2DA003F079
:100ED0006BFB36E034F88C0FFFF7CFF906903549FD
:100EE0000698FFF78CF98146FFF7CCF9074688464C
:100EF000D4E90801014464225043B0FBF1F654F8F0
:100F00006C0CCDE902780096049014F8551CD4E9D5
:100F100008238C3C28A003F047FB00BF00BFFFF76D
:100F200027F9054600BFFFF7DDFE00BFD4F8C0403B
:100F300000BFFFF7F1FE00BF2846FFF71DF900BF15
:100F400000BF002CC6D107B0BDE8F083DC00002054
:100F50001451000820D3C5CFC8BCB620CAB9D3C32A
:100F6000D5BB20CAA3D3E0D5BB20B0D9B7D6B1C872
:100F700020C0FBD3C3C2CA202020C8CECEF1C3FB01
:100F80000D0A000020205072696F202020557365E3
:100F90006420204672656520202050657220202044
:100FA0002043505520202020205461736B6E616DCA
:100FB000650D0A000000C842202020253264202050
:100FC00025356420202535642020202530326425F5
:100FD0002520202025352E3266252520202025732A
:100FE0000D0A00002DE9F0410246002500260020F0
:100FF00000230024002791F803C00CF00F0591F89E
:1010000003C00CF0100CBCF1000F03D091F802C02B
:101010004CEA050591F800C0BCF1000F31D014680E
:1010200000202BE04FF0010C0CFA00F3B1F800C0E7
:101030000CEA03069E4220D183004FF00F0C0CFAFD
:1010400003F7BC4305FA03FC4CEA040491F803C01F
:10105000BCF1280F06D14FF0010C0CFA00FCC2F8CD
:1010600014C00AE091F803C0BCF1480F05D14FF05D
:10107000010C0CFA00FCC2F810C0401C0828D1D3A7
:101080001460B1F800C0BCF1FF0F34DD54680020DB
:101090002EE000F1080C4FF0010808FA0CF3B1F84B
:1010A00000C00CEA03069E4221D183004FF00F0CD2
:1010B0000CFA03F7BC4305FA03FC4CEA040491F86C
:1010C00003C0BCF1280F05D100F1080C08FA0CF898
:1010D000C2F8148091F803C0BCF1480F07D100F1A9
:1010E000080C4FF0010808FA0CF8C2F81080401CF8
:1010F0000828CED35460BDE8F081024600209368F2
:101100000B400BB1012000E00020704741617047A7
:1011100010B501210348FFF7F0FF012800D110BDF1
:101120000020FCE70008014010B54FF400510448CE
:10113000FFF7E3FF08B9012010BD0020FCE7000025
:101140000010014000BFFEE708B50121042003F0B4
:101150007FF80120ADF8000003208DF80200042084
:101160008DF8030069460248FFF73CFF08BD000008
:101170000008014008B50121102003F069F84FF480
:101180000050ADF8000003208DF8020004208DF817
:10119000030069460148FFF725FF08BD0010014024
:1011A0000160002202710222427182710022C2712A
:1011B0007047024601F001030BB10023137110794F
:1011C000704710B50446607901281ED0022804D06B
:1011D000032822D0042839D107E02068804718B1BD
:1011E0000020E0710420607130E0E0790A30E071A5
:1011F000E0790A2808DB2068804718B10120A07137
:10120000607101E00220607120E02068804718B919
:101210000020E0710320607118E0E0790A30E0718D
:10122000E0790A2811DB2068804760B90120A071AD
:10123000022060712079401C20712079FA2804DD99
:10124000FA20207101E00120607100BF00BF10BDD5
:1012500008B501214FF4847002F0FAFF0120ADF8C7
:10126000000003208DF8020010208DF8030069466D
:101270000E48FFF7B7FE4020ADF8000069460C4865
:10128000FFF7B0FE8020ADF8000069460848FFF780
:10129000A9FE01210548FFF739FF40210448FFF767
:1012A00035FF80210248FFF731FF08BD000C0140E7
:1012B0000020014000BFFEE730B505460C4622463F
:1012C0000021284600F026F830BD00000D480E49E8
:1012D00001600146416000218160C160016141619E
:1012E0008161C16101620163C16241620749816339
:1012F000C1634FF4D841016441640146044A11605E
:1013000070470000402400204845415088240020B8
:10131000440000202DE9F04103460C4617460FB962
:10132000BDE8F08103B9FBE70025002202E02D02B1
:101330002543521C042AFAD3384603F0030C1946FD
:10134000BCF1000F08D0624603E001F8014B401EDB
:10135000521C08B1042AF8D30E4601E020C6001F33
:101360000428FBD2314602E001F8014B401E002860
:10137000FAD100BFD4E7704710B54FF4A06000F079
:1013800001F810BD02490143024A11607047000094
:101390000000FA050CED00E07047000010B50348AE
:1013A000006810B101480068804710BD5C00002053
:1013B00070B5044600F0BCF8002045490870454966
:1013C0000870454908704549086045490860454925
:1013D0000870454908704549087045490860454905
:1013E00008604549086045490870454800680A2179
:1013F000B0FBF1F0434908604348006858B14348E6
:10140000056845B14048066803E0761E0020286064
:101410002D1D002EF9D100203D4908603D4908608E
:101420003D4908603D4908603D4908603D49086004
:101430003D4908603D49087001F076FC01F0B0FCC0
:10144000204601F009FA208800B170BD204601F065
:101450006DFA208800B1F8E7204601F073FA208881
:1014600000B1F2E7204601F0D5FA208800B1ECE7A0
:10147000204601F089FC208800B1E6E7204601F013
:10148000E7FD208800B1E0E7204602F03DF8208823
:1014900000B1DAE7204601F011FA208800B1D4E764
:1014A000204602F0E3FC208800B1CEE7204601F0A0
:1014B0006FFF208800B1C8E7204602F033FD208886
:1014C00000B1C2E701F0F2F8FFF766FF00BFBCE72A
:1014D0007000002078000020AC00002004010020F3
:1014E00008010020920000209300002094000020BA
:1014F000A0000020A4000020A8000020B4000020CC
:10150000644F0008B0000020344F0008304F00083E
:101510005000002054000020580000205C000020F3
:10152000600000206400002068000020E20000202D
:101530000A4A1168002002E0002204C1401C084A47
:1015400012689042F8D3054A1268054B1B6802EBFB
:101550008302121F034B1A6070470000304F0008CF
:10156000344F00084800002010B500242E480078B1
:10157000012800D010BD00BFFEF7FAFD044600BFF1
:101580002A48007828B900BF2046FEF7F5FD00BFC5
:10159000F0E726480078401E244908700846007885
:1015A000002805DD00BF2046FEF7E6FD00BFE1E7AD
:1015B0001F480078002805DD00BF2046FEF7DCFD4F
:1015C00000BFD7E701F09CFB1A4908700846007875
:1015D00000EB4000184951F82000184908600846FF
:1015E000006817490968884205D100BF2046FEF708
:1015F000C3FD00BFBEE711480068D0F89000401C52
:101600000E490968C1F890000E480068401C0D4959
:1016100008604FF080500C49086000BF2046FEF77C
:10162000ABFD00BF00BFA5E77800002070000020E0
:10163000AC00002093000020ACA200200801002094
:1016400004010020D800002004ED00E010B50024C3
:1016500020480078002800DD10BD1F4800780028D1
:1016600000DDF9E700BFFEF783FD044600BF01F08F
:1016700047FB1A4908700846007800EB40001849FB
:1016800051F82000174908600846006816490968A3
:10169000884205D100BF2046FEF76EFD00BFDBE7A4
:1016A00010480068D0F89000401C0E490968C1F845
:1016B00090000E480068401C0C4908604FF08050B4
:1016C0000B49086000BF2046FEF756FD00BF00BF73
:1016D000C2E7000070000020AC0000209300002052
:1016E000ACA200200801002004010020D800002046
:1016F00004ED00E070B5044600251A480078002883
:1017000003DD46F66250208070BD1748007801283E
:1017100003D045F689602080F6E714480078FA285F
:1017200003DB45F209202080EEE700BF00BFFEF793
:101730001FFD054600BFFFF7D5FA00BF0B48007834
:10174000401C0A49087001F0E1FB00BFFFF7E4FA12
:1017500000BF2846FEF710FD00BF00BF002020801C
:1017600000BFD1E77000002078000020AC0000200E
:1017700070B50446002523480078002803DD46F6AE
:101780006550208070BD20480078012803D045F6C0
:1017900089602080F6E71D48007818B946F6645045
:1017A0002080EFE700BF00BFFEF7E2FC054600BF68
:1017B000FFF798FA00BF15480078401E13490870DB
:1017C0000846007800280CDD00BFFFF7A5FA00BF2F
:1017D0002846FEF7D1FC00BF00BF46F663502080CC
:1017E000D0E701F0A1FB00BFFFF796FA00BF284643
:1017F000FEF7C2FC00BF00BFFFF728FF00202080DB
:1018000000BFBFE77000002078000020AC0000207F
:1018100010B5044612480078E8B901F071FA114990
:10182000087008460078104908700E48007800EBF0
:1018300040000E4951F820000D4908600846006834
:101840000C490860012006490870FEF7D5FF43F6F1
:101850009920208002E045F68A60208010BD0000BB
:10186000780000209300002092000020ACA200200D
:1018700008010020040100202DE9F04107464FF047
:10188000000800BF00BFFEF773FC804600BFFFF7F3
:1018900029FA00BF002045490880454908604549AC
:1018A0000860454908604549086045490860454960
:1018B000088100BFFFF730FA00BF4046FEF75CFC2E
:1018C00000BF00BF00BF00BFFEF752FC804600BF54
:1018D000FFF708FA00BF3C48046800BFFFF71CFA96
:1018E00000BF4046FEF748FC00BF00BF26E000BF37
:1018F00000BFFEF73DFC804600BFFFF7F3F900BFD5
:1019000000207834E063206420602063A061A0821E
:10191000E0826062A062FFF773FA2062783C04F113
:1019200064060020B081D4F8C04000BFFFF7F4F98E
:1019300000BF4046FEF720FC00BF00BF002CD6D100
:1019400000BF00BFFEF714FC804600BFFFF7CAF9D6
:1019500000BF1E48056800BFFFF7DEF900BF404624
:10196000FEF70AFC00BF00BF16E000BF00BFFEF795
:10197000FFFB804600BFFFF7B5F900BF05F1200669
:101980000020B081AD6900BFFFF7C6F900BF404637
:10199000FEF7F2FB00BF00BF002DE6D102F076F9A2
:1019A00002F0BCFB00203880BDE8F081C2000020BE
:1019B000D4000020E8000020F40000207400002083
:1019C000A4000020A0A20020DC000020980000203D
:1019D000F8B5044600266946364800F04DFCBDF8CF
:1019E000000018B1BDF800002080F8BD6A46002153
:1019F000022000F0AFFCBDF8000018B1BDF80000F7
:101A00002080F2E700BF00BFFEF7B2FB064600BF32
:101A1000FFF768F900BF00202749086000BFFFF703
:101A20007BF900BF3046FEF7A7FB00BF00BF0025D3
:101A30002248006822490968884205D91F48006881
:101A40001F490968B0FBF1F525B91C4800680A2157
:101A5000B0FBF1F56A460021284600F07BFC6946A0
:101A6000144800F0D5F9BDF8000018B1BDF8000029
:101A70002080BAE700BF00BFFEF77AFB064600BF32
:101A8000FFF730F900BF00200E4908600A480068DF
:101A90000D49086001200D49087000BFFFF73CF9AF
:101AA00000BF3046FEF768FB00BF00BF002020806B
:101AB00000BF9AE7BCA50020C4000020644F0008C6
:101AC0004C4F0008D4000020C8000020D0000020A7
:101AD00010B50348006810B101480068804710BD88
:101AE000600000202DE9FF4F85B004469046DDE9F7
:101AF0001995159F139E00200290644800780028D5
:101B000005DD47F24A10288009B0BDE8F08F1CB906
:101B100047F2AD102880F7E7B8F1000F03D147F284
:101B20004F102880F0E71EB946F62F602880EBE7BB
:101B300057480068874203D246F630602880E3E7C2
:101B40001498B84203D346F631602880DCE7129837
:101B5000202803D346F273202880D5E712981F2847
:101B600006D14C48844203D046F273202880CBE74C
:101B7000204601F0D9FC0020288009F0010088B13E
:101B800009F0020070B1B3460020049007E0002085
:101B9000CBF800000BF1040B0498401C049004984F
:101BA000B842F4D3149806EB80000390CDE9007995
:101BB00032464046039B089900F0FEFA8346C4F87B
:101BC00028800898E06206982062129884F837000E
:101BD000C4F800B00398A06017986065179818B90A
:101BE0002D480068A06501E01798A065189860600E
:101BF0006662A763A4F83C904FF0000A08E0002159
:101C000004F17C0040F82A100AF1010000F0FF0AFC
:101C1000BAF1000FF3D004F16400169900F0F2FE5F
:101C2000204600F03FF800BF00BFFEF7A1FA029087
:101C300000BFFFF757F800BF94F8370001F080F8B5
:101C4000204601F0F5F8204601F024FC13480088F6
:101C5000401C1249088012480078012809D000BFB2
:101C6000FFF75AF800BF0298FEF786FA00BF00BFE0
:101C70004AE700BFFFF750F800BF0298FEF77CFA72
:101C800000BF00BFFFF7E2FC00BF3DE7700000208F
:101C9000604F0008D8A10020B0000020E000002024
:101CA0007800002010B504460348006818B12046AB
:101CB00001490968884710BD5000002070B50446EE
:101CC0000D46002648480078002803DD47F24E10F4
:101CD000288070BD4548844203D147F24C102880CB
:101CE000F7E79CB900BF00BFFEF742FA064600BF07
:101CF000FEF7F8FF00BF3E48046800BFFFF70CF88E
:101D000000BF3046FEF738FA00BF00BF00BF00BF7B
:101D1000FEF72EFA064600BFFEF7E4FF00BF94F878
:101D2000360008282DD2DFE800F004090E10080A5A
:101D30000F11204601F0BCF830E02FE000BF204634
:101D400001F088FF2AE000BF00BF00BF204601F07D
:101D500081FF94F83400082810D2DFE800F004076F
:101D60000508090A0B0600BF00BF08E000BF00BF5E
:101D700000BF00BF204600F014FF00E000BF00BF1E
:101D80000CE000BFFEF7C8FF00BF3046FEF7F4F9D5
:101D900000BF00BF46F62D6028809AE700BF04F11F
:101DA000640000F00DFE204600F026F8204601F009
:101DB00089FB10480088401E0E490880204601F02B
:101DC000B3FBFF2084F8360000BFFEF7A5FF00BF7D
:101DD0003046FEF7D1F900BF00BF00202880FFF792
:101DE00035FC00BF75E7000070000020D8A100207E
:101DF00004010020E000002010B5044603480068FC
:101E000018B1204601490968884710BD54000020D8
:101E100070B504460D46002618480078002803DDFA
:101E200047F25510288070BD00BF00BFFEF7A0F933
:101E3000064600BFFEF756FF00BF1CB11048006801
:101E400084420CD100BFFEF767FF00BF3046FEF7AB
:101E500093F900BF00BF47F257102880E3E700BFA7
:101E6000FEF75AFF00BF3046FEF786F900BF00BFFD
:101E70002946204601F0CEFB00BFD4E770000020C9
:101E80000401002010B504460348006818B120463C
:101E900001490968884710BD580000202DE9F04726
:101EA00080460E4614461D464FF0000976480078DD
:101EB000002805DD46F2AE1028800020BDE8F0873E
:101EC0001EB1B6F5004F02D100E000BF04E045F6B8
:101ED000256028800020F1E700BF0CB100202060C1
:101EE00000BF00BFFEF744F9814600BFFEF7FAFECF
:101EF00000BF66480068406CB8B364480068406C36
:101F0000401E62490968486460480068476C1CB11B
:101F10005E480068006C2060FEF772FF5B4909684C
:101F2000096C401A59490968C1F8A400574800686B
:101F3000D0F8A80055490968D1F8A410884207D202
:101F400052480068D0F8A40050490968C1F8A800B8
:101F500000BFFEF7E1FE00BF4846FEF70DF900BFE7
:101F600000BF002028803846A8E7FFE706F40040BD
:101F700068B100BFFEF7D0FE00BF4846FEF7FCF890
:101F800000BF00BF46F2B0102880002096E740480E
:101F9000007800280DDD00BFFEF7BEFE00BF4846FA
:101FA000FEF7EAF800BF00BF46F663502880002025
:101FB00084E7434607220021084600F037FD00BFB2
:101FC000FEF7AAFE00BF4846FEF7D6F800BF00BFE6
:101FD000FFF73CFB00BF00BFFEF7CAF8814600BF19
:101FE000FEF780FE00BF2948006890F8350020B158
:101FF000012826D0032834D12CE0FCB12348006806
:10200000006C2060FEF7FCFE20490968096C401A4C
:102010001E490968C1F8A4001C480068D0F8A8004F
:102020001A490968D1F8A410884207D217480068F5
:10203000D0F8A40015490968C1F8A800002028803C
:1020400013E01CB111480068006C206046F2A91032
:1020500028800AE00CB10020206047F2D9202880B7
:1020600003E046F62E60288000BF00BF07480068E6
:10207000476C00BFFEF750FE00BF4846FEF77CF8F5
:1020800000BF00BF384619E770000020040100209F
:10209000AC0000202DE9F04106460D4614461DB166
:1020A000B5F5004F02D100E000BF05E045F6256020
:1020B00020800020BDE8F08100BFFEF7A1FE804631
:1020C000234642462946304601F03EFB0746384645
:1020D000F0E700002DE9F04705460E4617461C467E
:1020E0004FF0000A32480078002804DD47F259100A
:1020F0002080BDE8F0871EB946F2D5202080F8E7A1
:102100001FB946F2D5202080F3E700BF00BFFEF7DD
:102110002FF8824600BFFEF7E5FD00BF0DB9254848
:102120000568286878B900BFFEF7F6FD00BF504685
:10213000FEF722F800BF00BF00203060386047F291
:1021400052102080D5E795F83C0000F0010078B9E6
:1021500000BFFEF7E1FD00BF5046FEF70DF800BFDF
:1021600000BF00203060386047F254102080C0E784
:1021700000BFFEF7D1FD00BF5046FDF7FDFF00BFD9
:1021800000BF4FF00008D5F8249003E009F10409DE
:1021900008F10108D9F800000028F7D0C6F800803F
:1021A000A86BA0EB080038600020208000BFA0E7EB
:1021B0007000002004010020F0B50446DDE905565A
:1021C00002EB85004FF0807C071F3846C7F800C03F
:1021D000071F38463C60DFF89CC0071F3846C7F829
:1021E00000C04FF0123C071F3846C7F800C04FF040
:1021F000033C071F3846C7F800C04FF0023C071FDA
:102200003846C7F800C0071F38463B60071F3846EE
:1022100039604FF0113C071F3846C7F800C04FF037
:10222000103C071F3846C7F800C04FF0093C071F95
:102230003846C7F800C04FF0083C071F3846C7F8BB
:1022400000C04FF0073C071F3846C7F800C04FF0EA
:10225000063C071F3846C7F800C04FF0053C071F73
:102260003846C7F800C04FF0043C071F3846C7F88F
:1022700000C0F0BD3137000870B505460C460A486D
:102280000078002803DD47F25D10208070BD07480C
:10229000854203D147F25B102080F7E721462846AC
:1022A00001F04AFB00BFF1E770000020D8A1002038
:1022B00070B52448006810B1224800688047FEF7D6
:1022C0009FFD04462048006820490968884215D0CF
:1022D0001D480068D0F89800201A1B490968C1F809
:1022E000940019480068D0F89C0017490968D1F893
:1022F0009410084414490968C1F89C001348006808
:10230000C0F89840FEF7C2FC05460F480068D0F8B8
:10231000B400A84203D20C480068C0F8B4500A4880
:102320000068D0F8B8000A490968884205D2084810
:10233000006805490968C1F8B80000200449086030
:1023400070BD00006400002004010020080100208E
:10235000A80000202DE9F04105460E46144600274E
:102360002D480078002804DD47F275202080BDE864
:10237000F0812A480078002803DD46F6635020806B
:10238000F5E736B1022E05D0042E0AD0082E09D169
:1023900001E000BF00BF1DB947F27E202080E6E7C4
:1023A00004E003E045F625602080E0E700BF00BFC1
:1023B00000BFFDF7DDFE074600BFFEF793FC00BF40
:1023C00001201749096881F836002346324629461C
:1023D0001348006801F060FB208848B100BFFEF799
:1023E0009BFC00BF3846FDF7C7FE00BF00BFBEE73D
:1023F0000B48006800F05CFD00BFFEF78DFC00BFDD
:102400003846FDF7B9FE00BF00BFFFF71FF90020F7
:10241000208000BFABE7000070000020AC0000206F
:10242000040100202DE9FF5F05460E461746984639
:10243000DDE90EA40020009060480078002804DD4B
:1024400047F275202080BDE8FF9F5D480078002896
:1024500003DD46F663502080F5E70AF00E0BBBF172
:10246000000F09D0BBF1020F07D0BBF1040F10D051
:10247000BBF1080F0ED101E000BF00BFB8F1000FA3
:1024800006D12FB926B91DB947F27E202080DAE7A0
:1024900004E003E045F625602080D4E700BF2AF081
:1024A0001E0008B1012000E00020039003980128DD
:1024B00003D145F625602080C5E7CAF300100290DD
:1024C0000298C0B9B8F57A7F03D347F27B20208009
:1024D000B9E73B2F03DD47F27A202080B3E73B2E9C
:1024E00003DD47F279202080ADE7632D12DD47F24E
:1024F00078202080A7E742F20F70864203DD47F282
:10250000792020809FE7B5F57A7F03DB47F27820BA
:10251000208098E72B48D0F800904FF4FA70B0FB79
:10252000F9F0404400FB09F04FF47A71B0FBF1F18F
:102530004FF461606843C6EB061200EB820038443A
:1025400000FB09100190019890B300BF00BFFDF798
:102550000FFE009000BFFEF7C5FB00BF01201A4927
:10256000096881F8360023465A46174801990068E1
:1025700001F092FA208848B100BFFEF7CDFB00BF02
:102580000098FDF7F9FD00BF00BF5CE70E4800684A
:1025900000F08EFC00BFFEF7BFFB00BF0098FDF708
:1025A000EBFD00BF00BFFFF751F80020208003E0E3
:1025B000FFE747F27E20208000BF44E77000002044
:1025C000AC000020644F00080401002008B500F0B2
:1025D0002BF86A4600210E48FFF75CFD0D4909788B
:1025E00001EB41010C4A02EB810000F0BBFC0B48FF
:1025F0000068401E094908600846006838B9084864
:10260000006808606A4600210648FFF743FD08BDE0
:10261000F4A4002092000020ACA2002000010020C1
:10262000FC000020BCA5002010B50348006810B1D4
:1026300001480068804710BD6800002010B50024E4
:1026400000BF00BFFDF794FD044600BFFEF74AFB44
:1026500000BF09480078401C0749087000BFFEF71A
:102660005BFB00BF2046FDF787FD00BF00BFFFF703
:10267000ADFFFEF779FF10BD7000002001464A1E35
:102680004FF0E0235A61084A106820F07F4000BFF5
:1026900010601A46126942F005021A611A46126960
:1026A00042F002021A61704720ED00E0244A2549F9
:1026B000254A264A2649274A2748284A284A294A95
:1026C000294A2A482A482B4A2B482C4A2C482D4A6A
:1026D0002D482E482E482F482F4A304A304A31483C
:1026E000314A324A3248334833483448344835480E
:1026F0003548364A364A374A374A384838483948DA
:10270000394A3A4A3A4A3B483B483C483C493D48AA
:102710003D4A3E4A3E4A3F4A3F4A404A404A414873
:10272000414A424A42484348434A444A4448454A47
:10273000454A46484648474800BF00BF00BF70476B
:10274000A84F000810510008A94F0008AA4F000820
:10275000AC4F0008B04F0008B44F0008B14F00085C
:10276000DC4F0008DD4F0008DE4F0008E04F000896
:10277000E24F0008E64F0008E84F00080850000844
:102780000A5000080C5000080E50000810500008B5
:102790001250000814500008405000084150000832
:1027A00042500008445000084650000847500008B6
:1027B000485000084A5000084C5000084E5000088D
:1027C000505000085250000854500008845000082F
:1027D000855000088650000887500008885000087F
:1027E0008A5000088C500008B4500008B55000080A
:1027F000B6500008B7500008B8500008BA5000089A
:10280000BC500008C0500008C1500008C250000869
:10281000C3500008C4500008C5500008C650000846
:10282000C7500008C8500008CA500008CB50000824
:10283000CC500008CE500008D0500008D1500008FD
:10284000D450000808510008095100080A51000836
:102850000C5100080E5100080021034A1160034A80
:1028600011800180704700007C0000208000002063
:10287000002400BF1DE000BF00BFFDF779FC044647
:1028800000BFFEF72FFA00BF0A480068401C094944
:10289000086009480068401C0749086000BFFEF74F
:1028A0003BFA00BF2046FDF767FC00BF00BFFEF704
:1028B00075FDE0E76C000020C400002010B58AB070
:1028C000044600200E4908600B2000210591CDE947
:1028D0000704069108460B4909680B4A12680B4B1E
:1028E0001B68CDE90132CDE903101F200023084AFF
:1028F00008A100900C48FFF7F5F80AB010BD0000E1
:102900006C0000200C4F0008084F0008044F00081E
:102910007128000875432F4F532D494949204964B8
:102920006C65205461736B00D8A100200021034A1C
:102930001160034A1180018070470000840000206C
:102940008800002070B501461A4D2D681DB945F26A
:102950001E750D8070BD184D2D881DB945F21D7571
:102960000D80F7E7134D28682A681032124D2D8824
:102970006D1EACB2002308E00260002545600581B1
:10298000C560103010325D1CABB2A342F4DB0025F1
:10299000056045600581C560064D2D68074E3560B0
:1029A000054D2D88B5800025F58035810D8000BF4F
:1029B000D0E70000444F00083C4F0008A0A20020D0
:1029C00010B5014648894B89002B17DD0A680C4B6E
:1029D0001B6813600A4C4B6823602346DB884C89D4
:1029E0001B1B074CE38023469B884C892344044CE3
:1029F000A38000234B818B810B604B6010BD0000D6
:102A0000A0A20020018100224281828102604260F6
:102A1000704700000021034A1160034A11800180C1
:102A2000704700008C000020900000202DE9F0414C
:102A300005460C4616461F461548006880F8346067
:102A400000201349096881F83500394610480068AC
:102A500000F004FD6CB104F10808EC600122294685
:102A60000B48006800F016F82946404600F066F86A
:102A700006E0002006490968C88705490968086317
:102A800003480168204600F019F8BDE8F081000015
:102A90000401002010B5C287016300230AE000246E
:102AA0004C600C600C614C610C83CC6188602031FF
:102AB0005C1CA3B29342F2DB10BD000030B548B1FC
:102AC0004568C1F8C45000F10804226893681D6A83
:102AD000C56113E091F83450022D02D0072D08D1C2
:102AE00003E007A5C1F8C45007E007A5C1F8C4502A
:102AF00003E008A5C1F8C45000BF00BF30BD00000E
:102B00005461736B205100005461736B2053656DE9
:102B1000000000002000000030B507A5C1F8C45037
:102B200000F1080422681AB193681D6AC56101E0CA
:102B300001A5C56130BD000020000000F0B58E6821
:102B400096F8375007893FB90127078100274F6062
:102B50000F600160416023E007897F1C07810268E4
:102B600006E0946894F83770AF4200DD02E05268E6
:102B7000002AF6D100BF32B900274F6043680B60CE
:102B8000596041600CE017682FB9116000270F6091
:102B90004A60016004E013680B604A60596011608C
:102BA000F0BD2DE9F0410446256BE68F0AE0D5F82B
:102BB0000C8008F108072946384600F00AF820354D
:102BC000701E86B2002EF2DC0020E0872063BDE894
:102BD000F08110B50489012C03D100240460446005
:102BE00011E00C6824B94A680024146002600AE00D
:102BF0004C6824B90B6800245C60436003E00B68F8
:102C00004A685A6013600489641E048100244C6081
:102C10000C6010BD2DE9F84306460C461746984651
:102C2000089D94F83600082850D2DFE800F004052B
:102C3000080906072B2C00BF00BF00BF47E000BFFC
:102C400094F83400032807D143463A4621463046DB
:102C5000009500F03FF803E0E765A4F86080256484
:102C600036B12046FFF79DFF21463046FFF754FF5F
:102C7000204600F0C1FC00203434A070607004F8DD
:102C8000340924E000BF94F83400032807D14346F8
:102C90003A4621463046009500F01CF803E0E7650F
:102CA000A4F860802564204600F0D4FF36B12046A9
:102CB000FFF777FF21463046FFF72EFF042034341C
:102CC000A0700020607004F8340900E000BF00BF6D
:102CD000BDE8F883F0B50446059E086BCD8F0AE089
:102CE000C768A74204D1046142610383C66104E05E
:102CF00020306F1EBDB2002DF2DC00BFF0BD000021
:102D000070B50025074C03E005F12000C5B2241D75
:102D100020680028F8D02068FDF735FA2844C5B2AD
:102D2000284670BD4C000020002004E00021034A2A
:102D300042F82010401C0028F8D070474C000020BA
:102D400030B5420900F01F030121C3F11F04A14067
:102D5000034C54F822400C43014D45F8224030BD4D
:102D60004C00002030B5420900F01F030121C3F1DF
:102D70001F04A140034C54F822408C43014D45F8F8
:102D8000224030BD4C0000200021034A1160034A5C
:102D90001180018070470000980000209C000020F6
:102DA00000210AE001EB4102054B03EB8200002207
:102DB0000281026042604A1CD1B22029F2D37047DE
:102DC000ACA2002010B5044694F83700FFF7B8FF16
:102DD00094F8370005490978884203D1204600F06D
:102DE00027F802E0204600F003F810BD9200002012
:102DF00010B590F8373003EB43030C4C04EB830120
:102E00000B893BB901230B810023C3600361086078
:102E1000486009E00B895B1C0B810B68C3600023D1
:102E200003610A681061086010BD0000ACA20020B8
:102E300010B590F8373003EB43030B4C04EB8301E0
:102E40000B893BB901230B810023C3600361086038
:102E5000486008E00B895B1C0B810023C3604A6853
:102E60000261D060486010BDACA2002010B50146E0
:102E70000C8924B1012C03D0022C0CD101E000BF3D
:102E800014E008684A6802610024C4601461D060DC
:102E90000A6048600AE008684A68C36800241C6148
:102EA000C4600261D0600B60486000BF00BF10BD0D
:102EB0002DE9F041054695F8370000EB4000124936
:102EC00001EB80042F69EE6887B946B900202081A4
:102ED0002060606095F83700FFF744FF0EE020891E
:102EE000401E208100203061266007E02089401EBE
:102EF0002081FE600EB9676000E037610020286124
:102F0000E860BDE8F0810000ACA2002010B50448E4
:102F10000078012803D1FDF773FF0249086010BD56
:102F2000AC000020A000002010B50A48007880B94D
:102F3000FDF766FF08490968441A08480068A0427E
:102F400001D20648046006480068A04201D2044845
:102F5000046010BDAC000020A0000020A4000020F0
:102F6000A800002070B505460026354800780128E5
:102F700000D070BD00BF00BFFDF7FAF8064600BFE5
:102F8000FDF7B0FE00BF2C684CB900BFFDF7C4FED2
:102F900000BF3046FDF7F0F800BF00BFE9E7294861
:102FA000844209D100BFFDF7B7FE00BF3046FDF7F0
:102FB000E3F800BF00BFDCE7A06D10B1A06D401EBC
:102FC000A065A06D48B100BFFDF7A6FE00BF30466A
:102FD000FDF7D2F800BF00BFCBE72889022809DA45
:102FE00000BFFDF799FE00BF3046FDF7C5F800BFF2
:102FF00000BFBEE714480078002809DD00BFFDF7D8
:103000008BFE00BF3046FDF7B7F800BF00BFB0E74A
:103010002846FFF72BFF2C68606D18B90B48006835
:10302000A06501E0606DA06500BFFDF775FE00BF03
:103030003046FDF7A1F800BF00BF00BF99E70000D0
:10304000B4000020D8A10020AC000020B000002077
:103050000021034A1160034A11800180704700007B
:10306000B8000020BC00002086B00020009000BF07
:1030700006E0B7490968480001AA0021FFF76AF98C
:10308000B44800780128F4D101A8FEF7F5FB002729
:10309000B1480068AE490968884205D9AE48006861
:1030A000AB490968B0FBF1F727B9AB4800680A21C2
:1030B000B0FBF1F74AE1FDF7A3FE8246FDF7FCFD08
:1030C000A649086000BF00BFFDF752F8009000BF9E
:1030D000FDF708FE00BFA2480068A2490860002072
:1030E0009F49086000BFFDF717FE00BF0098FDF77D
:1030F00043F800BF00BF9C4800689A4909688842AD
:1031000048D9994800689949884205D242F210701E
:1031100003900120029023E093480068944988427C
:1031200005D24FF47A7003900A20029018E08E487E
:1031300000689049884203D26420039002900FE017
:10314000894800688C49884205D20A2003904FF4D0
:103150007A70029004E00120039042F21070029015
:10316000814801680298B1FBF0F97E49039809682B
:103170004843B0FBF9F042F21071081A7F49088009
:103180007F4800880988884208DA7C4800887C49A2
:10319000088003E042F2107078490880FEF798FC3E
:1031A000002500BF00BFFCF7E3FF009000BFFDF764
:1031B00099FD00BF7348046800BFFDF7ADFD00BF77
:1031C0000098FCF7D9FF00BF00BF2EE000BF00BF92
:1031D000FCF7CEFF009000BFFDF784FD00BF54F860
:1031E0009C0F6060002044F89C0900BFFDF794FD2F
:1031F00000BF0098FCF7C0FF00BF00BFD4F8A000DC
:10320000054400BF00BFFCF7B3FF009000BFFDF70F
:1032100069FD00BFD4F8C04000BFFDF77DFD00BFD1
:103220000098FCF7A9FF00BF00BF002CCED145B32A
:103230004E48854205D242F2107005904FF0010BC6
:103240001BE04B48854205D24FF47A7005904FF051
:103250000A0B12E04748854203D26420059083465A
:103260000BE04548854204D20A2005904FF47A7B52
:1032700003E00120059042F2107BB5FBFBF00490C7
:1032800003E0002005900120049000BF00BFFCF780
:103290006FFF009000BFFDF725FD00BF39480468AF
:1032A00000BFFDF739FD00BF0098FCF765FF00BFC8
:1032B00000BF2FE0D4F8A000059948430499B0FB63
:1032C000F1F086B242F21070864200D90646A4F8A8
:1032D0008C60B4F88E00B04201DAA4F88E6001ABC5
:1032E00004F1AC02111D2046FEF7F4FE00BF00BF42
:1032F000FCF73EFF009000BFFDF7F4FC00BFD4F8E0
:10330000C04000BFFDF708FD00BF0098FCF734FF88
:1033100000BF00BF002CCDD11B480078012805D18B
:1033200000201949087001A8FEF7A6FAFDF768FD0C
:10333000A0EB0A0815480068404502D21348C0F8BF
:10334000008001AA00213846FFF704F8B3E6000028
:103350004C4F0008D0000020644F0008740000208B
:10336000C4000020CC000020C8000020801A060005
:1033700000093D00005A62020084D717C0000020F7
:10338000C2000020DC000020BE000020D40000208D
:1033900010B58AB0044600201F4908601F49086024
:1033A0001F4908601F4908701F4908701F480068BE
:1033B00020B946F62B6020800AB010BD1C4800687A
:1033C0001C490968884203D246F62C602080F3E746
:1033D000194800781F2803D346F62A602080EBE7BF
:1033E000032000210591CDE9070406910846104904
:1033F0000968124A12680D4B1B68CDE90132CDE90C
:1034000003100D48007800230D4A0EA100901248C9
:10341000FEF768FB00BFCFE7C4000020CC0000200F
:10342000C8000020D0000020BE000020504F00083F
:10343000584F0008604F0008484F0008544F0008DC
:103440006930000875432F4F532D49494920537463
:103450006174205461736B002CA4002038B50446BD
:103460000D4685B16B4602222946204600F014FB2A
:10347000BDF8000018B9032084F8360006E00220E9
:1034800084F8360002E0022084F836002046FFF778
:103490000FFD38BD0021C0F8BC100949096819B9F1
:1034A0000021C0F8C01007E005490968C0F8C01045
:1034B00003490968C1F8BC00014908607047000071
:1034C000DC000020D0F8BC20D0F8C0104AB90D4B69
:1034D000196011B10023C1F8BC300023C0F8C0301E
:1034E0000FE029B90023C2F8C030C0F8BC3008E0B2
:1034F000C2F8C010C1F8BC200023C0F8C030C0F82A
:10350000BC307047DC0000200021044A1160044AEE
:103510001180044A1160018070470000DC00002027
:10352000E0000020D800002070B504460020206094
:10353000A0606060E06020616061A061E0612BA03C
:10354000206200206062A062E0622063E087206465
:10355000E065A4F86000002104F16400FFF752FA6E
:10356000002044F8740F6060E060A0822061743C29
:10357000002506E0002104F17C0040F82510681CBD
:10358000C5B2002DF6D0002034342061206760677A
:10359000606084F85600E067A06720814FF000402B
:1035A00060610020A061E06120626062A4F85800C0
:1035B000A4F85A00E0652066FDF722FC0646666620
:1035C0000020A066C4F88000C4F8840020706070F9
:1035D000A0702020E0700020C4F88800C4F88C009F
:1035E00004A0C4F89000343C70BD00003F546173E7
:1035F0006B0000002000000010B50446204600F0DB
:1036000029FB94F8360000F0040010B92046FFF7BB
:10361000D9FB10BD70B504460D46002600BF00BFA3
:10362000FCF7A6FD064600BFFDF75CFB00BF0020CF
:10363000288094F83600082868D2DFE800F00405F6
:103640000607142B3F5300BF00BF00BF00BFFDF7AC
:1036500063FB00BF3046FCF78FFD00BF00BF47F2A1
:10366000531028805FE014F88A0F401E207014F871
:103670008A0928B9002084F836002046FFF7BCFFED
:1036800000BFFDF749FB00BF3046FCF775FD00BFEA
:1036900000BF48E014F88A0F401E207014F88A0911
:1036A00010B9012084F8360000BFFDF735FB00BFDC
:1036B0003046FCF761FD00BF00BF34E014F88A0F0C
:1036C000401E207014F88A0910B9022084F83600D0
:1036D00000BFFDF721FB00BF3046FCF74DFD00BFEA
:1036E00000BF20E014F88A0F401E207014F88A09E9
:1036F00010B9032084F8360000BFFDF70DFB00BFB2
:103700003046FCF739FD00BF00BF0CE000BFFDF7FD
:1037100003FB00BF3046FCF72FFD00BF00BF46F69D
:103720002D60288070BD00BFFDF790FF00BFF9E756
:1037300008B504480068FEF7A5FB69460020FEF7BF
:10374000BDFA08BD040100202DE9F843044688466F
:1037500017461D464FF0000900BF00BFFCF708FDEB
:10376000814600BFFDF7BEFA00BF0CB9714804687E
:1037700027640020288094F83600082878D2DFE8F3
:1037800000F00405585906075A5B00BF00BF00BF90
:103790000420012804D0022815D0042839D126E0BD
:1037A000606CFF280ED100BFFDF7B6FA00BF484697
:1037B000FCF7E2FC00BF00BF46F6C55028800020A1
:1037C000BDE8F88326E04FF6FF71606C88420DD1AA
:1037D00000BFFDF7A1FA00BF4846FCF7CDFC00BFD3
:1037E00000BF46F6C55028800020E9E712E0606C73
:1037F000401C68B900BFFDF78FFA00BF4846FCF7D0
:10380000BBFC00BF00BF46F6C55028800020D7E7AC
:1038100000E000BF00BF606C401C6064666C00BFCD
:10382000FDF77AFA00BF4846FCF7A6FC00BF00BFD0
:103830007DE000BF00BF00BF94F83400072818D116
:1038400000231A46214618460097FFF7E3F9666CF5
:1038500000BFFDF761FA00BF4846FCF78DFC00BFD2
:1038600000BF08F40040002852D1FDF7EFFE4FE002
:103870004FE00420012804D0022814D0042838D1B5
:1038800025E0606CFF280DD100BFFDF745FA00BFB1
:103890004846FCF771FC00BF00BF46F6C5502880C3
:1038A00000208DE726E04FF6FF71606C88420DD155
:1038B00000BFFDF731FA00BF4846FCF75DFC00BFD2
:1038C00000BF46F6C5502880002079E712E0606C02
:1038D000401C68B900BFFDF71FFA00BF4846FCF75F
:1038E0004BFC00BF00BF46F6C5502880002067E7AC
:1038F00000E000BF00BF606C401C6064666C00BFED
:10390000FDF70AFA00BF4846FCF736FC00BF00BFCF
:103910000DE000BFFDF700FA00BF4846FCF72CFCA5
:1039200000BF00BF46F62D602880002600BF00BF04
:10393000304645E70401002070B504460D460026D8
:1039400000BF00BFFCF714FC064600BFFDF7CAF934
:1039500000BF0CB94448046843480068844210D151
:103960004248007800280CDD00BFFDF7D5F900BF04
:103970003046FCF701FC00BF00BF46F663502880CC
:1039800070BD0020288094F8360008285AD2DFE85D
:1039900000F0041727374748494A042084F83600C6
:1039A000012084F88A002046FFF782FA00BFFDF765
:1039B000B3F900BF3046FCF7DFFB00BF00BF4EE0AD
:1039C000052084F83600012084F88A0000BFFDF746
:1039D000A3F900BF3046FCF7CFFB00BF00BF3EE0BD
:1039E000062084F83600012084F88A0000BFFDF725
:1039F00093F900BF3046FCF7BFFB00BF00BF2EE0CD
:103A0000072084F83600012084F88A0000BFFDF703
:103A100083F900BF3046FCF7AFFB00BF00BF1EE0DC
:103A200000BF00BF00BF94F88A00401C84F88A00E1
:103A300000BFFDF771F900BF3046FCF79DFB00BFEA
:103A400000BF0CE000BFFDF767F900BF3046FCF790
:103A500093FB00BF00BF46F62D60288090E700BFB3
:103A6000FDF7F4FD00BF8BE704010020AC0000204F
:103A7000002108E0064A02EBC100002202608280B9
:103A8000C2804A1C91B2034A12889142F2DB70470D
:103A9000C89E00207C4F00082DE9F04F0C461646CA
:103AA0001D46042E1ED1DFF8A091D9F80090A4EB9A
:103AB0000909A9F1010313F5803F0DD94FF0000961
:103AC000C0F84C90C0F85090C0F81C9047F27E2986
:103AD000A5F80090BDE8F08FC46403F10109C0F8B7
:103AE00050903FE084B3082E25D1D0F8489009EBE0
:103AF0000407DFF85491D9F80090A7EB0909A9F160
:103B00000103A34201D2C76406E0DFF83C91D9F873
:103B10000090A144C0F84C90DFF82CA1D0F84C9054
:103B2000DAF800A0A9EB0A09C0F85090D0F84C9040
:103B3000C0F8489016E0DFF81091D9F80090A14441
:103B4000C0F84C9004650DE0FFE74FF00009C0F8A5
:103B50004C90C0F85090C0F81C9047F27E29A5F810
:103B60000090B7E7DFF8E4A0BAF800A0D0F84C90D6
:103B7000B9FBFAFB0AFB1B991FFA89F8DFF8D09012
:103B800009EBC802B2F80490B9F1000F0BD14FF065
:103B90000009C0F81490C0F8189010604FF00109A7
:103BA000A2F804903EE0116834E0DFF89CA0D1F860
:103BB0004C90DAF800A0A9EB0A09C1F85090D0F8AF
:103BC0005090D1F850A0D1450ED9D1F81490B9F148
:103BD000000F01D049691DE04FF00009C0F81490B2
:103BE00081614861002115E0D1F81890B9F1000F0A
:103BF00007D14FF00009C0F818904161886110604A
:103C000007E0D1F818C0C0F818C04161CCF8140022
:103C1000886100210029C8D1B2F8049009F1010996
:103C2000A2F80490B2F80690B2F804A0D14503DAE5
:103C3000B2F80490A2F80690C2614FF00009A5F80E
:103C4000009000BF46E70000E40000207C4F000821
:103C5000C89E002010B5C269BAB10024046514687A
:103C6000844205D14169116039B100248C6104E0BE
:103C7000816943694B6103B19961002444618461A6
:103C8000C461C4649488641E948010BD002006E062
:103C9000054A02EBC0010022CA80421C90B2034ACE
:103CA00012889042F4DB7047C89E00207C4F0008C9
:103CB0002DE9F05F4FF0000B00BF00BFFCF758FA92
:103CC000834600BFFDF70EF800BFFDF799F80546E3
:103CD00057480068401C5649086008460068554926
:103CE0000988B0FBF1F201FB12001FFA80FA52487A
:103CF00000EBCA08D8F80040002782E0002C7FD0F3
:103D0000D4F8149094F83600082875D2DFE800F053
:103D10000408051B063D075000BF00BF00BF6CE054
:103D20004349E06C0968401A20654149E06C096824
:103D3000884206D1002084F836002046FFF75CFC5C
:103D400000E0012759E03A49E06C0968401A206513
:103D50003749E06C0968884215D10020E065A4F875
:103D60006000FDF74DF820642046FEF71AFF20465C
:103D7000FFF742FC00203434A07003206070002064
:103D800004F8340900E0012737E02949E06C0968AC
:103D9000401A20652649E06C0968884206D1042053
:103DA00084F836002046FFF755FF00E0012724E0A5
:103DB0001F49E06C0968401A20651D49E06C0968DC
:103DC000884217D10020E065A4F86000FDF718F8DC
:103DD00020642046FEF7E5FE2046FFF73BFF042067
:103DE0003434A07003206070002004F8340902E02D
:103DF00006E001E0012700E000BF00BF4C4600E004
:103E00000127002F3FF47AAFFCF7FAFF461B0B485F
:103E10000068B04201D20948066000BFFCF77CFF91
:103E200000BF5846FCF7A8F900BF00BFBDE8F09FEF
:103E3000E40000207C4F0008C89E0020E80000201D
:103E40001CB500BF0EE001AB6A4600210846FEF734
:103E500025F8BDF8040028B903480078012801D1ED
:103E6000FFF726FFEFE700007800002010B58AB0CA
:103E7000044600201D4908601D490860FFF7F8FD51
:103E80001C48006820B947F2122020800AB010BDFB
:103E90001948006819490968884203D247F213207B
:103EA0002080F3E7164800781F2803D347F211203B
:103EB0002080EBE70B20002105910A46CDE907049D
:103EC00006910D4800680F4909680A4B1B68CDE947
:103ED0000131CDE903020A48007800230A4A0BA108
:103EE00000900F48FDF7FEFD00BFCFE7E400002083
:103EF000E80000206C4F0008744F0008604F000875
:103F0000684F0008704F0008413E000875432F4F6E
:103F1000532D494949205469636B205461736B00E8
:103F2000F4A4002070B58AB004460020314908602E
:103F30003148006840B1314800682F490968B0FB3A
:103F4000F1F02F49086006E02C4800680A21B0FB18
:103F5000F1F02B4908602A4800682A4908600020CF
:103F60002949086029490860002508E0284800EB35
:103F7000C5060020B080F0803060681C85B22548FE
:103F800000888542F2DB2448006820B947F24730B8
:103F900020800AB070BD2148006821490968884224
:103FA00003D247F248302080F3E71E4800781F28EC
:103FB00003D347F246302080EBE70B200021059128
:103FC000CDE907040691084614490968164A1268A3
:103FD000114B1B68CDE90132CDE90310114800787F
:103FE0000023124A12A100901748FDF77BFD00BF85
:103FF000CFE70000EC000020884F0008644F000865
:10400000FC00002000010020F8000020F400002047
:1040100050A100209C4F00088C4F0008944F0008CE
:10402000604F0008844F0008904F0008414100088D
:1040300075432F4F532D4949492054696D657220AE
:104040005461736B00000000BCA50020F0B50C4665
:10405000022680F82A60012C05D12D4F466A3F6860
:104060003E4486610CE0066A2EB9294F466A3F68D5
:104070003E44866104E0264F066A3F683E448661FE
:10408000244F3F888669B6FBF7FC07FB1C66B5B278
:10409000214E06EBC502166836B900260661466158
:1040A0001060012696802CE0194F86693F68F61B48
:1040B000C661116820E0164F8E693F68F61BCE611D
:1040C000C669CF69BE4209D90E690EB1096913E00C
:1040D000002606614161086100210DE04E692EB99C
:1040E0000026466101614861106004E04B6943614C
:1040F00001611861486100210029DCD19688761C95
:104100009680D6889788BE4201DA9688D680F0BD20
:10411000F80000209C4F000850A10020002006E07D
:10412000054A02EBC0010022CA80421C90B2034A39
:1041300012889042F4DB704750A100209C4F000889
:104140001CB500BF53E001AB6A4600210846FDF7ED
:10415000A5FE01A8FDF7CEFAFCF752FE064624485C
:104160000068401C22490860084600682149098807
:10417000B0FBF1F201FB12001FFA80FA1E4800EBBF
:10418000CA08D8F800404FF0000B21E0F4B1D4F891
:1041900010901749A0690968884214D1204600F0A0
:1041A0002FF8208D022804D101212046FFF74EFF71
:1041B00002E0032084F82A00A56815B12046E168D2
:1041C000A8474C4604E04FF0010B01E04FF0010B13
:1041D000BBF1000FDAD0FCF713FE871B01A8FDF737
:1041E000C7FA06480068B84201D204480760AAE747
:1041F000F80000209C4F000850A10020F40000208F
:10420000F0B5114E36888569B5FBF6F706FB1755F4
:10421000ACB20E4D05EBC4021568854205D10169AB
:10422000116039B100254D6104E0416903690B61FA
:1042300003B15961012580F82A50002505614561C7
:1042400095886D1E9580F0BD9C4F000850A1002000
:1042500029B1064A92690243044B9A6104E0034A79
:1042600092698243014B9A6170470000001002403E
:1042700030B500210022002400232D4D6D6805F08B
:104280000C0121B1042905D0082923D105E0294DCD
:10429000056022E0274D05601FE0254D6D6805F49F
:1042A0007012234D6D6805F48034022505EB9242AF
:1042B0001CB9214D554305600BE01D4D6D6805F49B
:1042C00000351DB11C4D5543056002E0194D5543A5
:1042D000056002E0174D056000BF00BF144D6D681A
:1042E00005F0F0010909154D6B5C0568DD4045607E
:1042F0000F4D6D6805F4E061090A104D6B5C45686F
:10430000DD4085600A4D6D6805F46051C90A0B4DAA
:104310006B5C4568DD40C560054D6D6805F4404146
:10432000890B074D6B5CC568B5FBF3F5056130BDC6
:104330000010024000127A0000093D000000002039
:1043400010000020704710B500F002F810BD00000A
:104350000CB50020019000903348006840F4803094
:104360003149086000BF3048006800F40030009018
:104370000198401C0190009818B90198B0F5A06F01
:10438000F1D12948006800F4003010B101200090FC
:1043900001E0002000900098012843D123480068E4
:1043A00040F01000214908600846006820F0030032
:1043B00008600846006840F0020008601A4840683B
:1043C000194948600846406848600846406840F41B
:1043D000806048600846406820F47C1048600846C9
:1043E000406840F4E81048600846006840F080707B
:1043F000086000BF0C48006800F000700028F9D089
:104400000948406820F003000749486008464068B2
:1044100040F00200486000BF0348406800F00C0014
:104420000828F9D10CBD0000001002400020024015
:1044300010B51348006840F00100114908600846B3
:104440004068104908400E494860084600680E4917
:1044500008400B4908600846006820F48020086086
:104460000846406820F4FE0048604FF41F00886052
:10447000FFF769FF4FF000600449086010BD0000BD
:10448000001002400000FFF8FFFFF6FE08ED00E01C
:1044900021B1828942F40052828104E082894DF682
:1044A000FF731A408281704702460020B1F5007FF9
:1044B00000D100BF13880B400BB1012000E00020A9
:1044C000704700002DE9F04786B005460E460024EF
:1044D000A24600BFA1460027B08900B100BF2F4609
:1044E0002C8A4CF6FF700440F08804432C82AC897F
:1044F0004EF6F3100440B0883189084371890843AF
:104500000443AC81AC8A4FF6FF400440B0890443B9
:10451000AC8201A8FFF7ACFE1F48874202D1DDF84C
:1045200010A001E0DDF80CA0A88900F4004040B123
:104530000AEBCA0000EB0A1031684900B0FBF1F841
:1045400007E00AEBCA0000EB0A1031688900B0FBF3
:10455000F1F86420B8FBF0F004012009642101FBAC
:104560001089A88900F4004040B1322000EBC90056
:10457000B0FBF1F000F00700044308E0322000EB4C
:1045800009106421B0FBF1F000F00F0004432C810E
:1045900006B0BDE8F087000000380140C1F3080212
:1045A0008280704700BFFEE70FB4054B10B503A92A
:1045B000044A029800F0CAF810BC5DF814FB000031
:1045C0007D4E00080C01002002E008C8121F08C13F
:1045D000002AFAD170477047002001E001C1121F84
:1045E000002AFBD1704700002DE9FF5FDDE90220C2
:1045F000010DDDF838B0024318D044F61050A1F296
:10460000FF3141430D140F98012820D0A5EB0B007A
:10461000401C5FEA000A4FF00004474EDFF81C918F
:10462000A046504616D5CAF1000728E00F9801248D
:1046300043A2012808D0002100980F9BC0E9002167
:10464000C0E90243BDE8FF9F6FEA0B01F4E7CBF13D
:104650000000DEE7074612E0F80707D0224633469F
:1046600040464946FBF734FF80468946224633469A
:1046700010461946FBF72CFF04460E467F10002F0C
:10468000EAD1DDE90201BAF1000F42464B4602DAF7
:10469000FBF71EFF01E0FBF78DFF04460E460022EC
:1046A000284BFCF70FF803D84FF0FF30014607E026
:1046B0000022254B20463146FBF763FEFBF7E9FF5E
:1046C000102409E0002C0ADB0A220023FBF766FD18
:1046D000019B30321A55641E50EA0102F2D1641C6B
:1046E000019AC4F1110314440F9A012A03D0012244
:1046F00008430DD10AE0084304D000204FF0110B0D
:104700000F9080E7A3EB0B056D1E0DE05B4504DD0C
:104710004FF0000205F1010504E003DA4FF000025A
:10472000A5F10105002AECD000980F99C0E90231EB
:10473000C0E9004586E70000000024400000F03F8B
:10474000300000000000F0430000E03F2DE9FF4F83
:1047500095B09B468946064600250FE2252877D16D
:1047600000242746F84A0121059400E0044316F886
:10477000013F203B01FA03F01042F7D130782A289C
:1047800011D06FF02F033078A0F13002092A16D82B
:10479000059A44F0020402EB820203EB4202104449
:1047A000761C0590EFE759F8042B0592002A03DAEE
:1047B000504244F40054059044F00204761C3078D2
:1047C0002E2816D116F8010F44F004042A280DD023
:1047D0006FF02F023078A0F13003092B09D807EBD6
:1047E000870302EB4303C718761CF3E759F8047BF1
:1047F000761C30786C280FD006DC4C2817D068283F
:104800000DD06A2814D104E0742810D07A280FD172
:104810000DE044F400140AE044F4801401E044F490
:1048200040147278824202D104F58014761C761C02
:10483000307866280BD013DC582877D009DC0028A4
:1048400075D04528F6D04628F4D047281AD19DE1E6
:1048500018E0632835D0642879D0652812D195E115
:10486000702873D008DC6728F1D069286FD06E28D3
:104870000DD06F2806D1B5E073282CD0752875D0DF
:10488000782874D05A46179990476D1C75E1C4F387
:104890000250022809D003280DD0D9F800100428AE
:1048A0000DD00D6009F1040967E1D9F80010EA178D
:1048B000C1E90052F6E7D9F800100D80F2E70D705B
:1048C000F0E719F8041B8DF8001000208DF80100A6
:1048D000EA46012003E059F804AB4FF0FF306107CE
:1048E0004FF0000102D40DE008F101018846B94201
:1048F0000FDA8045F8DB1AF808100029F4D108E037
:1049000008F1010188468142FADB1AF808100029F3
:10491000F6D105985B46A0EB080721463846179A62
:1049200000F094FA284400EB080507E04DE029E187
:104930000DE01AF8010B5A4617999047B8F1010893
:10494000F7D25B4621463846179A13E142E00A2225
:104950000092C4F302524FF0000A022A08D059F81C
:1049600004CB032A4FEAEC710AD00DE029E02AE0DB
:1049700009F1070121F00702F2E802C1914609E0BE
:104980000FFA8CFC4FEAEC71042A03D14FFA8CFC2D
:104990004FEAEC71002907DA0A460021DCF1000C2D
:1049A00061EB02012D2202E0220504D52B228DF8B5
:1049B0000420012203E0E20701D02022F7E790461D
:1049C00059E00A2102E010220DE010214FF0000A08
:1049D00000910BE010224FF0000A44F00404082775
:1049E000009203E008224FF0000A0092C4F3025242
:1049F000022A05D059F804CB0021032A08D009E087
:104A000009F1070121F00702F2E802C1914605E031
:104A10001FFA8CFC042A01D10CF0FF0C4FF00008A7
:104A2000220728D5702806D0009B83F0100353EA94
:104A30000A0305D00EE040228DF80420012208E090
:104A40005CEA010206D030228DF804208DF80500C2
:104A500002229046009B83F0080353EA0A030AD11E
:104A60005CEA010201D1620705D530228DF80420ED
:104A70004FF001087F1E582804D034A003900EA8E0
:104A800002900DE036A0F9E753466046009AFBF726
:104A900085FB84460398825C0298401E0290027057
:104AA0005CEA0100F0D1029806A9081A00F1200A78
:104AB000600702D524F4803400E00127574502DD69
:104AC000A7EB0A0000E0002000EB0A010090059827
:104AD0004144401A0590E00306D45B462146179AEC
:104AE000059800F0B3F90544002706E001A85A46EE
:104AF000C05D179990476D1C7F1C4745F6DBE003AE
:104B00000CD55B462146179A059800F09FF905449D
:104B100004E030205A46179990476D1C0099481EB2
:104B200000900029F5DC08E0029802995A460078C6
:104B3000491C0291179990476D1CBAF10001AAF126
:104B4000010AF1DC65E1000009280100303132334F
:104B500034353637383961626364656600000000B9
:104B600030313233343536373839414243444546A3
:104B70000000000000F058F90544761C3078002849
:104B80007FF4ECAD19B02846BDE8F08F620700D481
:104B9000062709F1070222F0070CFCE80223E14690
:104BA00003F000485FEA080C02D00FF2702C0DE011
:104BB0005FEA045C02D50FF2682C07E05FEAC47C70
:104BC00002D00FF2602C01E0AFF2700C4FF0FF3812
:104BD00023F00043CDF850C065280CD006DC4528F2
:104BE00009D046281DD047283DD13DE0662818D081
:104BF00067287ED138E00021112F01DB112000E071
:104C0000781CCDE9000106A90EA8FFF7EDFCDDE94F
:104C10000F010E9A03910021009207F1010A0491FD
:104C20004DE04FF000400097CDE9011006A90EA815
:104C3000FFF7DAFCDDE90F0203920E9B11990022C7
:104C4000DDF80CA00093049211B9791C00EB010A65
:104C5000B7EB0A0004D4C0F1FF3007F1010A049059
:104C6000AAEB0700019044E0012F00DA01270021A0
:104C7000112F01DD112000E03846CDE9000106A921
:104C80000EA8FFF7B1FCDDE90F010E9A0391002198
:104C900004910092BA4621070CD40399514500DAD9
:104CA0008A46BAF1010F05DD009AAAF10101515CB3
:104CB000302908D0B84202DA10F1040F06DA0121D7
:104CC000CDE9011015E0AAF10101E9E7002805DCB2
:104CD000049901440491AAEB000102E0411C5145F2
:104CE00000DD8A460499401A401C01904FF00040B4
:104CF0000290200704D40198504501DBCDF80480D0
:104D000000208DF84F0002980DF14F07B0F1004FD1
:104D100025D02B200E9002984FF0020800280CDAC4
:104D2000404202902D200E9007E00A210298FBF7E6
:104D3000BCFA3031029007F8011DB8F10001A8F16A
:104D40000108F2DC02980028EFD1791E0E98087055
:104D5000307800F0200040F0450007F8020D12A85E
:104D6000C01B00F107081498007800B1012000EB87
:104D70000A01019801EBE07105984144401A401E78
:104D80000590E00306D45B462146179A059800F08B
:104D90005DF805441498007818B15A461799904761
:104DA0006D1CE00324D55B462146179A059800F058
:104DB0004DF805441CE00498002807DBDDE90301F9
:104DC000884203DD0098405C179901E01799302074
:104DD0005A469047049805F10105401C049001983B
:104DE000401E019004D12E205A46179990476D1C01
:104DF000BAF10001AAF1010ADDDC05E017F8010BA8
:104E00005A46179990476D1CB8F10001A8F10108A6
:104E1000F4DC5B462146179A0598ABE62D000000AE
:104E20002B000000200000002DE9F0410446002581
:104E30001E461746880404D405E039462020B047B2
:104E40006D1C641EF9D52846BDE8F0812DE9F041BE
:104E5000044600251E469046C80301D5302700E0D1
:104E60002027880404D505E041463846B0476D1C2C
:104E7000641EF9D52846BDE8F081000070B50446EF
:104E80000D46E1B20548FFF789FB00BF80210348CA
:104E9000FFF70AFB0028F9D0204670BD003801401A
:104EA00000B58BB00AA8FCF783FA0AA803210022F8
:104EB0000592CDE90621089010464FF40071332287
:104EC000094BCDE90132CDE9031002200023074A46
:104ED00007A100900A48FCF705FE0AA8FCF798FC19
:104EE00000200BB000BD000030040020E50A0008DF
:104EF000417070205461736B2053746172740000B0
:104F000010010020889000200C00000080000000AC
:104F1000000200000000000000000000000000008F
:104F20000000000000000000000000000000000081
:104F30008892002080000000000200006400000051
:104F400040060000889400201E0000000A000000B7
:104F5000C89A00200C000000800000000002000041
:104F600040000000E803000001000000C89C002091
:104F70000C00000080000000000200001100000092
:104F8000880000001D0000000A000000509F002063
:104F90000C00000080000000000200001100000072
:104FA0008800000050110000010101007856341201
:104FB00001010000000000000000000000000000EF
:104FC00000000000000000000000000000000000E1
:104FD00000000000000000000000000001010100CE
:104FE0002800040000000000000000000000000095
:104FF00000000000000000000000000000000000B1
:10500000000000000000000001002000010010006E
:105010000C00100000000000000000000000000074
:105020000000000000000000000000000000000080
:105030000000000000000000000000000000000070
:10504000010101002C00010120000C0020002000C3
:105050000400040000000000000000000000000048
:105060000000000000000000000000000000000040
:105070000000000000000000000000000000000030
:1050800000000000010101013000010000000000EB
:105090000000000000000000000000000000000010
:1050A0000000000000000000000000000000000000
:1050B000000000000101010128000C008001000037
:1050C000040101010101010101000101C800080002
:1050D00001010000000000000000000000000000CE
:1050E00000000000000000000000000000000000C0
:1050F00000000000000000000000000000000000B0
:1051000000000000000000000101340008005D768E
:10511000500500003D3D3D3D3D3D3D3D3D3D3D3D5E
:105120003D3D3D3D3D3D3D3D3D3D3D3D3D3D3D3DAF
:105130003D3D3D3D3D3D3D3D3D3D3D3D3D3D3D3D9F
:105140003D3D3D3D3D3D3D3D3D3D3D3D3D3D3D3D8F
:105150003D3D3D0D0A000000785100080000002090
:1051600010010000C8450008885200081001002006
:1051700078B50000D84500080000000001020304D3
:1051800001020304060708090204060800000000E3
:10519000000000000000000000000000010000000E
:1051A00000000000000000000000000000000000FF
:1051B00000000000000000000000000000000000EF
:1051C00000000000000000000000000000000000DF
:1051D00000000000000000000000000000000000CF
:1051E00000000000000000000000000000000000BF
:1051F00000000000000000000000000000000000AF
:10520000000000000000000000000000000000009E
:10521000000000000000000000000000000000008E
:10522000000000000000000000000000000000007E
:10523000000000000000000000000000000000006E
:10524000000000000000000000000000000000005E
:10525000000000000000000000000000000000004E
:10526000000000000000000000000000000000003E
:10527000000000000000000000000000000000002E
:08528000000000000000000026
:0400000508000131BD
:00000001FF
