:020000040800F2
:10000000D077002045010008C30B000891090008C3
:10001000010B00083905000819260008000000003F
:10002000000000000000000000000000B9230008EC
:10003000FD05000800000000E70100080D1A000897
:100040005F0100085F0100085F0100085F01000810
:100050005F0100085F010008150700085F01000844
:100060005F0100085F0100085F0100085F010008F0
:100070005F0100085F0100085F0100085F010008E0
:100080005F0100085F0100085F0100085F010008D0
:100090005F0100085F0100085F0100085F010008C0
:1000A0005F0100085F0100085F0100085F010008B0
:1000B0005F0100085F0100085F0100085F010008A0
:1000C0005F0100085F0100085F0100085F01000890
:1000D0005F0100085F0100085F0100085F01000880
:1000E0005F0100085F0100085F0100085F01000870
:1000F0005F0100085F0100085F0100085F01000860
:100100005F0100085F0100085F0100085F0100084F
:100110005F0100085F0100085F0100085F0100083F
:100120005F0100085F0100085F0100085F0100082F
:10013000DFF80CD000F0A0F800480047312A000892
:10014000D07700200648804706480047FEE7FEE7D4
:10015000FEE7FEE7FEE7FEE7FEE7FEE7FEE7FEE777
:10016000A52400083101000872B6704762B67047D6
:10017000EFF3108072B6704780F31088704730BF7D
:10018000704720BF7047B0FA80F0704790FAA0F037
:10019000B0FA80F0704790FAA0F07047EFF310804B
:1001A00072B6704780F3108870471F484FF0FF0108
:1001B0000170002080F309881C48016881F30888D9
:1001C0001B48012101701B484FF08051016062B64D
:1001D000FEE718484FF080510160704715484FF016
:1001E00080510160704772B6EFF3098028B1203862
:1001F00080E8F00F10490968086000B50F48804793
:100200005DF804EB0E480F490A7802700A480E495F
:100210000A680260106890E8F00F203080F30988C7
:100220004EF0040E62B6704722ED00E02800002078
:100230005600002004ED00E05C0000207515000869
:100240004B0000204C0000206400002030B50B461D
:10025000014600202022012409E021FA02F59D42F6
:1002600005D303FA02F5491B04FA02F52844151ECA
:10027000A2F10102F1DC30BD064C074D06E0E0685A
:1002800040F0010394E8070098471034AC42F6D3DD
:10029000FFF752FF882B0008A82B000810B504496F
:1002A000044800F0A3FB0449044800F09FFB10BD84
:1002B0005D09000814000020750900081C000020DA
:1002C00011E00948006880F001000749086007480C
:1002D000C06880F080000549C860002301221946EB
:1002E000184601F087F9ECE70C0C014000200140B2
:1002F00013E00A48C06880F040000849C8606423E1
:1003000000221146104601F075F9FF2000F0D0FFE1
:100310003F2802D1FF2000F015FFEAE7002001404E
:1003200000243BE01E4800F072FB1E4800F06FFB0B
:1003300000211B4800F063FB28B100F061F90121A6
:10034000174800F05CFB0021164800F058FBF8B19C
:100350004FF0E020006920F001004FF0E02108613B
:100360000121084601F07EFFFFF718FF044602F066
:1003700099F84FF0E020006940F001004FF0E021D3
:1003800008612046FFF70EFF0121064800F037FB09
:10039000142300221146104601F02CF9C2E7000098
:1003A000140000201C00002000B587B003200021AD
:1003B0004FF400721D4BCDE90310CDE901320090DE
:1003C00003461B4A1B4800F05BFE06AA1AA1032045
:1003D00000F0A8FF032000214FF40072184BCDE974
:1003E0000132CDE9031004200346164A0090164856
:1003F00000F046FE06AA15A1042000F093FF03209A
:1004000000214FF40072134BCDE90132CDE9031006
:1004100005200346104A0090104800F031FE06AA5D
:100420000FA1052000F07EFF07B000BD980200205C
:10043000940A0020C10200085441534B31000000CF
:10044000980A002094120020F10200085441534BF6
:100450003200000098120020941A002021030008A6
:100460005441534B3300000000F04AF800F066F8A6
:1004700000F052FB00F0D8FD08A002F0CFF8FFF723
:100480000DFF0FA002F0CAF8FFF78EFF05E0002372
:100490000A221946184601F0ADF8F8E74372656183
:1004A00074696E67204170706C69636174696F6E06
:1004B000204576656E74732E2E2E0A0D0000000006
:1004C0004372656174696E67204170706C69636125
:1004D00074696F6E205461736B732E2E2E0A0D009B
:1004E0007047704770477047704770477047704754
:1004F00000B585B0684601F0F5FE019805B000BD75
:1005000010B500F05FFB00F0C9FA00F043FA00F00C
:1005100057FA02F045FA00F031F800F001F810BD8A
:1005200070B5FFF7E5FF04464FF47A70B4FBF0F5C1
:10053000284601F07FFA70BD00BFFEE710B500F05D
:1005400019F810BD10B5002400BF00BFFFF710FE62
:10055000044600BF00BF1021054800F0D3FA00BFD9
:1005600000BF2046FFF708FE00BF00BF10BD00001F
:10057000981A002010B5FFF7E5FF10BD00B585B053
:100580000121880301F09EFE0121052001F09AFE61
:100590004FF40070ADF8100018208DF81300032000
:1005A0008DF8120004A9134800F042F94FF480605E
:1005B000ADF8100004208DF8130004A90D4800F0D8
:1005C00037F94FF4E13000900020ADF80400ADF8A9
:1005D0000600ADF80800ADF80C000C20ADF80A00DC
:1005E0006946054801F0A8FF0121034801F08AFF90
:1005F00005B000BD00080140003801407047000010
:100600007FB5134C13A002F009F820A002F006F801
:100610002AA002F003F80A2000F0B0FF15E0183419
:10062000A07F02A900F0C0FEDDE9021001446422AF
:100630005043B0FBF1F5A06BCDE90050A17F2BA09A
:10064000DDE9023201F0EAFF2468002CE7D17FBD2A
:10065000A85A00203D3D3D3D3D3D3D3D3D3D3D3D9C
:100660003D3D3D3D3D3D3D3D3D3D3D3D3D3D3D3DBA
:100670003D3D3D3D3D3D3D3D3D3D3D3D3D3D3D3DAA
:100680003D3D3D3D3D3D0D0A000000002020D3C50D
:10069000CFC8BCB6202020CAB9D3C3D5BB2020CA3E
:1006A000A3D3E0D5BB2020B0D9B7D6B1C820202035
:1006B000C8CECEF1C3FB0D0A00000000202050720E
:1006C000696F20202020205573656420202020465B
:1006D0007265652020202050657220202020202077
:1006E0005461736B6E616D650D0A0000202020253A
:1006F00032642020202025356420202020253564E8
:10070000202020202530326425252020202020256F
:10071000730D0A0010B5012000F00CF8012801D17A
:1007200000F002F810BD00000149086070470000A9
:1007300014040140014600200022074B1B6803EA15
:100740000102054B14331B680B4013B10AB10120A1
:1007500000E0002070470000000401400021234910
:100760008279002A3AD00A46126803689A430B46F7
:100770001A600A1D126803689A430B1D1A600279F9
:1007800011440A6803681A430A60184A083212685A
:1007900003689A43154B08331A601A1D12680368E0
:1007A0009A43124B0C331A604279102A0ED11A1F49
:1007B000126803681A430D4B08331A601A1D126839
:1007C00003681A43094B0C331A600DE0074942795C
:1007D00011440A6803681A430A6005E0027911446B
:1007E0000A6803689A430A607047000000040140E9
:1007F00030B500228B071C0F0F2303FA04F20B4BBA
:100800008C1053F824309343084C8D1044F8253055
:1008100023468C1053F824308C07240F00FA04F47C
:100820002343024C8D1044F8253030BD08000140B0
:100830002DE9F04102460025002600200023002477
:10084000002791F803C00CF00F0591F803C00CF0DD
:10085000100CBCF1000F03D091F802C04CEA050562
:1008600091F800C0BCF1000F31D0146800202BE0DB
:100870004FF0010C0CFA00F3B1F800C00CEA0306CB
:100880009E4220D183004FF00F0C0CFA03F7BC43BB
:1008900005FA03FC4CEA040491F803C0BCF1280FEC
:1008A00006D14FF0010C0CFA00FCC2F814C00AE0AB
:1008B00091F803C0BCF1480F05D14FF0010C0CFAC0
:1008C00000FCC2F810C0401C0828D1D31460B1F855
:1008D00000C0BCF1FF0F34DD546800202EE000F1B1
:1008E000080C4FF0010808FA0CF3B1F800C00CEA4C
:1008F00003069E4221D183004FF00F0C0CFA03F740
:10090000BC4305FA03FC4CEA040491F803C0BCF1B3
:10091000280F05D100F1080C08FA0CF8C2F8148071
:1009200091F803C0BCF1480F07D100F1080C4FF05B
:10093000010808FA0CF8C2F81080401C0828CED331
:100940005460BDE8F0810246002093680B400BB173
:10095000012000E0002070474161704710B501217F
:100960000348FFF7F0FF012800D110BD0020FCE78D
:100970000008014010B54FF400510448FFF7E3FFB1
:1009800008B9012010BD0020FCE700000010014064
:1009900000BFFEE708B50121042001F093FC01200F
:1009A000ADF8000003208DF8020004208DF803004C
:1009B00069460248FFF73CFF08BD000000080140FF
:1009C00008B50121102001F07DFC4FF40050ADF876
:1009D000000003208DF8020004208DF80300694612
:1009E0000148FFF725FF08BD00100140016000220B
:1009F00002710222427182710022C2717047024666
:100A000001F001030BB1002313711079704710B589
:100A10000446607901281ED0022804D0032822D081
:100A2000042839D107E02068804718B10020E07120
:100A30000420607130E0E0790A30E071E0790A2842
:100A400008DB2068804718B10120A071607101E0C7
:100A50000220607120E02068804718B90020E07112
:100A60000320607118E0E0790A30E071E0790A282B
:100A700011DB2068804760B90120A07102206071FD
:100A80002079401C20712079FA2804DDFA20207199
:100A900001E00120607100BF00BF10BD08B5012159
:100AA0004FF4847001F00EFC0120ADF8000003202B
:100AB0008DF8020010208DF8030069460E48FFF7FC
:100AC000B7FE4020ADF8000069460C48FFF7B0FEC5
:100AD0008020ADF8000069460848FFF7A9FE012113
:100AE0000548FFF739FF40210448FFF735FF802113
:100AF0000248FFF731FF08BD000C01400020014013
:100B000000BFFEE730B505460C46224600212846C8
:100B100000F026F830BD00000D480E490160014686
:100B2000416000218160C160016141618161C161F9
:100B300001620163C162416207498163C1634FF48D
:100B40002051016441640146044A1160704700006D
:100B5000A81A002048454150F01A00202400002027
:100B60002DE9F04103460C4617460FB9BDE8F08168
:100B700003B9FBE70025002202E02D022543521CA9
:100B8000042AFAD3384603F0030C1946BCF1000FCF
:100B900008D0624603E001F8014B401E521C08B128
:100BA000042AF8D30E4601E020C6001F0428FBD219
:100BB000314602E001F8014B401E0028FAD100BF87
:100BC000D4E7704710B54FF4A06000F039F810BDBD
:100BD00070B5002100230F22C47804B3154C24689B
:100BE00004F4E064C4F5E064210AC1F10403CA40DE
:100BF000447804FA03F184781440214309010E4C2F
:100C00000678A155047804F01F050124AC4005784E
:100C10006D11AD0005F1E025C5F8004109E004784B
:100C200004F01F050124AC40044D0678761145F808
:100C3000264070BD0CED00E000E400E080E100E043
:100C400002490143024A1160704700000000FA05A2
:100C50000CED00E02DE9F04105460E461446002754
:100C60001148007818B112202070BDE8F081287872
:100C7000012808D0022807D0032802D0042804D174
:100C800000E000BF00BF00BF02E001202070ECE7E1
:100C900000BFFFF783FA07466E613846FFF782FA16
:100CA0000020207000BFE0E74900002010B500F0F0
:100CB00017F801F00DF801F039F801F059F800F0DB
:100CC000D7FF00F097FF01F0EDF801F017F901F000
:100CD0008FF801F0B5F800F05FFD00F019F810BDD5
:100CE0000748802102E0491E002204C00029FAD1F1
:100CF000044A054B1A600022044B1A80704700001A
:100D0000F0420020EC440020280000202C000020AD
:100D10007047000010B500241A480078012830D12F
:100D2000FFF73CFA04461848007820B116480078CE
:100D3000401E1549087014480078F8B91348007827
:100D4000E0B901F03DF912481249097850F8210044
:100D5000114908600F4800781049097888420DD081
:100D60000D480068C06B401C0B490968C8630C48FB
:100D70000068401C0A490860FFF730FA2046FFF778
:100D800011FA10BD56000020490000204A00002042
:100D9000A85900204C000020640000204B000020D7
:100DA0003000002010B500240B480078012811D134
:100DB000FFF7F4F904460948007840B9084800787C
:100DC000FF2804D206480078401C054908702046D8
:100DD000FFF7E8F910BD0000560000204900002090
:100DE0004A00002010B5002413480078012821D1C2
:100DF000FFF7D4F9044611480078C0B910480078CC
:100E000088B10F480078401E0D49087008460078E8
:100E100028B92046FFF7C6F901F098F80AE0204605
:100E2000FFF7C0F906E02046FFF7BCF902E02046D4
:100E3000FFF7B8F910BD000056000020490000205F
:100E40004A00002070B5054600261048007808B119
:100E5000002070BDFFF7A2F906460D48046800683F
:100E600020B10B4800684068094908603046FFF728
:100E700099F94CB10320207025810020606005A005
:100E80006061204600F0A8FE2046E2E7490000200D
:100E9000340000203F0000002DE9F04105460E46D9
:100EA000144600272878032803D001202070BDE8CD
:100EB000F0813248007810B102202070F7E7304806
:100EC000007810B10D202070F1E7FFF767F90746B1
:100ED000288940B12889401E28813846FFF762F9E9
:100EE00000202070E3E72748006890F8340040F0C5
:100EF00001002449096881F834000020214909686B
:100F000081F835001F4800680663284600F026FE79
:100F10003846FFF747F901F019F8FFF73FF90746A0
:100F20001848006890F8350020B1012809D002283F
:100F300006D102E0002020700BE00E20207008E0B7
:100F400000BF29460F48006800F0D6FD0A20207037
:100F500000BF00BF00200B49096881F8340009492F
:100F6000096881F8350007490968C86105490968B9
:100F700008623846FFF716F900BF98E749000020DD
:100F80004A0000205C00002070B50446002520784F
:100F9000032801D0012070BDFFF700F90546A07AB3
:100FA00060B1002301221946204600F05DFD28466D
:100FB000FFF7F8F800F0CAFF0020ECE720894FF6B1
:100FC000FF71884207D22089401C20812846FFF704
:100FD000E9F80020DFE72846FFF7E4F83320DAE7F6
:100FE00010B50B48007890B900F0EAFF0948007886
:100FF0000949087009480749097850F8210008494B
:1010000008600846006807490860FFF7CEF810BD81
:10101000560000204C0000204B000020A859002062
:10102000640000205C00002010B50024022000F0C5
:10103000A5FAFFF7B3F8044600200B4908602046E4
:10104000FFF7B0F8642000F099FAFFF7A7F804461C
:1010500005480068054908600120054908702046D8
:10106000FFF7A0F810BD000058000020400000204D
:101070004800002010B504462046FFF731FA10BDA5
:101080002DE9F04F85B081468A4693461C46DDE93E
:101090000F78129D00200390FFF780F803902348FB
:1010A000007830B10398FFF77DF83C2005B0BDE82B
:1010B000F08F1F4850F8240088BB01201C4941F8DC
:1010C00024000398FFF76EF82A464146384601F09F
:1010D000BBF82B465A465146484600F0A9F9049001
:1010E0001198CDE9008002953A4620460E9B04995E
:1010F00000F07CFF064636B90E48007801280CD176
:1011000000F024FF09E0FFF749F8039000200849A8
:1011100041F824000398FFF745F83046C6E7FFE79B
:101120000398FFF73FF82820C0E70000490000209F
:10113000A85900205600002010B504462046FFF7AD
:10114000D0F910BD2DE9F041054600274A48007846
:1011500010B14020BDE8F0813F2D01D13E20F9E7DC
:10116000FFF71CF80746FF2D03D14448006890F8AC
:101170003650434850F8254024B93846FFF712F856
:101180004320E7E7012C04D13846FFF70BF83D2058
:10119000E0E714F8380F3B49085C61788843217810
:1011A000384A505414F838091146085C30B994F89C
:1011B0003A1035480078884333490870E06918B11F
:1011C0002046E16900F098FC206A18B12046216AA7
:1011D00000F0A7FCA66A16B1304600F037FD0020EB
:1011E000206384F8340084F8350028480078FF280C
:1011F00004D226480078401C244908703846FEF77F
:10120000D1FF00F02FFCFEF7C9FF07461F4800780A
:1012100020B11E480078401E1C490870204600F08E
:1012200041F81B480078401E1949087000201449F5
:1012300041F82500A06930B900206169886115492D
:101240006069086005E0D4E905014861D4E905104A
:1012500088611148006860610F4804600FA0206534
:101260003846FEF79FFF0E480078012801D100F0B4
:101270006DFE00206EE70000490000205C000020A9
:10128000A85900204E0000204D0000204A000020F8
:101290005700002068000020600000203F00000090
:1012A0005600002010B504462046FFF71BF910BD7C
:1012B0002DE9F041044600273F2C02D13E20BDE835
:1012C000F081FF2C0BD1FEF769FF0746114800683B
:1012D00090F83B603846FEF765FF3046EFE7FEF7D3
:1012E0005DFF07460C4850F8245025B93846FEF7F4
:1012F00059FF4320E3E7012D04D13846FEF752FFA2
:101300003D20DCE73F2085F83B003846FEF74AFFEA
:101310000020D4E75C000020A859002010B5FFF79A
:10132000E2F810BD2DE9F04106460F4614464FF095
:1013300000081548007818B112202070BDE8F0812F
:10134000FEF72CFF8046FF2E03D11048006890F86E
:1013500036600F4850F826502DB94046FEF722FF60
:1013600043202070EAE7012D05D14046FEF71AFF21
:1013700043202070E2E72F654046FEF713FF002070
:10138000207000BFDAE70000490000205C00002068
:10139000A859002010B504462046FFF7A5F810BD57
:1013A00010B5FFF7A2F810BD2DE9F04707460D462E
:1013B0004FF0000A002028606860FEF7EFFE8246CA
:1013C000FF2F03D11848006890F83670174850F87E
:1013D00027402CB95046FEF7E5FE4320BDE8F087D4
:1013E000012C04D15046FEF7DDFE4320F6E7207CB9
:1013F00000F0010020B95046FEF7D4FE4520EDE78D
:101400000026D4F80C90D4F808805046FEF7CAFEA7
:1014100000E0761C58F8041B0029FAD02E60A9EBD6
:10142000060068600020D9E75C000020A859002071
:1014300070B5044610464FF080750560051F2846BC
:101440002C60214E051F28462E604FF01236051FD6
:1014500028462E604FF00336051F28462E604FF0B9
:101460000236051F28462E607610051F28462E607E
:10147000051F284629604FF01136051F28462E60AB
:101480004FF01036051F28462E604FF00936051F15
:1014900028462E604FF00836051F28462E604FF074
:1014A0000736051F28462E604FF00636051F2846D2
:1014B0002E604FF00536051F28462E604FF004368B
:1014C000051F28462E6070BD552100082DE9F0410A
:1014D00005464FF00008FEF761FE8046FF2D05D15E
:1014E0002048006890F83650012608E01D48006842
:1014F00090F83600A84201D1012600E000261A48E3
:1015000050F825402CB94046FEF74CFE4820BDE877
:10151000F081012C04D14046FEF744FE4320F6E75B
:1015200094F838701148C05D94F8391088430F4919
:10153000C8550846C05D30B994F83A100C48007898
:1015400088430B49087094F8340040F0080084F890
:1015500034004046FEF726FE012E01D100F0F6FCD5
:101560000020D4E75C000020A85900204E00002095
:101570004D00002010B5FEF7B9FF10BD70B505464F
:1015800000261748007800B170BD1648007800B1F9
:10159000FAE71DB3FEF702FE06461348006890F80E
:1015A00038401248005D1049096891F839108843A5
:1015B0000E4908550846005D40B90B48006890F890
:1015C0003A100B48007888430949087006480068BB
:1015D00005633046FEF7E6FD00F0B8FC00BFD3E738
:1015E000490000204A0000205C0000204E0000203E
:1015F0004D0000202DE9F04105460E4617461C46D9
:101600001248007810B15520BDE8F08110480078EC
:1016100008B13220F8E74FF47A7060434FF47A71E2
:10162000B0FBF1F14FF461606843C6EB061200EBCA
:101630008200384400EB4002C2EBC01001EBC0084E
:101640004046FFF79BFF0020DEE700004900002036
:101650004A00002070B504460025FEF79FFD0546B0
:10166000024804602846FEF79DFD70BD7C00002006
:1016700070B5002600F072F8FEF790FD064631487E
:101680000068401C2F4908603046FEF78BFD2E484D
:101690000078012853D12D48007820B1012804D0CA
:1016A000022809D103E001250BE0002509E001250E
:1016B00001202649087004E0012500202349087014
:1016C00000BF00BF05B970BD2148046833E0FEF7D4
:1016D00065FD0646206B50B3206B401E2063206BD7
:1016E00028BB94F8340000F0370040B114F8340FF0
:1016F00000F0C800207001206070343C02E000203F
:1017000084F8350094F8340000F0080078B93834D3
:10171000A0781049097808430E49087020780E49CE
:10172000085C6178084314F838190B4A505464690E
:101730003046FEF737FD94F836003F28C7D100BF8A
:10174000C1E700007C000020560000206C00002053
:10175000680000204D0000204E00002010B5FEF76C
:10176000C6FE07480088401C0549088008460088D6
:10177000642803DB0020088000F004F810BD00009E
:101780002C00002010B503480068FFF7FDFB04465D
:10179000204610BD8C000020F8B54FF42071284879
:1017A00000F076FB4021274800F072FB002514E092
:1017B000681C86B205EB8500214901EBC00406EBED
:1017C000860001EBC00764202070002084F825000B
:1017D000E7601DA02062681C85B20F2DE8D305EBE1
:1017E0008500174901EBC00464202070002084F8B4
:1017F0002500E06014A0206200201449086014490C
:1018000008801020134908800D4813490860012002
:10181000FFF718FB114908600020FFF713FB104980
:1018200008606A460FA10D480068FFF713FA6A4680
:1018300011A10B480068FFF70DFA00F027F8F8BD7A
:1018400010630020906700203F000000840000200B
:1018500082000020800000209000002088000020EE
:101860008C00002075432F4F532D494920546D7231
:101870004C6F636B0000000075432F4F532D494997
:1018800020546D725369676E616C000000B587B0BB
:101890000320002180220A4BCDE90132CDE903105B
:1018A0004FF6FD703D23074A00900748FFF7E8FB1D
:1018B00006AA06A13D20FFF735FD07B000BD0000D8
:1018C000906500208C6700204919000875432F4F50
:1018D000532D494920546D720000000070B50B462D
:1018E000032580F82550012B05D1154EC5693668B2
:1018F000354445610CE085692DB9114EC5693668DE
:101900003544456104E00E4E8569366835444561CD
:10191000057D05F007040B4D05EBC4010D682DB9DD
:1019200008600025C56001258D8006E00A68086012
:10193000C26010618D886D1C8D800025056170BDB1
:10194000840000209067002008B500BF00BF6A46F1
:1019500000211A480068FFF79FFAFFF723FA18489A
:101960000068401C164908600846007800F0070827
:10197000144800EBC8073C681AE0E6681049606943
:101980000968884213D1204600F01EF894F824001C
:10199000022804D101212046FFF7A0FF02E0022027
:1019A00084F82500656815B12046A168A84734462B
:1019B000002CE2D1FFF716FAC9E700008C000020E6
:1019C000840000209067002030B5057D05F00704F5
:1019D0000D4D05EBC4031D68854205D1C168196032
:1019E00039B100250D6104E00169C268CA6002B125
:1019F0001161012580F825500025C56005619D888D
:101A00006D1E9D8030BD00009067002010B5FEF770
:101A1000C5FB044606480078401C0549087020466E
:101A2000FEF7C0FBFFF724FEFFF774F910BD0000BE
:101A300049000020411E4FF0E0225161FF21084A79
:101A400011704FF0E021096941F005014FF0E022EB
:101A500011611146096941F00201116170470000EE
:101A600023ED00E0704700002DE9F04F05460F46DA
:101A700090469946A87A1C490E5C05F10B00805DE2
:101A800011F800B00BEBC60000F0FF0A174850F841
:101A90002A4000202434E0602760207C20EA0800EF
:101AA000207484F81190207C243C00F0080068B970
:101AB00094F83A000E49097808430D4908700D481A
:101AC000805D94F8391008430A4988552946204614
:101AD00000F012F8206A20B12046216A00F021F8B7
:101AE000E5615046BDE8F08F882A0008A85900201B
:101AF0004D0000204E00002010B590F8382001F174
:101B00000B039B5C90F83940A34301F10B04A354F1
:101B100023469B5C23B98B7A90F83A40A3438B729F
:101B200010BDF0B5024612F8384F95785678383A1D
:101B30000B4618680FE000F10B073F5DB74300F15B
:101B40000B0C0CF8047067463F5D17B9877AAF43FA
:101B500087721B1D18680028EDD1F0BD10B51B4A17
:101B60001268D061194A126892F8383000F10B02FD
:101B7000D25C164B1B6893F839301A43134B1B6821
:101B800093F8384000F10B031A55827A0F4B1B680B
:101B900093F83A301A4382720C4A126892F838105D
:101BA0000B4A525C094B1B6893F839309A43084B37
:101BB0005A541A46525C42B9044A126892F83A30B2
:101BC000044A12789A43034B1A7010BD5C0000203F
:101BD0004E0000204D000020014600228A720020A5
:101BE00005E0002301F10B021354421CD0B2082877
:101BF000F7D370472DE9F0415021114800F048F922
:101C000000250DE0681C86B20D4800EB051400EBC2
:101C100006170020207067600AA0E060681C85B28B
:101C2000042DEFD3064800EB0514002020706060FF
:101C300004A0E060024804490860BDE8F0810000AB
:101C4000585500203F0000003800002030B5014604
:101C50004A6808682AB9CC68606028B100254560E8
:101C600002E0106000B142608B6800259D6230BDCB
:101C700070B541F26801134800F00AF9002411E040
:101C8000601C85B204EB44000E4901EBC00305EB78
:101C9000450001EBC006002018705E600AA0586184
:101CA000601C84B2AE2CEBD304EB4400054901EB7D
:101CB000C00300201870586003A05861084603490B
:101CC000086070BDF04400203F0000003400002098
:101CD00000200B4908600B4908700B4908700B493C
:101CE00008700B4908700B4908600B4908600B49E4
:101CF00008600B4908600B4908700B490870704771
:101D00007C000020490000204A00002057000020ED
:101D10005600002030000020580000204400002021
:101D200040000020480000207800002000210A4ADE
:101D30001170002004E00021084A1154411CC8B26F
:101D40000828F8D30021064A1170064A1170064A85
:101D50001160064A116070474D0000204E000020BF
:101D60004B0000204C000020640000205C0000209C
:101D700070B54FF4F261194800F08AF84FF48071A1
:101D8000174800F085F8002413E0601CC5B204EB8E
:101D9000440000EBC400114901EBC00305EB450012
:101DA00000EBC50001EBC0065E610EA01865601C6B
:101DB000C4B2152CE9D304EB440000EBC40007497E
:101DC00001EBC0030020586106A0186500200649F9
:101DD000086002480549086070BD0000A85A00204C
:101DE000A85900203F00000068000020600000208B
:101DF00000B587B00320002180220A4BCDE90132D3
:101E0000CDE903104FF6FF703F23074A00900748C3
:101E1000FFF736F906AA06A13F20FFF783FA07B0BD
:101E200000BD0000A8570020A45900202D21000863
:101E300075432F4F532D49492049646C65000000BC
:101E400000B587B00320002180220A4BCDE9013282
:101E5000CDE903104FF6FE703E23074A0090074875
:101E6000FFF70EF906AA06A13E20FFF75BFA07B0BE
:101E700000BD0000A8550020A45700206D210008D7
:101E800075432F4F532D494920537461740000004E
:101E900004E0002200F8012B4A1E91B20029F8D17B
:101EA0007047000070B578211148FFF7F1FF00245A
:101EB0000EE004EB44000E4901EBC005601C00EB92
:101EC000400001EBC00068600AA06861601C84B239
:101ED000042CEED304EB4400054901EBC0050020BF
:101EE000686004A0686108460349086070BD00008E
:101EF000386200203F000000700000202DE9F04112
:101F000060211048FFF7C4FF00240DE0601C86B27A
:101F100004EB44000B4901EBC00506EB460001EB66
:101F2000C0072F60601C84B2032CEFD304EB440085
:101F3000044901EBC00500202860084602490860FA
:101F4000BDE8F081B06200207400002010B50024CC
:101F5000FEF724F9044613480078F8B912480078CF
:101F6000E0B900F02DF811481149097850F8210026
:101F7000104908600E4800780F49097888420DD052
:101F80000C480068C06B401C0A490968C8630B48CC
:101F90000068401C09490860FEF71BF92046FEF75F
:101FA00001F910BD490000204A000020A859002076
:101FB0004C000020640000204B0000203000002076
:101FC0000649074A1278885C0649095C034A515C55
:101FD00001EBC001044A117070470000882A000814
:101FE0004D0000204E0000204C0000202DE9F84F4D
:101FF00005460F4690469946DDE90AAB0020009061
:10200000FEF7CCF8009042480468002C7BD01C34CA
:1020100054F8080C3E4908600098FEF7C3F844F8ED
:102020001C7CA576002020766076606144F818BCA0
:1020300044F810AC44F8148C0C9824F80C0C24F8D8
:102040000A9C0020E077E810207705F00700E07692
:10205000217F01208840A077E17E012088406077C1
:10206000002020606060E060A0602062A06260628A
:10207000E062206327A060631C3C002606E000218C
:1020800004F1540040F82610701CC6B2012EF6DB95
:102090002046FEF7EFFFFEF781F800901E4840F85B
:1020A00025400098FEF77EF82046FFF745F8FEF73A
:1020B00075F800901948006860610020A061174819
:1020C000006810B115480068846114480460383411
:1020D000A0781349097808431149087020781149FC
:1020E000085C6178084314F838190E4A50540E48B9
:1020F0000078401C0C4908700098FEF753F8002047
:10210000BDE8F88FFFE70098FEF74CF84220F7E7AC
:10211000600000203F000000A85900206800002057
:102120004D0000204E00002057000020002400BF7A
:1021300000BFFEF733F8044605480068401C044918
:1021400008602046FEF72EF8FFF7E8F8F1E70000F8
:102150005800002010B504480068FFF71BF9FF2065
:10216000FEF7F0FF10BD00005C00002000BF00BFC4
:1021700002E0C820FFF702FA1F4800780028F8D0D4
:102180001E4800686421B0FBF1F01C490860084655
:10219000006828B900201A490870FF20FFF796F957
:1021A000FDF7FCFF044615480068642148431549C3
:1021B00008602046FDF7F6FF00BFFDF7EFFF04467D
:1021C000104800681049086000200E490860204649
:1021D000FDF7E8FF0C48006808490968B0FBF1F01A
:1021E000C0F1640006490870FFF7DAF800F00EF855
:1021F0006420FFF7C3F9E0E748000020400000201A
:102200003C00002058000020440000207CB5002540
:1022100014E069462846FFF7C7F8064666B909483C
:1022200050F8254044B1012C06D0D4E9020100EB5E
:102230008100A0640198E064681CC5B23F2DE8DD10
:102240007CBD0000A859002002F0010343B102F058
:1022500002032BB102E0491E002308C00029FAD175
:102260007047000010B5024600200C4B186820F0A3
:102270000300104318600A4B1B6843F00403084C2A
:102280002360012901D130BF00E020BF044B1B684F
:1022900023F00403024C236010BD000000700040D6
:1022A00010ED00E029B1064AD2690243044BDA611D
:1022B00004E0034AD2698243014BDA6170470000AF
:1022C0000010024029B1064A92690243044B9A6108
:1022D00004E0034A92698243014B9A61704700000F
:1022E0000010024030B500210022002400232D4DB3
:1022F0006D6805F00C0121B1042905D0082923D10E
:1023000005E0294D056022E0274D05601FE0254DC1
:102310006D6805F47012234D6D6805F48034022554
:1023200005EB92421CB9214D554305600BE01D4D54
:102330006D6805F400351DB11C4D5543056002E084
:10234000194D5543056002E0174D056000BF00BF01
:10235000144D6D6805F0F0010909154D6B5C0568B9
:10236000DD4045600F4D6D6805F4E061090A104DD0
:102370006B5C4568DD4085600A4D6D6805F4605111
:10238000C90A0B4D6B5C4568DD40C560054D6D6845
:1023900005F44041890B074D6B5CC568B5FBF3F54F
:1023A000056130BD0010024000127A0000093D00B6
:1023B0000000002010000020704710B500F002F867
:1023C00010BD00000CB5002001900090334800685B
:1023D00040F480303149086000BF3048006800F4A4
:1023E000003000900198401C0190009818B90198A5
:1023F000B0F5A06FF1D12948006800F4003010B1A9
:102400000120009001E0002000900098012843D1B5
:102410002348006840F01000214908600846006821
:1024200020F0030008600846006840F002000860E1
:102430001A4840681949486008464068486008469C
:10244000406840F4806048600846406820F47C1092
:1024500048600846406840F4E81048600846006854
:1024600040F08070086000BF0C48006800F0007009
:102470000028F9D00948406820F003000749486067
:102480000846406840F00200486000BF03484068CA
:1024900000F00C000828F9D10CBD0000001002402B
:1024A0000020024010B51348006840F001001149B7
:1024B000086008464068104908400E4948600846D0
:1024C00000680E4908400B4908600846006820F47F
:1024D000802008600846406820F4FE0048604FF401
:1024E0001F008860FFF769FF4FF000600449086033
:1024F00010BD0000001002400000FFF8FFFFF6FED4
:1025000008ED00E021B1828942F40052828104E0AA
:1025100082894DF6FF731A4082817047024600207F
:10252000B1F5007F00D100BF13880B400BB1012033
:1025300000E00020704700002DE9F04786B0054616
:102540000E460024A24600BFA1460027B08900B174
:1025500000BF2F462C8A4CF6FF700440F0880443DD
:102560002C82AC894EF6F3100440B08831890843C0
:10257000718908430443AC81AC8A4FF6FF400440A4
:10258000B0890443AC8201A8FFF7ACFE1F48874224
:1025900002D1DDF810A001E0DDF80CA0A88900F45C
:1025A000004040B10AEBCA0000EB0A103168490054
:1025B000B0FBF1F807E00AEBCA0000EB0A10316843
:1025C0008900B0FBF1F86420B8FBF0F004012009A9
:1025D000642101FB1089A88900F4004040B1322039
:1025E00000EBC900B0FBF1F000F00700044308E085
:1025F000322000EB09106421B0FBF1F000F00F0075
:1026000004432C8106B0BDE8F0870000003801408B
:10261000C1F308028280704700BFFEE70FB4054B8C
:1026200010B503A9044A029800F018F810BC5DF830
:1026300014FB00000D2A00089400002002E008C8E6
:10264000121F08C1002AFAD170477047002001E02C
:1026500001C1121F002AFBD1704700002DE9FF4F76
:102660008BB088460546002606E025280BD0DDE91C
:102670000D1290476D1C761C28780028F5D10FB0FC
:102680003046BDE8F08F0024A146A2460122AE49A3
:1026900000E0044315F8013F203B02FA03F0084232
:1026A000F7D128782A2810D06FF02F022878A0F1CF
:1026B0003001092915D809EB890102EB410144F0E9
:1026C000020400EB01096D1CF0E758F8041B5FEAF7
:1026D000010903D544F40054C9F1000944F002048F
:1026E0006D1C28782E2817D115F8010F44F004042A
:1026F0002A280ED06FF02F022878A0F13001092986
:102700000AD80AEB8A0102EB410100EB010A6D1CB9
:10271000F2E758F804AB6D1C28786C280FD006DC63
:102720004C2817D068280DD06A2814D104E07428EA
:1027300010D07A280FD10DE044F400140AE044F4DC
:10274000801401E044F440146978814202D104F518
:1027500080146D1C6D1C2878692865D006DC002863
:102760008DD0632827D0642806D15DE06E2808D07C
:1027700073282AD0752877D0DDE90D129047761C92
:10278000E0E0C4F30250022809D003280DD0D8F8A5
:10279000001004280DD00E6008F10408D2E0D8F82B
:1027A0000010F217C1E90062F6E7D8F800100E80B9
:1027B000F2E70E70F0E718F8041B8DF80010002007
:1027C0008DF80100EB46012003E058F804BB4FF000
:1027D000FF3061074FF0000701D40AE07F1C574526
:1027E0000DDA8742FADB1BF807100029F6D106E064
:1027F0007F1C8742FCDB1BF807100029F8D1DDE9BC
:102800000D23A9EB07008146214600F0B1F83044C2
:10281000C61904E0DDE90D121BF8010B90477F1E7D
:10282000F8D22146484688E058F8040BC4F3025118
:102830004FF00A0B032900D100B2042900D140B2A5
:10284000002802DA40422D2102E0210505D52B2186
:102850008DF82410012104E006E0E10710D02021CA
:10286000F6E708AF089113E058F8040BC4F30251DF
:102870004FF00A0B032900D180B2042900D1C0B265
:102880000021EEE75946FDF7E1FC303107F8011D64
:102890000028F7D1ADEB070000F1200B600702D54F
:1028A00024F4803401E04FF0010ADA4502DDAAEB9E
:1028B0000B0000E00020824600EB0B010898014469
:1028C000A9EB01000A90E00306D4DDE90D232146BF
:1028D0000A9800F04DF806444FF0000908E009A9F5
:1028E00011F80900DDE90D12904709F10109761C84
:1028F00008998945F3DBE0030CD5DDE90D2321467A
:102900000A9800F035F8064404E0DDE90D123020A5
:102910009047761CBAF10001AAF1010AF5DC05E046
:10292000DDE90D1217F8010B9047761CBBF1000191
:10293000ABF1010BF4DC0A982146DDE90D2300F030
:1029400005F806446D1C97E6092801002DE9F041C1
:10295000044600251E461746880404D405E039467F
:102960002020B0476D1C641EF9D52846BDE8F081D3
:102970002DE9F041044600251E469046C80301D5C6
:10298000302700E02027880404D505E0414638467A
:10299000B0476D1C641EF9D52846BDE8F0810000E3
:1029A0001FB501210807FFF77DFC01210520FFF776
:1029B00089FC0120ADF80C0004208DF80F0003A95C
:1029C0001148FDF735FF00210846FDF711FF0120F2
:1029D000019000208DF8080008208DF809000120E2
:1029E0008DF80A0001A8FDF7B9FE06208DF8000059
:1029F00000208DF801008DF8020001208DF8030001
:102A00006846FEF7E5F81FBD0008014070B50446B2
:102A10000D46E1B20548FFF7FBFD00BF80210348EA
:102A2000FFF77CFD0028F9D0204670BD003801403A
:102A300000B587B0FEF73AF90320002180220C4B45
:102A4000CDE90132CDE9031002200346094A009086
:102A50000948FEF715FB0020FEF7FCFD06AA07A1BA
:102A60000220FEF75FFCFEF7BBFA002007B000BDB6
:102A700098000020940200206904000853746172D9
:102A800074205461736B000000000100020001001B
:102A90000300010002000100040001000200010027
:102AA0000300010002000100050001000200010016
:102AB0000300010002000100040001000200010007
:102AC00003000100020001000600010002000100F5
:102AD00003000100020001000400010002000100E7
:102AE00003000100020001000500010002000100D6
:102AF00003000100020001000400010002000100C7
:102B000003000100020001000700010002000100B3
:102B100003000100020001000400010002000100A6
:102B20000300010002000100050001000200010095
:102B30000300010002000100040001000200010086
:102B40000300010002000100060001000200010074
:102B50000300010002000100040001000200010066
:102B60000300010002000100050001000200010055
:102B70000300010002000100040001000200010046
:102B80000300010002000100A82B00080000002043
:102B9000980000003C260008402C00089800002007
:102BA000387700004C2600080000000001020304F2
:102BB00001020304060708090204060800000000D9
:102BC0000000000000000000000000000000000005
:102BD00000000000000000000000000000000000F5
:102BE00000000000000000000000000000000000E5
:102BF00000000000000000000000000000000000D5
:102C000000000000000000000000000000000000C4
:102C100000000000000000000000000000000000B4
:102C200000000000000000000000000000000000A4
:102C30000000000000000000000000000000000094
:0400000508000131BD
:00000001FF
